{
	"data": {
		"bytecode": {
			"linkReferences": {
				"contracts/FairLaunchToken.sol": {
					"LAmmDetector": [
						{
							"length": 20,
							"start": 8109
						},
						{
							"length": 20,
							"start": 8250
						},
						{
							"length": 20,
							"start": 8746
						},
						{
							"length": 20,
							"start": 8969
						},
						{
							"length": 20,
							"start": 13115
						},
						{
							"length": 20,
							"start": 18752
						},
						{
							"length": 20,
							"start": 18902
						}
					],
					"LPercentage": [
						{
							"length": 20,
							"start": 13464
						},
						{
							"length": 20,
							"start": 16187
						},
						{
							"length": 20,
							"start": 19051
						}
					]
				}
			},
			"object": "60a06040523480156200001157600080fd5b506040516200701d3803806200701d833981810160405281019062000037919062000650565b80848481600390805190602001906200005292919062000500565b5080600490805190602001906200006b92919062000500565b5050506200008e62000082620000f760201b60201c565b620000ff60201b60201c565b8073ffffffffffffffffffffffffffffffffffffffff1660808173ffffffffffffffffffffffffffffffffffffffff1660601b8152505050620000ed33670de0b6b3a764000084620000e19190620008a3565b620001c560201b60201c565b5050505062000abd565b600033905090565b6000600c60019054906101000a900473ffffffffffffffffffffffffffffffffffffffff16905081600c60016101000a81548173ffffffffffffffffffffffffffffffffffffffff021916908373ffffffffffffffffffffffffffffffffffffffff1602179055508173ffffffffffffffffffffffffffffffffffffffff168173ffffffffffffffffffffffffffffffffffffffff167f8be0079c531659141344cd1fd0a4f28419497f9722a3daafe3b4186f6b6457e060405160405180910390a35050565b600073ffffffffffffffffffffffffffffffffffffffff168273ffffffffffffffffffffffffffffffffffffffff16141562000238576040517f08c379a00000000000000000000000000000000000000000000000000000000081526004016200022f906200078f565b60405180910390fd5b6200024c600083836200033e60201b60201c565b806002600082825462000260919062000846565b92505081905550806000808473ffffffffffffffffffffffffffffffffffffffff1673ffffffffffffffffffffffffffffffffffffffff1681526020019081526020016000206000828254620002b7919062000846565b925050819055508173ffffffffffffffffffffffffffffffffffffffff16600073ffffffffffffffffffffffffffffffffffffffff167fddf252ad1be2c89b69c2b068fc378daa952ba7f163c4a11628f55a4df523b3ef836040516200031e9190620007b1565b60405180910390a36200033a600083836200041f60201b60201c565b5050565b600060225490506000811115620004195760005b8181101562000417576020600082815260200190815260200160002060009054906101000a900473ffffffffffffffffffffffffffffffffffffffff1673ffffffffffffffffffffffffffffffffffffffff1663c771eeef8686866040518463ffffffff1660e01b8152600401620003cd9392919062000752565b600060405180830381600087803b158015620003e857600080fd5b505af1158015620003fd573d6000803e3d6000fd5b5050505080806200040e90620009ae565b91505062000352565b505b50505050565b600060235490506000811115620004fa5760005b81811015620004f8576021600082815260200190815260200160002060009054906101000a900473ffffffffffffffffffffffffffffffffffffffff1673ffffffffffffffffffffffffffffffffffffffff16635cf8305b8686866040518463ffffffff1660e01b8152600401620004ae9392919062000752565b600060405180830381600087803b158015620004c957600080fd5b505af1158015620004de573d6000803e3d6000fd5b505050508080620004ef90620009ae565b91505062000433565b505b50505050565b8280546200050e9062000978565b90600052602060002090601f0160209004810192826200053257600085556200057e565b82601f106200054d57805160ff19168380011785556200057e565b828001600101855582156200057e579182015b828111156200057d57825182559160200191906001019062000560565b5b5090506200058d919062000591565b5090565b5b80821115620005ac57600081600090555060010162000592565b5090565b6000620005c7620005c18462000802565b620007ce565b905082815260208101848484011115620005e057600080fd5b620005ed84828562000942565b509392505050565b600081519050620006068162000a89565b92915050565b600082601f8301126200061e57600080fd5b815162000630848260208601620005b0565b91505092915050565b6000815190506200064a8162000aa3565b92915050565b600080600080608085870312156200066757600080fd5b600085015167ffffffffffffffff8111156200068257600080fd5b62000690878288016200060c565b945050602085015167ffffffffffffffff811115620006ae57600080fd5b620006bc878288016200060c565b9350506040620006cf8782880162000639565b9250506060620006e287828801620005f5565b91505092959194509250565b620006f98162000904565b82525050565b60006200070e601f8362000835565b91507f45524332303a206d696e7420746f20746865207a65726f2061646472657373006000830152602082019050919050565b6200074c8162000938565b82525050565b6000606082019050620007696000830186620006ee565b620007786020830185620006ee565b62000787604083018462000741565b949350505050565b60006020820190508181036000830152620007aa81620006ff565b9050919050565b6000602082019050620007c8600083018462000741565b92915050565b6000604051905081810181811067ffffffffffffffff82111715620007f857620007f762000a5a565b5b8060405250919050565b600067ffffffffffffffff82111562000820576200081f62000a5a565b5b601f19601f8301169050602081019050919050565b600082825260208201905092915050565b6000620008538262000938565b9150620008608362000938565b9250827fffffffffffffffffffffffffffffffffffffffffffffffffffffffffffffffff03821115620008985762000897620009fc565b5b828201905092915050565b6000620008b08262000938565b9150620008bd8362000938565b9250817fffffffffffffffffffffffffffffffffffffffffffffffffffffffffffffffff0483118215151615620008f957620008f8620009fc565b5b828202905092915050565b6000620009118262000918565b9050919050565b600073ffffffffffffffffffffffffffffffffffffffff82169050919050565b6000819050919050565b60005b838110156200096257808201518184015260208101905062000945565b8381111562000972576000848401525b50505050565b600060028204905060018216806200099157607f821691505b60208210811415620009a857620009a762000a2b565b5b50919050565b6000620009bb8262000938565b91507fffffffffffffffffffffffffffffffffffffffffffffffffffffffffffffffff821415620009f157620009f0620009fc565b5b600182019050919050565b7f4e487b7100000000000000000000000000000000000000000000000000000000600052601160045260246000fd5b7f4e487b7100000000000000000000000000000000000000000000000000000000600052602260045260246000fd5b7f4e487b7100000000000000000000000000000000000000000000000000000000600052604160045260246000fd5b62000a948162000904565b811462000aa057600080fd5b50565b62000aae8162000938565b811462000aba57600080fd5b50565b60805160601c61653362000aea60003960008181611f8a01528181612067015261211001526165336000f3fe608060405234801561001057600080fd5b506004361061043e5760003560e01c80637a5b22ac11610236578063b5e651951161013b578063d64e2214116100c3578063f4937e2611610087578063f4937e2614610de4578063f60e7a0714610e14578063fa2ca0ed14610e44578063fa9119ec14610e60578063ffa1ad7414610e7e5761043e565b8063d64e221414610d3d578063dd62ed3e14610d5b578063e2ab691d14610d8b578063e463a32f14610da7578063f2fde38b14610dc85761043e565b8063cf8caa781161010a578063cf8caa7814610c87578063cfeaee3114610cb7578063d21cacdf14610cd3578063d4dcb3e714610d03578063d51e701a14610d215761043e565b8063b5e6519514610bed578063c2ab7e6414610c1d578063c5f3a4c414610c4d578063ca5c7b9114610c695761043e565b8063911f050d116101be578063a2a795201161018d578063a2a7952014610afd578063a457c2d714610b2d578063a9059cbb14610b5d578063aa12047714610b8d578063ac7a3d9b14610bbd5761043e565b8063911f050d14610a6157806394d13fba14610a7f57806395d89b4114610aaf5780639b90248514610acd5761043e565b8063898011671161020557806389801167146109d15780638a49a1b3146109ed5780638cfc26e9146109f75780638da5cb5b14610a135780638e6806b714610a315761043e565b80637a5b22ac146109495780637eee288d1461096757806380f86f7c1461098357806384955c88146109a15761043e565b806332e7261311610347578063631ad94c116102cf578063715604381161029357806371560438146108b557806371db3d53146108d357806375039349146108f1578063786c58a31461090f57806378f76df71461092d5761043e565b8063631ad94c146108275780636356e347146108435780636a71f0881461085f57806370a082311461087b578063715018a6146108ab5761043e565b806358b5dd721161031657806358b5dd72146107735780635b143985146107a35780635cf8305b146107bf5780635d9e1115146107db5780635dbc25c31461080b5761043e565b806332e72613146106b3578063341808f0146106e357806339509351146107135780633c0257a1146107435761043e565b806311f2acd8116103ca57806323b872dd1161039957806323b872dd1461060b57806326c8fded1461063b5780632bb02cc0146106595780632ccd962314610677578063313ce567146106955761043e565b806311f2acd81461059357806318160ddd146105b157806319749877146105cf5780631db9de9d146105ed5761043e565b806309cf1c491161041157806309cf1c49146104df5780630be2f221146104fb5780630c3e0c56146105175780630d0fcb8f146105335780630f437028146105635761043e565b806306fdde031461044357806308b6f84714610461578063091074ad1461047f578063095ea7b3146104af575b600080fd5b61044b610e9c565b6040516104589190615c57565b60405180910390f35b610469610f2e565b6040516104769190615f0a565b60405180910390f35b61049960048036038101906104949190615035565b610f34565b6040516104a69190615f0a565b60405180910390f35b6104c960048036038101906104c49190615161565b610f7d565b6040516104d69190615c21565b60405180910390f35b6104f960048036038101906104f4919061526e565b610f9b565b005b610515600480360381019061051091906150e9565b610faf565b005b610531600480360381019061052c91906152c0565b610fc5565b005b61054d60048036038101906105489190615035565b610fd2565b60405161055a9190615c21565b60405180910390f35b61057d60048036038101906105789190615035565b611028565b60405161058a9190615f0a565b60405180910390f35b61059b611071565b6040516105a89190615f0a565b60405180910390f35b6105b961107b565b6040516105c69190615f0a565b60405180910390f35b6105d76110ba565b6040516105e49190615c21565b60405180910390f35b6105f56110d1565b6040516106029190615f0a565b60405180910390f35b6106256004803603810190610620919061509a565b6110d7565b6040516106329190615c21565b60405180910390f35b6106436111cf565b6040516106509190615f0a565b60405180910390f35b6106616111d9565b60405161066e9190615f0a565b60405180910390f35b61067f6111e3565b60405161068c9190615bcf565b60405180910390f35b61069d61120d565b6040516106aa9190615ff3565b60405180910390f35b6106cd60048036038101906106c8919061505e565b611216565b6040516106da9190615c21565b60405180910390f35b6106fd60048036038101906106f89190615125565b6112ba565b60405161070a9190615f0a565b60405180910390f35b61072d60048036038101906107289190615161565b611385565b60405161073a9190615c21565b60405180910390f35b61075d60048036038101906107589190615035565b611431565b60405161076a9190615f0a565b60405180910390f35b61078d60048036038101906107889190615035565b6115ef565b60405161079a9190615f0a565b60405180910390f35b6107bd60048036038101906107b8919061522d565b611601565b005b6107d960048036038101906107d4919061509a565b611615565b005b6107f560048036038101906107f09190615035565b61163e565b6040516108029190615f0a565b60405180910390f35b61082560048036038101906108209190615161565b611687565b005b610841600480360381019061083c91906151ec565b61169d565b005b61085d600480360381019061085891906152c0565b611710565b005b6108796004803603810190610874919061534e565b611724565b005b61089560048036038101906108909190615035565b61173c565b6040516108a29190615f0a565b60405180910390f35b6108b36118e4565b005b6108bd6118f8565b6040516108ca9190615eb9565b60405180910390f35b6108db611930565b6040516108e89190615f0a565b60405180910390f35b6108f9611936565b6040516109069190615f0a565b60405180910390f35b610917611940565b6040516109249190615f0a565b60405180910390f35b6109476004803603810190610942919061539d565b61194a565b005b610951611964565b60405161095e9190615f0a565b60405180910390f35b610981600480360381019061097c9190615161565b61196e565b005b61098b611986565b6040516109989190615f0a565b60405180910390f35b6109bb60048036038101906109b69190615035565b611990565b6040516109c89190615f0a565b60405180910390f35b6109eb60048036038101906109e6919061522d565b6119bc565b005b6109f56119d0565b005b610a116004803603810190610a0c91906152c0565b6119e2565b005b610a1b6119f6565b604051610a289190615bcf565b60405180910390f35b610a4b6004803603810190610a469190615312565b611a20565b604051610a589190615f0a565b60405180910390f35b610a69611a3c565b604051610a769190615f0a565b60405180910390f35b610a996004803603810190610a949190615035565b611a46565b604051610aa69190615f0a565b60405180910390f35b610ab7611bc4565b604051610ac49190615c57565b60405180910390f35b610ae76004803603810190610ae291906152c0565b611c56565b604051610af49190615c3c565b60405180910390f35b610b176004803603810190610b129190615035565b611c89565b604051610b249190615f0a565b60405180910390f35b610b476004803603810190610b429190615161565b611d02565b604051610b549190615c21565b60405180910390f35b610b776004803603810190610b729190615161565b611ded565b604051610b849190615c21565b60405180910390f35b610ba76004803603810190610ba29190615035565b611e0b565b604051610bb49190615c21565b60405180910390f35b610bd76004803603810190610bd29190615035565b611e2b565b604051610be49190615f0a565b60405180910390f35b610c076004803603810190610c029190615312565b611ea4565b604051610c149190615f0a565b60405180910390f35b610c376004803603810190610c329190615035565b611ec0565b604051610c449190615eb9565b60405180910390f35b610c676004803603810190610c629190615035565b611f37565b005b610c71611f4b565b604051610c7e9190615f0a565b60405180910390f35b610ca16004803603810190610c9c9190615035565b611f85565b604051610cae9190615c21565b60405180910390f35b610cd16004803603810190610ccc91906152c0565b6121c5565b005b610ced6004803603810190610ce89190615035565b6121d9565b604051610cfa9190615eef565b60405180910390f35b610d0b61229c565b604051610d189190615f0a565b60405180910390f35b610d3b6004803603810190610d3691906152c0565b6122ab565b005b610d456122bf565b604051610d529190615bcf565b60405180910390f35b610d756004803603810190610d70919061505e565b6122e9565b604051610d829190615f0a565b60405180910390f35b610da56004803603810190610da0919061519d565b612316565b005b610daf61232f565b604051610dbf9493929190615fae565b60405180910390f35b610de26004803603810190610ddd9190615035565b61236f565b005b610dfe6004803603810190610df991906152c0565b6123f3565b604051610e0b9190615c3c565b60405180910390f35b610e2e6004803603810190610e29919061505e565b612425565b604051610e3b9190615f0a565b60405180910390f35b610e5e6004803603810190610e599190615161565b6124ac565b005b610e6861254a565b604051610e759190615f0a565b60405180910390f35b610e86612550565b604051610e939190615c57565b60405180910390f35b606060038054610eab906162df565b80601f0160208091040260200160405190810160405280929190818152602001828054610ed7906162df565b8015610f245780601f10610ef957610100808354040283529160200191610f24565b820191906000526020600020905b815481529060010190602001808311610f0757829003601f168201915b5050505050905090565b61038481565b6000601860008373ffffffffffffffffffffffffffffffffffffffff1673ffffffffffffffffffffffffffffffffffffffff168152602001908152602001600020549050919050565b6000610f91610f8a612589565b8484612591565b6001905092915050565b610fa3612635565b610fac816126b3565b50565b610fb7612635565b610fc18282612707565b5050565b610fcf33826127b0565b50565b6000601160008373ffffffffffffffffffffffffffffffffffffffff1673ffffffffffffffffffffffffffffffffffffffff16815260200190815260200160002060009054906101000a900460ff169050919050565b6000601960008373ffffffffffffffffffffffffffffffffffffffff1673ffffffffffffffffffffffffffffffffffffffff168152602001908152602001600020549050919050565b6000601454905090565b6000611085611f4b565b61108d61229c565b11156110b25761109b611f4b565b6110a361229c565b6110ad9190616194565b6110b5565b60005b905090565b6000600c60009054906101000a900460ff16905090565b60235481565b60006110e484848461284f565b6000600160008673ffffffffffffffffffffffffffffffffffffffff1673ffffffffffffffffffffffffffffffffffffffff168152602001908152602001600020600061112f612589565b73ffffffffffffffffffffffffffffffffffffffff1673ffffffffffffffffffffffffffffffffffffffff168152602001908152602001600020549050828110156111af576040517f08c379a00000000000000000000000000000000000000000000000000000000081526004016111a690615d99565b60405180910390fd5b6111c3856111bb612589565b858403612591565b60019150509392505050565b6000600b54905090565b6000601c54905090565b6000601a60009054906101000a900473ffffffffffffffffffffffffffffffffffffffff16905090565b60006012905090565b600080601f54141580156112b25750601f54601e60008573ffffffffffffffffffffffffffffffffffffffff1673ffffffffffffffffffffffffffffffffffffffff16815260200190815260200160002060008473ffffffffffffffffffffffffffffffffffffffff1673ffffffffffffffffffffffffffffffffffffffff16815260200190815260200160002054426112b09190616194565b115b905092915050565b6000600760008473ffffffffffffffffffffffffffffffffffffffff1673ffffffffffffffffffffffffffffffffffffffff1681526020019081526020016000206000836003811115611336577f4e487b7100000000000000000000000000000000000000000000000000000000600052602160045260246000fd5b600381111561136e577f4e487b7100000000000000000000000000000000000000000000000000000000600052602160045260246000fd5b815260200190815260200160002054905092915050565b6000611427611392612589565b8484600160006113a0612589565b73ffffffffffffffffffffffffffffffffffffffff1673ffffffffffffffffffffffffffffffffffffffff16815260200190815260200160002060008873ffffffffffffffffffffffffffffffffffffffff1673ffffffffffffffffffffffffffffffffffffffff1681526020019081526020016000205461142291906160b3565b612591565b6001905092915050565b600080600660008473ffffffffffffffffffffffffffffffffffffffff1673ffffffffffffffffffffffffffffffffffffffff1681526020019081526020016000205411156114c157600660008373ffffffffffffffffffffffffffffffffffffffff1673ffffffffffffffffffffffffffffffffffffffff1681526020019081526020016000205490506115ea565b73__$ad3387510aebe2f272f479564db4e1ed29$__63e5e31b13836040518263ffffffff1660e01b81526004016114f89190615bb4565b60206040518083038186803b15801561151057600080fd5b505af4158015611524573d6000803e3d6000fd5b505050506040513d601f19601f820116820180604052508101906115489190615297565b806115d6575073__$ad3387510aebe2f272f479564db4e1ed29$__63f3d7d282836040518263ffffffff1660e01b81526004016115859190615bb4565b60206040518083038186803b15801561159d57600080fd5b505af41580156115b1573d6000803e3d6000fd5b505050506040513d601f19601f820116820180604052508101906115d59190615297565b5b156115e557600b5490506115ea565b600090505b919050565b60006115fa82612a9e565b9050919050565b611609612635565b61161281612ae6565b50565b6116278361162285612a9e565b612bb2565b6116398261163484612a9e565b612bb2565b505050565b6000601260008373ffffffffffffffffffffffffffffffffffffffff1673ffffffffffffffffffffffffffffffffffffffff168152602001908152602001600020549050919050565b61168f612635565b6116998282612dd5565b5050565b60008151905060005b8181101561170b576116f78382815181106116ea577f4e487b7100000000000000000000000000000000000000000000000000000000600052603260045260246000fd5b6020026020010151611f85565b5080806117039061632b565b9150506116a6565b505050565b611718612635565b61172181612e6b565b50565b61172c612635565b611737838383612eb5565b505050565b600073__$ad3387510aebe2f272f479564db4e1ed29$__63f3d7d282336040518263ffffffff1660e01b81526004016117759190615bb4565b60206040518083038186803b15801561178d57600080fd5b505af41580156117a1573d6000803e3d6000fd5b505050506040513d601f19601f820116820180604052508101906117c59190615297565b6117d9576117d282611990565b90506118df565b3373ffffffffffffffffffffffffffffffffffffffff168273ffffffffffffffffffffffffffffffffffffffff16141561181d5761181682612a9e565b90506118df565b73__$ad3387510aebe2f272f479564db4e1ed29$__63e5e31b13836040518263ffffffff1660e01b81526004016118549190615bb4565b60206040518083038186803b15801561186c57600080fd5b505af4158015611880573d6000803e3d6000fd5b505050506040513d601f19601f820116820180604052508101906118a49190615297565b156118b9576118b282611990565b90506118df565b6118dc6118c58361163e565b6118ce84612a9e565b612f0a90919063ffffffff16565b90505b919050565b6118ec612635565b6118f66000612f20565b565b611900614e1e565b60086040518060600160405290816000820154815260200160018201548152602001600282015481525050905090565b60225481565b6000601d54905090565b6000601b54905090565b611952612635565b61195e84848484612fe6565b50505050565b6000601554905090565b611976612635565b611982828260036130af565b5050565b6000601654905090565b60006119b561199e83611e2b565b6119a784612a9e565b6132c490919063ffffffff16565b9050919050565b6119c4612635565b6119cd816132da565b50565b6119d8612635565b6119e06133a6565b565b6119ea612635565b6119f3816133c3565b50565b6000600c60019054906101000a900473ffffffffffffffffffffffffffffffffffffffff16905090565b6000611a34611a2d611964565b848461340d565b905092915050565b6000601f54905090565b600080601760008473ffffffffffffffffffffffffffffffffffffffff1673ffffffffffffffffffffffffffffffffffffffff1681526020019081526020016000206040518060600160405290816000820160009054906101000a900473ffffffffffffffffffffffffffffffffffffffff1673ffffffffffffffffffffffffffffffffffffffff1673ffffffffffffffffffffffffffffffffffffffff168152602001600182015481526020016002820154815250509050600073ffffffffffffffffffffffffffffffffffffffff16816000015173ffffffffffffffffffffffffffffffffffffffff161415611b4357601d54915050611bbf565b6000816040015142611b559190616194565b9050601b54811115611b6d5760001992505050611bbf565b6000601c5482611b7d9190616109565b905060008114611ba757611ba2816001901b84602001516134e390919063ffffffff16565b611bb9565b60018360200151611bb891906160b3565b5b93505050505b919050565b606060048054611bd3906162df565b80601f0160208091040260200160405190810160405280929190818152602001828054611bff906162df565b8015611c4c5780601f10611c2157610100808354040283529160200191611c4c565b820191906000526020600020905b815481529060010190602001808311611c2f57829003601f168201915b5050505050905090565b60216020528060005260406000206000915054906101000a900473ffffffffffffffffffffffffffffffffffffffff1681565b6000611cfb600560008473ffffffffffffffffffffffffffffffffffffffff1673ffffffffffffffffffffffffffffffffffffffff16815260200190815260200160002060405180606001604052908160008201548152602001600182015481526020016002820154815250506134f9565b9050919050565b60008060016000611d11612589565b73ffffffffffffffffffffffffffffffffffffffff1673ffffffffffffffffffffffffffffffffffffffff16815260200190815260200160002060008573ffffffffffffffffffffffffffffffffffffffff1673ffffffffffffffffffffffffffffffffffffffff16815260200190815260200160002054905082811015611dce576040517f08c379a0000000000000000000000000000000000000000000000000000000008152600401611dc590615e79565b60405180910390fd5b611de2611dd9612589565b85858403612591565b600191505092915050565b6000611e01611dfa612589565b848461284f565b6001905092915050565b60256020528060005260406000206000915054906101000a900460ff1681565b6000611e9d600560008473ffffffffffffffffffffffffffffffffffffffff1673ffffffffffffffffffffffffffffffffffffffff1681526020019081526020016000206040518060600160405290816000820154815260200160018201548152602001600282015481525050613549565b9050919050565b6000611eb8611eb1611986565b848461340d565b905092915050565b611ec8614e1e565b600560008373ffffffffffffffffffffffffffffffffffffffff1673ffffffffffffffffffffffffffffffffffffffff16815260200190815260200160002060405180606001604052908160008201548152602001600182015481526020016002820154815250509050919050565b611f3f612635565b611f488161359f565b50565b6000611f8060086040518060600160405290816000820154815260200160018201548152602001600282015481525050613549565b905090565b6000807f000000000000000000000000000000000000000000000000000000000000000073ffffffffffffffffffffffffffffffffffffffff166358b5dd72846040518263ffffffff1660e01b8152600401611fe19190615bcf565b60206040518083038186803b158015611ff957600080fd5b505afa15801561200d573d6000803e3d6000fd5b505050506040513d601f19601f8201168201806040525081019061203191906152e9565b905060008114156120465760009150506121c0565b61204f83613626565b915081156121be576120618382613744565b6121bc837f000000000000000000000000000000000000000000000000000000000000000073ffffffffffffffffffffffffffffffffffffffff1663ac7a3d9b866040518263ffffffff1660e01b81526004016120be9190615bcf565b60206040518083038186803b1580156120d657600080fd5b505afa1580156120ea573d6000803e3d6000fd5b505050506040513d601f19601f8201168201806040525081019061210e91906152e9565b7f000000000000000000000000000000000000000000000000000000000000000073ffffffffffffffffffffffffffffffffffffffff1663a2a79520876040518263ffffffff1660e01b81526004016121679190615bcf565b60206040518083038186803b15801561217f57600080fd5b505afa158015612193573d6000803e3d6000fd5b505050506040513d601f19601f820116820180604052508101906121b791906152e9565b6138a4565b505b505b919050565b6121cd612635565b6121d6816139a0565b50565b6121e1614e3f565b601760008373ffffffffffffffffffffffffffffffffffffffff1673ffffffffffffffffffffffffffffffffffffffff1681526020019081526020016000206040518060600160405290816000820160009054906101000a900473ffffffffffffffffffffffffffffffffffffffff1673ffffffffffffffffffffffffffffffffffffffff1673ffffffffffffffffffffffffffffffffffffffff168152602001600182015481526020016002820154815250509050919050565b60006122a6613a33565b905090565b6122b3612635565b6122bc81613a3d565b50565b6000601360009054906101000a900473ffffffffffffffffffffffffffffffffffffffff16905090565b60006122f58383611216565b156123035760009050612310565b61230d8383613a7e565b90505b92915050565b61231e612635565b6123298383836138a4565b50505050565b600080600080600d549350600e549250600f549150601060009054906101000a900473ffffffffffffffffffffffffffffffffffffffff16905090919293565b612377612635565b600073ffffffffffffffffffffffffffffffffffffffff168173ffffffffffffffffffffffffffffffffffffffff1614156123e7576040517f08c379a00000000000000000000000000000000000000000000000000000000081526004016123de90615cd9565b60405180910390fd5b6123f081612f20565b50565b602080528060005260406000206000915054906101000a900473ffffffffffffffffffffffffffffffffffffffff1681565b6000601e60008473ffffffffffffffffffffffffffffffffffffffff1673ffffffffffffffffffffffffffffffffffffffff16815260200190815260200160002060008373ffffffffffffffffffffffffffffffffffffffff1673ffffffffffffffffffffffffffffffffffffffff16815260200190815260200160002054905092915050565b601a60009054906101000a900473ffffffffffffffffffffffffffffffffffffffff1673ffffffffffffffffffffffffffffffffffffffff163373ffffffffffffffffffffffffffffffffffffffff161461253c576040517f08c379a000000000000000000000000000000000000000000000000000000000815260040161253390615d39565b60405180910390fd5b61254682826127b0565b5050565b60265481565b6040518060400160405280601381526020017f6d61696e6e65742d617262697472756d2d76320000000000000000000000000081525081565b600033905090565b60003390508373ffffffffffffffffffffffffffffffffffffffff168173ffffffffffffffffffffffffffffffffffffffff1614156125d9576125d48184613b05565b612624565b6125e38484611216565b15612623576040517f08c379a000000000000000000000000000000000000000000000000000000000815260040161261a90615d79565b60405180910390fd5b5b61262f848484613b8a565b50505050565b61263d612589565b73ffffffffffffffffffffffffffffffffffffffff1661265b6119f6565b73ffffffffffffffffffffffffffffffffffffffff16146126b1576040517f08c379a00000000000000000000000000000000000000000000000000000000081526004016126a890615db9565b60405180910390fd5b565b80600c60006101000a81548160ff0219169083151502179055507f6b59cb1f573014b1260b4991370e3d454f6238476d4b0429d373b88877480d25816040516126fc9190615c21565b60405180910390a150565b80601160008473ffffffffffffffffffffffffffffffffffffffff1673ffffffffffffffffffffffffffffffffffffffff16815260200190815260200160002060006101000a81548160ff0219169083151502179055508173ffffffffffffffffffffffffffffffffffffffff167f6cf04e76ad1279a1cddd4f7671c383ef488483d1565675d47fbb8870a0573d24826040516127a49190615c21565b60405180910390a25050565b6127b981613d55565b80601960008473ffffffffffffffffffffffffffffffffffffffff1673ffffffffffffffffffffffffffffffffffffffff168152602001908152602001600020819055508173ffffffffffffffffffffffffffffffffffffffff167fbf92d2eb1d617894978c7d918fac4307c904b980238b11b79908f18d2f728ad9826040516128439190615f0a565b60405180910390a25050565b73__$ad3387510aebe2f272f479564db4e1ed29$__63f3d7d282846040518263ffffffff1660e01b81526004016128869190615bb4565b60206040518083038186803b15801561289e57600080fd5b505af41580156128b2573d6000803e3d6000fd5b505050506040513d601f19601f820116820180604052508101906128d69190615297565b61292657806128e484611990565b1015612925576040517f08c379a000000000000000000000000000000000000000000000000000000000815260040161291c90615c99565b60405180910390fd5b5b6000612933848484613d9d565b90506000811115612a9857612949848483614115565b6129548484836143cf565b6000612969848361296488611431565b6138a4565b905080801561297e575061297c84614650565b155b15612a9657600061298e856121d9565b60000151905060006129a86129a283612a9e565b85611a20565b9050600073__$8ffd403d40e381b19bdc9accc72974b032$__6358715b07836129d086611028565b6040518363ffffffff1660e01b81526004016129ed929190615f4e565b60206040518083038186803b158015612a0557600080fd5b505af4158015612a19573d6000803e3d6000fd5b505050506040513d601f19601f82011682018060405250810190612a3d91906152e9565b90506000612a5482846132c490919063ffffffff16565b9050612a62848260006130af565b612a6e888360016130af565b6000612a82612a7c8a612a9e565b88611ea4565b9050612a90898260026130af565b50505050505b505b50505050565b60008060008373ffffffffffffffffffffffffffffffffffffffff1673ffffffffffffffffffffffffffffffffffffffff168152602001908152602001600020549050919050565b6000815190506000811115612ba75760005b81811015612ba557828181518110612b39577f4e487b7100000000000000000000000000000000000000000000000000000000600052603260045260246000fd5b60200260200101516020600083815260200190815260200160002060006101000a81548173ffffffffffffffffffffffffffffffffffffffff021916908373ffffffffffffffffffffffffffffffffffffffff1602179055508080612b9d9061632b565b915050612af8565b505b806022819055505050565b600073ffffffffffffffffffffffffffffffffffffffff168273ffffffffffffffffffffffffffffffffffffffff161480612c1a575061dead73ffffffffffffffffffffffffffffffffffffffff168273ffffffffffffffffffffffffffffffffffffffff16145b15612c2457612dd1565b8173ffffffffffffffffffffffffffffffffffffffff16601360009054906101000a900473ffffffffffffffffffffffffffffffffffffffff1673ffffffffffffffffffffffffffffffffffffffff161415612cf85780601481905550601360009054906101000a900473ffffffffffffffffffffffffffffffffffffffff1673ffffffffffffffffffffffffffffffffffffffff167f695ecf74a0ab376b33fd7e01ff31f17227afc3f06165a44e7324f23d6148755e601454604051612ceb9190615f0a565b60405180910390a2612dd1565b612d0182614650565b15612d0b57612dd1565b601454811115612dd05781601360006101000a81548173ffffffffffffffffffffffffffffffffffffffff021916908373ffffffffffffffffffffffffffffffffffffffff16021790555080601481905550601360009054906101000a900473ffffffffffffffffffffffffffffffffffffffff1673ffffffffffffffffffffffffffffffffffffffff167f695ecf74a0ab376b33fd7e01ff31f17227afc3f06165a44e7324f23d6148755e601454604051612dc79190615f0a565b60405180910390a25b5b5050565b80600660008473ffffffffffffffffffffffffffffffffffffffff1673ffffffffffffffffffffffffffffffffffffffff168152602001908152602001600020819055508173ffffffffffffffffffffffffffffffffffffffff167fe0474e30b96b33220db295b344254acf8260256be84ee32edde6bf35bb327a8682604051612e5f9190615f0a565b60405180910390a25050565b612e7481613d55565b806015819055507f09e79fd4777e949bebed3a6455a2b54064cfa9c8c1cc95e8a2946819dfb6b53581604051612eaa9190615f0a565b60405180910390a150565b82601b8190555081601c8190555080601d819055507fad2c6acae6e1c5560448e7f77859970425d8fefb5ce448971d964753f388cc6b838383604051612efd93929190615f77565b60405180910390a1505050565b60008183612f1891906160b3565b905092915050565b6000600c60019054906101000a900473ffffffffffffffffffffffffffffffffffffffff16905081600c60016101000a81548173ffffffffffffffffffffffffffffffffffffffff021916908373ffffffffffffffffffffffffffffffffffffffff1602179055508173ffffffffffffffffffffffffffffffffffffffff168173ffffffffffffffffffffffffffffffffffffffff167f8be0079c531659141344cd1fd0a4f28419497f9722a3daafe3b4186f6b6457e060405160405180910390a35050565b612fef84613d55565b612ff883613d55565b61300182613d55565b83600d8190555082600e8190555081600f8190555080601060006101000a81548173ffffffffffffffffffffffffffffffffffffffff021916908373ffffffffffffffffffffffffffffffffffffffff1602179055508073ffffffffffffffffffffffffffffffffffffffff167f9c5698c9835af0943bac5fa08c76a41d63c846ae721d7abb2541315d1b5682338585856040516130a193929190615f77565b60405180910390a250505050565b60008214156130bd576132bf565b8273ffffffffffffffffffffffffffffffffffffffff167fe4ebe3f236d1f26ec3e02e6a726605263fb049e122c8a8460f4b24d4b90d1f4b60405160405180910390a2613148600560008573ffffffffffffffffffffffffffffffffffffffff1673ffffffffffffffffffffffffffffffffffffffff1681526020019081526020016000208361468f565b600073ffffffffffffffffffffffffffffffffffffffff167fe4ebe3f236d1f26ec3e02e6a726605263fb049e122c8a8460f4b24d4b90d1f4b60405160405180910390a261319760088361468f565b81600760008573ffffffffffffffffffffffffffffffffffffffff1673ffffffffffffffffffffffffffffffffffffffff1681526020019081526020016000206000836003811115613212577f4e487b7100000000000000000000000000000000000000000000000000000000600052602160045260246000fd5b600381111561324a577f4e487b7100000000000000000000000000000000000000000000000000000000600052602160045260246000fd5b8152602001908152602001600020600082825461326791906160b3565b925050819055508273ffffffffffffffffffffffffffffffffffffffff167f2097b7d08068ee46011255660ed3909e86aa842217721b6e25c5c6d5f2e58ff983836040516132b6929190615f25565b60405180910390a25b505050565b600081836132d29190616194565b905092915050565b600081519050600081111561339b5760005b818110156133995782818151811061332d577f4e487b7100000000000000000000000000000000000000000000000000000000600052603260045260246000fd5b60200260200101516021600083815260200190815260200160002060006101000a81548173ffffffffffffffffffffffffffffffffffffffff021916908373ffffffffffffffffffffffffffffffffffffffff16021790555080806133919061632b565b9150506132ec565b505b806023819055505050565b6001602460006101000a81548160ff021916908315150217905550565b6133cc81613d55565b806016819055507fdf2c8cec8363c7b6a106e877eb88cb0b0695586b0cf567607e4941d471579f6c816040516134029190615f0a565b60405180910390a150565b600080613418611071565b905083811015613426578390505b600061344d8261343f87896134e390919063ffffffff16565b61477590919063ffffffff16565b905073__$8ffd403d40e381b19bdc9accc72974b032$__6358715b0785836040518363ffffffff1660e01b8152600401613488929190615f4e565b60206040518083038186803b1580156134a057600080fd5b505af41580156134b4573d6000803e3d6000fd5b505050506040513d601f19601f820116820180604052508101906134d891906152e9565b925050509392505050565b600081836134f1919061613a565b905092915050565b6000806135138360000151426132c490919063ffffffff16565b9050826040015181106135295760009150613543565b6135408184604001516132c490919063ffffffff16565b91505b50919050565b600080613555836134f9565b905060008114156135695760009150613599565b61359683604001516135888560200151846134e390919063ffffffff16565b61477590919063ffffffff16565b91505b50919050565b80601a60006101000a81548173ffffffffffffffffffffffffffffffffffffffff021916908373ffffffffffffffffffffffffffffffffffffffff1602179055508073ffffffffffffffffffffffffffffffffffffffff167f57202bce87a87010e83825477a341d777f701216d3e2a3b4642c72d9e8a9319860405160405180910390a250565b6000602460009054906101000a900460ff1615613678576040517f08c379a000000000000000000000000000000000000000000000000000000000815260040161366f90615e59565b60405180910390fd5b602560008373ffffffffffffffffffffffffffffffffffffffff1673ffffffffffffffffffffffffffffffffffffffff16815260200190815260200160002060009054906101000a900460ff1615905080156136e757602660008154809291906136e19061632b565b91905055505b6001602560008473ffffffffffffffffffffffffffffffffffffffff1673ffffffffffffffffffffffffffffffffffffffff16815260200190815260200160002060006101000a81548160ff021916908315150217905550919050565b600073ffffffffffffffffffffffffffffffffffffffff168273ffffffffffffffffffffffffffffffffffffffff1614156137b4576040517f08c379a00000000000000000000000000000000000000000000000000000000081526004016137ab90615e99565b60405180910390fd5b6137c06000838361478b565b80600260008282546137d291906160b3565b92505081905550806000808473ffffffffffffffffffffffffffffffffffffffff1673ffffffffffffffffffffffffffffffffffffffff168152602001908152602001600020600082825461382791906160b3565b925050819055508173ffffffffffffffffffffffffffffffffffffffff16600073ffffffffffffffffffffffffffffffffffffffff167fddf252ad1be2c89b69c2b068fc378daa952ba7f163c4a11628f55a4df523b3ef8360405161388c9190615f0a565b60405180910390a36138a060008383614863565b5050565b60006001821115613994578373ffffffffffffffffffffffffffffffffffffffff167fe4ebe3f236d1f26ec3e02e6a726605263fb049e122c8a8460f4b24d4b90d1f4b60405160405180910390a261393b600560008673ffffffffffffffffffffffffffffffffffffffff1673ffffffffffffffffffffffffffffffffffffffff168152602001908152602001600020848461493b565b600073ffffffffffffffffffffffffffffffffffffffff167fe4ebe3f236d1f26ec3e02e6a726605263fb049e122c8a8460f4b24d4b90d1f4b60405160405180910390a261398b6008848461493b565b60019050613999565b600090505b9392505050565b80610384811015806139b25750600081145b6139f1576040517f08c379a00000000000000000000000000000000000000000000000000000000081526004016139e890615df9565b60405180910390fd5b81601f819055507f188d26f501f9324e3827258c64be92f4211835ded4a118906f94f4f40fa739cc82604051613a279190615f0a565b60405180910390a15050565b6000600254905090565b80600b819055507fbcae77a1cc900624266b1f0a1bc1dd812a2d13b0a0b0faaa87515af89b8e3aa881604051613a739190615f0a565b60405180910390a150565b6000600160008473ffffffffffffffffffffffffffffffffffffffff1673ffffffffffffffffffffffffffffffffffffffff16815260200190815260200160002060008373ffffffffffffffffffffffffffffffffffffffff1673ffffffffffffffffffffffffffffffffffffffff16815260200190815260200160002054905092915050565b42601e60008473ffffffffffffffffffffffffffffffffffffffff1673ffffffffffffffffffffffffffffffffffffffff16815260200190815260200160002060008373ffffffffffffffffffffffffffffffffffffffff1673ffffffffffffffffffffffffffffffffffffffff168152602001908152602001600020819055505050565b600073ffffffffffffffffffffffffffffffffffffffff168373ffffffffffffffffffffffffffffffffffffffff161415613bfa576040517f08c379a0000000000000000000000000000000000000000000000000000000008152600401613bf190615e39565b60405180910390fd5b600073ffffffffffffffffffffffffffffffffffffffff168273ffffffffffffffffffffffffffffffffffffffff161415613c6a576040517f08c379a0000000000000000000000000000000000000000000000000000000008152600401613c6190615cf9565b60405180910390fd5b80600160008573ffffffffffffffffffffffffffffffffffffffff1673ffffffffffffffffffffffffffffffffffffffff16815260200190815260200160002060008473ffffffffffffffffffffffffffffffffffffffff1673ffffffffffffffffffffffffffffffffffffffff168152602001908152602001600020819055508173ffffffffffffffffffffffffffffffffffffffff168373ffffffffffffffffffffffffffffffffffffffff167f8c5be1e5ebec7d5bd14f71427d1e84f3dd0314c0f7b2291e5b200ac8c7c3b92583604051613d489190615f0a565b60405180910390a3505050565b612710811115613d9a576040517f08c379a0000000000000000000000000000000000000000000000000000000008152600401613d9190615d19565b60405180910390fd5b50565b6000601160008573ffffffffffffffffffffffffffffffffffffffff1673ffffffffffffffffffffffffffffffffffffffff16815260200190815260200160002060009054906101000a900460ff1680613e405750601160008473ffffffffffffffffffffffffffffffffffffffff1673ffffffffffffffffffffffffffffffffffffffff16815260200190815260200160002060009054906101000a900460ff165b15613e4d5781905061410e565b6000600f54905073__$ad3387510aebe2f272f479564db4e1ed29$__63e5e31b13856040518263ffffffff1660e01b8152600401613e8b9190615bb4565b60206040518083038186803b158015613ea357600080fd5b505af4158015613eb7573d6000803e3d6000fd5b505050506040513d601f19601f82011682018060405250810190613edb9190615297565b15613eea57600e549050613f7d565b73__$ad3387510aebe2f272f479564db4e1ed29$__63e5e31b13866040518263ffffffff1660e01b8152600401613f219190615bb4565b60206040518083038186803b158015613f3957600080fd5b505af4158015613f4d573d6000803e3d6000fd5b505050506040513d601f19601f82011682018060405250810190613f719190615297565b15613f7c57600d5490505b5b600073__$8ffd403d40e381b19bdc9accc72974b032$__6358715b0785846040518363ffffffff1660e01b8152600401613fb8929190615f4e565b60206040518083038186803b158015613fd057600080fd5b505af4158015613fe4573d6000803e3d6000fd5b505050506040513d601f19601f8201168201806040525081019061400891906152e9565b90506140148582614a3d565b60008111156140f657600073ffffffffffffffffffffffffffffffffffffffff16601060009054906101000a900473ffffffffffffffffffffffffffffffffffffffff1673ffffffffffffffffffffffffffffffffffffffff1614156140835761407e8682614b63565b6140f5565b6140b086601060009054906101000a900473ffffffffffffffffffffffffffffffffffffffff16836143cf565b6140b86110ba565b156140f4576140f2601060009054906101000a900473ffffffffffffffffffffffffffffffffffffffff16826140ed89611431565b6138a4565b505b5b5b61410981856132c490919063ffffffff16565b925050505b9392505050565b61411e83614650565b8061412e575061412d82614650565b5b806141655750600073ffffffffffffffffffffffffffffffffffffffff168373ffffffffffffffffffffffffffffffffffffffff16145b1561416f576143ca565b600061417a83611a46565b90508082106143c8576000601760008573ffffffffffffffffffffffffffffffffffffffff1673ffffffffffffffffffffffffffffffffffffffff168152602001908152602001600020905060008160000160009054906101000a900473ffffffffffffffffffffffffffffffffffffffff169050858260000160006101000a81548173ffffffffffffffffffffffffffffffffffffffff021916908373ffffffffffffffffffffffffffffffffffffffff1602179055508382600101819055504282600201819055508573ffffffffffffffffffffffffffffffffffffffff168173ffffffffffffffffffffffffffffffffffffffff16146143c5576000601860008373ffffffffffffffffffffffffffffffffffffffff1673ffffffffffffffffffffffffffffffffffffffff16815260200190815260200160002054111561431557601860008273ffffffffffffffffffffffffffffffffffffffff1673ffffffffffffffffffffffffffffffffffffffff168152602001908152602001600020600081548092919061430f906162b5565b91905055505b601860008773ffffffffffffffffffffffffffffffffffffffff1673ffffffffffffffffffffffffffffffffffffffff16815260200190815260200160002060008154809291906143659061632b565b91905055508473ffffffffffffffffffffffffffffffffffffffff168673ffffffffffffffffffffffffffffffffffffffff167f6a7d6141e302acc1f9ff7ede7b26358907511b619f4fa9f6beaeab5d19c1ff2c60405160405180910390a35b50505b505b505050565b600073ffffffffffffffffffffffffffffffffffffffff168373ffffffffffffffffffffffffffffffffffffffff16141561443f576040517f08c379a000000000000000000000000000000000000000000000000000000000815260040161443690615e19565b60405180910390fd5b600073ffffffffffffffffffffffffffffffffffffffff168273ffffffffffffffffffffffffffffffffffffffff1614156144af576040517f08c379a00000000000000000000000000000000000000000000000000000000081526004016144a690615c79565b60405180910390fd5b6144ba83838361478b565b60008060008573ffffffffffffffffffffffffffffffffffffffff1673ffffffffffffffffffffffffffffffffffffffff16815260200190815260200160002054905081811015614540576040517f08c379a000000000000000000000000000000000000000000000000000000000815260040161453790615d59565b60405180910390fd5b8181036000808673ffffffffffffffffffffffffffffffffffffffff1673ffffffffffffffffffffffffffffffffffffffff16815260200190815260200160002081905550816000808573ffffffffffffffffffffffffffffffffffffffff1673ffffffffffffffffffffffffffffffffffffffff16815260200190815260200160002060008282546145d391906160b3565b925050819055508273ffffffffffffffffffffffffffffffffffffffff168473ffffffffffffffffffffffffffffffffffffffff167fddf252ad1be2c89b69c2b068fc378daa952ba7f163c4a11628f55a4df523b3ef846040516146379190615f0a565b60405180910390a361464a848484614863565b50505050565b6000808273ffffffffffffffffffffffffffffffffffffffff16803b806020016040519081016040528181526000908060200190933c51119050919050565b600081141561469d57614771565b6146a682614d3a565b600082600101548210156146ba57816146c0565b82600101545b905060008184600101546146d49190616194565b905060008114156146f8576000846002018190555060008460010181905550614737565b61472584600101546147178387600201546134e390919063ffffffff16565b61477590919063ffffffff16565b84600201819055508084600101819055505b7fe07fdbc26a8001506c5f058f6ab03687030b84b808efb98548b198cd4ab66551846040516147669190615ed4565b60405180910390a150505b5050565b600081836147839190616109565b905092915050565b60006022549050600081111561485d5760005b8181101561485b576020600082815260200190815260200160002060009054906101000a900473ffffffffffffffffffffffffffffffffffffffff1673ffffffffffffffffffffffffffffffffffffffff1663c771eeef8686866040518463ffffffff1660e01b815260040161481693929190615bea565b600060405180830381600087803b15801561483057600080fd5b505af1158015614844573d6000803e3d6000fd5b5050505080806148539061632b565b91505061479e565b505b50505050565b6000602354905060008111156149355760005b81811015614933576021600082815260200190815260200160002060009054906101000a900473ffffffffffffffffffffffffffffffffffffffff1673ffffffffffffffffffffffffffffffffffffffff16635cf8305b8686866040518463ffffffff1660e01b81526004016148ee93929190615bea565b600060405180830381600087803b15801561490857600080fd5b505af115801561491c573d6000803e3d6000fd5b50505050808061492b9061632b565b915050614876565b505b50505050565b600082148061494a5750600081145b1561495457614a38565b61495d83614d3a565b600061497a846002015485600101546134e390919063ffffffff16565b9050600061499183856134e390919063ffffffff16565b90506149ce6149ad858760010154612f0a90919063ffffffff16565b6149c08385612f0a90919063ffffffff16565b61477590919063ffffffff16565b85600201819055506149ed848660010154612f0a90919063ffffffff16565b85600101819055504285600001819055507fe07fdbc26a8001506c5f058f6ab03687030b84b808efb98548b198cd4ab6655185604051614a2d9190615ed4565b60405180910390a150505b505050565b614a8f81601260008573ffffffffffffffffffffffffffffffffffffffff1673ffffffffffffffffffffffffffffffffffffffff16815260200190815260200160002054612f0a90919063ffffffff16565b601260008473ffffffffffffffffffffffffffffffffffffffff1673ffffffffffffffffffffffffffffffffffffffff168152602001908152602001600020819055508173ffffffffffffffffffffffffffffffffffffffff167f622702f95f23ffc72d9a19eebca7fe3f096bd11e6b936722f55a5094917bc468601260008573ffffffffffffffffffffffffffffffffffffffff1673ffffffffffffffffffffffffffffffffffffffff16815260200190815260200160002054604051614b579190615f0a565b60405180910390a25050565b600073ffffffffffffffffffffffffffffffffffffffff168273ffffffffffffffffffffffffffffffffffffffff161415614bd3576040517f08c379a0000000000000000000000000000000000000000000000000000000008152600401614bca90615dd9565b60405180910390fd5b614bdf8260008361478b565b60008060008473ffffffffffffffffffffffffffffffffffffffff1673ffffffffffffffffffffffffffffffffffffffff16815260200190815260200160002054905081811015614c65576040517f08c379a0000000000000000000000000000000000000000000000000000000008152600401614c5c90615cb9565b60405180910390fd5b8181036000808573ffffffffffffffffffffffffffffffffffffffff1673ffffffffffffffffffffffffffffffffffffffff168152602001908152602001600020819055508160026000828254614cbc9190616194565b92505081905550600073ffffffffffffffffffffffffffffffffffffffff168373ffffffffffffffffffffffffffffffffffffffff167fddf252ad1be2c89b69c2b068fc378daa952ba7f163c4a11628f55a4df523b3ef84604051614d219190615f0a565b60405180910390a3614d3583600084614863565b505050565b6000614d6e8260405180606001604052908160008201548152602001600182015481526020016002820154815250506134f9565b90506000811415614d9b576000826001018190555060008260020181905550428260000181905550614de3565b614dc88260020154614dba8460010154846134e390919063ffffffff16565b61477590919063ffffffff16565b82600101819055508082600201819055504282600001819055505b7fe07fdbc26a8001506c5f058f6ab03687030b84b808efb98548b198cd4ab6655182604051614e129190615ed4565b60405180910390a15050565b60405180606001604052806000815260200160008152602001600081525090565b6040518060600160405280600073ffffffffffffffffffffffffffffffffffffffff16815260200160008152602001600081525090565b6000614e89614e848461603f565b61600e565b90508083825260208201905082856020860282011115614ea857600080fd5b60005b85811015614ed85781614ebe8882614f4e565b845260208401935060208301925050600181019050614eab565b5050509392505050565b6000614ef5614ef08461606b565b61600e565b90508083825260208201905082856020860282011115614f1457600080fd5b60005b85811015614f445781614f2a8882614fe1565b845260208401935060208301925050600181019050614f17565b5050509392505050565b600081359050614f5d81616491565b92915050565b600082601f830112614f7457600080fd5b8135614f84848260208601614e76565b91505092915050565b600082601f830112614f9e57600080fd5b8135614fae848260208601614ee2565b91505092915050565b600081359050614fc6816164a8565b92915050565b600081519050614fdb816164a8565b92915050565b600081359050614ff0816164bf565b92915050565b600081359050615005816164d6565b92915050565b60008135905061501a816164e6565b92915050565b60008151905061502f816164e6565b92915050565b60006020828403121561504757600080fd5b600061505584828501614f4e565b91505092915050565b6000806040838503121561507157600080fd5b600061507f85828601614f4e565b925050602061509085828601614f4e565b9150509250929050565b6000806000606084860312156150af57600080fd5b60006150bd86828701614f4e565b93505060206150ce86828701614f4e565b92505060406150df8682870161500b565b9150509250925092565b600080604083850312156150fc57600080fd5b600061510a85828601614f4e565b925050602061511b85828601614fb7565b9150509250929050565b6000806040838503121561513857600080fd5b600061514685828601614f4e565b925050602061515785828601614ff6565b9150509250929050565b6000806040838503121561517457600080fd5b600061518285828601614f4e565b92505060206151938582860161500b565b9150509250929050565b6000806000606084860312156151b257600080fd5b60006151c086828701614f4e565b93505060206151d18682870161500b565b92505060406151e28682870161500b565b9150509250925092565b6000602082840312156151fe57600080fd5b600082013567ffffffffffffffff81111561521857600080fd5b61522484828501614f63565b91505092915050565b60006020828403121561523f57600080fd5b600082013567ffffffffffffffff81111561525957600080fd5b61526584828501614f8d565b91505092915050565b60006020828403121561528057600080fd5b600061528e84828501614fb7565b91505092915050565b6000602082840312156152a957600080fd5b60006152b784828501614fcc565b91505092915050565b6000602082840312156152d257600080fd5b60006152e08482850161500b565b91505092915050565b6000602082840312156152fb57600080fd5b600061530984828501615020565b91505092915050565b6000806040838503121561532557600080fd5b60006153338582860161500b565b92505060206153448582860161500b565b9150509250929050565b60008060006060848603121561536357600080fd5b60006153718682870161500b565b93505060206153828682870161500b565b92505060406153938682870161500b565b9150509250925092565b600080600080608085870312156153b357600080fd5b60006153c18782880161500b565b94505060206153d28782880161500b565b93505060406153e38782880161500b565b92505060606153f487828801614f4e565b91505092959194509250565b615409816161d2565b82525050565b615418816161d2565b82525050565b615427816161d2565b82525050565b615436816161e4565b82525050565b6154458161624c565b82525050565b61545481616270565b82525050565b600061546582616097565b61546f81856160a2565b935061547f818560208601616282565b6154888161645f565b840191505092915050565b60006154a06023836160a2565b91507f45524332303a207472616e7366657220746f20746865207a65726f206164647260008301527f65737300000000000000000000000000000000000000000000000000000000006020830152604082019050919050565b6000615506601b836160a2565b91507f6e6f7420656e6f75676820756e6c6f636b65642062616c616e636500000000006000830152602082019050919050565b60006155466022836160a2565b91507f45524332303a206275726e20616d6f756e7420657863656564732062616c616e60008301527f63650000000000000000000000000000000000000000000000000000000000006020830152604082019050919050565b60006155ac6026836160a2565b91507f4f776e61626c653a206e6577206f776e657220697320746865207a65726f206160008301527f64647265737300000000000000000000000000000000000000000000000000006020830152604082019050919050565b60006156126022836160a2565b91507f45524332303a20617070726f766520746f20746865207a65726f20616464726560008301527f73730000000000000000000000000000000000000000000000000000000000006020830152604082019050919050565b6000615678600f836160a2565b91507f696e76616c69642070657263656e7400000000000000000000000000000000006000830152602082019050919050565b60006156b86013836160a2565b91507f6f6e6c79526566657272616c4d616e61676572000000000000000000000000006000830152602082019050919050565b60006156f86026836160a2565b91507f45524332303a207472616e7366657220616d6f756e742065786365656473206260008301527f616c616e636500000000000000000000000000000000000000000000000000006020830152604082019050919050565b600061575e6016836160a2565b91507f6f6e6c79417070726f76616c4e6f7445787069726564000000000000000000006000830152602082019050919050565b600061579e6028836160a2565b91507f45524332303a207472616e7366657220616d6f756e742065786365656473206160008301527f6c6c6f77616e63650000000000000000000000000000000000000000000000006020830152604082019050919050565b60006158046020836160a2565b91507f4f776e61626c653a2063616c6c6572206973206e6f7420746865206f776e65726000830152602082019050919050565b60006158446021836160a2565b91507f45524332303a206275726e2066726f6d20746865207a65726f2061646472657360008301527f73000000000000000000000000000000000000000000000000000000000000006020830152604082019050919050565b60006158aa6015836160a2565b91507f6f6e6c7956616c6964417070724475726174696f6e00000000000000000000006000830152602082019050919050565b60006158ea6025836160a2565b91507f45524332303a207472616e736665722066726f6d20746865207a65726f20616460008301527f64726573730000000000000000000000000000000000000000000000000000006020830152604082019050919050565b60006159506024836160a2565b91507f45524332303a20617070726f76652066726f6d20746865207a65726f2061646460008301527f72657373000000000000000000000000000000000000000000000000000000006020830152604082019050919050565b60006159b6600f836160a2565b91507f6f6e6c794e6f7444697361626c656400000000000000000000000000000000006000830152602082019050919050565b60006159f66025836160a2565b91507f45524332303a2064656372656173656420616c6c6f77616e63652062656c6f7760008301527f207a65726f0000000000000000000000000000000000000000000000000000006020830152604082019050919050565b6000615a5c601f836160a2565b91507f45524332303a206d696e7420746f20746865207a65726f2061646472657373006000830152602082019050919050565b606082016000820151615aa56000850182615b78565b506020820151615ab86020850182615b78565b506040820151615acb6040850182615b78565b50505050565b606082016000808301549050615ae681616311565b615af36000860182615b78565b5060018301549050615b0481616311565b615b116020860182615b78565b5060028301549050615b2281616311565b615b2f6040860182615b78565b5050505050565b606082016000820151615b4c6000850182615400565b506020820151615b5f6020850182615b78565b506040820151615b726040850182615b78565b50505050565b615b8181616235565b82525050565b615b9081616235565b82525050565b615b9f81616235565b82525050565b615bae8161623f565b82525050565b6000602082019050615bc9600083018461541e565b92915050565b6000602082019050615be4600083018461540f565b92915050565b6000606082019050615bff600083018661540f565b615c0c602083018561540f565b615c196040830184615b87565b949350505050565b6000602082019050615c36600083018461542d565b92915050565b6000602082019050615c51600083018461543c565b92915050565b60006020820190508181036000830152615c71818461545a565b905092915050565b60006020820190508181036000830152615c9281615493565b9050919050565b60006020820190508181036000830152615cb2816154f9565b9050919050565b60006020820190508181036000830152615cd281615539565b9050919050565b60006020820190508181036000830152615cf28161559f565b9050919050565b60006020820190508181036000830152615d1281615605565b9050919050565b60006020820190508181036000830152615d328161566b565b9050919050565b60006020820190508181036000830152615d52816156ab565b9050919050565b60006020820190508181036000830152615d72816156eb565b9050919050565b60006020820190508181036000830152615d9281615751565b9050919050565b60006020820190508181036000830152615db281615791565b9050919050565b60006020820190508181036000830152615dd2816157f7565b9050919050565b60006020820190508181036000830152615df281615837565b9050919050565b60006020820190508181036000830152615e128161589d565b9050919050565b60006020820190508181036000830152615e32816158dd565b9050919050565b60006020820190508181036000830152615e5281615943565b9050919050565b60006020820190508181036000830152615e72816159a9565b9050919050565b60006020820190508181036000830152615e92816159e9565b9050919050565b60006020820190508181036000830152615eb281615a4f565b9050919050565b6000606082019050615ece6000830184615a8f565b92915050565b6000606082019050615ee96000830184615ad1565b92915050565b6000606082019050615f046000830184615b36565b92915050565b6000602082019050615f1f6000830184615b87565b92915050565b6000604082019050615f3a6000830185615b87565b615f47602083018461544b565b9392505050565b6000604082019050615f636000830185615b96565b615f706020830184615b96565b9392505050565b6000606082019050615f8c6000830186615b87565b615f996020830185615b87565b615fa66040830184615b87565b949350505050565b6000608082019050615fc36000830187615b87565b615fd06020830186615b87565b615fdd6040830185615b87565b615fea606083018461540f565b95945050505050565b60006020820190506160086000830184615ba5565b92915050565b6000604051905081810181811067ffffffffffffffff8211171561603557616034616430565b5b8060405250919050565b600067ffffffffffffffff82111561605a57616059616430565b5b602082029050602081019050919050565b600067ffffffffffffffff82111561608657616085616430565b5b602082029050602081019050919050565b600081519050919050565b600082825260208201905092915050565b60006160be82616235565b91506160c983616235565b9250827fffffffffffffffffffffffffffffffffffffffffffffffffffffffffffffffff038211156160fe576160fd616374565b5b828201905092915050565b600061611482616235565b915061611f83616235565b92508261612f5761612e6163a3565b5b828204905092915050565b600061614582616235565b915061615083616235565b9250817fffffffffffffffffffffffffffffffffffffffffffffffffffffffffffffffff048311821515161561618957616188616374565b5b828202905092915050565b600061619f82616235565b91506161aa83616235565b9250828210156161bd576161bc616374565b5b828203905092915050565b6000819050919050565b60006161dd82616215565b9050919050565b60008115159050919050565b60006161fb826161d2565b9050919050565b60008190506162108261647d565b919050565b600073ffffffffffffffffffffffffffffffffffffffff82169050919050565b6000819050919050565b600060ff82169050919050565b60006162578261625e565b9050919050565b600061626982616215565b9050919050565b600061627b82616202565b9050919050565b60005b838110156162a0578082015181840152602081019050616285565b838111156162af576000848401525b50505050565b60006162c082616235565b915060008214156162d4576162d3616374565b5b600182039050919050565b600060028204905060018216806162f757607f821691505b6020821081141561630b5761630a616401565b5b50919050565b600061632461631f83616470565b6161c8565b9050919050565b600061633682616235565b91507fffffffffffffffffffffffffffffffffffffffffffffffffffffffffffffffff82141561636957616368616374565b5b600182019050919050565b7f4e487b7100000000000000000000000000000000000000000000000000000000600052601160045260246000fd5b7f4e487b7100000000000000000000000000000000000000000000000000000000600052601260045260246000fd5b7f4e487b7100000000000000000000000000000000000000000000000000000000600052602160045260246000fd5b7f4e487b7100000000000000000000000000000000000000000000000000000000600052602260045260246000fd5b7f4e487b7100000000000000000000000000000000000000000000000000000000600052604160045260246000fd5b6000601f19601f8301169050919050565b60008160001c9050919050565b6004811061648e5761648d6163d2565b5b50565b61649a816161d2565b81146164a557600080fd5b50565b6164b1816161e4565b81146164bc57600080fd5b50565b6164c8816161f0565b81146164d357600080fd5b50565b600481106164e357600080fd5b50565b6164ef81616235565b81146164fa57600080fd5b5056fea2646970667358221220e6190385991cfbbfc5347a27f3312c1ccfd10e3d916304852c4425df5726683464736f6c63430008000033",
			"opcodes": "PUSH1 0xA0 PUSH1 0x40 MSTORE CALLVALUE DUP1 ISZERO PUSH3 0x11 JUMPI PUSH1 0x0 DUP1 REVERT JUMPDEST POP PUSH1 0x40 MLOAD PUSH3 0x701D CODESIZE SUB DUP1 PUSH3 0x701D DUP4 CODECOPY DUP2 DUP2 ADD PUSH1 0x40 MSTORE DUP2 ADD SWAP1 PUSH3 0x37 SWAP2 SWAP1 PUSH3 0x650 JUMP JUMPDEST DUP1 DUP5 DUP5 DUP2 PUSH1 0x3 SWAP1 DUP1 MLOAD SWAP1 PUSH1 0x20 ADD SWAP1 PUSH3 0x52 SWAP3 SWAP2 SWAP1 PUSH3 0x500 JUMP JUMPDEST POP DUP1 PUSH1 0x4 SWAP1 DUP1 MLOAD SWAP1 PUSH1 0x20 ADD SWAP1 PUSH3 0x6B SWAP3 SWAP2 SWAP1 PUSH3 0x500 JUMP JUMPDEST POP POP POP PUSH3 0x8E PUSH3 0x82 PUSH3 0xF7 PUSH1 0x20 SHL PUSH1 0x20 SHR JUMP JUMPDEST PUSH3 0xFF PUSH1 0x20 SHL PUSH1 0x20 SHR JUMP JUMPDEST DUP1 PUSH20 0xFFFFFFFFFFFFFFFFFFFFFFFFFFFFFFFFFFFFFFFF AND PUSH1 0x80 DUP2 PUSH20 0xFFFFFFFFFFFFFFFFFFFFFFFFFFFFFFFFFFFFFFFF AND PUSH1 0x60 SHL DUP2 MSTORE POP POP POP PUSH3 0xED CALLER PUSH8 0xDE0B6B3A7640000 DUP5 PUSH3 0xE1 SWAP2 SWAP1 PUSH3 0x8A3 JUMP JUMPDEST PUSH3 0x1C5 PUSH1 0x20 SHL PUSH1 0x20 SHR JUMP JUMPDEST POP POP POP POP PUSH3 0xABD JUMP JUMPDEST PUSH1 0x0 CALLER SWAP1 POP SWAP1 JUMP JUMPDEST PUSH1 0x0 PUSH1 0xC PUSH1 0x1 SWAP1 SLOAD SWAP1 PUSH2 0x100 EXP SWAP1 DIV PUSH20 0xFFFFFFFFFFFFFFFFFFFFFFFFFFFFFFFFFFFFFFFF AND SWAP1 POP DUP2 PUSH1 0xC PUSH1 0x1 PUSH2 0x100 EXP DUP2 SLOAD DUP2 PUSH20 0xFFFFFFFFFFFFFFFFFFFFFFFFFFFFFFFFFFFFFFFF MUL NOT AND SWAP1 DUP4 PUSH20 0xFFFFFFFFFFFFFFFFFFFFFFFFFFFFFFFFFFFFFFFF AND MUL OR SWAP1 SSTORE POP DUP2 PUSH20 0xFFFFFFFFFFFFFFFFFFFFFFFFFFFFFFFFFFFFFFFF AND DUP2 PUSH20 0xFFFFFFFFFFFFFFFFFFFFFFFFFFFFFFFFFFFFFFFF AND PUSH32 0x8BE0079C531659141344CD1FD0A4F28419497F9722A3DAAFE3B4186F6B6457E0 PUSH1 0x40 MLOAD PUSH1 0x40 MLOAD DUP1 SWAP2 SUB SWAP1 LOG3 POP POP JUMP JUMPDEST PUSH1 0x0 PUSH20 0xFFFFFFFFFFFFFFFFFFFFFFFFFFFFFFFFFFFFFFFF AND DUP3 PUSH20 0xFFFFFFFFFFFFFFFFFFFFFFFFFFFFFFFFFFFFFFFF AND EQ ISZERO PUSH3 0x238 JUMPI PUSH1 0x40 MLOAD PUSH32 0x8C379A000000000000000000000000000000000000000000000000000000000 DUP2 MSTORE PUSH1 0x4 ADD PUSH3 0x22F SWAP1 PUSH3 0x78F JUMP JUMPDEST PUSH1 0x40 MLOAD DUP1 SWAP2 SUB SWAP1 REVERT JUMPDEST PUSH3 0x24C PUSH1 0x0 DUP4 DUP4 PUSH3 0x33E PUSH1 0x20 SHL PUSH1 0x20 SHR JUMP JUMPDEST DUP1 PUSH1 0x2 PUSH1 0x0 DUP3 DUP3 SLOAD PUSH3 0x260 SWAP2 SWAP1 PUSH3 0x846 JUMP JUMPDEST SWAP3 POP POP DUP2 SWAP1 SSTORE POP DUP1 PUSH1 0x0 DUP1 DUP5 PUSH20 0xFFFFFFFFFFFFFFFFFFFFFFFFFFFFFFFFFFFFFFFF AND PUSH20 0xFFFFFFFFFFFFFFFFFFFFFFFFFFFFFFFFFFFFFFFF AND DUP2 MSTORE PUSH1 0x20 ADD SWAP1 DUP2 MSTORE PUSH1 0x20 ADD PUSH1 0x0 KECCAK256 PUSH1 0x0 DUP3 DUP3 SLOAD PUSH3 0x2B7 SWAP2 SWAP1 PUSH3 0x846 JUMP JUMPDEST SWAP3 POP POP DUP2 SWAP1 SSTORE POP DUP2 PUSH20 0xFFFFFFFFFFFFFFFFFFFFFFFFFFFFFFFFFFFFFFFF AND PUSH1 0x0 PUSH20 0xFFFFFFFFFFFFFFFFFFFFFFFFFFFFFFFFFFFFFFFF AND PUSH32 0xDDF252AD1BE2C89B69C2B068FC378DAA952BA7F163C4A11628F55A4DF523B3EF DUP4 PUSH1 0x40 MLOAD PUSH3 0x31E SWAP2 SWAP1 PUSH3 0x7B1 JUMP JUMPDEST PUSH1 0x40 MLOAD DUP1 SWAP2 SUB SWAP1 LOG3 PUSH3 0x33A PUSH1 0x0 DUP4 DUP4 PUSH3 0x41F PUSH1 0x20 SHL PUSH1 0x20 SHR JUMP JUMPDEST POP POP JUMP JUMPDEST PUSH1 0x0 PUSH1 0x22 SLOAD SWAP1 POP PUSH1 0x0 DUP2 GT ISZERO PUSH3 0x419 JUMPI PUSH1 0x0 JUMPDEST DUP2 DUP2 LT ISZERO PUSH3 0x417 JUMPI PUSH1 0x20 PUSH1 0x0 DUP3 DUP2 MSTORE PUSH1 0x20 ADD SWAP1 DUP2 MSTORE PUSH1 0x20 ADD PUSH1 0x0 KECCAK256 PUSH1 0x0 SWAP1 SLOAD SWAP1 PUSH2 0x100 EXP SWAP1 DIV PUSH20 0xFFFFFFFFFFFFFFFFFFFFFFFFFFFFFFFFFFFFFFFF AND PUSH20 0xFFFFFFFFFFFFFFFFFFFFFFFFFFFFFFFFFFFFFFFF AND PUSH4 0xC771EEEF DUP7 DUP7 DUP7 PUSH1 0x40 MLOAD DUP5 PUSH4 0xFFFFFFFF AND PUSH1 0xE0 SHL DUP2 MSTORE PUSH1 0x4 ADD PUSH3 0x3CD SWAP4 SWAP3 SWAP2 SWAP1 PUSH3 0x752 JUMP JUMPDEST PUSH1 0x0 PUSH1 0x40 MLOAD DUP1 DUP4 SUB DUP2 PUSH1 0x0 DUP8 DUP1 EXTCODESIZE ISZERO DUP1 ISZERO PUSH3 0x3E8 JUMPI PUSH1 0x0 DUP1 REVERT JUMPDEST POP GAS CALL ISZERO DUP1 ISZERO PUSH3 0x3FD JUMPI RETURNDATASIZE PUSH1 0x0 DUP1 RETURNDATACOPY RETURNDATASIZE PUSH1 0x0 REVERT JUMPDEST POP POP POP POP DUP1 DUP1 PUSH3 0x40E SWAP1 PUSH3 0x9AE JUMP JUMPDEST SWAP2 POP POP PUSH3 0x352 JUMP JUMPDEST POP JUMPDEST POP POP POP POP JUMP JUMPDEST PUSH1 0x0 PUSH1 0x23 SLOAD SWAP1 POP PUSH1 0x0 DUP2 GT ISZERO PUSH3 0x4FA JUMPI PUSH1 0x0 JUMPDEST DUP2 DUP2 LT ISZERO PUSH3 0x4F8 JUMPI PUSH1 0x21 PUSH1 0x0 DUP3 DUP2 MSTORE PUSH1 0x20 ADD SWAP1 DUP2 MSTORE PUSH1 0x20 ADD PUSH1 0x0 KECCAK256 PUSH1 0x0 SWAP1 SLOAD SWAP1 PUSH2 0x100 EXP SWAP1 DIV PUSH20 0xFFFFFFFFFFFFFFFFFFFFFFFFFFFFFFFFFFFFFFFF AND PUSH20 0xFFFFFFFFFFFFFFFFFFFFFFFFFFFFFFFFFFFFFFFF AND PUSH4 0x5CF8305B DUP7 DUP7 DUP7 PUSH1 0x40 MLOAD DUP5 PUSH4 0xFFFFFFFF AND PUSH1 0xE0 SHL DUP2 MSTORE PUSH1 0x4 ADD PUSH3 0x4AE SWAP4 SWAP3 SWAP2 SWAP1 PUSH3 0x752 JUMP JUMPDEST PUSH1 0x0 PUSH1 0x40 MLOAD DUP1 DUP4 SUB DUP2 PUSH1 0x0 DUP8 DUP1 EXTCODESIZE ISZERO DUP1 ISZERO PUSH3 0x4C9 JUMPI PUSH1 0x0 DUP1 REVERT JUMPDEST POP GAS CALL ISZERO DUP1 ISZERO PUSH3 0x4DE JUMPI RETURNDATASIZE PUSH1 0x0 DUP1 RETURNDATACOPY RETURNDATASIZE PUSH1 0x0 REVERT JUMPDEST POP POP POP POP DUP1 DUP1 PUSH3 0x4EF SWAP1 PUSH3 0x9AE JUMP JUMPDEST SWAP2 POP POP PUSH3 0x433 JUMP JUMPDEST POP JUMPDEST POP POP POP POP JUMP JUMPDEST DUP3 DUP1 SLOAD PUSH3 0x50E SWAP1 PUSH3 0x978 JUMP JUMPDEST SWAP1 PUSH1 0x0 MSTORE PUSH1 0x20 PUSH1 0x0 KECCAK256 SWAP1 PUSH1 0x1F ADD PUSH1 0x20 SWAP1 DIV DUP2 ADD SWAP3 DUP3 PUSH3 0x532 JUMPI PUSH1 0x0 DUP6 SSTORE PUSH3 0x57E JUMP JUMPDEST DUP3 PUSH1 0x1F LT PUSH3 0x54D JUMPI DUP1 MLOAD PUSH1 0xFF NOT AND DUP4 DUP1 ADD OR DUP6 SSTORE PUSH3 0x57E JUMP JUMPDEST DUP3 DUP1 ADD PUSH1 0x1 ADD DUP6 SSTORE DUP3 ISZERO PUSH3 0x57E JUMPI SWAP2 DUP3 ADD JUMPDEST DUP3 DUP2 GT ISZERO PUSH3 0x57D JUMPI DUP3 MLOAD DUP3 SSTORE SWAP2 PUSH1 0x20 ADD SWAP2 SWAP1 PUSH1 0x1 ADD SWAP1 PUSH3 0x560 JUMP JUMPDEST JUMPDEST POP SWAP1 POP PUSH3 0x58D SWAP2 SWAP1 PUSH3 0x591 JUMP JUMPDEST POP SWAP1 JUMP JUMPDEST JUMPDEST DUP1 DUP3 GT ISZERO PUSH3 0x5AC JUMPI PUSH1 0x0 DUP2 PUSH1 0x0 SWAP1 SSTORE POP PUSH1 0x1 ADD PUSH3 0x592 JUMP JUMPDEST POP SWAP1 JUMP JUMPDEST PUSH1 0x0 PUSH3 0x5C7 PUSH3 0x5C1 DUP5 PUSH3 0x802 JUMP JUMPDEST PUSH3 0x7CE JUMP JUMPDEST SWAP1 POP DUP3 DUP2 MSTORE PUSH1 0x20 DUP2 ADD DUP5 DUP5 DUP5 ADD GT ISZERO PUSH3 0x5E0 JUMPI PUSH1 0x0 DUP1 REVERT JUMPDEST PUSH3 0x5ED DUP5 DUP3 DUP6 PUSH3 0x942 JUMP JUMPDEST POP SWAP4 SWAP3 POP POP POP JUMP JUMPDEST PUSH1 0x0 DUP2 MLOAD SWAP1 POP PUSH3 0x606 DUP2 PUSH3 0xA89 JUMP JUMPDEST SWAP3 SWAP2 POP POP JUMP JUMPDEST PUSH1 0x0 DUP3 PUSH1 0x1F DUP4 ADD SLT PUSH3 0x61E JUMPI PUSH1 0x0 DUP1 REVERT JUMPDEST DUP2 MLOAD PUSH3 0x630 DUP5 DUP3 PUSH1 0x20 DUP7 ADD PUSH3 0x5B0 JUMP JUMPDEST SWAP2 POP POP SWAP3 SWAP2 POP POP JUMP JUMPDEST PUSH1 0x0 DUP2 MLOAD SWAP1 POP PUSH3 0x64A DUP2 PUSH3 0xAA3 JUMP JUMPDEST SWAP3 SWAP2 POP POP JUMP JUMPDEST PUSH1 0x0 DUP1 PUSH1 0x0 DUP1 PUSH1 0x80 DUP6 DUP8 SUB SLT ISZERO PUSH3 0x667 JUMPI PUSH1 0x0 DUP1 REVERT JUMPDEST PUSH1 0x0 DUP6 ADD MLOAD PUSH8 0xFFFFFFFFFFFFFFFF DUP2 GT ISZERO PUSH3 0x682 JUMPI PUSH1 0x0 DUP1 REVERT JUMPDEST PUSH3 0x690 DUP8 DUP3 DUP9 ADD PUSH3 0x60C JUMP JUMPDEST SWAP5 POP POP PUSH1 0x20 DUP6 ADD MLOAD PUSH8 0xFFFFFFFFFFFFFFFF DUP2 GT ISZERO PUSH3 0x6AE JUMPI PUSH1 0x0 DUP1 REVERT JUMPDEST PUSH3 0x6BC DUP8 DUP3 DUP9 ADD PUSH3 0x60C JUMP JUMPDEST SWAP4 POP POP PUSH1 0x40 PUSH3 0x6CF DUP8 DUP3 DUP9 ADD PUSH3 0x639 JUMP JUMPDEST SWAP3 POP POP PUSH1 0x60 PUSH3 0x6E2 DUP8 DUP3 DUP9 ADD PUSH3 0x5F5 JUMP JUMPDEST SWAP2 POP POP SWAP3 SWAP6 SWAP2 SWAP5 POP SWAP3 POP JUMP JUMPDEST PUSH3 0x6F9 DUP2 PUSH3 0x904 JUMP JUMPDEST DUP3 MSTORE POP POP JUMP JUMPDEST PUSH1 0x0 PUSH3 0x70E PUSH1 0x1F DUP4 PUSH3 0x835 JUMP JUMPDEST SWAP2 POP PUSH32 0x45524332303A206D696E7420746F20746865207A65726F206164647265737300 PUSH1 0x0 DUP4 ADD MSTORE PUSH1 0x20 DUP3 ADD SWAP1 POP SWAP2 SWAP1 POP JUMP JUMPDEST PUSH3 0x74C DUP2 PUSH3 0x938 JUMP JUMPDEST DUP3 MSTORE POP POP JUMP JUMPDEST PUSH1 0x0 PUSH1 0x60 DUP3 ADD SWAP1 POP PUSH3 0x769 PUSH1 0x0 DUP4 ADD DUP7 PUSH3 0x6EE JUMP JUMPDEST PUSH3 0x778 PUSH1 0x20 DUP4 ADD DUP6 PUSH3 0x6EE JUMP JUMPDEST PUSH3 0x787 PUSH1 0x40 DUP4 ADD DUP5 PUSH3 0x741 JUMP JUMPDEST SWAP5 SWAP4 POP POP POP POP JUMP JUMPDEST PUSH1 0x0 PUSH1 0x20 DUP3 ADD SWAP1 POP DUP2 DUP2 SUB PUSH1 0x0 DUP4 ADD MSTORE PUSH3 0x7AA DUP2 PUSH3 0x6FF JUMP JUMPDEST SWAP1 POP SWAP2 SWAP1 POP JUMP JUMPDEST PUSH1 0x0 PUSH1 0x20 DUP3 ADD SWAP1 POP PUSH3 0x7C8 PUSH1 0x0 DUP4 ADD DUP5 PUSH3 0x741 JUMP JUMPDEST SWAP3 SWAP2 POP POP JUMP JUMPDEST PUSH1 0x0 PUSH1 0x40 MLOAD SWAP1 POP DUP2 DUP2 ADD DUP2 DUP2 LT PUSH8 0xFFFFFFFFFFFFFFFF DUP3 GT OR ISZERO PUSH3 0x7F8 JUMPI PUSH3 0x7F7 PUSH3 0xA5A JUMP JUMPDEST JUMPDEST DUP1 PUSH1 0x40 MSTORE POP SWAP2 SWAP1 POP JUMP JUMPDEST PUSH1 0x0 PUSH8 0xFFFFFFFFFFFFFFFF DUP3 GT ISZERO PUSH3 0x820 JUMPI PUSH3 0x81F PUSH3 0xA5A JUMP JUMPDEST JUMPDEST PUSH1 0x1F NOT PUSH1 0x1F DUP4 ADD AND SWAP1 POP PUSH1 0x20 DUP2 ADD SWAP1 POP SWAP2 SWAP1 POP JUMP JUMPDEST PUSH1 0x0 DUP3 DUP3 MSTORE PUSH1 0x20 DUP3 ADD SWAP1 POP SWAP3 SWAP2 POP POP JUMP JUMPDEST PUSH1 0x0 PUSH3 0x853 DUP3 PUSH3 0x938 JUMP JUMPDEST SWAP2 POP PUSH3 0x860 DUP4 PUSH3 0x938 JUMP JUMPDEST SWAP3 POP DUP3 PUSH32 0xFFFFFFFFFFFFFFFFFFFFFFFFFFFFFFFFFFFFFFFFFFFFFFFFFFFFFFFFFFFFFFFF SUB DUP3 GT ISZERO PUSH3 0x898 JUMPI PUSH3 0x897 PUSH3 0x9FC JUMP JUMPDEST JUMPDEST DUP3 DUP3 ADD SWAP1 POP SWAP3 SWAP2 POP POP JUMP JUMPDEST PUSH1 0x0 PUSH3 0x8B0 DUP3 PUSH3 0x938 JUMP JUMPDEST SWAP2 POP PUSH3 0x8BD DUP4 PUSH3 0x938 JUMP JUMPDEST SWAP3 POP DUP2 PUSH32 0xFFFFFFFFFFFFFFFFFFFFFFFFFFFFFFFFFFFFFFFFFFFFFFFFFFFFFFFFFFFFFFFF DIV DUP4 GT DUP3 ISZERO ISZERO AND ISZERO PUSH3 0x8F9 JUMPI PUSH3 0x8F8 PUSH3 0x9FC JUMP JUMPDEST JUMPDEST DUP3 DUP3 MUL SWAP1 POP SWAP3 SWAP2 POP POP JUMP JUMPDEST PUSH1 0x0 PUSH3 0x911 DUP3 PUSH3 0x918 JUMP JUMPDEST SWAP1 POP SWAP2 SWAP1 POP JUMP JUMPDEST PUSH1 0x0 PUSH20 0xFFFFFFFFFFFFFFFFFFFFFFFFFFFFFFFFFFFFFFFF DUP3 AND SWAP1 POP SWAP2 SWAP1 POP JUMP JUMPDEST PUSH1 0x0 DUP2 SWAP1 POP SWAP2 SWAP1 POP JUMP JUMPDEST PUSH1 0x0 JUMPDEST DUP4 DUP2 LT ISZERO PUSH3 0x962 JUMPI DUP1 DUP3 ADD MLOAD DUP2 DUP5 ADD MSTORE PUSH1 0x20 DUP2 ADD SWAP1 POP PUSH3 0x945 JUMP JUMPDEST DUP4 DUP2 GT ISZERO PUSH3 0x972 JUMPI PUSH1 0x0 DUP5 DUP5 ADD MSTORE JUMPDEST POP POP POP POP JUMP JUMPDEST PUSH1 0x0 PUSH1 0x2 DUP3 DIV SWAP1 POP PUSH1 0x1 DUP3 AND DUP1 PUSH3 0x991 JUMPI PUSH1 0x7F DUP3 AND SWAP2 POP JUMPDEST PUSH1 0x20 DUP3 LT DUP2 EQ ISZERO PUSH3 0x9A8 JUMPI PUSH3 0x9A7 PUSH3 0xA2B JUMP JUMPDEST JUMPDEST POP SWAP2 SWAP1 POP JUMP JUMPDEST PUSH1 0x0 PUSH3 0x9BB DUP3 PUSH3 0x938 JUMP JUMPDEST SWAP2 POP PUSH32 0xFFFFFFFFFFFFFFFFFFFFFFFFFFFFFFFFFFFFFFFFFFFFFFFFFFFFFFFFFFFFFFFF DUP3 EQ ISZERO PUSH3 0x9F1 JUMPI PUSH3 0x9F0 PUSH3 0x9FC JUMP JUMPDEST JUMPDEST PUSH1 0x1 DUP3 ADD SWAP1 POP SWAP2 SWAP1 POP JUMP JUMPDEST PUSH32 0x4E487B7100000000000000000000000000000000000000000000000000000000 PUSH1 0x0 MSTORE PUSH1 0x11 PUSH1 0x4 MSTORE PUSH1 0x24 PUSH1 0x0 REVERT JUMPDEST PUSH32 0x4E487B7100000000000000000000000000000000000000000000000000000000 PUSH1 0x0 MSTORE PUSH1 0x22 PUSH1 0x4 MSTORE PUSH1 0x24 PUSH1 0x0 REVERT JUMPDEST PUSH32 0x4E487B7100000000000000000000000000000000000000000000000000000000 PUSH1 0x0 MSTORE PUSH1 0x41 PUSH1 0x4 MSTORE PUSH1 0x24 PUSH1 0x0 REVERT JUMPDEST PUSH3 0xA94 DUP2 PUSH3 0x904 JUMP JUMPDEST DUP2 EQ PUSH3 0xAA0 JUMPI PUSH1 0x0 DUP1 REVERT JUMPDEST POP JUMP JUMPDEST PUSH3 0xAAE DUP2 PUSH3 0x938 JUMP JUMPDEST DUP2 EQ PUSH3 0xABA JUMPI PUSH1 0x0 DUP1 REVERT JUMPDEST POP JUMP JUMPDEST PUSH1 0x80 MLOAD PUSH1 0x60 SHR PUSH2 0x6533 PUSH3 0xAEA PUSH1 0x0 CODECOPY PUSH1 0x0 DUP2 DUP2 PUSH2 0x1F8A ADD MSTORE DUP2 DUP2 PUSH2 0x2067 ADD MSTORE PUSH2 0x2110 ADD MSTORE PUSH2 0x6533 PUSH1 0x0 RETURN INVALID PUSH1 0x80 PUSH1 0x40 MSTORE CALLVALUE DUP1 ISZERO PUSH2 0x10 JUMPI PUSH1 0x0 DUP1 REVERT JUMPDEST POP PUSH1 0x4 CALLDATASIZE LT PUSH2 0x43E JUMPI PUSH1 0x0 CALLDATALOAD PUSH1 0xE0 SHR DUP1 PUSH4 0x7A5B22AC GT PUSH2 0x236 JUMPI DUP1 PUSH4 0xB5E65195 GT PUSH2 0x13B JUMPI DUP1 PUSH4 0xD64E2214 GT PUSH2 0xC3 JUMPI DUP1 PUSH4 0xF4937E26 GT PUSH2 0x87 JUMPI DUP1 PUSH4 0xF4937E26 EQ PUSH2 0xDE4 JUMPI DUP1 PUSH4 0xF60E7A07 EQ PUSH2 0xE14 JUMPI DUP1 PUSH4 0xFA2CA0ED EQ PUSH2 0xE44 JUMPI DUP1 PUSH4 0xFA9119EC EQ PUSH2 0xE60 JUMPI DUP1 PUSH4 0xFFA1AD74 EQ PUSH2 0xE7E JUMPI PUSH2 0x43E JUMP JUMPDEST DUP1 PUSH4 0xD64E2214 EQ PUSH2 0xD3D JUMPI DUP1 PUSH4 0xDD62ED3E EQ PUSH2 0xD5B JUMPI DUP1 PUSH4 0xE2AB691D EQ PUSH2 0xD8B JUMPI DUP1 PUSH4 0xE463A32F EQ PUSH2 0xDA7 JUMPI DUP1 PUSH4 0xF2FDE38B EQ PUSH2 0xDC8 JUMPI PUSH2 0x43E JUMP JUMPDEST DUP1 PUSH4 0xCF8CAA78 GT PUSH2 0x10A JUMPI DUP1 PUSH4 0xCF8CAA78 EQ PUSH2 0xC87 JUMPI DUP1 PUSH4 0xCFEAEE31 EQ PUSH2 0xCB7 JUMPI DUP1 PUSH4 0xD21CACDF EQ PUSH2 0xCD3 JUMPI DUP1 PUSH4 0xD4DCB3E7 EQ PUSH2 0xD03 JUMPI DUP1 PUSH4 0xD51E701A EQ PUSH2 0xD21 JUMPI PUSH2 0x43E JUMP JUMPDEST DUP1 PUSH4 0xB5E65195 EQ PUSH2 0xBED JUMPI DUP1 PUSH4 0xC2AB7E64 EQ PUSH2 0xC1D JUMPI DUP1 PUSH4 0xC5F3A4C4 EQ PUSH2 0xC4D JUMPI DUP1 PUSH4 0xCA5C7B91 EQ PUSH2 0xC69 JUMPI PUSH2 0x43E JUMP JUMPDEST DUP1 PUSH4 0x911F050D GT PUSH2 0x1BE JUMPI DUP1 PUSH4 0xA2A79520 GT PUSH2 0x18D JUMPI DUP1 PUSH4 0xA2A79520 EQ PUSH2 0xAFD JUMPI DUP1 PUSH4 0xA457C2D7 EQ PUSH2 0xB2D JUMPI DUP1 PUSH4 0xA9059CBB EQ PUSH2 0xB5D JUMPI DUP1 PUSH4 0xAA120477 EQ PUSH2 0xB8D JUMPI DUP1 PUSH4 0xAC7A3D9B EQ PUSH2 0xBBD JUMPI PUSH2 0x43E JUMP JUMPDEST DUP1 PUSH4 0x911F050D EQ PUSH2 0xA61 JUMPI DUP1 PUSH4 0x94D13FBA EQ PUSH2 0xA7F JUMPI DUP1 PUSH4 0x95D89B41 EQ PUSH2 0xAAF JUMPI DUP1 PUSH4 0x9B902485 EQ PUSH2 0xACD JUMPI PUSH2 0x43E JUMP JUMPDEST DUP1 PUSH4 0x89801167 GT PUSH2 0x205 JUMPI DUP1 PUSH4 0x89801167 EQ PUSH2 0x9D1 JUMPI DUP1 PUSH4 0x8A49A1B3 EQ PUSH2 0x9ED JUMPI DUP1 PUSH4 0x8CFC26E9 EQ PUSH2 0x9F7 JUMPI DUP1 PUSH4 0x8DA5CB5B EQ PUSH2 0xA13 JUMPI DUP1 PUSH4 0x8E6806B7 EQ PUSH2 0xA31 JUMPI PUSH2 0x43E JUMP JUMPDEST DUP1 PUSH4 0x7A5B22AC EQ PUSH2 0x949 JUMPI DUP1 PUSH4 0x7EEE288D EQ PUSH2 0x967 JUMPI DUP1 PUSH4 0x80F86F7C EQ PUSH2 0x983 JUMPI DUP1 PUSH4 0x84955C88 EQ PUSH2 0x9A1 JUMPI PUSH2 0x43E JUMP JUMPDEST DUP1 PUSH4 0x32E72613 GT PUSH2 0x347 JUMPI DUP1 PUSH4 0x631AD94C GT PUSH2 0x2CF JUMPI DUP1 PUSH4 0x71560438 GT PUSH2 0x293 JUMPI DUP1 PUSH4 0x71560438 EQ PUSH2 0x8B5 JUMPI DUP1 PUSH4 0x71DB3D53 EQ PUSH2 0x8D3 JUMPI DUP1 PUSH4 0x75039349 EQ PUSH2 0x8F1 JUMPI DUP1 PUSH4 0x786C58A3 EQ PUSH2 0x90F JUMPI DUP1 PUSH4 0x78F76DF7 EQ PUSH2 0x92D JUMPI PUSH2 0x43E JUMP JUMPDEST DUP1 PUSH4 0x631AD94C EQ PUSH2 0x827 JUMPI DUP1 PUSH4 0x6356E347 EQ PUSH2 0x843 JUMPI DUP1 PUSH4 0x6A71F088 EQ PUSH2 0x85F JUMPI DUP1 PUSH4 0x70A08231 EQ PUSH2 0x87B JUMPI DUP1 PUSH4 0x715018A6 EQ PUSH2 0x8AB JUMPI PUSH2 0x43E JUMP JUMPDEST DUP1 PUSH4 0x58B5DD72 GT PUSH2 0x316 JUMPI DUP1 PUSH4 0x58B5DD72 EQ PUSH2 0x773 JUMPI DUP1 PUSH4 0x5B143985 EQ PUSH2 0x7A3 JUMPI DUP1 PUSH4 0x5CF8305B EQ PUSH2 0x7BF JUMPI DUP1 PUSH4 0x5D9E1115 EQ PUSH2 0x7DB JUMPI DUP1 PUSH4 0x5DBC25C3 EQ PUSH2 0x80B JUMPI PUSH2 0x43E JUMP JUMPDEST DUP1 PUSH4 0x32E72613 EQ PUSH2 0x6B3 JUMPI DUP1 PUSH4 0x341808F0 EQ PUSH2 0x6E3 JUMPI DUP1 PUSH4 0x39509351 EQ PUSH2 0x713 JUMPI DUP1 PUSH4 0x3C0257A1 EQ PUSH2 0x743 JUMPI PUSH2 0x43E JUMP JUMPDEST DUP1 PUSH4 0x11F2ACD8 GT PUSH2 0x3CA JUMPI DUP1 PUSH4 0x23B872DD GT PUSH2 0x399 JUMPI DUP1 PUSH4 0x23B872DD EQ PUSH2 0x60B JUMPI DUP1 PUSH4 0x26C8FDED EQ PUSH2 0x63B JUMPI DUP1 PUSH4 0x2BB02CC0 EQ PUSH2 0x659 JUMPI DUP1 PUSH4 0x2CCD9623 EQ PUSH2 0x677 JUMPI DUP1 PUSH4 0x313CE567 EQ PUSH2 0x695 JUMPI PUSH2 0x43E JUMP JUMPDEST DUP1 PUSH4 0x11F2ACD8 EQ PUSH2 0x593 JUMPI DUP1 PUSH4 0x18160DDD EQ PUSH2 0x5B1 JUMPI DUP1 PUSH4 0x19749877 EQ PUSH2 0x5CF JUMPI DUP1 PUSH4 0x1DB9DE9D EQ PUSH2 0x5ED JUMPI PUSH2 0x43E JUMP JUMPDEST DUP1 PUSH4 0x9CF1C49 GT PUSH2 0x411 JUMPI DUP1 PUSH4 0x9CF1C49 EQ PUSH2 0x4DF JUMPI DUP1 PUSH4 0xBE2F221 EQ PUSH2 0x4FB JUMPI DUP1 PUSH4 0xC3E0C56 EQ PUSH2 0x517 JUMPI DUP1 PUSH4 0xD0FCB8F EQ PUSH2 0x533 JUMPI DUP1 PUSH4 0xF437028 EQ PUSH2 0x563 JUMPI PUSH2 0x43E JUMP JUMPDEST DUP1 PUSH4 0x6FDDE03 EQ PUSH2 0x443 JUMPI DUP1 PUSH4 0x8B6F847 EQ PUSH2 0x461 JUMPI DUP1 PUSH4 0x91074AD EQ PUSH2 0x47F JUMPI DUP1 PUSH4 0x95EA7B3 EQ PUSH2 0x4AF JUMPI JUMPDEST PUSH1 0x0 DUP1 REVERT JUMPDEST PUSH2 0x44B PUSH2 0xE9C JUMP JUMPDEST PUSH1 0x40 MLOAD PUSH2 0x458 SWAP2 SWAP1 PUSH2 0x5C57 JUMP JUMPDEST PUSH1 0x40 MLOAD DUP1 SWAP2 SUB SWAP1 RETURN JUMPDEST PUSH2 0x469 PUSH2 0xF2E JUMP JUMPDEST PUSH1 0x40 MLOAD PUSH2 0x476 SWAP2 SWAP1 PUSH2 0x5F0A JUMP JUMPDEST PUSH1 0x40 MLOAD DUP1 SWAP2 SUB SWAP1 RETURN JUMPDEST PUSH2 0x499 PUSH1 0x4 DUP1 CALLDATASIZE SUB DUP2 ADD SWAP1 PUSH2 0x494 SWAP2 SWAP1 PUSH2 0x5035 JUMP JUMPDEST PUSH2 0xF34 JUMP JUMPDEST PUSH1 0x40 MLOAD PUSH2 0x4A6 SWAP2 SWAP1 PUSH2 0x5F0A JUMP JUMPDEST PUSH1 0x40 MLOAD DUP1 SWAP2 SUB SWAP1 RETURN JUMPDEST PUSH2 0x4C9 PUSH1 0x4 DUP1 CALLDATASIZE SUB DUP2 ADD SWAP1 PUSH2 0x4C4 SWAP2 SWAP1 PUSH2 0x5161 JUMP JUMPDEST PUSH2 0xF7D JUMP JUMPDEST PUSH1 0x40 MLOAD PUSH2 0x4D6 SWAP2 SWAP1 PUSH2 0x5C21 JUMP JUMPDEST PUSH1 0x40 MLOAD DUP1 SWAP2 SUB SWAP1 RETURN JUMPDEST PUSH2 0x4F9 PUSH1 0x4 DUP1 CALLDATASIZE SUB DUP2 ADD SWAP1 PUSH2 0x4F4 SWAP2 SWAP1 PUSH2 0x526E JUMP JUMPDEST PUSH2 0xF9B JUMP JUMPDEST STOP JUMPDEST PUSH2 0x515 PUSH1 0x4 DUP1 CALLDATASIZE SUB DUP2 ADD SWAP1 PUSH2 0x510 SWAP2 SWAP1 PUSH2 0x50E9 JUMP JUMPDEST PUSH2 0xFAF JUMP JUMPDEST STOP JUMPDEST PUSH2 0x531 PUSH1 0x4 DUP1 CALLDATASIZE SUB DUP2 ADD SWAP1 PUSH2 0x52C SWAP2 SWAP1 PUSH2 0x52C0 JUMP JUMPDEST PUSH2 0xFC5 JUMP JUMPDEST STOP JUMPDEST PUSH2 0x54D PUSH1 0x4 DUP1 CALLDATASIZE SUB DUP2 ADD SWAP1 PUSH2 0x548 SWAP2 SWAP1 PUSH2 0x5035 JUMP JUMPDEST PUSH2 0xFD2 JUMP JUMPDEST PUSH1 0x40 MLOAD PUSH2 0x55A SWAP2 SWAP1 PUSH2 0x5C21 JUMP JUMPDEST PUSH1 0x40 MLOAD DUP1 SWAP2 SUB SWAP1 RETURN JUMPDEST PUSH2 0x57D PUSH1 0x4 DUP1 CALLDATASIZE SUB DUP2 ADD SWAP1 PUSH2 0x578 SWAP2 SWAP1 PUSH2 0x5035 JUMP JUMPDEST PUSH2 0x1028 JUMP JUMPDEST PUSH1 0x40 MLOAD PUSH2 0x58A SWAP2 SWAP1 PUSH2 0x5F0A JUMP JUMPDEST PUSH1 0x40 MLOAD DUP1 SWAP2 SUB SWAP1 RETURN JUMPDEST PUSH2 0x59B PUSH2 0x1071 JUMP JUMPDEST PUSH1 0x40 MLOAD PUSH2 0x5A8 SWAP2 SWAP1 PUSH2 0x5F0A JUMP JUMPDEST PUSH1 0x40 MLOAD DUP1 SWAP2 SUB SWAP1 RETURN JUMPDEST PUSH2 0x5B9 PUSH2 0x107B JUMP JUMPDEST PUSH1 0x40 MLOAD PUSH2 0x5C6 SWAP2 SWAP1 PUSH2 0x5F0A JUMP JUMPDEST PUSH1 0x40 MLOAD DUP1 SWAP2 SUB SWAP1 RETURN JUMPDEST PUSH2 0x5D7 PUSH2 0x10BA JUMP JUMPDEST PUSH1 0x40 MLOAD PUSH2 0x5E4 SWAP2 SWAP1 PUSH2 0x5C21 JUMP JUMPDEST PUSH1 0x40 MLOAD DUP1 SWAP2 SUB SWAP1 RETURN JUMPDEST PUSH2 0x5F5 PUSH2 0x10D1 JUMP JUMPDEST PUSH1 0x40 MLOAD PUSH2 0x602 SWAP2 SWAP1 PUSH2 0x5F0A JUMP JUMPDEST PUSH1 0x40 MLOAD DUP1 SWAP2 SUB SWAP1 RETURN JUMPDEST PUSH2 0x625 PUSH1 0x4 DUP1 CALLDATASIZE SUB DUP2 ADD SWAP1 PUSH2 0x620 SWAP2 SWAP1 PUSH2 0x509A JUMP JUMPDEST PUSH2 0x10D7 JUMP JUMPDEST PUSH1 0x40 MLOAD PUSH2 0x632 SWAP2 SWAP1 PUSH2 0x5C21 JUMP JUMPDEST PUSH1 0x40 MLOAD DUP1 SWAP2 SUB SWAP1 RETURN JUMPDEST PUSH2 0x643 PUSH2 0x11CF JUMP JUMPDEST PUSH1 0x40 MLOAD PUSH2 0x650 SWAP2 SWAP1 PUSH2 0x5F0A JUMP JUMPDEST PUSH1 0x40 MLOAD DUP1 SWAP2 SUB SWAP1 RETURN JUMPDEST PUSH2 0x661 PUSH2 0x11D9 JUMP JUMPDEST PUSH1 0x40 MLOAD PUSH2 0x66E SWAP2 SWAP1 PUSH2 0x5F0A JUMP JUMPDEST PUSH1 0x40 MLOAD DUP1 SWAP2 SUB SWAP1 RETURN JUMPDEST PUSH2 0x67F PUSH2 0x11E3 JUMP JUMPDEST PUSH1 0x40 MLOAD PUSH2 0x68C SWAP2 SWAP1 PUSH2 0x5BCF JUMP JUMPDEST PUSH1 0x40 MLOAD DUP1 SWAP2 SUB SWAP1 RETURN JUMPDEST PUSH2 0x69D PUSH2 0x120D JUMP JUMPDEST PUSH1 0x40 MLOAD PUSH2 0x6AA SWAP2 SWAP1 PUSH2 0x5FF3 JUMP JUMPDEST PUSH1 0x40 MLOAD DUP1 SWAP2 SUB SWAP1 RETURN JUMPDEST PUSH2 0x6CD PUSH1 0x4 DUP1 CALLDATASIZE SUB DUP2 ADD SWAP1 PUSH2 0x6C8 SWAP2 SWAP1 PUSH2 0x505E JUMP JUMPDEST PUSH2 0x1216 JUMP JUMPDEST PUSH1 0x40 MLOAD PUSH2 0x6DA SWAP2 SWAP1 PUSH2 0x5C21 JUMP JUMPDEST PUSH1 0x40 MLOAD DUP1 SWAP2 SUB SWAP1 RETURN JUMPDEST PUSH2 0x6FD PUSH1 0x4 DUP1 CALLDATASIZE SUB DUP2 ADD SWAP1 PUSH2 0x6F8 SWAP2 SWAP1 PUSH2 0x5125 JUMP JUMPDEST PUSH2 0x12BA JUMP JUMPDEST PUSH1 0x40 MLOAD PUSH2 0x70A SWAP2 SWAP1 PUSH2 0x5F0A JUMP JUMPDEST PUSH1 0x40 MLOAD DUP1 SWAP2 SUB SWAP1 RETURN JUMPDEST PUSH2 0x72D PUSH1 0x4 DUP1 CALLDATASIZE SUB DUP2 ADD SWAP1 PUSH2 0x728 SWAP2 SWAP1 PUSH2 0x5161 JUMP JUMPDEST PUSH2 0x1385 JUMP JUMPDEST PUSH1 0x40 MLOAD PUSH2 0x73A SWAP2 SWAP1 PUSH2 0x5C21 JUMP JUMPDEST PUSH1 0x40 MLOAD DUP1 SWAP2 SUB SWAP1 RETURN JUMPDEST PUSH2 0x75D PUSH1 0x4 DUP1 CALLDATASIZE SUB DUP2 ADD SWAP1 PUSH2 0x758 SWAP2 SWAP1 PUSH2 0x5035 JUMP JUMPDEST PUSH2 0x1431 JUMP JUMPDEST PUSH1 0x40 MLOAD PUSH2 0x76A SWAP2 SWAP1 PUSH2 0x5F0A JUMP JUMPDEST PUSH1 0x40 MLOAD DUP1 SWAP2 SUB SWAP1 RETURN JUMPDEST PUSH2 0x78D PUSH1 0x4 DUP1 CALLDATASIZE SUB DUP2 ADD SWAP1 PUSH2 0x788 SWAP2 SWAP1 PUSH2 0x5035 JUMP JUMPDEST PUSH2 0x15EF JUMP JUMPDEST PUSH1 0x40 MLOAD PUSH2 0x79A SWAP2 SWAP1 PUSH2 0x5F0A JUMP JUMPDEST PUSH1 0x40 MLOAD DUP1 SWAP2 SUB SWAP1 RETURN JUMPDEST PUSH2 0x7BD PUSH1 0x4 DUP1 CALLDATASIZE SUB DUP2 ADD SWAP1 PUSH2 0x7B8 SWAP2 SWAP1 PUSH2 0x522D JUMP JUMPDEST PUSH2 0x1601 JUMP JUMPDEST STOP JUMPDEST PUSH2 0x7D9 PUSH1 0x4 DUP1 CALLDATASIZE SUB DUP2 ADD SWAP1 PUSH2 0x7D4 SWAP2 SWAP1 PUSH2 0x509A JUMP JUMPDEST PUSH2 0x1615 JUMP JUMPDEST STOP JUMPDEST PUSH2 0x7F5 PUSH1 0x4 DUP1 CALLDATASIZE SUB DUP2 ADD SWAP1 PUSH2 0x7F0 SWAP2 SWAP1 PUSH2 0x5035 JUMP JUMPDEST PUSH2 0x163E JUMP JUMPDEST PUSH1 0x40 MLOAD PUSH2 0x802 SWAP2 SWAP1 PUSH2 0x5F0A JUMP JUMPDEST PUSH1 0x40 MLOAD DUP1 SWAP2 SUB SWAP1 RETURN JUMPDEST PUSH2 0x825 PUSH1 0x4 DUP1 CALLDATASIZE SUB DUP2 ADD SWAP1 PUSH2 0x820 SWAP2 SWAP1 PUSH2 0x5161 JUMP JUMPDEST PUSH2 0x1687 JUMP JUMPDEST STOP JUMPDEST PUSH2 0x841 PUSH1 0x4 DUP1 CALLDATASIZE SUB DUP2 ADD SWAP1 PUSH2 0x83C SWAP2 SWAP1 PUSH2 0x51EC JUMP JUMPDEST PUSH2 0x169D JUMP JUMPDEST STOP JUMPDEST PUSH2 0x85D PUSH1 0x4 DUP1 CALLDATASIZE SUB DUP2 ADD SWAP1 PUSH2 0x858 SWAP2 SWAP1 PUSH2 0x52C0 JUMP JUMPDEST PUSH2 0x1710 JUMP JUMPDEST STOP JUMPDEST PUSH2 0x879 PUSH1 0x4 DUP1 CALLDATASIZE SUB DUP2 ADD SWAP1 PUSH2 0x874 SWAP2 SWAP1 PUSH2 0x534E JUMP JUMPDEST PUSH2 0x1724 JUMP JUMPDEST STOP JUMPDEST PUSH2 0x895 PUSH1 0x4 DUP1 CALLDATASIZE SUB DUP2 ADD SWAP1 PUSH2 0x890 SWAP2 SWAP1 PUSH2 0x5035 JUMP JUMPDEST PUSH2 0x173C JUMP JUMPDEST PUSH1 0x40 MLOAD PUSH2 0x8A2 SWAP2 SWAP1 PUSH2 0x5F0A JUMP JUMPDEST PUSH1 0x40 MLOAD DUP1 SWAP2 SUB SWAP1 RETURN JUMPDEST PUSH2 0x8B3 PUSH2 0x18E4 JUMP JUMPDEST STOP JUMPDEST PUSH2 0x8BD PUSH2 0x18F8 JUMP JUMPDEST PUSH1 0x40 MLOAD PUSH2 0x8CA SWAP2 SWAP1 PUSH2 0x5EB9 JUMP JUMPDEST PUSH1 0x40 MLOAD DUP1 SWAP2 SUB SWAP1 RETURN JUMPDEST PUSH2 0x8DB PUSH2 0x1930 JUMP JUMPDEST PUSH1 0x40 MLOAD PUSH2 0x8E8 SWAP2 SWAP1 PUSH2 0x5F0A JUMP JUMPDEST PUSH1 0x40 MLOAD DUP1 SWAP2 SUB SWAP1 RETURN JUMPDEST PUSH2 0x8F9 PUSH2 0x1936 JUMP JUMPDEST PUSH1 0x40 MLOAD PUSH2 0x906 SWAP2 SWAP1 PUSH2 0x5F0A JUMP JUMPDEST PUSH1 0x40 MLOAD DUP1 SWAP2 SUB SWAP1 RETURN JUMPDEST PUSH2 0x917 PUSH2 0x1940 JUMP JUMPDEST PUSH1 0x40 MLOAD PUSH2 0x924 SWAP2 SWAP1 PUSH2 0x5F0A JUMP JUMPDEST PUSH1 0x40 MLOAD DUP1 SWAP2 SUB SWAP1 RETURN JUMPDEST PUSH2 0x947 PUSH1 0x4 DUP1 CALLDATASIZE SUB DUP2 ADD SWAP1 PUSH2 0x942 SWAP2 SWAP1 PUSH2 0x539D JUMP JUMPDEST PUSH2 0x194A JUMP JUMPDEST STOP JUMPDEST PUSH2 0x951 PUSH2 0x1964 JUMP JUMPDEST PUSH1 0x40 MLOAD PUSH2 0x95E SWAP2 SWAP1 PUSH2 0x5F0A JUMP JUMPDEST PUSH1 0x40 MLOAD DUP1 SWAP2 SUB SWAP1 RETURN JUMPDEST PUSH2 0x981 PUSH1 0x4 DUP1 CALLDATASIZE SUB DUP2 ADD SWAP1 PUSH2 0x97C SWAP2 SWAP1 PUSH2 0x5161 JUMP JUMPDEST PUSH2 0x196E JUMP JUMPDEST STOP JUMPDEST PUSH2 0x98B PUSH2 0x1986 JUMP JUMPDEST PUSH1 0x40 MLOAD PUSH2 0x998 SWAP2 SWAP1 PUSH2 0x5F0A JUMP JUMPDEST PUSH1 0x40 MLOAD DUP1 SWAP2 SUB SWAP1 RETURN JUMPDEST PUSH2 0x9BB PUSH1 0x4 DUP1 CALLDATASIZE SUB DUP2 ADD SWAP1 PUSH2 0x9B6 SWAP2 SWAP1 PUSH2 0x5035 JUMP JUMPDEST PUSH2 0x1990 JUMP JUMPDEST PUSH1 0x40 MLOAD PUSH2 0x9C8 SWAP2 SWAP1 PUSH2 0x5F0A JUMP JUMPDEST PUSH1 0x40 MLOAD DUP1 SWAP2 SUB SWAP1 RETURN JUMPDEST PUSH2 0x9EB PUSH1 0x4 DUP1 CALLDATASIZE SUB DUP2 ADD SWAP1 PUSH2 0x9E6 SWAP2 SWAP1 PUSH2 0x522D JUMP JUMPDEST PUSH2 0x19BC JUMP JUMPDEST STOP JUMPDEST PUSH2 0x9F5 PUSH2 0x19D0 JUMP JUMPDEST STOP JUMPDEST PUSH2 0xA11 PUSH1 0x4 DUP1 CALLDATASIZE SUB DUP2 ADD SWAP1 PUSH2 0xA0C SWAP2 SWAP1 PUSH2 0x52C0 JUMP JUMPDEST PUSH2 0x19E2 JUMP JUMPDEST STOP JUMPDEST PUSH2 0xA1B PUSH2 0x19F6 JUMP JUMPDEST PUSH1 0x40 MLOAD PUSH2 0xA28 SWAP2 SWAP1 PUSH2 0x5BCF JUMP JUMPDEST PUSH1 0x40 MLOAD DUP1 SWAP2 SUB SWAP1 RETURN JUMPDEST PUSH2 0xA4B PUSH1 0x4 DUP1 CALLDATASIZE SUB DUP2 ADD SWAP1 PUSH2 0xA46 SWAP2 SWAP1 PUSH2 0x5312 JUMP JUMPDEST PUSH2 0x1A20 JUMP JUMPDEST PUSH1 0x40 MLOAD PUSH2 0xA58 SWAP2 SWAP1 PUSH2 0x5F0A JUMP JUMPDEST PUSH1 0x40 MLOAD DUP1 SWAP2 SUB SWAP1 RETURN JUMPDEST PUSH2 0xA69 PUSH2 0x1A3C JUMP JUMPDEST PUSH1 0x40 MLOAD PUSH2 0xA76 SWAP2 SWAP1 PUSH2 0x5F0A JUMP JUMPDEST PUSH1 0x40 MLOAD DUP1 SWAP2 SUB SWAP1 RETURN JUMPDEST PUSH2 0xA99 PUSH1 0x4 DUP1 CALLDATASIZE SUB DUP2 ADD SWAP1 PUSH2 0xA94 SWAP2 SWAP1 PUSH2 0x5035 JUMP JUMPDEST PUSH2 0x1A46 JUMP JUMPDEST PUSH1 0x40 MLOAD PUSH2 0xAA6 SWAP2 SWAP1 PUSH2 0x5F0A JUMP JUMPDEST PUSH1 0x40 MLOAD DUP1 SWAP2 SUB SWAP1 RETURN JUMPDEST PUSH2 0xAB7 PUSH2 0x1BC4 JUMP JUMPDEST PUSH1 0x40 MLOAD PUSH2 0xAC4 SWAP2 SWAP1 PUSH2 0x5C57 JUMP JUMPDEST PUSH1 0x40 MLOAD DUP1 SWAP2 SUB SWAP1 RETURN JUMPDEST PUSH2 0xAE7 PUSH1 0x4 DUP1 CALLDATASIZE SUB DUP2 ADD SWAP1 PUSH2 0xAE2 SWAP2 SWAP1 PUSH2 0x52C0 JUMP JUMPDEST PUSH2 0x1C56 JUMP JUMPDEST PUSH1 0x40 MLOAD PUSH2 0xAF4 SWAP2 SWAP1 PUSH2 0x5C3C JUMP JUMPDEST PUSH1 0x40 MLOAD DUP1 SWAP2 SUB SWAP1 RETURN JUMPDEST PUSH2 0xB17 PUSH1 0x4 DUP1 CALLDATASIZE SUB DUP2 ADD SWAP1 PUSH2 0xB12 SWAP2 SWAP1 PUSH2 0x5035 JUMP JUMPDEST PUSH2 0x1C89 JUMP JUMPDEST PUSH1 0x40 MLOAD PUSH2 0xB24 SWAP2 SWAP1 PUSH2 0x5F0A JUMP JUMPDEST PUSH1 0x40 MLOAD DUP1 SWAP2 SUB SWAP1 RETURN JUMPDEST PUSH2 0xB47 PUSH1 0x4 DUP1 CALLDATASIZE SUB DUP2 ADD SWAP1 PUSH2 0xB42 SWAP2 SWAP1 PUSH2 0x5161 JUMP JUMPDEST PUSH2 0x1D02 JUMP JUMPDEST PUSH1 0x40 MLOAD PUSH2 0xB54 SWAP2 SWAP1 PUSH2 0x5C21 JUMP JUMPDEST PUSH1 0x40 MLOAD DUP1 SWAP2 SUB SWAP1 RETURN JUMPDEST PUSH2 0xB77 PUSH1 0x4 DUP1 CALLDATASIZE SUB DUP2 ADD SWAP1 PUSH2 0xB72 SWAP2 SWAP1 PUSH2 0x5161 JUMP JUMPDEST PUSH2 0x1DED JUMP JUMPDEST PUSH1 0x40 MLOAD PUSH2 0xB84 SWAP2 SWAP1 PUSH2 0x5C21 JUMP JUMPDEST PUSH1 0x40 MLOAD DUP1 SWAP2 SUB SWAP1 RETURN JUMPDEST PUSH2 0xBA7 PUSH1 0x4 DUP1 CALLDATASIZE SUB DUP2 ADD SWAP1 PUSH2 0xBA2 SWAP2 SWAP1 PUSH2 0x5035 JUMP JUMPDEST PUSH2 0x1E0B JUMP JUMPDEST PUSH1 0x40 MLOAD PUSH2 0xBB4 SWAP2 SWAP1 PUSH2 0x5C21 JUMP JUMPDEST PUSH1 0x40 MLOAD DUP1 SWAP2 SUB SWAP1 RETURN JUMPDEST PUSH2 0xBD7 PUSH1 0x4 DUP1 CALLDATASIZE SUB DUP2 ADD SWAP1 PUSH2 0xBD2 SWAP2 SWAP1 PUSH2 0x5035 JUMP JUMPDEST PUSH2 0x1E2B JUMP JUMPDEST PUSH1 0x40 MLOAD PUSH2 0xBE4 SWAP2 SWAP1 PUSH2 0x5F0A JUMP JUMPDEST PUSH1 0x40 MLOAD DUP1 SWAP2 SUB SWAP1 RETURN JUMPDEST PUSH2 0xC07 PUSH1 0x4 DUP1 CALLDATASIZE SUB DUP2 ADD SWAP1 PUSH2 0xC02 SWAP2 SWAP1 PUSH2 0x5312 JUMP JUMPDEST PUSH2 0x1EA4 JUMP JUMPDEST PUSH1 0x40 MLOAD PUSH2 0xC14 SWAP2 SWAP1 PUSH2 0x5F0A JUMP JUMPDEST PUSH1 0x40 MLOAD DUP1 SWAP2 SUB SWAP1 RETURN JUMPDEST PUSH2 0xC37 PUSH1 0x4 DUP1 CALLDATASIZE SUB DUP2 ADD SWAP1 PUSH2 0xC32 SWAP2 SWAP1 PUSH2 0x5035 JUMP JUMPDEST PUSH2 0x1EC0 JUMP JUMPDEST PUSH1 0x40 MLOAD PUSH2 0xC44 SWAP2 SWAP1 PUSH2 0x5EB9 JUMP JUMPDEST PUSH1 0x40 MLOAD DUP1 SWAP2 SUB SWAP1 RETURN JUMPDEST PUSH2 0xC67 PUSH1 0x4 DUP1 CALLDATASIZE SUB DUP2 ADD SWAP1 PUSH2 0xC62 SWAP2 SWAP1 PUSH2 0x5035 JUMP JUMPDEST PUSH2 0x1F37 JUMP JUMPDEST STOP JUMPDEST PUSH2 0xC71 PUSH2 0x1F4B JUMP JUMPDEST PUSH1 0x40 MLOAD PUSH2 0xC7E SWAP2 SWAP1 PUSH2 0x5F0A JUMP JUMPDEST PUSH1 0x40 MLOAD DUP1 SWAP2 SUB SWAP1 RETURN JUMPDEST PUSH2 0xCA1 PUSH1 0x4 DUP1 CALLDATASIZE SUB DUP2 ADD SWAP1 PUSH2 0xC9C SWAP2 SWAP1 PUSH2 0x5035 JUMP JUMPDEST PUSH2 0x1F85 JUMP JUMPDEST PUSH1 0x40 MLOAD PUSH2 0xCAE SWAP2 SWAP1 PUSH2 0x5C21 JUMP JUMPDEST PUSH1 0x40 MLOAD DUP1 SWAP2 SUB SWAP1 RETURN JUMPDEST PUSH2 0xCD1 PUSH1 0x4 DUP1 CALLDATASIZE SUB DUP2 ADD SWAP1 PUSH2 0xCCC SWAP2 SWAP1 PUSH2 0x52C0 JUMP JUMPDEST PUSH2 0x21C5 JUMP JUMPDEST STOP JUMPDEST PUSH2 0xCED PUSH1 0x4 DUP1 CALLDATASIZE SUB DUP2 ADD SWAP1 PUSH2 0xCE8 SWAP2 SWAP1 PUSH2 0x5035 JUMP JUMPDEST PUSH2 0x21D9 JUMP JUMPDEST PUSH1 0x40 MLOAD PUSH2 0xCFA SWAP2 SWAP1 PUSH2 0x5EEF JUMP JUMPDEST PUSH1 0x40 MLOAD DUP1 SWAP2 SUB SWAP1 RETURN JUMPDEST PUSH2 0xD0B PUSH2 0x229C JUMP JUMPDEST PUSH1 0x40 MLOAD PUSH2 0xD18 SWAP2 SWAP1 PUSH2 0x5F0A JUMP JUMPDEST PUSH1 0x40 MLOAD DUP1 SWAP2 SUB SWAP1 RETURN JUMPDEST PUSH2 0xD3B PUSH1 0x4 DUP1 CALLDATASIZE SUB DUP2 ADD SWAP1 PUSH2 0xD36 SWAP2 SWAP1 PUSH2 0x52C0 JUMP JUMPDEST PUSH2 0x22AB JUMP JUMPDEST STOP JUMPDEST PUSH2 0xD45 PUSH2 0x22BF JUMP JUMPDEST PUSH1 0x40 MLOAD PUSH2 0xD52 SWAP2 SWAP1 PUSH2 0x5BCF JUMP JUMPDEST PUSH1 0x40 MLOAD DUP1 SWAP2 SUB SWAP1 RETURN JUMPDEST PUSH2 0xD75 PUSH1 0x4 DUP1 CALLDATASIZE SUB DUP2 ADD SWAP1 PUSH2 0xD70 SWAP2 SWAP1 PUSH2 0x505E JUMP JUMPDEST PUSH2 0x22E9 JUMP JUMPDEST PUSH1 0x40 MLOAD PUSH2 0xD82 SWAP2 SWAP1 PUSH2 0x5F0A JUMP JUMPDEST PUSH1 0x40 MLOAD DUP1 SWAP2 SUB SWAP1 RETURN JUMPDEST PUSH2 0xDA5 PUSH1 0x4 DUP1 CALLDATASIZE SUB DUP2 ADD SWAP1 PUSH2 0xDA0 SWAP2 SWAP1 PUSH2 0x519D JUMP JUMPDEST PUSH2 0x2316 JUMP JUMPDEST STOP JUMPDEST PUSH2 0xDAF PUSH2 0x232F JUMP JUMPDEST PUSH1 0x40 MLOAD PUSH2 0xDBF SWAP5 SWAP4 SWAP3 SWAP2 SWAP1 PUSH2 0x5FAE JUMP JUMPDEST PUSH1 0x40 MLOAD DUP1 SWAP2 SUB SWAP1 RETURN JUMPDEST PUSH2 0xDE2 PUSH1 0x4 DUP1 CALLDATASIZE SUB DUP2 ADD SWAP1 PUSH2 0xDDD SWAP2 SWAP1 PUSH2 0x5035 JUMP JUMPDEST PUSH2 0x236F JUMP JUMPDEST STOP JUMPDEST PUSH2 0xDFE PUSH1 0x4 DUP1 CALLDATASIZE SUB DUP2 ADD SWAP1 PUSH2 0xDF9 SWAP2 SWAP1 PUSH2 0x52C0 JUMP JUMPDEST PUSH2 0x23F3 JUMP JUMPDEST PUSH1 0x40 MLOAD PUSH2 0xE0B SWAP2 SWAP1 PUSH2 0x5C3C JUMP JUMPDEST PUSH1 0x40 MLOAD DUP1 SWAP2 SUB SWAP1 RETURN JUMPDEST PUSH2 0xE2E PUSH1 0x4 DUP1 CALLDATASIZE SUB DUP2 ADD SWAP1 PUSH2 0xE29 SWAP2 SWAP1 PUSH2 0x505E JUMP JUMPDEST PUSH2 0x2425 JUMP JUMPDEST PUSH1 0x40 MLOAD PUSH2 0xE3B SWAP2 SWAP1 PUSH2 0x5F0A JUMP JUMPDEST PUSH1 0x40 MLOAD DUP1 SWAP2 SUB SWAP1 RETURN JUMPDEST PUSH2 0xE5E PUSH1 0x4 DUP1 CALLDATASIZE SUB DUP2 ADD SWAP1 PUSH2 0xE59 SWAP2 SWAP1 PUSH2 0x5161 JUMP JUMPDEST PUSH2 0x24AC JUMP JUMPDEST STOP JUMPDEST PUSH2 0xE68 PUSH2 0x254A JUMP JUMPDEST PUSH1 0x40 MLOAD PUSH2 0xE75 SWAP2 SWAP1 PUSH2 0x5F0A JUMP JUMPDEST PUSH1 0x40 MLOAD DUP1 SWAP2 SUB SWAP1 RETURN JUMPDEST PUSH2 0xE86 PUSH2 0x2550 JUMP JUMPDEST PUSH1 0x40 MLOAD PUSH2 0xE93 SWAP2 SWAP1 PUSH2 0x5C57 JUMP JUMPDEST PUSH1 0x40 MLOAD DUP1 SWAP2 SUB SWAP1 RETURN JUMPDEST PUSH1 0x60 PUSH1 0x3 DUP1 SLOAD PUSH2 0xEAB SWAP1 PUSH2 0x62DF JUMP JUMPDEST DUP1 PUSH1 0x1F ADD PUSH1 0x20 DUP1 SWAP2 DIV MUL PUSH1 0x20 ADD PUSH1 0x40 MLOAD SWAP1 DUP2 ADD PUSH1 0x40 MSTORE DUP1 SWAP3 SWAP2 SWAP1 DUP2 DUP2 MSTORE PUSH1 0x20 ADD DUP3 DUP1 SLOAD PUSH2 0xED7 SWAP1 PUSH2 0x62DF JUMP JUMPDEST DUP1 ISZERO PUSH2 0xF24 JUMPI DUP1 PUSH1 0x1F LT PUSH2 0xEF9 JUMPI PUSH2 0x100 DUP1 DUP4 SLOAD DIV MUL DUP4 MSTORE SWAP2 PUSH1 0x20 ADD SWAP2 PUSH2 0xF24 JUMP JUMPDEST DUP3 ADD SWAP2 SWAP1 PUSH1 0x0 MSTORE PUSH1 0x20 PUSH1 0x0 KECCAK256 SWAP1 JUMPDEST DUP2 SLOAD DUP2 MSTORE SWAP1 PUSH1 0x1 ADD SWAP1 PUSH1 0x20 ADD DUP1 DUP4 GT PUSH2 0xF07 JUMPI DUP3 SWAP1 SUB PUSH1 0x1F AND DUP3 ADD SWAP2 JUMPDEST POP POP POP POP POP SWAP1 POP SWAP1 JUMP JUMPDEST PUSH2 0x384 DUP2 JUMP JUMPDEST PUSH1 0x0 PUSH1 0x18 PUSH1 0x0 DUP4 PUSH20 0xFFFFFFFFFFFFFFFFFFFFFFFFFFFFFFFFFFFFFFFF AND PUSH20 0xFFFFFFFFFFFFFFFFFFFFFFFFFFFFFFFFFFFFFFFF AND DUP2 MSTORE PUSH1 0x20 ADD SWAP1 DUP2 MSTORE PUSH1 0x20 ADD PUSH1 0x0 KECCAK256 SLOAD SWAP1 POP SWAP2 SWAP1 POP JUMP JUMPDEST PUSH1 0x0 PUSH2 0xF91 PUSH2 0xF8A PUSH2 0x2589 JUMP JUMPDEST DUP5 DUP5 PUSH2 0x2591 JUMP JUMPDEST PUSH1 0x1 SWAP1 POP SWAP3 SWAP2 POP POP JUMP JUMPDEST PUSH2 0xFA3 PUSH2 0x2635 JUMP JUMPDEST PUSH2 0xFAC DUP2 PUSH2 0x26B3 JUMP JUMPDEST POP JUMP JUMPDEST PUSH2 0xFB7 PUSH2 0x2635 JUMP JUMPDEST PUSH2 0xFC1 DUP3 DUP3 PUSH2 0x2707 JUMP JUMPDEST POP POP JUMP JUMPDEST PUSH2 0xFCF CALLER DUP3 PUSH2 0x27B0 JUMP JUMPDEST POP JUMP JUMPDEST PUSH1 0x0 PUSH1 0x11 PUSH1 0x0 DUP4 PUSH20 0xFFFFFFFFFFFFFFFFFFFFFFFFFFFFFFFFFFFFFFFF AND PUSH20 0xFFFFFFFFFFFFFFFFFFFFFFFFFFFFFFFFFFFFFFFF AND DUP2 MSTORE PUSH1 0x20 ADD SWAP1 DUP2 MSTORE PUSH1 0x20 ADD PUSH1 0x0 KECCAK256 PUSH1 0x0 SWAP1 SLOAD SWAP1 PUSH2 0x100 EXP SWAP1 DIV PUSH1 0xFF AND SWAP1 POP SWAP2 SWAP1 POP JUMP JUMPDEST PUSH1 0x0 PUSH1 0x19 PUSH1 0x0 DUP4 PUSH20 0xFFFFFFFFFFFFFFFFFFFFFFFFFFFFFFFFFFFFFFFF AND PUSH20 0xFFFFFFFFFFFFFFFFFFFFFFFFFFFFFFFFFFFFFFFF AND DUP2 MSTORE PUSH1 0x20 ADD SWAP1 DUP2 MSTORE PUSH1 0x20 ADD PUSH1 0x0 KECCAK256 SLOAD SWAP1 POP SWAP2 SWAP1 POP JUMP JUMPDEST PUSH1 0x0 PUSH1 0x14 SLOAD SWAP1 POP SWAP1 JUMP JUMPDEST PUSH1 0x0 PUSH2 0x1085 PUSH2 0x1F4B JUMP JUMPDEST PUSH2 0x108D PUSH2 0x229C JUMP JUMPDEST GT ISZERO PUSH2 0x10B2 JUMPI PUSH2 0x109B PUSH2 0x1F4B JUMP JUMPDEST PUSH2 0x10A3 PUSH2 0x229C JUMP JUMPDEST PUSH2 0x10AD SWAP2 SWAP1 PUSH2 0x6194 JUMP JUMPDEST PUSH2 0x10B5 JUMP JUMPDEST PUSH1 0x0 JUMPDEST SWAP1 POP SWAP1 JUMP JUMPDEST PUSH1 0x0 PUSH1 0xC PUSH1 0x0 SWAP1 SLOAD SWAP1 PUSH2 0x100 EXP SWAP1 DIV PUSH1 0xFF AND SWAP1 POP SWAP1 JUMP JUMPDEST PUSH1 0x23 SLOAD DUP2 JUMP JUMPDEST PUSH1 0x0 PUSH2 0x10E4 DUP5 DUP5 DUP5 PUSH2 0x284F JUMP JUMPDEST PUSH1 0x0 PUSH1 0x1 PUSH1 0x0 DUP7 PUSH20 0xFFFFFFFFFFFFFFFFFFFFFFFFFFFFFFFFFFFFFFFF AND PUSH20 0xFFFFFFFFFFFFFFFFFFFFFFFFFFFFFFFFFFFFFFFF AND DUP2 MSTORE PUSH1 0x20 ADD SWAP1 DUP2 MSTORE PUSH1 0x20 ADD PUSH1 0x0 KECCAK256 PUSH1 0x0 PUSH2 0x112F PUSH2 0x2589 JUMP JUMPDEST PUSH20 0xFFFFFFFFFFFFFFFFFFFFFFFFFFFFFFFFFFFFFFFF AND PUSH20 0xFFFFFFFFFFFFFFFFFFFFFFFFFFFFFFFFFFFFFFFF AND DUP2 MSTORE PUSH1 0x20 ADD SWAP1 DUP2 MSTORE PUSH1 0x20 ADD PUSH1 0x0 KECCAK256 SLOAD SWAP1 POP DUP3 DUP2 LT ISZERO PUSH2 0x11AF JUMPI PUSH1 0x40 MLOAD PUSH32 0x8C379A000000000000000000000000000000000000000000000000000000000 DUP2 MSTORE PUSH1 0x4 ADD PUSH2 0x11A6 SWAP1 PUSH2 0x5D99 JUMP JUMPDEST PUSH1 0x40 MLOAD DUP1 SWAP2 SUB SWAP1 REVERT JUMPDEST PUSH2 0x11C3 DUP6 PUSH2 0x11BB PUSH2 0x2589 JUMP JUMPDEST DUP6 DUP5 SUB PUSH2 0x2591 JUMP JUMPDEST PUSH1 0x1 SWAP2 POP POP SWAP4 SWAP3 POP POP POP JUMP JUMPDEST PUSH1 0x0 PUSH1 0xB SLOAD SWAP1 POP SWAP1 JUMP JUMPDEST PUSH1 0x0 PUSH1 0x1C SLOAD SWAP1 POP SWAP1 JUMP JUMPDEST PUSH1 0x0 PUSH1 0x1A PUSH1 0x0 SWAP1 SLOAD SWAP1 PUSH2 0x100 EXP SWAP1 DIV PUSH20 0xFFFFFFFFFFFFFFFFFFFFFFFFFFFFFFFFFFFFFFFF AND SWAP1 POP SWAP1 JUMP JUMPDEST PUSH1 0x0 PUSH1 0x12 SWAP1 POP SWAP1 JUMP JUMPDEST PUSH1 0x0 DUP1 PUSH1 0x1F SLOAD EQ ISZERO DUP1 ISZERO PUSH2 0x12B2 JUMPI POP PUSH1 0x1F SLOAD PUSH1 0x1E PUSH1 0x0 DUP6 PUSH20 0xFFFFFFFFFFFFFFFFFFFFFFFFFFFFFFFFFFFFFFFF AND PUSH20 0xFFFFFFFFFFFFFFFFFFFFFFFFFFFFFFFFFFFFFFFF AND DUP2 MSTORE PUSH1 0x20 ADD SWAP1 DUP2 MSTORE PUSH1 0x20 ADD PUSH1 0x0 KECCAK256 PUSH1 0x0 DUP5 PUSH20 0xFFFFFFFFFFFFFFFFFFFFFFFFFFFFFFFFFFFFFFFF AND PUSH20 0xFFFFFFFFFFFFFFFFFFFFFFFFFFFFFFFFFFFFFFFF AND DUP2 MSTORE PUSH1 0x20 ADD SWAP1 DUP2 MSTORE PUSH1 0x20 ADD PUSH1 0x0 KECCAK256 SLOAD TIMESTAMP PUSH2 0x12B0 SWAP2 SWAP1 PUSH2 0x6194 JUMP JUMPDEST GT JUMPDEST SWAP1 POP SWAP3 SWAP2 POP POP JUMP JUMPDEST PUSH1 0x0 PUSH1 0x7 PUSH1 0x0 DUP5 PUSH20 0xFFFFFFFFFFFFFFFFFFFFFFFFFFFFFFFFFFFFFFFF AND PUSH20 0xFFFFFFFFFFFFFFFFFFFFFFFFFFFFFFFFFFFFFFFF AND DUP2 MSTORE PUSH1 0x20 ADD SWAP1 DUP2 MSTORE PUSH1 0x20 ADD PUSH1 0x0 KECCAK256 PUSH1 0x0 DUP4 PUSH1 0x3 DUP2 GT ISZERO PUSH2 0x1336 JUMPI PUSH32 0x4E487B7100000000000000000000000000000000000000000000000000000000 PUSH1 0x0 MSTORE PUSH1 0x21 PUSH1 0x4 MSTORE PUSH1 0x24 PUSH1 0x0 REVERT JUMPDEST PUSH1 0x3 DUP2 GT ISZERO PUSH2 0x136E JUMPI PUSH32 0x4E487B7100000000000000000000000000000000000000000000000000000000 PUSH1 0x0 MSTORE PUSH1 0x21 PUSH1 0x4 MSTORE PUSH1 0x24 PUSH1 0x0 REVERT JUMPDEST DUP2 MSTORE PUSH1 0x20 ADD SWAP1 DUP2 MSTORE PUSH1 0x20 ADD PUSH1 0x0 KECCAK256 SLOAD SWAP1 POP SWAP3 SWAP2 POP POP JUMP JUMPDEST PUSH1 0x0 PUSH2 0x1427 PUSH2 0x1392 PUSH2 0x2589 JUMP JUMPDEST DUP5 DUP5 PUSH1 0x1 PUSH1 0x0 PUSH2 0x13A0 PUSH2 0x2589 JUMP JUMPDEST PUSH20 0xFFFFFFFFFFFFFFFFFFFFFFFFFFFFFFFFFFFFFFFF AND PUSH20 0xFFFFFFFFFFFFFFFFFFFFFFFFFFFFFFFFFFFFFFFF AND DUP2 MSTORE PUSH1 0x20 ADD SWAP1 DUP2 MSTORE PUSH1 0x20 ADD PUSH1 0x0 KECCAK256 PUSH1 0x0 DUP9 PUSH20 0xFFFFFFFFFFFFFFFFFFFFFFFFFFFFFFFFFFFFFFFF AND PUSH20 0xFFFFFFFFFFFFFFFFFFFFFFFFFFFFFFFFFFFFFFFF AND DUP2 MSTORE PUSH1 0x20 ADD SWAP1 DUP2 MSTORE PUSH1 0x20 ADD PUSH1 0x0 KECCAK256 SLOAD PUSH2 0x1422 SWAP2 SWAP1 PUSH2 0x60B3 JUMP JUMPDEST PUSH2 0x2591 JUMP JUMPDEST PUSH1 0x1 SWAP1 POP SWAP3 SWAP2 POP POP JUMP JUMPDEST PUSH1 0x0 DUP1 PUSH1 0x6 PUSH1 0x0 DUP5 PUSH20 0xFFFFFFFFFFFFFFFFFFFFFFFFFFFFFFFFFFFFFFFF AND PUSH20 0xFFFFFFFFFFFFFFFFFFFFFFFFFFFFFFFFFFFFFFFF AND DUP2 MSTORE PUSH1 0x20 ADD SWAP1 DUP2 MSTORE PUSH1 0x20 ADD PUSH1 0x0 KECCAK256 SLOAD GT ISZERO PUSH2 0x14C1 JUMPI PUSH1 0x6 PUSH1 0x0 DUP4 PUSH20 0xFFFFFFFFFFFFFFFFFFFFFFFFFFFFFFFFFFFFFFFF AND PUSH20 0xFFFFFFFFFFFFFFFFFFFFFFFFFFFFFFFFFFFFFFFF AND DUP2 MSTORE PUSH1 0x20 ADD SWAP1 DUP2 MSTORE PUSH1 0x20 ADD PUSH1 0x0 KECCAK256 SLOAD SWAP1 POP PUSH2 0x15EA JUMP JUMPDEST PUSH20 0x0 PUSH4 0xE5E31B13 DUP4 PUSH1 0x40 MLOAD DUP3 PUSH4 0xFFFFFFFF AND PUSH1 0xE0 SHL DUP2 MSTORE PUSH1 0x4 ADD PUSH2 0x14F8 SWAP2 SWAP1 PUSH2 0x5BB4 JUMP JUMPDEST PUSH1 0x20 PUSH1 0x40 MLOAD DUP1 DUP4 SUB DUP2 DUP7 DUP1 EXTCODESIZE ISZERO DUP1 ISZERO PUSH2 0x1510 JUMPI PUSH1 0x0 DUP1 REVERT JUMPDEST POP GAS DELEGATECALL ISZERO DUP1 ISZERO PUSH2 0x1524 JUMPI RETURNDATASIZE PUSH1 0x0 DUP1 RETURNDATACOPY RETURNDATASIZE PUSH1 0x0 REVERT JUMPDEST POP POP POP POP PUSH1 0x40 MLOAD RETURNDATASIZE PUSH1 0x1F NOT PUSH1 0x1F DUP3 ADD AND DUP3 ADD DUP1 PUSH1 0x40 MSTORE POP DUP2 ADD SWAP1 PUSH2 0x1548 SWAP2 SWAP1 PUSH2 0x5297 JUMP JUMPDEST DUP1 PUSH2 0x15D6 JUMPI POP PUSH20 0x0 PUSH4 0xF3D7D282 DUP4 PUSH1 0x40 MLOAD DUP3 PUSH4 0xFFFFFFFF AND PUSH1 0xE0 SHL DUP2 MSTORE PUSH1 0x4 ADD PUSH2 0x1585 SWAP2 SWAP1 PUSH2 0x5BB4 JUMP JUMPDEST PUSH1 0x20 PUSH1 0x40 MLOAD DUP1 DUP4 SUB DUP2 DUP7 DUP1 EXTCODESIZE ISZERO DUP1 ISZERO PUSH2 0x159D JUMPI PUSH1 0x0 DUP1 REVERT JUMPDEST POP GAS DELEGATECALL ISZERO DUP1 ISZERO PUSH2 0x15B1 JUMPI RETURNDATASIZE PUSH1 0x0 DUP1 RETURNDATACOPY RETURNDATASIZE PUSH1 0x0 REVERT JUMPDEST POP POP POP POP PUSH1 0x40 MLOAD RETURNDATASIZE PUSH1 0x1F NOT PUSH1 0x1F DUP3 ADD AND DUP3 ADD DUP1 PUSH1 0x40 MSTORE POP DUP2 ADD SWAP1 PUSH2 0x15D5 SWAP2 SWAP1 PUSH2 0x5297 JUMP JUMPDEST JUMPDEST ISZERO PUSH2 0x15E5 JUMPI PUSH1 0xB SLOAD SWAP1 POP PUSH2 0x15EA JUMP JUMPDEST PUSH1 0x0 SWAP1 POP JUMPDEST SWAP2 SWAP1 POP JUMP JUMPDEST PUSH1 0x0 PUSH2 0x15FA DUP3 PUSH2 0x2A9E JUMP JUMPDEST SWAP1 POP SWAP2 SWAP1 POP JUMP JUMPDEST PUSH2 0x1609 PUSH2 0x2635 JUMP JUMPDEST PUSH2 0x1612 DUP2 PUSH2 0x2AE6 JUMP JUMPDEST POP JUMP JUMPDEST PUSH2 0x1627 DUP4 PUSH2 0x1622 DUP6 PUSH2 0x2A9E JUMP JUMPDEST PUSH2 0x2BB2 JUMP JUMPDEST PUSH2 0x1639 DUP3 PUSH2 0x1634 DUP5 PUSH2 0x2A9E JUMP JUMPDEST PUSH2 0x2BB2 JUMP JUMPDEST POP POP POP JUMP JUMPDEST PUSH1 0x0 PUSH1 0x12 PUSH1 0x0 DUP4 PUSH20 0xFFFFFFFFFFFFFFFFFFFFFFFFFFFFFFFFFFFFFFFF AND PUSH20 0xFFFFFFFFFFFFFFFFFFFFFFFFFFFFFFFFFFFFFFFF AND DUP2 MSTORE PUSH1 0x20 ADD SWAP1 DUP2 MSTORE PUSH1 0x20 ADD PUSH1 0x0 KECCAK256 SLOAD SWAP1 POP SWAP2 SWAP1 POP JUMP JUMPDEST PUSH2 0x168F PUSH2 0x2635 JUMP JUMPDEST PUSH2 0x1699 DUP3 DUP3 PUSH2 0x2DD5 JUMP JUMPDEST POP POP JUMP JUMPDEST PUSH1 0x0 DUP2 MLOAD SWAP1 POP PUSH1 0x0 JUMPDEST DUP2 DUP2 LT ISZERO PUSH2 0x170B JUMPI PUSH2 0x16F7 DUP4 DUP3 DUP2 MLOAD DUP2 LT PUSH2 0x16EA JUMPI PUSH32 0x4E487B7100000000000000000000000000000000000000000000000000000000 PUSH1 0x0 MSTORE PUSH1 0x32 PUSH1 0x4 MSTORE PUSH1 0x24 PUSH1 0x0 REVERT JUMPDEST PUSH1 0x20 MUL PUSH1 0x20 ADD ADD MLOAD PUSH2 0x1F85 JUMP JUMPDEST POP DUP1 DUP1 PUSH2 0x1703 SWAP1 PUSH2 0x632B JUMP JUMPDEST SWAP2 POP POP PUSH2 0x16A6 JUMP JUMPDEST POP POP POP JUMP JUMPDEST PUSH2 0x1718 PUSH2 0x2635 JUMP JUMPDEST PUSH2 0x1721 DUP2 PUSH2 0x2E6B JUMP JUMPDEST POP JUMP JUMPDEST PUSH2 0x172C PUSH2 0x2635 JUMP JUMPDEST PUSH2 0x1737 DUP4 DUP4 DUP4 PUSH2 0x2EB5 JUMP JUMPDEST POP POP POP JUMP JUMPDEST PUSH1 0x0 PUSH20 0x0 PUSH4 0xF3D7D282 CALLER PUSH1 0x40 MLOAD DUP3 PUSH4 0xFFFFFFFF AND PUSH1 0xE0 SHL DUP2 MSTORE PUSH1 0x4 ADD PUSH2 0x1775 SWAP2 SWAP1 PUSH2 0x5BB4 JUMP JUMPDEST PUSH1 0x20 PUSH1 0x40 MLOAD DUP1 DUP4 SUB DUP2 DUP7 DUP1 EXTCODESIZE ISZERO DUP1 ISZERO PUSH2 0x178D JUMPI PUSH1 0x0 DUP1 REVERT JUMPDEST POP GAS DELEGATECALL ISZERO DUP1 ISZERO PUSH2 0x17A1 JUMPI RETURNDATASIZE PUSH1 0x0 DUP1 RETURNDATACOPY RETURNDATASIZE PUSH1 0x0 REVERT JUMPDEST POP POP POP POP PUSH1 0x40 MLOAD RETURNDATASIZE PUSH1 0x1F NOT PUSH1 0x1F DUP3 ADD AND DUP3 ADD DUP1 PUSH1 0x40 MSTORE POP DUP2 ADD SWAP1 PUSH2 0x17C5 SWAP2 SWAP1 PUSH2 0x5297 JUMP JUMPDEST PUSH2 0x17D9 JUMPI PUSH2 0x17D2 DUP3 PUSH2 0x1990 JUMP JUMPDEST SWAP1 POP PUSH2 0x18DF JUMP JUMPDEST CALLER PUSH20 0xFFFFFFFFFFFFFFFFFFFFFFFFFFFFFFFFFFFFFFFF AND DUP3 PUSH20 0xFFFFFFFFFFFFFFFFFFFFFFFFFFFFFFFFFFFFFFFF AND EQ ISZERO PUSH2 0x181D JUMPI PUSH2 0x1816 DUP3 PUSH2 0x2A9E JUMP JUMPDEST SWAP1 POP PUSH2 0x18DF JUMP JUMPDEST PUSH20 0x0 PUSH4 0xE5E31B13 DUP4 PUSH1 0x40 MLOAD DUP3 PUSH4 0xFFFFFFFF AND PUSH1 0xE0 SHL DUP2 MSTORE PUSH1 0x4 ADD PUSH2 0x1854 SWAP2 SWAP1 PUSH2 0x5BB4 JUMP JUMPDEST PUSH1 0x20 PUSH1 0x40 MLOAD DUP1 DUP4 SUB DUP2 DUP7 DUP1 EXTCODESIZE ISZERO DUP1 ISZERO PUSH2 0x186C JUMPI PUSH1 0x0 DUP1 REVERT JUMPDEST POP GAS DELEGATECALL ISZERO DUP1 ISZERO PUSH2 0x1880 JUMPI RETURNDATASIZE PUSH1 0x0 DUP1 RETURNDATACOPY RETURNDATASIZE PUSH1 0x0 REVERT JUMPDEST POP POP POP POP PUSH1 0x40 MLOAD RETURNDATASIZE PUSH1 0x1F NOT PUSH1 0x1F DUP3 ADD AND DUP3 ADD DUP1 PUSH1 0x40 MSTORE POP DUP2 ADD SWAP1 PUSH2 0x18A4 SWAP2 SWAP1 PUSH2 0x5297 JUMP JUMPDEST ISZERO PUSH2 0x18B9 JUMPI PUSH2 0x18B2 DUP3 PUSH2 0x1990 JUMP JUMPDEST SWAP1 POP PUSH2 0x18DF JUMP JUMPDEST PUSH2 0x18DC PUSH2 0x18C5 DUP4 PUSH2 0x163E JUMP JUMPDEST PUSH2 0x18CE DUP5 PUSH2 0x2A9E JUMP JUMPDEST PUSH2 0x2F0A SWAP1 SWAP2 SWAP1 PUSH4 0xFFFFFFFF AND JUMP JUMPDEST SWAP1 POP JUMPDEST SWAP2 SWAP1 POP JUMP JUMPDEST PUSH2 0x18EC PUSH2 0x2635 JUMP JUMPDEST PUSH2 0x18F6 PUSH1 0x0 PUSH2 0x2F20 JUMP JUMPDEST JUMP JUMPDEST PUSH2 0x1900 PUSH2 0x4E1E JUMP JUMPDEST PUSH1 0x8 PUSH1 0x40 MLOAD DUP1 PUSH1 0x60 ADD PUSH1 0x40 MSTORE SWAP1 DUP2 PUSH1 0x0 DUP3 ADD SLOAD DUP2 MSTORE PUSH1 0x20 ADD PUSH1 0x1 DUP3 ADD SLOAD DUP2 MSTORE PUSH1 0x20 ADD PUSH1 0x2 DUP3 ADD SLOAD DUP2 MSTORE POP POP SWAP1 POP SWAP1 JUMP JUMPDEST PUSH1 0x22 SLOAD DUP2 JUMP JUMPDEST PUSH1 0x0 PUSH1 0x1D SLOAD SWAP1 POP SWAP1 JUMP JUMPDEST PUSH1 0x0 PUSH1 0x1B SLOAD SWAP1 POP SWAP1 JUMP JUMPDEST PUSH2 0x1952 PUSH2 0x2635 JUMP JUMPDEST PUSH2 0x195E DUP5 DUP5 DUP5 DUP5 PUSH2 0x2FE6 JUMP JUMPDEST POP POP POP POP JUMP JUMPDEST PUSH1 0x0 PUSH1 0x15 SLOAD SWAP1 POP SWAP1 JUMP JUMPDEST PUSH2 0x1976 PUSH2 0x2635 JUMP JUMPDEST PUSH2 0x1982 DUP3 DUP3 PUSH1 0x3 PUSH2 0x30AF JUMP JUMPDEST POP POP JUMP JUMPDEST PUSH1 0x0 PUSH1 0x16 SLOAD SWAP1 POP SWAP1 JUMP JUMPDEST PUSH1 0x0 PUSH2 0x19B5 PUSH2 0x199E DUP4 PUSH2 0x1E2B JUMP JUMPDEST PUSH2 0x19A7 DUP5 PUSH2 0x2A9E JUMP JUMPDEST PUSH2 0x32C4 SWAP1 SWAP2 SWAP1 PUSH4 0xFFFFFFFF AND JUMP JUMPDEST SWAP1 POP SWAP2 SWAP1 POP JUMP JUMPDEST PUSH2 0x19C4 PUSH2 0x2635 JUMP JUMPDEST PUSH2 0x19CD DUP2 PUSH2 0x32DA JUMP JUMPDEST POP JUMP JUMPDEST PUSH2 0x19D8 PUSH2 0x2635 JUMP JUMPDEST PUSH2 0x19E0 PUSH2 0x33A6 JUMP JUMPDEST JUMP JUMPDEST PUSH2 0x19EA PUSH2 0x2635 JUMP JUMPDEST PUSH2 0x19F3 DUP2 PUSH2 0x33C3 JUMP JUMPDEST POP JUMP JUMPDEST PUSH1 0x0 PUSH1 0xC PUSH1 0x1 SWAP1 SLOAD SWAP1 PUSH2 0x100 EXP SWAP1 DIV PUSH20 0xFFFFFFFFFFFFFFFFFFFFFFFFFFFFFFFFFFFFFFFF AND SWAP1 POP SWAP1 JUMP JUMPDEST PUSH1 0x0 PUSH2 0x1A34 PUSH2 0x1A2D PUSH2 0x1964 JUMP JUMPDEST DUP5 DUP5 PUSH2 0x340D JUMP JUMPDEST SWAP1 POP SWAP3 SWAP2 POP POP JUMP JUMPDEST PUSH1 0x0 PUSH1 0x1F SLOAD SWAP1 POP SWAP1 JUMP JUMPDEST PUSH1 0x0 DUP1 PUSH1 0x17 PUSH1 0x0 DUP5 PUSH20 0xFFFFFFFFFFFFFFFFFFFFFFFFFFFFFFFFFFFFFFFF AND PUSH20 0xFFFFFFFFFFFFFFFFFFFFFFFFFFFFFFFFFFFFFFFF AND DUP2 MSTORE PUSH1 0x20 ADD SWAP1 DUP2 MSTORE PUSH1 0x20 ADD PUSH1 0x0 KECCAK256 PUSH1 0x40 MLOAD DUP1 PUSH1 0x60 ADD PUSH1 0x40 MSTORE SWAP1 DUP2 PUSH1 0x0 DUP3 ADD PUSH1 0x0 SWAP1 SLOAD SWAP1 PUSH2 0x100 EXP SWAP1 DIV PUSH20 0xFFFFFFFFFFFFFFFFFFFFFFFFFFFFFFFFFFFFFFFF AND PUSH20 0xFFFFFFFFFFFFFFFFFFFFFFFFFFFFFFFFFFFFFFFF AND PUSH20 0xFFFFFFFFFFFFFFFFFFFFFFFFFFFFFFFFFFFFFFFF AND DUP2 MSTORE PUSH1 0x20 ADD PUSH1 0x1 DUP3 ADD SLOAD DUP2 MSTORE PUSH1 0x20 ADD PUSH1 0x2 DUP3 ADD SLOAD DUP2 MSTORE POP POP SWAP1 POP PUSH1 0x0 PUSH20 0xFFFFFFFFFFFFFFFFFFFFFFFFFFFFFFFFFFFFFFFF AND DUP2 PUSH1 0x0 ADD MLOAD PUSH20 0xFFFFFFFFFFFFFFFFFFFFFFFFFFFFFFFFFFFFFFFF AND EQ ISZERO PUSH2 0x1B43 JUMPI PUSH1 0x1D SLOAD SWAP2 POP POP PUSH2 0x1BBF JUMP JUMPDEST PUSH1 0x0 DUP2 PUSH1 0x40 ADD MLOAD TIMESTAMP PUSH2 0x1B55 SWAP2 SWAP1 PUSH2 0x6194 JUMP JUMPDEST SWAP1 POP PUSH1 0x1B SLOAD DUP2 GT ISZERO PUSH2 0x1B6D JUMPI PUSH1 0x0 NOT SWAP3 POP POP POP PUSH2 0x1BBF JUMP JUMPDEST PUSH1 0x0 PUSH1 0x1C SLOAD DUP3 PUSH2 0x1B7D SWAP2 SWAP1 PUSH2 0x6109 JUMP JUMPDEST SWAP1 POP PUSH1 0x0 DUP2 EQ PUSH2 0x1BA7 JUMPI PUSH2 0x1BA2 DUP2 PUSH1 0x1 SWAP1 SHL DUP5 PUSH1 0x20 ADD MLOAD PUSH2 0x34E3 SWAP1 SWAP2 SWAP1 PUSH4 0xFFFFFFFF AND JUMP JUMPDEST PUSH2 0x1BB9 JUMP JUMPDEST PUSH1 0x1 DUP4 PUSH1 0x20 ADD MLOAD PUSH2 0x1BB8 SWAP2 SWAP1 PUSH2 0x60B3 JUMP JUMPDEST JUMPDEST SWAP4 POP POP POP POP JUMPDEST SWAP2 SWAP1 POP JUMP JUMPDEST PUSH1 0x60 PUSH1 0x4 DUP1 SLOAD PUSH2 0x1BD3 SWAP1 PUSH2 0x62DF JUMP JUMPDEST DUP1 PUSH1 0x1F ADD PUSH1 0x20 DUP1 SWAP2 DIV MUL PUSH1 0x20 ADD PUSH1 0x40 MLOAD SWAP1 DUP2 ADD PUSH1 0x40 MSTORE DUP1 SWAP3 SWAP2 SWAP1 DUP2 DUP2 MSTORE PUSH1 0x20 ADD DUP3 DUP1 SLOAD PUSH2 0x1BFF SWAP1 PUSH2 0x62DF JUMP JUMPDEST DUP1 ISZERO PUSH2 0x1C4C JUMPI DUP1 PUSH1 0x1F LT PUSH2 0x1C21 JUMPI PUSH2 0x100 DUP1 DUP4 SLOAD DIV MUL DUP4 MSTORE SWAP2 PUSH1 0x20 ADD SWAP2 PUSH2 0x1C4C JUMP JUMPDEST DUP3 ADD SWAP2 SWAP1 PUSH1 0x0 MSTORE PUSH1 0x20 PUSH1 0x0 KECCAK256 SWAP1 JUMPDEST DUP2 SLOAD DUP2 MSTORE SWAP1 PUSH1 0x1 ADD SWAP1 PUSH1 0x20 ADD DUP1 DUP4 GT PUSH2 0x1C2F JUMPI DUP3 SWAP1 SUB PUSH1 0x1F AND DUP3 ADD SWAP2 JUMPDEST POP POP POP POP POP SWAP1 POP SWAP1 JUMP JUMPDEST PUSH1 0x21 PUSH1 0x20 MSTORE DUP1 PUSH1 0x0 MSTORE PUSH1 0x40 PUSH1 0x0 KECCAK256 PUSH1 0x0 SWAP2 POP SLOAD SWAP1 PUSH2 0x100 EXP SWAP1 DIV PUSH20 0xFFFFFFFFFFFFFFFFFFFFFFFFFFFFFFFFFFFFFFFF AND DUP2 JUMP JUMPDEST PUSH1 0x0 PUSH2 0x1CFB PUSH1 0x5 PUSH1 0x0 DUP5 PUSH20 0xFFFFFFFFFFFFFFFFFFFFFFFFFFFFFFFFFFFFFFFF AND PUSH20 0xFFFFFFFFFFFFFFFFFFFFFFFFFFFFFFFFFFFFFFFF AND DUP2 MSTORE PUSH1 0x20 ADD SWAP1 DUP2 MSTORE PUSH1 0x20 ADD PUSH1 0x0 KECCAK256 PUSH1 0x40 MLOAD DUP1 PUSH1 0x60 ADD PUSH1 0x40 MSTORE SWAP1 DUP2 PUSH1 0x0 DUP3 ADD SLOAD DUP2 MSTORE PUSH1 0x20 ADD PUSH1 0x1 DUP3 ADD SLOAD DUP2 MSTORE PUSH1 0x20 ADD PUSH1 0x2 DUP3 ADD SLOAD DUP2 MSTORE POP POP PUSH2 0x34F9 JUMP JUMPDEST SWAP1 POP SWAP2 SWAP1 POP JUMP JUMPDEST PUSH1 0x0 DUP1 PUSH1 0x1 PUSH1 0x0 PUSH2 0x1D11 PUSH2 0x2589 JUMP JUMPDEST PUSH20 0xFFFFFFFFFFFFFFFFFFFFFFFFFFFFFFFFFFFFFFFF AND PUSH20 0xFFFFFFFFFFFFFFFFFFFFFFFFFFFFFFFFFFFFFFFF AND DUP2 MSTORE PUSH1 0x20 ADD SWAP1 DUP2 MSTORE PUSH1 0x20 ADD PUSH1 0x0 KECCAK256 PUSH1 0x0 DUP6 PUSH20 0xFFFFFFFFFFFFFFFFFFFFFFFFFFFFFFFFFFFFFFFF AND PUSH20 0xFFFFFFFFFFFFFFFFFFFFFFFFFFFFFFFFFFFFFFFF AND DUP2 MSTORE PUSH1 0x20 ADD SWAP1 DUP2 MSTORE PUSH1 0x20 ADD PUSH1 0x0 KECCAK256 SLOAD SWAP1 POP DUP3 DUP2 LT ISZERO PUSH2 0x1DCE JUMPI PUSH1 0x40 MLOAD PUSH32 0x8C379A000000000000000000000000000000000000000000000000000000000 DUP2 MSTORE PUSH1 0x4 ADD PUSH2 0x1DC5 SWAP1 PUSH2 0x5E79 JUMP JUMPDEST PUSH1 0x40 MLOAD DUP1 SWAP2 SUB SWAP1 REVERT JUMPDEST PUSH2 0x1DE2 PUSH2 0x1DD9 PUSH2 0x2589 JUMP JUMPDEST DUP6 DUP6 DUP5 SUB PUSH2 0x2591 JUMP JUMPDEST PUSH1 0x1 SWAP2 POP POP SWAP3 SWAP2 POP POP JUMP JUMPDEST PUSH1 0x0 PUSH2 0x1E01 PUSH2 0x1DFA PUSH2 0x2589 JUMP JUMPDEST DUP5 DUP5 PUSH2 0x284F JUMP JUMPDEST PUSH1 0x1 SWAP1 POP SWAP3 SWAP2 POP POP JUMP JUMPDEST PUSH1 0x25 PUSH1 0x20 MSTORE DUP1 PUSH1 0x0 MSTORE PUSH1 0x40 PUSH1 0x0 KECCAK256 PUSH1 0x0 SWAP2 POP SLOAD SWAP1 PUSH2 0x100 EXP SWAP1 DIV PUSH1 0xFF AND DUP2 JUMP JUMPDEST PUSH1 0x0 PUSH2 0x1E9D PUSH1 0x5 PUSH1 0x0 DUP5 PUSH20 0xFFFFFFFFFFFFFFFFFFFFFFFFFFFFFFFFFFFFFFFF AND PUSH20 0xFFFFFFFFFFFFFFFFFFFFFFFFFFFFFFFFFFFFFFFF AND DUP2 MSTORE PUSH1 0x20 ADD SWAP1 DUP2 MSTORE PUSH1 0x20 ADD PUSH1 0x0 KECCAK256 PUSH1 0x40 MLOAD DUP1 PUSH1 0x60 ADD PUSH1 0x40 MSTORE SWAP1 DUP2 PUSH1 0x0 DUP3 ADD SLOAD DUP2 MSTORE PUSH1 0x20 ADD PUSH1 0x1 DUP3 ADD SLOAD DUP2 MSTORE PUSH1 0x20 ADD PUSH1 0x2 DUP3 ADD SLOAD DUP2 MSTORE POP POP PUSH2 0x3549 JUMP JUMPDEST SWAP1 POP SWAP2 SWAP1 POP JUMP JUMPDEST PUSH1 0x0 PUSH2 0x1EB8 PUSH2 0x1EB1 PUSH2 0x1986 JUMP JUMPDEST DUP5 DUP5 PUSH2 0x340D JUMP JUMPDEST SWAP1 POP SWAP3 SWAP2 POP POP JUMP JUMPDEST PUSH2 0x1EC8 PUSH2 0x4E1E JUMP JUMPDEST PUSH1 0x5 PUSH1 0x0 DUP4 PUSH20 0xFFFFFFFFFFFFFFFFFFFFFFFFFFFFFFFFFFFFFFFF AND PUSH20 0xFFFFFFFFFFFFFFFFFFFFFFFFFFFFFFFFFFFFFFFF AND DUP2 MSTORE PUSH1 0x20 ADD SWAP1 DUP2 MSTORE PUSH1 0x20 ADD PUSH1 0x0 KECCAK256 PUSH1 0x40 MLOAD DUP1 PUSH1 0x60 ADD PUSH1 0x40 MSTORE SWAP1 DUP2 PUSH1 0x0 DUP3 ADD SLOAD DUP2 MSTORE PUSH1 0x20 ADD PUSH1 0x1 DUP3 ADD SLOAD DUP2 MSTORE PUSH1 0x20 ADD PUSH1 0x2 DUP3 ADD SLOAD DUP2 MSTORE POP POP SWAP1 POP SWAP2 SWAP1 POP JUMP JUMPDEST PUSH2 0x1F3F PUSH2 0x2635 JUMP JUMPDEST PUSH2 0x1F48 DUP2 PUSH2 0x359F JUMP JUMPDEST POP JUMP JUMPDEST PUSH1 0x0 PUSH2 0x1F80 PUSH1 0x8 PUSH1 0x40 MLOAD DUP1 PUSH1 0x60 ADD PUSH1 0x40 MSTORE SWAP1 DUP2 PUSH1 0x0 DUP3 ADD SLOAD DUP2 MSTORE PUSH1 0x20 ADD PUSH1 0x1 DUP3 ADD SLOAD DUP2 MSTORE PUSH1 0x20 ADD PUSH1 0x2 DUP3 ADD SLOAD DUP2 MSTORE POP POP PUSH2 0x3549 JUMP JUMPDEST SWAP1 POP SWAP1 JUMP JUMPDEST PUSH1 0x0 DUP1 PUSH32 0x0 PUSH20 0xFFFFFFFFFFFFFFFFFFFFFFFFFFFFFFFFFFFFFFFF AND PUSH4 0x58B5DD72 DUP5 PUSH1 0x40 MLOAD DUP3 PUSH4 0xFFFFFFFF AND PUSH1 0xE0 SHL DUP2 MSTORE PUSH1 0x4 ADD PUSH2 0x1FE1 SWAP2 SWAP1 PUSH2 0x5BCF JUMP JUMPDEST PUSH1 0x20 PUSH1 0x40 MLOAD DUP1 DUP4 SUB DUP2 DUP7 DUP1 EXTCODESIZE ISZERO DUP1 ISZERO PUSH2 0x1FF9 JUMPI PUSH1 0x0 DUP1 REVERT JUMPDEST POP GAS STATICCALL ISZERO DUP1 ISZERO PUSH2 0x200D JUMPI RETURNDATASIZE PUSH1 0x0 DUP1 RETURNDATACOPY RETURNDATASIZE PUSH1 0x0 REVERT JUMPDEST POP POP POP POP PUSH1 0x40 MLOAD RETURNDATASIZE PUSH1 0x1F NOT PUSH1 0x1F DUP3 ADD AND DUP3 ADD DUP1 PUSH1 0x40 MSTORE POP DUP2 ADD SWAP1 PUSH2 0x2031 SWAP2 SWAP1 PUSH2 0x52E9 JUMP JUMPDEST SWAP1 POP PUSH1 0x0 DUP2 EQ ISZERO PUSH2 0x2046 JUMPI PUSH1 0x0 SWAP2 POP POP PUSH2 0x21C0 JUMP JUMPDEST PUSH2 0x204F DUP4 PUSH2 0x3626 JUMP JUMPDEST SWAP2 POP DUP2 ISZERO PUSH2 0x21BE JUMPI PUSH2 0x2061 DUP4 DUP3 PUSH2 0x3744 JUMP JUMPDEST PUSH2 0x21BC DUP4 PUSH32 0x0 PUSH20 0xFFFFFFFFFFFFFFFFFFFFFFFFFFFFFFFFFFFFFFFF AND PUSH4 0xAC7A3D9B DUP7 PUSH1 0x40 MLOAD DUP3 PUSH4 0xFFFFFFFF AND PUSH1 0xE0 SHL DUP2 MSTORE PUSH1 0x4 ADD PUSH2 0x20BE SWAP2 SWAP1 PUSH2 0x5BCF JUMP JUMPDEST PUSH1 0x20 PUSH1 0x40 MLOAD DUP1 DUP4 SUB DUP2 DUP7 DUP1 EXTCODESIZE ISZERO DUP1 ISZERO PUSH2 0x20D6 JUMPI PUSH1 0x0 DUP1 REVERT JUMPDEST POP GAS STATICCALL ISZERO DUP1 ISZERO PUSH2 0x20EA JUMPI RETURNDATASIZE PUSH1 0x0 DUP1 RETURNDATACOPY RETURNDATASIZE PUSH1 0x0 REVERT JUMPDEST POP POP POP POP PUSH1 0x40 MLOAD RETURNDATASIZE PUSH1 0x1F NOT PUSH1 0x1F DUP3 ADD AND DUP3 ADD DUP1 PUSH1 0x40 MSTORE POP DUP2 ADD SWAP1 PUSH2 0x210E SWAP2 SWAP1 PUSH2 0x52E9 JUMP JUMPDEST PUSH32 0x0 PUSH20 0xFFFFFFFFFFFFFFFFFFFFFFFFFFFFFFFFFFFFFFFF AND PUSH4 0xA2A79520 DUP8 PUSH1 0x40 MLOAD DUP3 PUSH4 0xFFFFFFFF AND PUSH1 0xE0 SHL DUP2 MSTORE PUSH1 0x4 ADD PUSH2 0x2167 SWAP2 SWAP1 PUSH2 0x5BCF JUMP JUMPDEST PUSH1 0x20 PUSH1 0x40 MLOAD DUP1 DUP4 SUB DUP2 DUP7 DUP1 EXTCODESIZE ISZERO DUP1 ISZERO PUSH2 0x217F JUMPI PUSH1 0x0 DUP1 REVERT JUMPDEST POP GAS STATICCALL ISZERO DUP1 ISZERO PUSH2 0x2193 JUMPI RETURNDATASIZE PUSH1 0x0 DUP1 RETURNDATACOPY RETURNDATASIZE PUSH1 0x0 REVERT JUMPDEST POP POP POP POP PUSH1 0x40 MLOAD RETURNDATASIZE PUSH1 0x1F NOT PUSH1 0x1F DUP3 ADD AND DUP3 ADD DUP1 PUSH1 0x40 MSTORE POP DUP2 ADD SWAP1 PUSH2 0x21B7 SWAP2 SWAP1 PUSH2 0x52E9 JUMP JUMPDEST PUSH2 0x38A4 JUMP JUMPDEST POP JUMPDEST POP JUMPDEST SWAP2 SWAP1 POP JUMP JUMPDEST PUSH2 0x21CD PUSH2 0x2635 JUMP JUMPDEST PUSH2 0x21D6 DUP2 PUSH2 0x39A0 JUMP JUMPDEST POP JUMP JUMPDEST PUSH2 0x21E1 PUSH2 0x4E3F JUMP JUMPDEST PUSH1 0x17 PUSH1 0x0 DUP4 PUSH20 0xFFFFFFFFFFFFFFFFFFFFFFFFFFFFFFFFFFFFFFFF AND PUSH20 0xFFFFFFFFFFFFFFFFFFFFFFFFFFFFFFFFFFFFFFFF AND DUP2 MSTORE PUSH1 0x20 ADD SWAP1 DUP2 MSTORE PUSH1 0x20 ADD PUSH1 0x0 KECCAK256 PUSH1 0x40 MLOAD DUP1 PUSH1 0x60 ADD PUSH1 0x40 MSTORE SWAP1 DUP2 PUSH1 0x0 DUP3 ADD PUSH1 0x0 SWAP1 SLOAD SWAP1 PUSH2 0x100 EXP SWAP1 DIV PUSH20 0xFFFFFFFFFFFFFFFFFFFFFFFFFFFFFFFFFFFFFFFF AND PUSH20 0xFFFFFFFFFFFFFFFFFFFFFFFFFFFFFFFFFFFFFFFF AND PUSH20 0xFFFFFFFFFFFFFFFFFFFFFFFFFFFFFFFFFFFFFFFF AND DUP2 MSTORE PUSH1 0x20 ADD PUSH1 0x1 DUP3 ADD SLOAD DUP2 MSTORE PUSH1 0x20 ADD PUSH1 0x2 DUP3 ADD SLOAD DUP2 MSTORE POP POP SWAP1 POP SWAP2 SWAP1 POP JUMP JUMPDEST PUSH1 0x0 PUSH2 0x22A6 PUSH2 0x3A33 JUMP JUMPDEST SWAP1 POP SWAP1 JUMP JUMPDEST PUSH2 0x22B3 PUSH2 0x2635 JUMP JUMPDEST PUSH2 0x22BC DUP2 PUSH2 0x3A3D JUMP JUMPDEST POP JUMP JUMPDEST PUSH1 0x0 PUSH1 0x13 PUSH1 0x0 SWAP1 SLOAD SWAP1 PUSH2 0x100 EXP SWAP1 DIV PUSH20 0xFFFFFFFFFFFFFFFFFFFFFFFFFFFFFFFFFFFFFFFF AND SWAP1 POP SWAP1 JUMP JUMPDEST PUSH1 0x0 PUSH2 0x22F5 DUP4 DUP4 PUSH2 0x1216 JUMP JUMPDEST ISZERO PUSH2 0x2303 JUMPI PUSH1 0x0 SWAP1 POP PUSH2 0x2310 JUMP JUMPDEST PUSH2 0x230D DUP4 DUP4 PUSH2 0x3A7E JUMP JUMPDEST SWAP1 POP JUMPDEST SWAP3 SWAP2 POP POP JUMP JUMPDEST PUSH2 0x231E PUSH2 0x2635 JUMP JUMPDEST PUSH2 0x2329 DUP4 DUP4 DUP4 PUSH2 0x38A4 JUMP JUMPDEST POP POP POP POP JUMP JUMPDEST PUSH1 0x0 DUP1 PUSH1 0x0 DUP1 PUSH1 0xD SLOAD SWAP4 POP PUSH1 0xE SLOAD SWAP3 POP PUSH1 0xF SLOAD SWAP2 POP PUSH1 0x10 PUSH1 0x0 SWAP1 SLOAD SWAP1 PUSH2 0x100 EXP SWAP1 DIV PUSH20 0xFFFFFFFFFFFFFFFFFFFFFFFFFFFFFFFFFFFFFFFF AND SWAP1 POP SWAP1 SWAP2 SWAP3 SWAP4 JUMP JUMPDEST PUSH2 0x2377 PUSH2 0x2635 JUMP JUMPDEST PUSH1 0x0 PUSH20 0xFFFFFFFFFFFFFFFFFFFFFFFFFFFFFFFFFFFFFFFF AND DUP2 PUSH20 0xFFFFFFFFFFFFFFFFFFFFFFFFFFFFFFFFFFFFFFFF AND EQ ISZERO PUSH2 0x23E7 JUMPI PUSH1 0x40 MLOAD PUSH32 0x8C379A000000000000000000000000000000000000000000000000000000000 DUP2 MSTORE PUSH1 0x4 ADD PUSH2 0x23DE SWAP1 PUSH2 0x5CD9 JUMP JUMPDEST PUSH1 0x40 MLOAD DUP1 SWAP2 SUB SWAP1 REVERT JUMPDEST PUSH2 0x23F0 DUP2 PUSH2 0x2F20 JUMP JUMPDEST POP JUMP JUMPDEST PUSH1 0x20 DUP1 MSTORE DUP1 PUSH1 0x0 MSTORE PUSH1 0x40 PUSH1 0x0 KECCAK256 PUSH1 0x0 SWAP2 POP SLOAD SWAP1 PUSH2 0x100 EXP SWAP1 DIV PUSH20 0xFFFFFFFFFFFFFFFFFFFFFFFFFFFFFFFFFFFFFFFF AND DUP2 JUMP JUMPDEST PUSH1 0x0 PUSH1 0x1E PUSH1 0x0 DUP5 PUSH20 0xFFFFFFFFFFFFFFFFFFFFFFFFFFFFFFFFFFFFFFFF AND PUSH20 0xFFFFFFFFFFFFFFFFFFFFFFFFFFFFFFFFFFFFFFFF AND DUP2 MSTORE PUSH1 0x20 ADD SWAP1 DUP2 MSTORE PUSH1 0x20 ADD PUSH1 0x0 KECCAK256 PUSH1 0x0 DUP4 PUSH20 0xFFFFFFFFFFFFFFFFFFFFFFFFFFFFFFFFFFFFFFFF AND PUSH20 0xFFFFFFFFFFFFFFFFFFFFFFFFFFFFFFFFFFFFFFFF AND DUP2 MSTORE PUSH1 0x20 ADD SWAP1 DUP2 MSTORE PUSH1 0x20 ADD PUSH1 0x0 KECCAK256 SLOAD SWAP1 POP SWAP3 SWAP2 POP POP JUMP JUMPDEST PUSH1 0x1A PUSH1 0x0 SWAP1 SLOAD SWAP1 PUSH2 0x100 EXP SWAP1 DIV PUSH20 0xFFFFFFFFFFFFFFFFFFFFFFFFFFFFFFFFFFFFFFFF AND PUSH20 0xFFFFFFFFFFFFFFFFFFFFFFFFFFFFFFFFFFFFFFFF AND CALLER PUSH20 0xFFFFFFFFFFFFFFFFFFFFFFFFFFFFFFFFFFFFFFFF AND EQ PUSH2 0x253C JUMPI PUSH1 0x40 MLOAD PUSH32 0x8C379A000000000000000000000000000000000000000000000000000000000 DUP2 MSTORE PUSH1 0x4 ADD PUSH2 0x2533 SWAP1 PUSH2 0x5D39 JUMP JUMPDEST PUSH1 0x40 MLOAD DUP1 SWAP2 SUB SWAP1 REVERT JUMPDEST PUSH2 0x2546 DUP3 DUP3 PUSH2 0x27B0 JUMP JUMPDEST POP POP JUMP JUMPDEST PUSH1 0x26 SLOAD DUP2 JUMP JUMPDEST PUSH1 0x40 MLOAD DUP1 PUSH1 0x40 ADD PUSH1 0x40 MSTORE DUP1 PUSH1 0x13 DUP2 MSTORE PUSH1 0x20 ADD PUSH32 0x6D61696E6E65742D617262697472756D2D763200000000000000000000000000 DUP2 MSTORE POP DUP2 JUMP JUMPDEST PUSH1 0x0 CALLER SWAP1 POP SWAP1 JUMP JUMPDEST PUSH1 0x0 CALLER SWAP1 POP DUP4 PUSH20 0xFFFFFFFFFFFFFFFFFFFFFFFFFFFFFFFFFFFFFFFF AND DUP2 PUSH20 0xFFFFFFFFFFFFFFFFFFFFFFFFFFFFFFFFFFFFFFFF AND EQ ISZERO PUSH2 0x25D9 JUMPI PUSH2 0x25D4 DUP2 DUP5 PUSH2 0x3B05 JUMP JUMPDEST PUSH2 0x2624 JUMP JUMPDEST PUSH2 0x25E3 DUP5 DUP5 PUSH2 0x1216 JUMP JUMPDEST ISZERO PUSH2 0x2623 JUMPI PUSH1 0x40 MLOAD PUSH32 0x8C379A000000000000000000000000000000000000000000000000000000000 DUP2 MSTORE PUSH1 0x4 ADD PUSH2 0x261A SWAP1 PUSH2 0x5D79 JUMP JUMPDEST PUSH1 0x40 MLOAD DUP1 SWAP2 SUB SWAP1 REVERT JUMPDEST JUMPDEST PUSH2 0x262F DUP5 DUP5 DUP5 PUSH2 0x3B8A JUMP JUMPDEST POP POP POP POP JUMP JUMPDEST PUSH2 0x263D PUSH2 0x2589 JUMP JUMPDEST PUSH20 0xFFFFFFFFFFFFFFFFFFFFFFFFFFFFFFFFFFFFFFFF AND PUSH2 0x265B PUSH2 0x19F6 JUMP JUMPDEST PUSH20 0xFFFFFFFFFFFFFFFFFFFFFFFFFFFFFFFFFFFFFFFF AND EQ PUSH2 0x26B1 JUMPI PUSH1 0x40 MLOAD PUSH32 0x8C379A000000000000000000000000000000000000000000000000000000000 DUP2 MSTORE PUSH1 0x4 ADD PUSH2 0x26A8 SWAP1 PUSH2 0x5DB9 JUMP JUMPDEST PUSH1 0x40 MLOAD DUP1 SWAP2 SUB SWAP1 REVERT JUMPDEST JUMP JUMPDEST DUP1 PUSH1 0xC PUSH1 0x0 PUSH2 0x100 EXP DUP2 SLOAD DUP2 PUSH1 0xFF MUL NOT AND SWAP1 DUP4 ISZERO ISZERO MUL OR SWAP1 SSTORE POP PUSH32 0x6B59CB1F573014B1260B4991370E3D454F6238476D4B0429D373B88877480D25 DUP2 PUSH1 0x40 MLOAD PUSH2 0x26FC SWAP2 SWAP1 PUSH2 0x5C21 JUMP JUMPDEST PUSH1 0x40 MLOAD DUP1 SWAP2 SUB SWAP1 LOG1 POP JUMP JUMPDEST DUP1 PUSH1 0x11 PUSH1 0x0 DUP5 PUSH20 0xFFFFFFFFFFFFFFFFFFFFFFFFFFFFFFFFFFFFFFFF AND PUSH20 0xFFFFFFFFFFFFFFFFFFFFFFFFFFFFFFFFFFFFFFFF AND DUP2 MSTORE PUSH1 0x20 ADD SWAP1 DUP2 MSTORE PUSH1 0x20 ADD PUSH1 0x0 KECCAK256 PUSH1 0x0 PUSH2 0x100 EXP DUP2 SLOAD DUP2 PUSH1 0xFF MUL NOT AND SWAP1 DUP4 ISZERO ISZERO MUL OR SWAP1 SSTORE POP DUP2 PUSH20 0xFFFFFFFFFFFFFFFFFFFFFFFFFFFFFFFFFFFFFFFF AND PUSH32 0x6CF04E76AD1279A1CDDD4F7671C383EF488483D1565675D47FBB8870A0573D24 DUP3 PUSH1 0x40 MLOAD PUSH2 0x27A4 SWAP2 SWAP1 PUSH2 0x5C21 JUMP JUMPDEST PUSH1 0x40 MLOAD DUP1 SWAP2 SUB SWAP1 LOG2 POP POP JUMP JUMPDEST PUSH2 0x27B9 DUP2 PUSH2 0x3D55 JUMP JUMPDEST DUP1 PUSH1 0x19 PUSH1 0x0 DUP5 PUSH20 0xFFFFFFFFFFFFFFFFFFFFFFFFFFFFFFFFFFFFFFFF AND PUSH20 0xFFFFFFFFFFFFFFFFFFFFFFFFFFFFFFFFFFFFFFFF AND DUP2 MSTORE PUSH1 0x20 ADD SWAP1 DUP2 MSTORE PUSH1 0x20 ADD PUSH1 0x0 KECCAK256 DUP2 SWAP1 SSTORE POP DUP2 PUSH20 0xFFFFFFFFFFFFFFFFFFFFFFFFFFFFFFFFFFFFFFFF AND PUSH32 0xBF92D2EB1D617894978C7D918FAC4307C904B980238B11B79908F18D2F728AD9 DUP3 PUSH1 0x40 MLOAD PUSH2 0x2843 SWAP2 SWAP1 PUSH2 0x5F0A JUMP JUMPDEST PUSH1 0x40 MLOAD DUP1 SWAP2 SUB SWAP1 LOG2 POP POP JUMP JUMPDEST PUSH20 0x0 PUSH4 0xF3D7D282 DUP5 PUSH1 0x40 MLOAD DUP3 PUSH4 0xFFFFFFFF AND PUSH1 0xE0 SHL DUP2 MSTORE PUSH1 0x4 ADD PUSH2 0x2886 SWAP2 SWAP1 PUSH2 0x5BB4 JUMP JUMPDEST PUSH1 0x20 PUSH1 0x40 MLOAD DUP1 DUP4 SUB DUP2 DUP7 DUP1 EXTCODESIZE ISZERO DUP1 ISZERO PUSH2 0x289E JUMPI PUSH1 0x0 DUP1 REVERT JUMPDEST POP GAS DELEGATECALL ISZERO DUP1 ISZERO PUSH2 0x28B2 JUMPI RETURNDATASIZE PUSH1 0x0 DUP1 RETURNDATACOPY RETURNDATASIZE PUSH1 0x0 REVERT JUMPDEST POP POP POP POP PUSH1 0x40 MLOAD RETURNDATASIZE PUSH1 0x1F NOT PUSH1 0x1F DUP3 ADD AND DUP3 ADD DUP1 PUSH1 0x40 MSTORE POP DUP2 ADD SWAP1 PUSH2 0x28D6 SWAP2 SWAP1 PUSH2 0x5297 JUMP JUMPDEST PUSH2 0x2926 JUMPI DUP1 PUSH2 0x28E4 DUP5 PUSH2 0x1990 JUMP JUMPDEST LT ISZERO PUSH2 0x2925 JUMPI PUSH1 0x40 MLOAD PUSH32 0x8C379A000000000000000000000000000000000000000000000000000000000 DUP2 MSTORE PUSH1 0x4 ADD PUSH2 0x291C SWAP1 PUSH2 0x5C99 JUMP JUMPDEST PUSH1 0x40 MLOAD DUP1 SWAP2 SUB SWAP1 REVERT JUMPDEST JUMPDEST PUSH1 0x0 PUSH2 0x2933 DUP5 DUP5 DUP5 PUSH2 0x3D9D JUMP JUMPDEST SWAP1 POP PUSH1 0x0 DUP2 GT ISZERO PUSH2 0x2A98 JUMPI PUSH2 0x2949 DUP5 DUP5 DUP4 PUSH2 0x4115 JUMP JUMPDEST PUSH2 0x2954 DUP5 DUP5 DUP4 PUSH2 0x43CF JUMP JUMPDEST PUSH1 0x0 PUSH2 0x2969 DUP5 DUP4 PUSH2 0x2964 DUP9 PUSH2 0x1431 JUMP JUMPDEST PUSH2 0x38A4 JUMP JUMPDEST SWAP1 POP DUP1 DUP1 ISZERO PUSH2 0x297E JUMPI POP PUSH2 0x297C DUP5 PUSH2 0x4650 JUMP JUMPDEST ISZERO JUMPDEST ISZERO PUSH2 0x2A96 JUMPI PUSH1 0x0 PUSH2 0x298E DUP6 PUSH2 0x21D9 JUMP JUMPDEST PUSH1 0x0 ADD MLOAD SWAP1 POP PUSH1 0x0 PUSH2 0x29A8 PUSH2 0x29A2 DUP4 PUSH2 0x2A9E JUMP JUMPDEST DUP6 PUSH2 0x1A20 JUMP JUMPDEST SWAP1 POP PUSH1 0x0 PUSH20 0x0 PUSH4 0x58715B07 DUP4 PUSH2 0x29D0 DUP7 PUSH2 0x1028 JUMP JUMPDEST PUSH1 0x40 MLOAD DUP4 PUSH4 0xFFFFFFFF AND PUSH1 0xE0 SHL DUP2 MSTORE PUSH1 0x4 ADD PUSH2 0x29ED SWAP3 SWAP2 SWAP1 PUSH2 0x5F4E JUMP JUMPDEST PUSH1 0x20 PUSH1 0x40 MLOAD DUP1 DUP4 SUB DUP2 DUP7 DUP1 EXTCODESIZE ISZERO DUP1 ISZERO PUSH2 0x2A05 JUMPI PUSH1 0x0 DUP1 REVERT JUMPDEST POP GAS DELEGATECALL ISZERO DUP1 ISZERO PUSH2 0x2A19 JUMPI RETURNDATASIZE PUSH1 0x0 DUP1 RETURNDATACOPY RETURNDATASIZE PUSH1 0x0 REVERT JUMPDEST POP POP POP POP PUSH1 0x40 MLOAD RETURNDATASIZE PUSH1 0x1F NOT PUSH1 0x1F DUP3 ADD AND DUP3 ADD DUP1 PUSH1 0x40 MSTORE POP DUP2 ADD SWAP1 PUSH2 0x2A3D SWAP2 SWAP1 PUSH2 0x52E9 JUMP JUMPDEST SWAP1 POP PUSH1 0x0 PUSH2 0x2A54 DUP3 DUP5 PUSH2 0x32C4 SWAP1 SWAP2 SWAP1 PUSH4 0xFFFFFFFF AND JUMP JUMPDEST SWAP1 POP PUSH2 0x2A62 DUP5 DUP3 PUSH1 0x0 PUSH2 0x30AF JUMP JUMPDEST PUSH2 0x2A6E DUP9 DUP4 PUSH1 0x1 PUSH2 0x30AF JUMP JUMPDEST PUSH1 0x0 PUSH2 0x2A82 PUSH2 0x2A7C DUP11 PUSH2 0x2A9E JUMP JUMPDEST DUP9 PUSH2 0x1EA4 JUMP JUMPDEST SWAP1 POP PUSH2 0x2A90 DUP10 DUP3 PUSH1 0x2 PUSH2 0x30AF JUMP JUMPDEST POP POP POP POP POP JUMPDEST POP JUMPDEST POP POP POP POP JUMP JUMPDEST PUSH1 0x0 DUP1 PUSH1 0x0 DUP4 PUSH20 0xFFFFFFFFFFFFFFFFFFFFFFFFFFFFFFFFFFFFFFFF AND PUSH20 0xFFFFFFFFFFFFFFFFFFFFFFFFFFFFFFFFFFFFFFFF AND DUP2 MSTORE PUSH1 0x20 ADD SWAP1 DUP2 MSTORE PUSH1 0x20 ADD PUSH1 0x0 KECCAK256 SLOAD SWAP1 POP SWAP2 SWAP1 POP JUMP JUMPDEST PUSH1 0x0 DUP2 MLOAD SWAP1 POP PUSH1 0x0 DUP2 GT ISZERO PUSH2 0x2BA7 JUMPI PUSH1 0x0 JUMPDEST DUP2 DUP2 LT ISZERO PUSH2 0x2BA5 JUMPI DUP3 DUP2 DUP2 MLOAD DUP2 LT PUSH2 0x2B39 JUMPI PUSH32 0x4E487B7100000000000000000000000000000000000000000000000000000000 PUSH1 0x0 MSTORE PUSH1 0x32 PUSH1 0x4 MSTORE PUSH1 0x24 PUSH1 0x0 REVERT JUMPDEST PUSH1 0x20 MUL PUSH1 0x20 ADD ADD MLOAD PUSH1 0x20 PUSH1 0x0 DUP4 DUP2 MSTORE PUSH1 0x20 ADD SWAP1 DUP2 MSTORE PUSH1 0x20 ADD PUSH1 0x0 KECCAK256 PUSH1 0x0 PUSH2 0x100 EXP DUP2 SLOAD DUP2 PUSH20 0xFFFFFFFFFFFFFFFFFFFFFFFFFFFFFFFFFFFFFFFF MUL NOT AND SWAP1 DUP4 PUSH20 0xFFFFFFFFFFFFFFFFFFFFFFFFFFFFFFFFFFFFFFFF AND MUL OR SWAP1 SSTORE POP DUP1 DUP1 PUSH2 0x2B9D SWAP1 PUSH2 0x632B JUMP JUMPDEST SWAP2 POP POP PUSH2 0x2AF8 JUMP JUMPDEST POP JUMPDEST DUP1 PUSH1 0x22 DUP2 SWAP1 SSTORE POP POP POP JUMP JUMPDEST PUSH1 0x0 PUSH20 0xFFFFFFFFFFFFFFFFFFFFFFFFFFFFFFFFFFFFFFFF AND DUP3 PUSH20 0xFFFFFFFFFFFFFFFFFFFFFFFFFFFFFFFFFFFFFFFF AND EQ DUP1 PUSH2 0x2C1A JUMPI POP PUSH2 0xDEAD PUSH20 0xFFFFFFFFFFFFFFFFFFFFFFFFFFFFFFFFFFFFFFFF AND DUP3 PUSH20 0xFFFFFFFFFFFFFFFFFFFFFFFFFFFFFFFFFFFFFFFF AND EQ JUMPDEST ISZERO PUSH2 0x2C24 JUMPI PUSH2 0x2DD1 JUMP JUMPDEST DUP2 PUSH20 0xFFFFFFFFFFFFFFFFFFFFFFFFFFFFFFFFFFFFFFFF AND PUSH1 0x13 PUSH1 0x0 SWAP1 SLOAD SWAP1 PUSH2 0x100 EXP SWAP1 DIV PUSH20 0xFFFFFFFFFFFFFFFFFFFFFFFFFFFFFFFFFFFFFFFF AND PUSH20 0xFFFFFFFFFFFFFFFFFFFFFFFFFFFFFFFFFFFFFFFF AND EQ ISZERO PUSH2 0x2CF8 JUMPI DUP1 PUSH1 0x14 DUP2 SWAP1 SSTORE POP PUSH1 0x13 PUSH1 0x0 SWAP1 SLOAD SWAP1 PUSH2 0x100 EXP SWAP1 DIV PUSH20 0xFFFFFFFFFFFFFFFFFFFFFFFFFFFFFFFFFFFFFFFF AND PUSH20 0xFFFFFFFFFFFFFFFFFFFFFFFFFFFFFFFFFFFFFFFF AND PUSH32 0x695ECF74A0AB376B33FD7E01FF31F17227AFC3F06165A44E7324F23D6148755E PUSH1 0x14 SLOAD PUSH1 0x40 MLOAD PUSH2 0x2CEB SWAP2 SWAP1 PUSH2 0x5F0A JUMP JUMPDEST PUSH1 0x40 MLOAD DUP1 SWAP2 SUB SWAP1 LOG2 PUSH2 0x2DD1 JUMP JUMPDEST PUSH2 0x2D01 DUP3 PUSH2 0x4650 JUMP JUMPDEST ISZERO PUSH2 0x2D0B JUMPI PUSH2 0x2DD1 JUMP JUMPDEST PUSH1 0x14 SLOAD DUP2 GT ISZERO PUSH2 0x2DD0 JUMPI DUP2 PUSH1 0x13 PUSH1 0x0 PUSH2 0x100 EXP DUP2 SLOAD DUP2 PUSH20 0xFFFFFFFFFFFFFFFFFFFFFFFFFFFFFFFFFFFFFFFF MUL NOT AND SWAP1 DUP4 PUSH20 0xFFFFFFFFFFFFFFFFFFFFFFFFFFFFFFFFFFFFFFFF AND MUL OR SWAP1 SSTORE POP DUP1 PUSH1 0x14 DUP2 SWAP1 SSTORE POP PUSH1 0x13 PUSH1 0x0 SWAP1 SLOAD SWAP1 PUSH2 0x100 EXP SWAP1 DIV PUSH20 0xFFFFFFFFFFFFFFFFFFFFFFFFFFFFFFFFFFFFFFFF AND PUSH20 0xFFFFFFFFFFFFFFFFFFFFFFFFFFFFFFFFFFFFFFFF AND PUSH32 0x695ECF74A0AB376B33FD7E01FF31F17227AFC3F06165A44E7324F23D6148755E PUSH1 0x14 SLOAD PUSH1 0x40 MLOAD PUSH2 0x2DC7 SWAP2 SWAP1 PUSH2 0x5F0A JUMP JUMPDEST PUSH1 0x40 MLOAD DUP1 SWAP2 SUB SWAP1 LOG2 JUMPDEST JUMPDEST POP POP JUMP JUMPDEST DUP1 PUSH1 0x6 PUSH1 0x0 DUP5 PUSH20 0xFFFFFFFFFFFFFFFFFFFFFFFFFFFFFFFFFFFFFFFF AND PUSH20 0xFFFFFFFFFFFFFFFFFFFFFFFFFFFFFFFFFFFFFFFF AND DUP2 MSTORE PUSH1 0x20 ADD SWAP1 DUP2 MSTORE PUSH1 0x20 ADD PUSH1 0x0 KECCAK256 DUP2 SWAP1 SSTORE POP DUP2 PUSH20 0xFFFFFFFFFFFFFFFFFFFFFFFFFFFFFFFFFFFFFFFF AND PUSH32 0xE0474E30B96B33220DB295B344254ACF8260256BE84EE32EDDE6BF35BB327A86 DUP3 PUSH1 0x40 MLOAD PUSH2 0x2E5F SWAP2 SWAP1 PUSH2 0x5F0A JUMP JUMPDEST PUSH1 0x40 MLOAD DUP1 SWAP2 SUB SWAP1 LOG2 POP POP JUMP JUMPDEST PUSH2 0x2E74 DUP2 PUSH2 0x3D55 JUMP JUMPDEST DUP1 PUSH1 0x15 DUP2 SWAP1 SSTORE POP PUSH32 0x9E79FD4777E949BEBED3A6455A2B54064CFA9C8C1CC95E8A2946819DFB6B535 DUP2 PUSH1 0x40 MLOAD PUSH2 0x2EAA SWAP2 SWAP1 PUSH2 0x5F0A JUMP JUMPDEST PUSH1 0x40 MLOAD DUP1 SWAP2 SUB SWAP1 LOG1 POP JUMP JUMPDEST DUP3 PUSH1 0x1B DUP2 SWAP1 SSTORE POP DUP2 PUSH1 0x1C DUP2 SWAP1 SSTORE POP DUP1 PUSH1 0x1D DUP2 SWAP1 SSTORE POP PUSH32 0xAD2C6ACAE6E1C5560448E7F77859970425D8FEFB5CE448971D964753F388CC6B DUP4 DUP4 DUP4 PUSH1 0x40 MLOAD PUSH2 0x2EFD SWAP4 SWAP3 SWAP2 SWAP1 PUSH2 0x5F77 JUMP JUMPDEST PUSH1 0x40 MLOAD DUP1 SWAP2 SUB SWAP1 LOG1 POP POP POP JUMP JUMPDEST PUSH1 0x0 DUP2 DUP4 PUSH2 0x2F18 SWAP2 SWAP1 PUSH2 0x60B3 JUMP JUMPDEST SWAP1 POP SWAP3 SWAP2 POP POP JUMP JUMPDEST PUSH1 0x0 PUSH1 0xC PUSH1 0x1 SWAP1 SLOAD SWAP1 PUSH2 0x100 EXP SWAP1 DIV PUSH20 0xFFFFFFFFFFFFFFFFFFFFFFFFFFFFFFFFFFFFFFFF AND SWAP1 POP DUP2 PUSH1 0xC PUSH1 0x1 PUSH2 0x100 EXP DUP2 SLOAD DUP2 PUSH20 0xFFFFFFFFFFFFFFFFFFFFFFFFFFFFFFFFFFFFFFFF MUL NOT AND SWAP1 DUP4 PUSH20 0xFFFFFFFFFFFFFFFFFFFFFFFFFFFFFFFFFFFFFFFF AND MUL OR SWAP1 SSTORE POP DUP2 PUSH20 0xFFFFFFFFFFFFFFFFFFFFFFFFFFFFFFFFFFFFFFFF AND DUP2 PUSH20 0xFFFFFFFFFFFFFFFFFFFFFFFFFFFFFFFFFFFFFFFF AND PUSH32 0x8BE0079C531659141344CD1FD0A4F28419497F9722A3DAAFE3B4186F6B6457E0 PUSH1 0x40 MLOAD PUSH1 0x40 MLOAD DUP1 SWAP2 SUB SWAP1 LOG3 POP POP JUMP JUMPDEST PUSH2 0x2FEF DUP5 PUSH2 0x3D55 JUMP JUMPDEST PUSH2 0x2FF8 DUP4 PUSH2 0x3D55 JUMP JUMPDEST PUSH2 0x3001 DUP3 PUSH2 0x3D55 JUMP JUMPDEST DUP4 PUSH1 0xD DUP2 SWAP1 SSTORE POP DUP3 PUSH1 0xE DUP2 SWAP1 SSTORE POP DUP2 PUSH1 0xF DUP2 SWAP1 SSTORE POP DUP1 PUSH1 0x10 PUSH1 0x0 PUSH2 0x100 EXP DUP2 SLOAD DUP2 PUSH20 0xFFFFFFFFFFFFFFFFFFFFFFFFFFFFFFFFFFFFFFFF MUL NOT AND SWAP1 DUP4 PUSH20 0xFFFFFFFFFFFFFFFFFFFFFFFFFFFFFFFFFFFFFFFF AND MUL OR SWAP1 SSTORE POP DUP1 PUSH20 0xFFFFFFFFFFFFFFFFFFFFFFFFFFFFFFFFFFFFFFFF AND PUSH32 0x9C5698C9835AF0943BAC5FA08C76A41D63C846AE721D7ABB2541315D1B568233 DUP6 DUP6 DUP6 PUSH1 0x40 MLOAD PUSH2 0x30A1 SWAP4 SWAP3 SWAP2 SWAP1 PUSH2 0x5F77 JUMP JUMPDEST PUSH1 0x40 MLOAD DUP1 SWAP2 SUB SWAP1 LOG2 POP POP POP POP JUMP JUMPDEST PUSH1 0x0 DUP3 EQ ISZERO PUSH2 0x30BD JUMPI PUSH2 0x32BF JUMP JUMPDEST DUP3 PUSH20 0xFFFFFFFFFFFFFFFFFFFFFFFFFFFFFFFFFFFFFFFF AND PUSH32 0xE4EBE3F236D1F26EC3E02E6A726605263FB049E122C8A8460F4B24D4B90D1F4B PUSH1 0x40 MLOAD PUSH1 0x40 MLOAD DUP1 SWAP2 SUB SWAP1 LOG2 PUSH2 0x3148 PUSH1 0x5 PUSH1 0x0 DUP6 PUSH20 0xFFFFFFFFFFFFFFFFFFFFFFFFFFFFFFFFFFFFFFFF AND PUSH20 0xFFFFFFFFFFFFFFFFFFFFFFFFFFFFFFFFFFFFFFFF AND DUP2 MSTORE PUSH1 0x20 ADD SWAP1 DUP2 MSTORE PUSH1 0x20 ADD PUSH1 0x0 KECCAK256 DUP4 PUSH2 0x468F JUMP JUMPDEST PUSH1 0x0 PUSH20 0xFFFFFFFFFFFFFFFFFFFFFFFFFFFFFFFFFFFFFFFF AND PUSH32 0xE4EBE3F236D1F26EC3E02E6A726605263FB049E122C8A8460F4B24D4B90D1F4B PUSH1 0x40 MLOAD PUSH1 0x40 MLOAD DUP1 SWAP2 SUB SWAP1 LOG2 PUSH2 0x3197 PUSH1 0x8 DUP4 PUSH2 0x468F JUMP JUMPDEST DUP2 PUSH1 0x7 PUSH1 0x0 DUP6 PUSH20 0xFFFFFFFFFFFFFFFFFFFFFFFFFFFFFFFFFFFFFFFF AND PUSH20 0xFFFFFFFFFFFFFFFFFFFFFFFFFFFFFFFFFFFFFFFF AND DUP2 MSTORE PUSH1 0x20 ADD SWAP1 DUP2 MSTORE PUSH1 0x20 ADD PUSH1 0x0 KECCAK256 PUSH1 0x0 DUP4 PUSH1 0x3 DUP2 GT ISZERO PUSH2 0x3212 JUMPI PUSH32 0x4E487B7100000000000000000000000000000000000000000000000000000000 PUSH1 0x0 MSTORE PUSH1 0x21 PUSH1 0x4 MSTORE PUSH1 0x24 PUSH1 0x0 REVERT JUMPDEST PUSH1 0x3 DUP2 GT ISZERO PUSH2 0x324A JUMPI PUSH32 0x4E487B7100000000000000000000000000000000000000000000000000000000 PUSH1 0x0 MSTORE PUSH1 0x21 PUSH1 0x4 MSTORE PUSH1 0x24 PUSH1 0x0 REVERT JUMPDEST DUP2 MSTORE PUSH1 0x20 ADD SWAP1 DUP2 MSTORE PUSH1 0x20 ADD PUSH1 0x0 KECCAK256 PUSH1 0x0 DUP3 DUP3 SLOAD PUSH2 0x3267 SWAP2 SWAP1 PUSH2 0x60B3 JUMP JUMPDEST SWAP3 POP POP DUP2 SWAP1 SSTORE POP DUP3 PUSH20 0xFFFFFFFFFFFFFFFFFFFFFFFFFFFFFFFFFFFFFFFF AND PUSH32 0x2097B7D08068EE46011255660ED3909E86AA842217721B6E25C5C6D5F2E58FF9 DUP4 DUP4 PUSH1 0x40 MLOAD PUSH2 0x32B6 SWAP3 SWAP2 SWAP1 PUSH2 0x5F25 JUMP JUMPDEST PUSH1 0x40 MLOAD DUP1 SWAP2 SUB SWAP1 LOG2 JUMPDEST POP POP POP JUMP JUMPDEST PUSH1 0x0 DUP2 DUP4 PUSH2 0x32D2 SWAP2 SWAP1 PUSH2 0x6194 JUMP JUMPDEST SWAP1 POP SWAP3 SWAP2 POP POP JUMP JUMPDEST PUSH1 0x0 DUP2 MLOAD SWAP1 POP PUSH1 0x0 DUP2 GT ISZERO PUSH2 0x339B JUMPI PUSH1 0x0 JUMPDEST DUP2 DUP2 LT ISZERO PUSH2 0x3399 JUMPI DUP3 DUP2 DUP2 MLOAD DUP2 LT PUSH2 0x332D JUMPI PUSH32 0x4E487B7100000000000000000000000000000000000000000000000000000000 PUSH1 0x0 MSTORE PUSH1 0x32 PUSH1 0x4 MSTORE PUSH1 0x24 PUSH1 0x0 REVERT JUMPDEST PUSH1 0x20 MUL PUSH1 0x20 ADD ADD MLOAD PUSH1 0x21 PUSH1 0x0 DUP4 DUP2 MSTORE PUSH1 0x20 ADD SWAP1 DUP2 MSTORE PUSH1 0x20 ADD PUSH1 0x0 KECCAK256 PUSH1 0x0 PUSH2 0x100 EXP DUP2 SLOAD DUP2 PUSH20 0xFFFFFFFFFFFFFFFFFFFFFFFFFFFFFFFFFFFFFFFF MUL NOT AND SWAP1 DUP4 PUSH20 0xFFFFFFFFFFFFFFFFFFFFFFFFFFFFFFFFFFFFFFFF AND MUL OR SWAP1 SSTORE POP DUP1 DUP1 PUSH2 0x3391 SWAP1 PUSH2 0x632B JUMP JUMPDEST SWAP2 POP POP PUSH2 0x32EC JUMP JUMPDEST POP JUMPDEST DUP1 PUSH1 0x23 DUP2 SWAP1 SSTORE POP POP POP JUMP JUMPDEST PUSH1 0x1 PUSH1 0x24 PUSH1 0x0 PUSH2 0x100 EXP DUP2 SLOAD DUP2 PUSH1 0xFF MUL NOT AND SWAP1 DUP4 ISZERO ISZERO MUL OR SWAP1 SSTORE POP JUMP JUMPDEST PUSH2 0x33CC DUP2 PUSH2 0x3D55 JUMP JUMPDEST DUP1 PUSH1 0x16 DUP2 SWAP1 SSTORE POP PUSH32 0xDF2C8CEC8363C7B6A106E877EB88CB0B0695586B0CF567607E4941D471579F6C DUP2 PUSH1 0x40 MLOAD PUSH2 0x3402 SWAP2 SWAP1 PUSH2 0x5F0A JUMP JUMPDEST PUSH1 0x40 MLOAD DUP1 SWAP2 SUB SWAP1 LOG1 POP JUMP JUMPDEST PUSH1 0x0 DUP1 PUSH2 0x3418 PUSH2 0x1071 JUMP JUMPDEST SWAP1 POP DUP4 DUP2 LT ISZERO PUSH2 0x3426 JUMPI DUP4 SWAP1 POP JUMPDEST PUSH1 0x0 PUSH2 0x344D DUP3 PUSH2 0x343F DUP8 DUP10 PUSH2 0x34E3 SWAP1 SWAP2 SWAP1 PUSH4 0xFFFFFFFF AND JUMP JUMPDEST PUSH2 0x4775 SWAP1 SWAP2 SWAP1 PUSH4 0xFFFFFFFF AND JUMP JUMPDEST SWAP1 POP PUSH20 0x0 PUSH4 0x58715B07 DUP6 DUP4 PUSH1 0x40 MLOAD DUP4 PUSH4 0xFFFFFFFF AND PUSH1 0xE0 SHL DUP2 MSTORE PUSH1 0x4 ADD PUSH2 0x3488 SWAP3 SWAP2 SWAP1 PUSH2 0x5F4E JUMP JUMPDEST PUSH1 0x20 PUSH1 0x40 MLOAD DUP1 DUP4 SUB DUP2 DUP7 DUP1 EXTCODESIZE ISZERO DUP1 ISZERO PUSH2 0x34A0 JUMPI PUSH1 0x0 DUP1 REVERT JUMPDEST POP GAS DELEGATECALL ISZERO DUP1 ISZERO PUSH2 0x34B4 JUMPI RETURNDATASIZE PUSH1 0x0 DUP1 RETURNDATACOPY RETURNDATASIZE PUSH1 0x0 REVERT JUMPDEST POP POP POP POP PUSH1 0x40 MLOAD RETURNDATASIZE PUSH1 0x1F NOT PUSH1 0x1F DUP3 ADD AND DUP3 ADD DUP1 PUSH1 0x40 MSTORE POP DUP2 ADD SWAP1 PUSH2 0x34D8 SWAP2 SWAP1 PUSH2 0x52E9 JUMP JUMPDEST SWAP3 POP POP POP SWAP4 SWAP3 POP POP POP JUMP JUMPDEST PUSH1 0x0 DUP2 DUP4 PUSH2 0x34F1 SWAP2 SWAP1 PUSH2 0x613A JUMP JUMPDEST SWAP1 POP SWAP3 SWAP2 POP POP JUMP JUMPDEST PUSH1 0x0 DUP1 PUSH2 0x3513 DUP4 PUSH1 0x0 ADD MLOAD TIMESTAMP PUSH2 0x32C4 SWAP1 SWAP2 SWAP1 PUSH4 0xFFFFFFFF AND JUMP JUMPDEST SWAP1 POP DUP3 PUSH1 0x40 ADD MLOAD DUP2 LT PUSH2 0x3529 JUMPI PUSH1 0x0 SWAP2 POP PUSH2 0x3543 JUMP JUMPDEST PUSH2 0x3540 DUP2 DUP5 PUSH1 0x40 ADD MLOAD PUSH2 0x32C4 SWAP1 SWAP2 SWAP1 PUSH4 0xFFFFFFFF AND JUMP JUMPDEST SWAP2 POP JUMPDEST POP SWAP2 SWAP1 POP JUMP JUMPDEST PUSH1 0x0 DUP1 PUSH2 0x3555 DUP4 PUSH2 0x34F9 JUMP JUMPDEST SWAP1 POP PUSH1 0x0 DUP2 EQ ISZERO PUSH2 0x3569 JUMPI PUSH1 0x0 SWAP2 POP PUSH2 0x3599 JUMP JUMPDEST PUSH2 0x3596 DUP4 PUSH1 0x40 ADD MLOAD PUSH2 0x3588 DUP6 PUSH1 0x20 ADD MLOAD DUP5 PUSH2 0x34E3 SWAP1 SWAP2 SWAP1 PUSH4 0xFFFFFFFF AND JUMP JUMPDEST PUSH2 0x4775 SWAP1 SWAP2 SWAP1 PUSH4 0xFFFFFFFF AND JUMP JUMPDEST SWAP2 POP JUMPDEST POP SWAP2 SWAP1 POP JUMP JUMPDEST DUP1 PUSH1 0x1A PUSH1 0x0 PUSH2 0x100 EXP DUP2 SLOAD DUP2 PUSH20 0xFFFFFFFFFFFFFFFFFFFFFFFFFFFFFFFFFFFFFFFF MUL NOT AND SWAP1 DUP4 PUSH20 0xFFFFFFFFFFFFFFFFFFFFFFFFFFFFFFFFFFFFFFFF AND MUL OR SWAP1 SSTORE POP DUP1 PUSH20 0xFFFFFFFFFFFFFFFFFFFFFFFFFFFFFFFFFFFFFFFF AND PUSH32 0x57202BCE87A87010E83825477A341D777F701216D3E2A3B4642C72D9E8A93198 PUSH1 0x40 MLOAD PUSH1 0x40 MLOAD DUP1 SWAP2 SUB SWAP1 LOG2 POP JUMP JUMPDEST PUSH1 0x0 PUSH1 0x24 PUSH1 0x0 SWAP1 SLOAD SWAP1 PUSH2 0x100 EXP SWAP1 DIV PUSH1 0xFF AND ISZERO PUSH2 0x3678 JUMPI PUSH1 0x40 MLOAD PUSH32 0x8C379A000000000000000000000000000000000000000000000000000000000 DUP2 MSTORE PUSH1 0x4 ADD PUSH2 0x366F SWAP1 PUSH2 0x5E59 JUMP JUMPDEST PUSH1 0x40 MLOAD DUP1 SWAP2 SUB SWAP1 REVERT JUMPDEST PUSH1 0x25 PUSH1 0x0 DUP4 PUSH20 0xFFFFFFFFFFFFFFFFFFFFFFFFFFFFFFFFFFFFFFFF AND PUSH20 0xFFFFFFFFFFFFFFFFFFFFFFFFFFFFFFFFFFFFFFFF AND DUP2 MSTORE PUSH1 0x20 ADD SWAP1 DUP2 MSTORE PUSH1 0x20 ADD PUSH1 0x0 KECCAK256 PUSH1 0x0 SWAP1 SLOAD SWAP1 PUSH2 0x100 EXP SWAP1 DIV PUSH1 0xFF AND ISZERO SWAP1 POP DUP1 ISZERO PUSH2 0x36E7 JUMPI PUSH1 0x26 PUSH1 0x0 DUP2 SLOAD DUP1 SWAP3 SWAP2 SWAP1 PUSH2 0x36E1 SWAP1 PUSH2 0x632B JUMP JUMPDEST SWAP2 SWAP1 POP SSTORE POP JUMPDEST PUSH1 0x1 PUSH1 0x25 PUSH1 0x0 DUP5 PUSH20 0xFFFFFFFFFFFFFFFFFFFFFFFFFFFFFFFFFFFFFFFF AND PUSH20 0xFFFFFFFFFFFFFFFFFFFFFFFFFFFFFFFFFFFFFFFF AND DUP2 MSTORE PUSH1 0x20 ADD SWAP1 DUP2 MSTORE PUSH1 0x20 ADD PUSH1 0x0 KECCAK256 PUSH1 0x0 PUSH2 0x100 EXP DUP2 SLOAD DUP2 PUSH1 0xFF MUL NOT AND SWAP1 DUP4 ISZERO ISZERO MUL OR SWAP1 SSTORE POP SWAP2 SWAP1 POP JUMP JUMPDEST PUSH1 0x0 PUSH20 0xFFFFFFFFFFFFFFFFFFFFFFFFFFFFFFFFFFFFFFFF AND DUP3 PUSH20 0xFFFFFFFFFFFFFFFFFFFFFFFFFFFFFFFFFFFFFFFF AND EQ ISZERO PUSH2 0x37B4 JUMPI PUSH1 0x40 MLOAD PUSH32 0x8C379A000000000000000000000000000000000000000000000000000000000 DUP2 MSTORE PUSH1 0x4 ADD PUSH2 0x37AB SWAP1 PUSH2 0x5E99 JUMP JUMPDEST PUSH1 0x40 MLOAD DUP1 SWAP2 SUB SWAP1 REVERT JUMPDEST PUSH2 0x37C0 PUSH1 0x0 DUP4 DUP4 PUSH2 0x478B JUMP JUMPDEST DUP1 PUSH1 0x2 PUSH1 0x0 DUP3 DUP3 SLOAD PUSH2 0x37D2 SWAP2 SWAP1 PUSH2 0x60B3 JUMP JUMPDEST SWAP3 POP POP DUP2 SWAP1 SSTORE POP DUP1 PUSH1 0x0 DUP1 DUP5 PUSH20 0xFFFFFFFFFFFFFFFFFFFFFFFFFFFFFFFFFFFFFFFF AND PUSH20 0xFFFFFFFFFFFFFFFFFFFFFFFFFFFFFFFFFFFFFFFF AND DUP2 MSTORE PUSH1 0x20 ADD SWAP1 DUP2 MSTORE PUSH1 0x20 ADD PUSH1 0x0 KECCAK256 PUSH1 0x0 DUP3 DUP3 SLOAD PUSH2 0x3827 SWAP2 SWAP1 PUSH2 0x60B3 JUMP JUMPDEST SWAP3 POP POP DUP2 SWAP1 SSTORE POP DUP2 PUSH20 0xFFFFFFFFFFFFFFFFFFFFFFFFFFFFFFFFFFFFFFFF AND PUSH1 0x0 PUSH20 0xFFFFFFFFFFFFFFFFFFFFFFFFFFFFFFFFFFFFFFFF AND PUSH32 0xDDF252AD1BE2C89B69C2B068FC378DAA952BA7F163C4A11628F55A4DF523B3EF DUP4 PUSH1 0x40 MLOAD PUSH2 0x388C SWAP2 SWAP1 PUSH2 0x5F0A JUMP JUMPDEST PUSH1 0x40 MLOAD DUP1 SWAP2 SUB SWAP1 LOG3 PUSH2 0x38A0 PUSH1 0x0 DUP4 DUP4 PUSH2 0x4863 JUMP JUMPDEST POP POP JUMP JUMPDEST PUSH1 0x0 PUSH1 0x1 DUP3 GT ISZERO PUSH2 0x3994 JUMPI DUP4 PUSH20 0xFFFFFFFFFFFFFFFFFFFFFFFFFFFFFFFFFFFFFFFF AND PUSH32 0xE4EBE3F236D1F26EC3E02E6A726605263FB049E122C8A8460F4B24D4B90D1F4B PUSH1 0x40 MLOAD PUSH1 0x40 MLOAD DUP1 SWAP2 SUB SWAP1 LOG2 PUSH2 0x393B PUSH1 0x5 PUSH1 0x0 DUP7 PUSH20 0xFFFFFFFFFFFFFFFFFFFFFFFFFFFFFFFFFFFFFFFF AND PUSH20 0xFFFFFFFFFFFFFFFFFFFFFFFFFFFFFFFFFFFFFFFF AND DUP2 MSTORE PUSH1 0x20 ADD SWAP1 DUP2 MSTORE PUSH1 0x20 ADD PUSH1 0x0 KECCAK256 DUP5 DUP5 PUSH2 0x493B JUMP JUMPDEST PUSH1 0x0 PUSH20 0xFFFFFFFFFFFFFFFFFFFFFFFFFFFFFFFFFFFFFFFF AND PUSH32 0xE4EBE3F236D1F26EC3E02E6A726605263FB049E122C8A8460F4B24D4B90D1F4B PUSH1 0x40 MLOAD PUSH1 0x40 MLOAD DUP1 SWAP2 SUB SWAP1 LOG2 PUSH2 0x398B PUSH1 0x8 DUP5 DUP5 PUSH2 0x493B JUMP JUMPDEST PUSH1 0x1 SWAP1 POP PUSH2 0x3999 JUMP JUMPDEST PUSH1 0x0 SWAP1 POP JUMPDEST SWAP4 SWAP3 POP POP POP JUMP JUMPDEST DUP1 PUSH2 0x384 DUP2 LT ISZERO DUP1 PUSH2 0x39B2 JUMPI POP PUSH1 0x0 DUP2 EQ JUMPDEST PUSH2 0x39F1 JUMPI PUSH1 0x40 MLOAD PUSH32 0x8C379A000000000000000000000000000000000000000000000000000000000 DUP2 MSTORE PUSH1 0x4 ADD PUSH2 0x39E8 SWAP1 PUSH2 0x5DF9 JUMP JUMPDEST PUSH1 0x40 MLOAD DUP1 SWAP2 SUB SWAP1 REVERT JUMPDEST DUP2 PUSH1 0x1F DUP2 SWAP1 SSTORE POP PUSH32 0x188D26F501F9324E3827258C64BE92F4211835DED4A118906F94F4F40FA739CC DUP3 PUSH1 0x40 MLOAD PUSH2 0x3A27 SWAP2 SWAP1 PUSH2 0x5F0A JUMP JUMPDEST PUSH1 0x40 MLOAD DUP1 SWAP2 SUB SWAP1 LOG1 POP POP JUMP JUMPDEST PUSH1 0x0 PUSH1 0x2 SLOAD SWAP1 POP SWAP1 JUMP JUMPDEST DUP1 PUSH1 0xB DUP2 SWAP1 SSTORE POP PUSH32 0xBCAE77A1CC900624266B1F0A1BC1DD812A2D13B0A0B0FAAA87515AF89B8E3AA8 DUP2 PUSH1 0x40 MLOAD PUSH2 0x3A73 SWAP2 SWAP1 PUSH2 0x5F0A JUMP JUMPDEST PUSH1 0x40 MLOAD DUP1 SWAP2 SUB SWAP1 LOG1 POP JUMP JUMPDEST PUSH1 0x0 PUSH1 0x1 PUSH1 0x0 DUP5 PUSH20 0xFFFFFFFFFFFFFFFFFFFFFFFFFFFFFFFFFFFFFFFF AND PUSH20 0xFFFFFFFFFFFFFFFFFFFFFFFFFFFFFFFFFFFFFFFF AND DUP2 MSTORE PUSH1 0x20 ADD SWAP1 DUP2 MSTORE PUSH1 0x20 ADD PUSH1 0x0 KECCAK256 PUSH1 0x0 DUP4 PUSH20 0xFFFFFFFFFFFFFFFFFFFFFFFFFFFFFFFFFFFFFFFF AND PUSH20 0xFFFFFFFFFFFFFFFFFFFFFFFFFFFFFFFFFFFFFFFF AND DUP2 MSTORE PUSH1 0x20 ADD SWAP1 DUP2 MSTORE PUSH1 0x20 ADD PUSH1 0x0 KECCAK256 SLOAD SWAP1 POP SWAP3 SWAP2 POP POP JUMP JUMPDEST TIMESTAMP PUSH1 0x1E PUSH1 0x0 DUP5 PUSH20 0xFFFFFFFFFFFFFFFFFFFFFFFFFFFFFFFFFFFFFFFF AND PUSH20 0xFFFFFFFFFFFFFFFFFFFFFFFFFFFFFFFFFFFFFFFF AND DUP2 MSTORE PUSH1 0x20 ADD SWAP1 DUP2 MSTORE PUSH1 0x20 ADD PUSH1 0x0 KECCAK256 PUSH1 0x0 DUP4 PUSH20 0xFFFFFFFFFFFFFFFFFFFFFFFFFFFFFFFFFFFFFFFF AND PUSH20 0xFFFFFFFFFFFFFFFFFFFFFFFFFFFFFFFFFFFFFFFF AND DUP2 MSTORE PUSH1 0x20 ADD SWAP1 DUP2 MSTORE PUSH1 0x20 ADD PUSH1 0x0 KECCAK256 DUP2 SWAP1 SSTORE POP POP POP JUMP JUMPDEST PUSH1 0x0 PUSH20 0xFFFFFFFFFFFFFFFFFFFFFFFFFFFFFFFFFFFFFFFF AND DUP4 PUSH20 0xFFFFFFFFFFFFFFFFFFFFFFFFFFFFFFFFFFFFFFFF AND EQ ISZERO PUSH2 0x3BFA JUMPI PUSH1 0x40 MLOAD PUSH32 0x8C379A000000000000000000000000000000000000000000000000000000000 DUP2 MSTORE PUSH1 0x4 ADD PUSH2 0x3BF1 SWAP1 PUSH2 0x5E39 JUMP JUMPDEST PUSH1 0x40 MLOAD DUP1 SWAP2 SUB SWAP1 REVERT JUMPDEST PUSH1 0x0 PUSH20 0xFFFFFFFFFFFFFFFFFFFFFFFFFFFFFFFFFFFFFFFF AND DUP3 PUSH20 0xFFFFFFFFFFFFFFFFFFFFFFFFFFFFFFFFFFFFFFFF AND EQ ISZERO PUSH2 0x3C6A JUMPI PUSH1 0x40 MLOAD PUSH32 0x8C379A000000000000000000000000000000000000000000000000000000000 DUP2 MSTORE PUSH1 0x4 ADD PUSH2 0x3C61 SWAP1 PUSH2 0x5CF9 JUMP JUMPDEST PUSH1 0x40 MLOAD DUP1 SWAP2 SUB SWAP1 REVERT JUMPDEST DUP1 PUSH1 0x1 PUSH1 0x0 DUP6 PUSH20 0xFFFFFFFFFFFFFFFFFFFFFFFFFFFFFFFFFFFFFFFF AND PUSH20 0xFFFFFFFFFFFFFFFFFFFFFFFFFFFFFFFFFFFFFFFF AND DUP2 MSTORE PUSH1 0x20 ADD SWAP1 DUP2 MSTORE PUSH1 0x20 ADD PUSH1 0x0 KECCAK256 PUSH1 0x0 DUP5 PUSH20 0xFFFFFFFFFFFFFFFFFFFFFFFFFFFFFFFFFFFFFFFF AND PUSH20 0xFFFFFFFFFFFFFFFFFFFFFFFFFFFFFFFFFFFFFFFF AND DUP2 MSTORE PUSH1 0x20 ADD SWAP1 DUP2 MSTORE PUSH1 0x20 ADD PUSH1 0x0 KECCAK256 DUP2 SWAP1 SSTORE POP DUP2 PUSH20 0xFFFFFFFFFFFFFFFFFFFFFFFFFFFFFFFFFFFFFFFF AND DUP4 PUSH20 0xFFFFFFFFFFFFFFFFFFFFFFFFFFFFFFFFFFFFFFFF AND PUSH32 0x8C5BE1E5EBEC7D5BD14F71427D1E84F3DD0314C0F7B2291E5B200AC8C7C3B925 DUP4 PUSH1 0x40 MLOAD PUSH2 0x3D48 SWAP2 SWAP1 PUSH2 0x5F0A JUMP JUMPDEST PUSH1 0x40 MLOAD DUP1 SWAP2 SUB SWAP1 LOG3 POP POP POP JUMP JUMPDEST PUSH2 0x2710 DUP2 GT ISZERO PUSH2 0x3D9A JUMPI PUSH1 0x40 MLOAD PUSH32 0x8C379A000000000000000000000000000000000000000000000000000000000 DUP2 MSTORE PUSH1 0x4 ADD PUSH2 0x3D91 SWAP1 PUSH2 0x5D19 JUMP JUMPDEST PUSH1 0x40 MLOAD DUP1 SWAP2 SUB SWAP1 REVERT JUMPDEST POP JUMP JUMPDEST PUSH1 0x0 PUSH1 0x11 PUSH1 0x0 DUP6 PUSH20 0xFFFFFFFFFFFFFFFFFFFFFFFFFFFFFFFFFFFFFFFF AND PUSH20 0xFFFFFFFFFFFFFFFFFFFFFFFFFFFFFFFFFFFFFFFF AND DUP2 MSTORE PUSH1 0x20 ADD SWAP1 DUP2 MSTORE PUSH1 0x20 ADD PUSH1 0x0 KECCAK256 PUSH1 0x0 SWAP1 SLOAD SWAP1 PUSH2 0x100 EXP SWAP1 DIV PUSH1 0xFF AND DUP1 PUSH2 0x3E40 JUMPI POP PUSH1 0x11 PUSH1 0x0 DUP5 PUSH20 0xFFFFFFFFFFFFFFFFFFFFFFFFFFFFFFFFFFFFFFFF AND PUSH20 0xFFFFFFFFFFFFFFFFFFFFFFFFFFFFFFFFFFFFFFFF AND DUP2 MSTORE PUSH1 0x20 ADD SWAP1 DUP2 MSTORE PUSH1 0x20 ADD PUSH1 0x0 KECCAK256 PUSH1 0x0 SWAP1 SLOAD SWAP1 PUSH2 0x100 EXP SWAP1 DIV PUSH1 0xFF AND JUMPDEST ISZERO PUSH2 0x3E4D JUMPI DUP2 SWAP1 POP PUSH2 0x410E JUMP JUMPDEST PUSH1 0x0 PUSH1 0xF SLOAD SWAP1 POP PUSH20 0x0 PUSH4 0xE5E31B13 DUP6 PUSH1 0x40 MLOAD DUP3 PUSH4 0xFFFFFFFF AND PUSH1 0xE0 SHL DUP2 MSTORE PUSH1 0x4 ADD PUSH2 0x3E8B SWAP2 SWAP1 PUSH2 0x5BB4 JUMP JUMPDEST PUSH1 0x20 PUSH1 0x40 MLOAD DUP1 DUP4 SUB DUP2 DUP7 DUP1 EXTCODESIZE ISZERO DUP1 ISZERO PUSH2 0x3EA3 JUMPI PUSH1 0x0 DUP1 REVERT JUMPDEST POP GAS DELEGATECALL ISZERO DUP1 ISZERO PUSH2 0x3EB7 JUMPI RETURNDATASIZE PUSH1 0x0 DUP1 RETURNDATACOPY RETURNDATASIZE PUSH1 0x0 REVERT JUMPDEST POP POP POP POP PUSH1 0x40 MLOAD RETURNDATASIZE PUSH1 0x1F NOT PUSH1 0x1F DUP3 ADD AND DUP3 ADD DUP1 PUSH1 0x40 MSTORE POP DUP2 ADD SWAP1 PUSH2 0x3EDB SWAP2 SWAP1 PUSH2 0x5297 JUMP JUMPDEST ISZERO PUSH2 0x3EEA JUMPI PUSH1 0xE SLOAD SWAP1 POP PUSH2 0x3F7D JUMP JUMPDEST PUSH20 0x0 PUSH4 0xE5E31B13 DUP7 PUSH1 0x40 MLOAD DUP3 PUSH4 0xFFFFFFFF AND PUSH1 0xE0 SHL DUP2 MSTORE PUSH1 0x4 ADD PUSH2 0x3F21 SWAP2 SWAP1 PUSH2 0x5BB4 JUMP JUMPDEST PUSH1 0x20 PUSH1 0x40 MLOAD DUP1 DUP4 SUB DUP2 DUP7 DUP1 EXTCODESIZE ISZERO DUP1 ISZERO PUSH2 0x3F39 JUMPI PUSH1 0x0 DUP1 REVERT JUMPDEST POP GAS DELEGATECALL ISZERO DUP1 ISZERO PUSH2 0x3F4D JUMPI RETURNDATASIZE PUSH1 0x0 DUP1 RETURNDATACOPY RETURNDATASIZE PUSH1 0x0 REVERT JUMPDEST POP POP POP POP PUSH1 0x40 MLOAD RETURNDATASIZE PUSH1 0x1F NOT PUSH1 0x1F DUP3 ADD AND DUP3 ADD DUP1 PUSH1 0x40 MSTORE POP DUP2 ADD SWAP1 PUSH2 0x3F71 SWAP2 SWAP1 PUSH2 0x5297 JUMP JUMPDEST ISZERO PUSH2 0x3F7C JUMPI PUSH1 0xD SLOAD SWAP1 POP JUMPDEST JUMPDEST PUSH1 0x0 PUSH20 0x0 PUSH4 0x58715B07 DUP6 DUP5 PUSH1 0x40 MLOAD DUP4 PUSH4 0xFFFFFFFF AND PUSH1 0xE0 SHL DUP2 MSTORE PUSH1 0x4 ADD PUSH2 0x3FB8 SWAP3 SWAP2 SWAP1 PUSH2 0x5F4E JUMP JUMPDEST PUSH1 0x20 PUSH1 0x40 MLOAD DUP1 DUP4 SUB DUP2 DUP7 DUP1 EXTCODESIZE ISZERO DUP1 ISZERO PUSH2 0x3FD0 JUMPI PUSH1 0x0 DUP1 REVERT JUMPDEST POP GAS DELEGATECALL ISZERO DUP1 ISZERO PUSH2 0x3FE4 JUMPI RETURNDATASIZE PUSH1 0x0 DUP1 RETURNDATACOPY RETURNDATASIZE PUSH1 0x0 REVERT JUMPDEST POP POP POP POP PUSH1 0x40 MLOAD RETURNDATASIZE PUSH1 0x1F NOT PUSH1 0x1F DUP3 ADD AND DUP3 ADD DUP1 PUSH1 0x40 MSTORE POP DUP2 ADD SWAP1 PUSH2 0x4008 SWAP2 SWAP1 PUSH2 0x52E9 JUMP JUMPDEST SWAP1 POP PUSH2 0x4014 DUP6 DUP3 PUSH2 0x4A3D JUMP JUMPDEST PUSH1 0x0 DUP2 GT ISZERO PUSH2 0x40F6 JUMPI PUSH1 0x0 PUSH20 0xFFFFFFFFFFFFFFFFFFFFFFFFFFFFFFFFFFFFFFFF AND PUSH1 0x10 PUSH1 0x0 SWAP1 SLOAD SWAP1 PUSH2 0x100 EXP SWAP1 DIV PUSH20 0xFFFFFFFFFFFFFFFFFFFFFFFFFFFFFFFFFFFFFFFF AND PUSH20 0xFFFFFFFFFFFFFFFFFFFFFFFFFFFFFFFFFFFFFFFF AND EQ ISZERO PUSH2 0x4083 JUMPI PUSH2 0x407E DUP7 DUP3 PUSH2 0x4B63 JUMP JUMPDEST PUSH2 0x40F5 JUMP JUMPDEST PUSH2 0x40B0 DUP7 PUSH1 0x10 PUSH1 0x0 SWAP1 SLOAD SWAP1 PUSH2 0x100 EXP SWAP1 DIV PUSH20 0xFFFFFFFFFFFFFFFFFFFFFFFFFFFFFFFFFFFFFFFF AND DUP4 PUSH2 0x43CF JUMP JUMPDEST PUSH2 0x40B8 PUSH2 0x10BA JUMP JUMPDEST ISZERO PUSH2 0x40F4 JUMPI PUSH2 0x40F2 PUSH1 0x10 PUSH1 0x0 SWAP1 SLOAD SWAP1 PUSH2 0x100 EXP SWAP1 DIV PUSH20 0xFFFFFFFFFFFFFFFFFFFFFFFFFFFFFFFFFFFFFFFF AND DUP3 PUSH2 0x40ED DUP10 PUSH2 0x1431 JUMP JUMPDEST PUSH2 0x38A4 JUMP JUMPDEST POP JUMPDEST JUMPDEST JUMPDEST PUSH2 0x4109 DUP2 DUP6 PUSH2 0x32C4 SWAP1 SWAP2 SWAP1 PUSH4 0xFFFFFFFF AND JUMP JUMPDEST SWAP3 POP POP POP JUMPDEST SWAP4 SWAP3 POP POP POP JUMP JUMPDEST PUSH2 0x411E DUP4 PUSH2 0x4650 JUMP JUMPDEST DUP1 PUSH2 0x412E JUMPI POP PUSH2 0x412D DUP3 PUSH2 0x4650 JUMP JUMPDEST JUMPDEST DUP1 PUSH2 0x4165 JUMPI POP PUSH1 0x0 PUSH20 0xFFFFFFFFFFFFFFFFFFFFFFFFFFFFFFFFFFFFFFFF AND DUP4 PUSH20 0xFFFFFFFFFFFFFFFFFFFFFFFFFFFFFFFFFFFFFFFF AND EQ JUMPDEST ISZERO PUSH2 0x416F JUMPI PUSH2 0x43CA JUMP JUMPDEST PUSH1 0x0 PUSH2 0x417A DUP4 PUSH2 0x1A46 JUMP JUMPDEST SWAP1 POP DUP1 DUP3 LT PUSH2 0x43C8 JUMPI PUSH1 0x0 PUSH1 0x17 PUSH1 0x0 DUP6 PUSH20 0xFFFFFFFFFFFFFFFFFFFFFFFFFFFFFFFFFFFFFFFF AND PUSH20 0xFFFFFFFFFFFFFFFFFFFFFFFFFFFFFFFFFFFFFFFF AND DUP2 MSTORE PUSH1 0x20 ADD SWAP1 DUP2 MSTORE PUSH1 0x20 ADD PUSH1 0x0 KECCAK256 SWAP1 POP PUSH1 0x0 DUP2 PUSH1 0x0 ADD PUSH1 0x0 SWAP1 SLOAD SWAP1 PUSH2 0x100 EXP SWAP1 DIV PUSH20 0xFFFFFFFFFFFFFFFFFFFFFFFFFFFFFFFFFFFFFFFF AND SWAP1 POP DUP6 DUP3 PUSH1 0x0 ADD PUSH1 0x0 PUSH2 0x100 EXP DUP2 SLOAD DUP2 PUSH20 0xFFFFFFFFFFFFFFFFFFFFFFFFFFFFFFFFFFFFFFFF MUL NOT AND SWAP1 DUP4 PUSH20 0xFFFFFFFFFFFFFFFFFFFFFFFFFFFFFFFFFFFFFFFF AND MUL OR SWAP1 SSTORE POP DUP4 DUP3 PUSH1 0x1 ADD DUP2 SWAP1 SSTORE POP TIMESTAMP DUP3 PUSH1 0x2 ADD DUP2 SWAP1 SSTORE POP DUP6 PUSH20 0xFFFFFFFFFFFFFFFFFFFFFFFFFFFFFFFFFFFFFFFF AND DUP2 PUSH20 0xFFFFFFFFFFFFFFFFFFFFFFFFFFFFFFFFFFFFFFFF AND EQ PUSH2 0x43C5 JUMPI PUSH1 0x0 PUSH1 0x18 PUSH1 0x0 DUP4 PUSH20 0xFFFFFFFFFFFFFFFFFFFFFFFFFFFFFFFFFFFFFFFF AND PUSH20 0xFFFFFFFFFFFFFFFFFFFFFFFFFFFFFFFFFFFFFFFF AND DUP2 MSTORE PUSH1 0x20 ADD SWAP1 DUP2 MSTORE PUSH1 0x20 ADD PUSH1 0x0 KECCAK256 SLOAD GT ISZERO PUSH2 0x4315 JUMPI PUSH1 0x18 PUSH1 0x0 DUP3 PUSH20 0xFFFFFFFFFFFFFFFFFFFFFFFFFFFFFFFFFFFFFFFF AND PUSH20 0xFFFFFFFFFFFFFFFFFFFFFFFFFFFFFFFFFFFFFFFF AND DUP2 MSTORE PUSH1 0x20 ADD SWAP1 DUP2 MSTORE PUSH1 0x20 ADD PUSH1 0x0 KECCAK256 PUSH1 0x0 DUP2 SLOAD DUP1 SWAP3 SWAP2 SWAP1 PUSH2 0x430F SWAP1 PUSH2 0x62B5 JUMP JUMPDEST SWAP2 SWAP1 POP SSTORE POP JUMPDEST PUSH1 0x18 PUSH1 0x0 DUP8 PUSH20 0xFFFFFFFFFFFFFFFFFFFFFFFFFFFFFFFFFFFFFFFF AND PUSH20 0xFFFFFFFFFFFFFFFFFFFFFFFFFFFFFFFFFFFFFFFF AND DUP2 MSTORE PUSH1 0x20 ADD SWAP1 DUP2 MSTORE PUSH1 0x20 ADD PUSH1 0x0 KECCAK256 PUSH1 0x0 DUP2 SLOAD DUP1 SWAP3 SWAP2 SWAP1 PUSH2 0x4365 SWAP1 PUSH2 0x632B JUMP JUMPDEST SWAP2 SWAP1 POP SSTORE POP DUP5 PUSH20 0xFFFFFFFFFFFFFFFFFFFFFFFFFFFFFFFFFFFFFFFF AND DUP7 PUSH20 0xFFFFFFFFFFFFFFFFFFFFFFFFFFFFFFFFFFFFFFFF AND PUSH32 0x6A7D6141E302ACC1F9FF7EDE7B26358907511B619F4FA9F6BEAEAB5D19C1FF2C PUSH1 0x40 MLOAD PUSH1 0x40 MLOAD DUP1 SWAP2 SUB SWAP1 LOG3 JUMPDEST POP POP JUMPDEST POP JUMPDEST POP POP POP JUMP JUMPDEST PUSH1 0x0 PUSH20 0xFFFFFFFFFFFFFFFFFFFFFFFFFFFFFFFFFFFFFFFF AND DUP4 PUSH20 0xFFFFFFFFFFFFFFFFFFFFFFFFFFFFFFFFFFFFFFFF AND EQ ISZERO PUSH2 0x443F JUMPI PUSH1 0x40 MLOAD PUSH32 0x8C379A000000000000000000000000000000000000000000000000000000000 DUP2 MSTORE PUSH1 0x4 ADD PUSH2 0x4436 SWAP1 PUSH2 0x5E19 JUMP JUMPDEST PUSH1 0x40 MLOAD DUP1 SWAP2 SUB SWAP1 REVERT JUMPDEST PUSH1 0x0 PUSH20 0xFFFFFFFFFFFFFFFFFFFFFFFFFFFFFFFFFFFFFFFF AND DUP3 PUSH20 0xFFFFFFFFFFFFFFFFFFFFFFFFFFFFFFFFFFFFFFFF AND EQ ISZERO PUSH2 0x44AF JUMPI PUSH1 0x40 MLOAD PUSH32 0x8C379A000000000000000000000000000000000000000000000000000000000 DUP2 MSTORE PUSH1 0x4 ADD PUSH2 0x44A6 SWAP1 PUSH2 0x5C79 JUMP JUMPDEST PUSH1 0x40 MLOAD DUP1 SWAP2 SUB SWAP1 REVERT JUMPDEST PUSH2 0x44BA DUP4 DUP4 DUP4 PUSH2 0x478B JUMP JUMPDEST PUSH1 0x0 DUP1 PUSH1 0x0 DUP6 PUSH20 0xFFFFFFFFFFFFFFFFFFFFFFFFFFFFFFFFFFFFFFFF AND PUSH20 0xFFFFFFFFFFFFFFFFFFFFFFFFFFFFFFFFFFFFFFFF AND DUP2 MSTORE PUSH1 0x20 ADD SWAP1 DUP2 MSTORE PUSH1 0x20 ADD PUSH1 0x0 KECCAK256 SLOAD SWAP1 POP DUP2 DUP2 LT ISZERO PUSH2 0x4540 JUMPI PUSH1 0x40 MLOAD PUSH32 0x8C379A000000000000000000000000000000000000000000000000000000000 DUP2 MSTORE PUSH1 0x4 ADD PUSH2 0x4537 SWAP1 PUSH2 0x5D59 JUMP JUMPDEST PUSH1 0x40 MLOAD DUP1 SWAP2 SUB SWAP1 REVERT JUMPDEST DUP2 DUP2 SUB PUSH1 0x0 DUP1 DUP7 PUSH20 0xFFFFFFFFFFFFFFFFFFFFFFFFFFFFFFFFFFFFFFFF AND PUSH20 0xFFFFFFFFFFFFFFFFFFFFFFFFFFFFFFFFFFFFFFFF AND DUP2 MSTORE PUSH1 0x20 ADD SWAP1 DUP2 MSTORE PUSH1 0x20 ADD PUSH1 0x0 KECCAK256 DUP2 SWAP1 SSTORE POP DUP2 PUSH1 0x0 DUP1 DUP6 PUSH20 0xFFFFFFFFFFFFFFFFFFFFFFFFFFFFFFFFFFFFFFFF AND PUSH20 0xFFFFFFFFFFFFFFFFFFFFFFFFFFFFFFFFFFFFFFFF AND DUP2 MSTORE PUSH1 0x20 ADD SWAP1 DUP2 MSTORE PUSH1 0x20 ADD PUSH1 0x0 KECCAK256 PUSH1 0x0 DUP3 DUP3 SLOAD PUSH2 0x45D3 SWAP2 SWAP1 PUSH2 0x60B3 JUMP JUMPDEST SWAP3 POP POP DUP2 SWAP1 SSTORE POP DUP3 PUSH20 0xFFFFFFFFFFFFFFFFFFFFFFFFFFFFFFFFFFFFFFFF AND DUP5 PUSH20 0xFFFFFFFFFFFFFFFFFFFFFFFFFFFFFFFFFFFFFFFF AND PUSH32 0xDDF252AD1BE2C89B69C2B068FC378DAA952BA7F163C4A11628F55A4DF523B3EF DUP5 PUSH1 0x40 MLOAD PUSH2 0x4637 SWAP2 SWAP1 PUSH2 0x5F0A JUMP JUMPDEST PUSH1 0x40 MLOAD DUP1 SWAP2 SUB SWAP1 LOG3 PUSH2 0x464A DUP5 DUP5 DUP5 PUSH2 0x4863 JUMP JUMPDEST POP POP POP POP JUMP JUMPDEST PUSH1 0x0 DUP1 DUP3 PUSH20 0xFFFFFFFFFFFFFFFFFFFFFFFFFFFFFFFFFFFFFFFF AND DUP1 EXTCODESIZE DUP1 PUSH1 0x20 ADD PUSH1 0x40 MLOAD SWAP1 DUP2 ADD PUSH1 0x40 MSTORE DUP2 DUP2 MSTORE PUSH1 0x0 SWAP1 DUP1 PUSH1 0x20 ADD SWAP1 SWAP4 EXTCODECOPY MLOAD GT SWAP1 POP SWAP2 SWAP1 POP JUMP JUMPDEST PUSH1 0x0 DUP2 EQ ISZERO PUSH2 0x469D JUMPI PUSH2 0x4771 JUMP JUMPDEST PUSH2 0x46A6 DUP3 PUSH2 0x4D3A JUMP JUMPDEST PUSH1 0x0 DUP3 PUSH1 0x1 ADD SLOAD DUP3 LT ISZERO PUSH2 0x46BA JUMPI DUP2 PUSH2 0x46C0 JUMP JUMPDEST DUP3 PUSH1 0x1 ADD SLOAD JUMPDEST SWAP1 POP PUSH1 0x0 DUP2 DUP5 PUSH1 0x1 ADD SLOAD PUSH2 0x46D4 SWAP2 SWAP1 PUSH2 0x6194 JUMP JUMPDEST SWAP1 POP PUSH1 0x0 DUP2 EQ ISZERO PUSH2 0x46F8 JUMPI PUSH1 0x0 DUP5 PUSH1 0x2 ADD DUP2 SWAP1 SSTORE POP PUSH1 0x0 DUP5 PUSH1 0x1 ADD DUP2 SWAP1 SSTORE POP PUSH2 0x4737 JUMP JUMPDEST PUSH2 0x4725 DUP5 PUSH1 0x1 ADD SLOAD PUSH2 0x4717 DUP4 DUP8 PUSH1 0x2 ADD SLOAD PUSH2 0x34E3 SWAP1 SWAP2 SWAP1 PUSH4 0xFFFFFFFF AND JUMP JUMPDEST PUSH2 0x4775 SWAP1 SWAP2 SWAP1 PUSH4 0xFFFFFFFF AND JUMP JUMPDEST DUP5 PUSH1 0x2 ADD DUP2 SWAP1 SSTORE POP DUP1 DUP5 PUSH1 0x1 ADD DUP2 SWAP1 SSTORE POP JUMPDEST PUSH32 0xE07FDBC26A8001506C5F058F6AB03687030B84B808EFB98548B198CD4AB66551 DUP5 PUSH1 0x40 MLOAD PUSH2 0x4766 SWAP2 SWAP1 PUSH2 0x5ED4 JUMP JUMPDEST PUSH1 0x40 MLOAD DUP1 SWAP2 SUB SWAP1 LOG1 POP POP JUMPDEST POP POP JUMP JUMPDEST PUSH1 0x0 DUP2 DUP4 PUSH2 0x4783 SWAP2 SWAP1 PUSH2 0x6109 JUMP JUMPDEST SWAP1 POP SWAP3 SWAP2 POP POP JUMP JUMPDEST PUSH1 0x0 PUSH1 0x22 SLOAD SWAP1 POP PUSH1 0x0 DUP2 GT ISZERO PUSH2 0x485D JUMPI PUSH1 0x0 JUMPDEST DUP2 DUP2 LT ISZERO PUSH2 0x485B JUMPI PUSH1 0x20 PUSH1 0x0 DUP3 DUP2 MSTORE PUSH1 0x20 ADD SWAP1 DUP2 MSTORE PUSH1 0x20 ADD PUSH1 0x0 KECCAK256 PUSH1 0x0 SWAP1 SLOAD SWAP1 PUSH2 0x100 EXP SWAP1 DIV PUSH20 0xFFFFFFFFFFFFFFFFFFFFFFFFFFFFFFFFFFFFFFFF AND PUSH20 0xFFFFFFFFFFFFFFFFFFFFFFFFFFFFFFFFFFFFFFFF AND PUSH4 0xC771EEEF DUP7 DUP7 DUP7 PUSH1 0x40 MLOAD DUP5 PUSH4 0xFFFFFFFF AND PUSH1 0xE0 SHL DUP2 MSTORE PUSH1 0x4 ADD PUSH2 0x4816 SWAP4 SWAP3 SWAP2 SWAP1 PUSH2 0x5BEA JUMP JUMPDEST PUSH1 0x0 PUSH1 0x40 MLOAD DUP1 DUP4 SUB DUP2 PUSH1 0x0 DUP8 DUP1 EXTCODESIZE ISZERO DUP1 ISZERO PUSH2 0x4830 JUMPI PUSH1 0x0 DUP1 REVERT JUMPDEST POP GAS CALL ISZERO DUP1 ISZERO PUSH2 0x4844 JUMPI RETURNDATASIZE PUSH1 0x0 DUP1 RETURNDATACOPY RETURNDATASIZE PUSH1 0x0 REVERT JUMPDEST POP POP POP POP DUP1 DUP1 PUSH2 0x4853 SWAP1 PUSH2 0x632B JUMP JUMPDEST SWAP2 POP POP PUSH2 0x479E JUMP JUMPDEST POP JUMPDEST POP POP POP POP JUMP JUMPDEST PUSH1 0x0 PUSH1 0x23 SLOAD SWAP1 POP PUSH1 0x0 DUP2 GT ISZERO PUSH2 0x4935 JUMPI PUSH1 0x0 JUMPDEST DUP2 DUP2 LT ISZERO PUSH2 0x4933 JUMPI PUSH1 0x21 PUSH1 0x0 DUP3 DUP2 MSTORE PUSH1 0x20 ADD SWAP1 DUP2 MSTORE PUSH1 0x20 ADD PUSH1 0x0 KECCAK256 PUSH1 0x0 SWAP1 SLOAD SWAP1 PUSH2 0x100 EXP SWAP1 DIV PUSH20 0xFFFFFFFFFFFFFFFFFFFFFFFFFFFFFFFFFFFFFFFF AND PUSH20 0xFFFFFFFFFFFFFFFFFFFFFFFFFFFFFFFFFFFFFFFF AND PUSH4 0x5CF8305B DUP7 DUP7 DUP7 PUSH1 0x40 MLOAD DUP5 PUSH4 0xFFFFFFFF AND PUSH1 0xE0 SHL DUP2 MSTORE PUSH1 0x4 ADD PUSH2 0x48EE SWAP4 SWAP3 SWAP2 SWAP1 PUSH2 0x5BEA JUMP JUMPDEST PUSH1 0x0 PUSH1 0x40 MLOAD DUP1 DUP4 SUB DUP2 PUSH1 0x0 DUP8 DUP1 EXTCODESIZE ISZERO DUP1 ISZERO PUSH2 0x4908 JUMPI PUSH1 0x0 DUP1 REVERT JUMPDEST POP GAS CALL ISZERO DUP1 ISZERO PUSH2 0x491C JUMPI RETURNDATASIZE PUSH1 0x0 DUP1 RETURNDATACOPY RETURNDATASIZE PUSH1 0x0 REVERT JUMPDEST POP POP POP POP DUP1 DUP1 PUSH2 0x492B SWAP1 PUSH2 0x632B JUMP JUMPDEST SWAP2 POP POP PUSH2 0x4876 JUMP JUMPDEST POP JUMPDEST POP POP POP POP JUMP JUMPDEST PUSH1 0x0 DUP3 EQ DUP1 PUSH2 0x494A JUMPI POP PUSH1 0x0 DUP2 EQ JUMPDEST ISZERO PUSH2 0x4954 JUMPI PUSH2 0x4A38 JUMP JUMPDEST PUSH2 0x495D DUP4 PUSH2 0x4D3A JUMP JUMPDEST PUSH1 0x0 PUSH2 0x497A DUP5 PUSH1 0x2 ADD SLOAD DUP6 PUSH1 0x1 ADD SLOAD PUSH2 0x34E3 SWAP1 SWAP2 SWAP1 PUSH4 0xFFFFFFFF AND JUMP JUMPDEST SWAP1 POP PUSH1 0x0 PUSH2 0x4991 DUP4 DUP6 PUSH2 0x34E3 SWAP1 SWAP2 SWAP1 PUSH4 0xFFFFFFFF AND JUMP JUMPDEST SWAP1 POP PUSH2 0x49CE PUSH2 0x49AD DUP6 DUP8 PUSH1 0x1 ADD SLOAD PUSH2 0x2F0A SWAP1 SWAP2 SWAP1 PUSH4 0xFFFFFFFF AND JUMP JUMPDEST PUSH2 0x49C0 DUP4 DUP6 PUSH2 0x2F0A SWAP1 SWAP2 SWAP1 PUSH4 0xFFFFFFFF AND JUMP JUMPDEST PUSH2 0x4775 SWAP1 SWAP2 SWAP1 PUSH4 0xFFFFFFFF AND JUMP JUMPDEST DUP6 PUSH1 0x2 ADD DUP2 SWAP1 SSTORE POP PUSH2 0x49ED DUP5 DUP7 PUSH1 0x1 ADD SLOAD PUSH2 0x2F0A SWAP1 SWAP2 SWAP1 PUSH4 0xFFFFFFFF AND JUMP JUMPDEST DUP6 PUSH1 0x1 ADD DUP2 SWAP1 SSTORE POP TIMESTAMP DUP6 PUSH1 0x0 ADD DUP2 SWAP1 SSTORE POP PUSH32 0xE07FDBC26A8001506C5F058F6AB03687030B84B808EFB98548B198CD4AB66551 DUP6 PUSH1 0x40 MLOAD PUSH2 0x4A2D SWAP2 SWAP1 PUSH2 0x5ED4 JUMP JUMPDEST PUSH1 0x40 MLOAD DUP1 SWAP2 SUB SWAP1 LOG1 POP POP JUMPDEST POP POP POP JUMP JUMPDEST PUSH2 0x4A8F DUP2 PUSH1 0x12 PUSH1 0x0 DUP6 PUSH20 0xFFFFFFFFFFFFFFFFFFFFFFFFFFFFFFFFFFFFFFFF AND PUSH20 0xFFFFFFFFFFFFFFFFFFFFFFFFFFFFFFFFFFFFFFFF AND DUP2 MSTORE PUSH1 0x20 ADD SWAP1 DUP2 MSTORE PUSH1 0x20 ADD PUSH1 0x0 KECCAK256 SLOAD PUSH2 0x2F0A SWAP1 SWAP2 SWAP1 PUSH4 0xFFFFFFFF AND JUMP JUMPDEST PUSH1 0x12 PUSH1 0x0 DUP5 PUSH20 0xFFFFFFFFFFFFFFFFFFFFFFFFFFFFFFFFFFFFFFFF AND PUSH20 0xFFFFFFFFFFFFFFFFFFFFFFFFFFFFFFFFFFFFFFFF AND DUP2 MSTORE PUSH1 0x20 ADD SWAP1 DUP2 MSTORE PUSH1 0x20 ADD PUSH1 0x0 KECCAK256 DUP2 SWAP1 SSTORE POP DUP2 PUSH20 0xFFFFFFFFFFFFFFFFFFFFFFFFFFFFFFFFFFFFFFFF AND PUSH32 0x622702F95F23FFC72D9A19EEBCA7FE3F096BD11E6B936722F55A5094917BC468 PUSH1 0x12 PUSH1 0x0 DUP6 PUSH20 0xFFFFFFFFFFFFFFFFFFFFFFFFFFFFFFFFFFFFFFFF AND PUSH20 0xFFFFFFFFFFFFFFFFFFFFFFFFFFFFFFFFFFFFFFFF AND DUP2 MSTORE PUSH1 0x20 ADD SWAP1 DUP2 MSTORE PUSH1 0x20 ADD PUSH1 0x0 KECCAK256 SLOAD PUSH1 0x40 MLOAD PUSH2 0x4B57 SWAP2 SWAP1 PUSH2 0x5F0A JUMP JUMPDEST PUSH1 0x40 MLOAD DUP1 SWAP2 SUB SWAP1 LOG2 POP POP JUMP JUMPDEST PUSH1 0x0 PUSH20 0xFFFFFFFFFFFFFFFFFFFFFFFFFFFFFFFFFFFFFFFF AND DUP3 PUSH20 0xFFFFFFFFFFFFFFFFFFFFFFFFFFFFFFFFFFFFFFFF AND EQ ISZERO PUSH2 0x4BD3 JUMPI PUSH1 0x40 MLOAD PUSH32 0x8C379A000000000000000000000000000000000000000000000000000000000 DUP2 MSTORE PUSH1 0x4 ADD PUSH2 0x4BCA SWAP1 PUSH2 0x5DD9 JUMP JUMPDEST PUSH1 0x40 MLOAD DUP1 SWAP2 SUB SWAP1 REVERT JUMPDEST PUSH2 0x4BDF DUP3 PUSH1 0x0 DUP4 PUSH2 0x478B JUMP JUMPDEST PUSH1 0x0 DUP1 PUSH1 0x0 DUP5 PUSH20 0xFFFFFFFFFFFFFFFFFFFFFFFFFFFFFFFFFFFFFFFF AND PUSH20 0xFFFFFFFFFFFFFFFFFFFFFFFFFFFFFFFFFFFFFFFF AND DUP2 MSTORE PUSH1 0x20 ADD SWAP1 DUP2 MSTORE PUSH1 0x20 ADD PUSH1 0x0 KECCAK256 SLOAD SWAP1 POP DUP2 DUP2 LT ISZERO PUSH2 0x4C65 JUMPI PUSH1 0x40 MLOAD PUSH32 0x8C379A000000000000000000000000000000000000000000000000000000000 DUP2 MSTORE PUSH1 0x4 ADD PUSH2 0x4C5C SWAP1 PUSH2 0x5CB9 JUMP JUMPDEST PUSH1 0x40 MLOAD DUP1 SWAP2 SUB SWAP1 REVERT JUMPDEST DUP2 DUP2 SUB PUSH1 0x0 DUP1 DUP6 PUSH20 0xFFFFFFFFFFFFFFFFFFFFFFFFFFFFFFFFFFFFFFFF AND PUSH20 0xFFFFFFFFFFFFFFFFFFFFFFFFFFFFFFFFFFFFFFFF AND DUP2 MSTORE PUSH1 0x20 ADD SWAP1 DUP2 MSTORE PUSH1 0x20 ADD PUSH1 0x0 KECCAK256 DUP2 SWAP1 SSTORE POP DUP2 PUSH1 0x2 PUSH1 0x0 DUP3 DUP3 SLOAD PUSH2 0x4CBC SWAP2 SWAP1 PUSH2 0x6194 JUMP JUMPDEST SWAP3 POP POP DUP2 SWAP1 SSTORE POP PUSH1 0x0 PUSH20 0xFFFFFFFFFFFFFFFFFFFFFFFFFFFFFFFFFFFFFFFF AND DUP4 PUSH20 0xFFFFFFFFFFFFFFFFFFFFFFFFFFFFFFFFFFFFFFFF AND PUSH32 0xDDF252AD1BE2C89B69C2B068FC378DAA952BA7F163C4A11628F55A4DF523B3EF DUP5 PUSH1 0x40 MLOAD PUSH2 0x4D21 SWAP2 SWAP1 PUSH2 0x5F0A JUMP JUMPDEST PUSH1 0x40 MLOAD DUP1 SWAP2 SUB SWAP1 LOG3 PUSH2 0x4D35 DUP4 PUSH1 0x0 DUP5 PUSH2 0x4863 JUMP JUMPDEST POP POP POP JUMP JUMPDEST PUSH1 0x0 PUSH2 0x4D6E DUP3 PUSH1 0x40 MLOAD DUP1 PUSH1 0x60 ADD PUSH1 0x40 MSTORE SWAP1 DUP2 PUSH1 0x0 DUP3 ADD SLOAD DUP2 MSTORE PUSH1 0x20 ADD PUSH1 0x1 DUP3 ADD SLOAD DUP2 MSTORE PUSH1 0x20 ADD PUSH1 0x2 DUP3 ADD SLOAD DUP2 MSTORE POP POP PUSH2 0x34F9 JUMP JUMPDEST SWAP1 POP PUSH1 0x0 DUP2 EQ ISZERO PUSH2 0x4D9B JUMPI PUSH1 0x0 DUP3 PUSH1 0x1 ADD DUP2 SWAP1 SSTORE POP PUSH1 0x0 DUP3 PUSH1 0x2 ADD DUP2 SWAP1 SSTORE POP TIMESTAMP DUP3 PUSH1 0x0 ADD DUP2 SWAP1 SSTORE POP PUSH2 0x4DE3 JUMP JUMPDEST PUSH2 0x4DC8 DUP3 PUSH1 0x2 ADD SLOAD PUSH2 0x4DBA DUP5 PUSH1 0x1 ADD SLOAD DUP5 PUSH2 0x34E3 SWAP1 SWAP2 SWAP1 PUSH4 0xFFFFFFFF AND JUMP JUMPDEST PUSH2 0x4775 SWAP1 SWAP2 SWAP1 PUSH4 0xFFFFFFFF AND JUMP JUMPDEST DUP3 PUSH1 0x1 ADD DUP2 SWAP1 SSTORE POP DUP1 DUP3 PUSH1 0x2 ADD DUP2 SWAP1 SSTORE POP TIMESTAMP DUP3 PUSH1 0x0 ADD DUP2 SWAP1 SSTORE POP JUMPDEST PUSH32 0xE07FDBC26A8001506C5F058F6AB03687030B84B808EFB98548B198CD4AB66551 DUP3 PUSH1 0x40 MLOAD PUSH2 0x4E12 SWAP2 SWAP1 PUSH2 0x5ED4 JUMP JUMPDEST PUSH1 0x40 MLOAD DUP1 SWAP2 SUB SWAP1 LOG1 POP POP JUMP JUMPDEST PUSH1 0x40 MLOAD DUP1 PUSH1 0x60 ADD PUSH1 0x40 MSTORE DUP1 PUSH1 0x0 DUP2 MSTORE PUSH1 0x20 ADD PUSH1 0x0 DUP2 MSTORE PUSH1 0x20 ADD PUSH1 0x0 DUP2 MSTORE POP SWAP1 JUMP JUMPDEST PUSH1 0x40 MLOAD DUP1 PUSH1 0x60 ADD PUSH1 0x40 MSTORE DUP1 PUSH1 0x0 PUSH20 0xFFFFFFFFFFFFFFFFFFFFFFFFFFFFFFFFFFFFFFFF AND DUP2 MSTORE PUSH1 0x20 ADD PUSH1 0x0 DUP2 MSTORE PUSH1 0x20 ADD PUSH1 0x0 DUP2 MSTORE POP SWAP1 JUMP JUMPDEST PUSH1 0x0 PUSH2 0x4E89 PUSH2 0x4E84 DUP5 PUSH2 0x603F JUMP JUMPDEST PUSH2 0x600E JUMP JUMPDEST SWAP1 POP DUP1 DUP4 DUP3 MSTORE PUSH1 0x20 DUP3 ADD SWAP1 POP DUP3 DUP6 PUSH1 0x20 DUP7 MUL DUP3 ADD GT ISZERO PUSH2 0x4EA8 JUMPI PUSH1 0x0 DUP1 REVERT JUMPDEST PUSH1 0x0 JUMPDEST DUP6 DUP2 LT ISZERO PUSH2 0x4ED8 JUMPI DUP2 PUSH2 0x4EBE DUP9 DUP3 PUSH2 0x4F4E JUMP JUMPDEST DUP5 MSTORE PUSH1 0x20 DUP5 ADD SWAP4 POP PUSH1 0x20 DUP4 ADD SWAP3 POP POP PUSH1 0x1 DUP2 ADD SWAP1 POP PUSH2 0x4EAB JUMP JUMPDEST POP POP POP SWAP4 SWAP3 POP POP POP JUMP JUMPDEST PUSH1 0x0 PUSH2 0x4EF5 PUSH2 0x4EF0 DUP5 PUSH2 0x606B JUMP JUMPDEST PUSH2 0x600E JUMP JUMPDEST SWAP1 POP DUP1 DUP4 DUP3 MSTORE PUSH1 0x20 DUP3 ADD SWAP1 POP DUP3 DUP6 PUSH1 0x20 DUP7 MUL DUP3 ADD GT ISZERO PUSH2 0x4F14 JUMPI PUSH1 0x0 DUP1 REVERT JUMPDEST PUSH1 0x0 JUMPDEST DUP6 DUP2 LT ISZERO PUSH2 0x4F44 JUMPI DUP2 PUSH2 0x4F2A DUP9 DUP3 PUSH2 0x4FE1 JUMP JUMPDEST DUP5 MSTORE PUSH1 0x20 DUP5 ADD SWAP4 POP PUSH1 0x20 DUP4 ADD SWAP3 POP POP PUSH1 0x1 DUP2 ADD SWAP1 POP PUSH2 0x4F17 JUMP JUMPDEST POP POP POP SWAP4 SWAP3 POP POP POP JUMP JUMPDEST PUSH1 0x0 DUP2 CALLDATALOAD SWAP1 POP PUSH2 0x4F5D DUP2 PUSH2 0x6491 JUMP JUMPDEST SWAP3 SWAP2 POP POP JUMP JUMPDEST PUSH1 0x0 DUP3 PUSH1 0x1F DUP4 ADD SLT PUSH2 0x4F74 JUMPI PUSH1 0x0 DUP1 REVERT JUMPDEST DUP2 CALLDATALOAD PUSH2 0x4F84 DUP5 DUP3 PUSH1 0x20 DUP7 ADD PUSH2 0x4E76 JUMP JUMPDEST SWAP2 POP POP SWAP3 SWAP2 POP POP JUMP JUMPDEST PUSH1 0x0 DUP3 PUSH1 0x1F DUP4 ADD SLT PUSH2 0x4F9E JUMPI PUSH1 0x0 DUP1 REVERT JUMPDEST DUP2 CALLDATALOAD PUSH2 0x4FAE DUP5 DUP3 PUSH1 0x20 DUP7 ADD PUSH2 0x4EE2 JUMP JUMPDEST SWAP2 POP POP SWAP3 SWAP2 POP POP JUMP JUMPDEST PUSH1 0x0 DUP2 CALLDATALOAD SWAP1 POP PUSH2 0x4FC6 DUP2 PUSH2 0x64A8 JUMP JUMPDEST SWAP3 SWAP2 POP POP JUMP JUMPDEST PUSH1 0x0 DUP2 MLOAD SWAP1 POP PUSH2 0x4FDB DUP2 PUSH2 0x64A8 JUMP JUMPDEST SWAP3 SWAP2 POP POP JUMP JUMPDEST PUSH1 0x0 DUP2 CALLDATALOAD SWAP1 POP PUSH2 0x4FF0 DUP2 PUSH2 0x64BF JUMP JUMPDEST SWAP3 SWAP2 POP POP JUMP JUMPDEST PUSH1 0x0 DUP2 CALLDATALOAD SWAP1 POP PUSH2 0x5005 DUP2 PUSH2 0x64D6 JUMP JUMPDEST SWAP3 SWAP2 POP POP JUMP JUMPDEST PUSH1 0x0 DUP2 CALLDATALOAD SWAP1 POP PUSH2 0x501A DUP2 PUSH2 0x64E6 JUMP JUMPDEST SWAP3 SWAP2 POP POP JUMP JUMPDEST PUSH1 0x0 DUP2 MLOAD SWAP1 POP PUSH2 0x502F DUP2 PUSH2 0x64E6 JUMP JUMPDEST SWAP3 SWAP2 POP POP JUMP JUMPDEST PUSH1 0x0 PUSH1 0x20 DUP3 DUP5 SUB SLT ISZERO PUSH2 0x5047 JUMPI PUSH1 0x0 DUP1 REVERT JUMPDEST PUSH1 0x0 PUSH2 0x5055 DUP5 DUP3 DUP6 ADD PUSH2 0x4F4E JUMP JUMPDEST SWAP2 POP POP SWAP3 SWAP2 POP POP JUMP JUMPDEST PUSH1 0x0 DUP1 PUSH1 0x40 DUP4 DUP6 SUB SLT ISZERO PUSH2 0x5071 JUMPI PUSH1 0x0 DUP1 REVERT JUMPDEST PUSH1 0x0 PUSH2 0x507F DUP6 DUP3 DUP7 ADD PUSH2 0x4F4E JUMP JUMPDEST SWAP3 POP POP PUSH1 0x20 PUSH2 0x5090 DUP6 DUP3 DUP7 ADD PUSH2 0x4F4E JUMP JUMPDEST SWAP2 POP POP SWAP3 POP SWAP3 SWAP1 POP JUMP JUMPDEST PUSH1 0x0 DUP1 PUSH1 0x0 PUSH1 0x60 DUP5 DUP7 SUB SLT ISZERO PUSH2 0x50AF JUMPI PUSH1 0x0 DUP1 REVERT JUMPDEST PUSH1 0x0 PUSH2 0x50BD DUP7 DUP3 DUP8 ADD PUSH2 0x4F4E JUMP JUMPDEST SWAP4 POP POP PUSH1 0x20 PUSH2 0x50CE DUP7 DUP3 DUP8 ADD PUSH2 0x4F4E JUMP JUMPDEST SWAP3 POP POP PUSH1 0x40 PUSH2 0x50DF DUP7 DUP3 DUP8 ADD PUSH2 0x500B JUMP JUMPDEST SWAP2 POP POP SWAP3 POP SWAP3 POP SWAP3 JUMP JUMPDEST PUSH1 0x0 DUP1 PUSH1 0x40 DUP4 DUP6 SUB SLT ISZERO PUSH2 0x50FC JUMPI PUSH1 0x0 DUP1 REVERT JUMPDEST PUSH1 0x0 PUSH2 0x510A DUP6 DUP3 DUP7 ADD PUSH2 0x4F4E JUMP JUMPDEST SWAP3 POP POP PUSH1 0x20 PUSH2 0x511B DUP6 DUP3 DUP7 ADD PUSH2 0x4FB7 JUMP JUMPDEST SWAP2 POP POP SWAP3 POP SWAP3 SWAP1 POP JUMP JUMPDEST PUSH1 0x0 DUP1 PUSH1 0x40 DUP4 DUP6 SUB SLT ISZERO PUSH2 0x5138 JUMPI PUSH1 0x0 DUP1 REVERT JUMPDEST PUSH1 0x0 PUSH2 0x5146 DUP6 DUP3 DUP7 ADD PUSH2 0x4F4E JUMP JUMPDEST SWAP3 POP POP PUSH1 0x20 PUSH2 0x5157 DUP6 DUP3 DUP7 ADD PUSH2 0x4FF6 JUMP JUMPDEST SWAP2 POP POP SWAP3 POP SWAP3 SWAP1 POP JUMP JUMPDEST PUSH1 0x0 DUP1 PUSH1 0x40 DUP4 DUP6 SUB SLT ISZERO PUSH2 0x5174 JUMPI PUSH1 0x0 DUP1 REVERT JUMPDEST PUSH1 0x0 PUSH2 0x5182 DUP6 DUP3 DUP7 ADD PUSH2 0x4F4E JUMP JUMPDEST SWAP3 POP POP PUSH1 0x20 PUSH2 0x5193 DUP6 DUP3 DUP7 ADD PUSH2 0x500B JUMP JUMPDEST SWAP2 POP POP SWAP3 POP SWAP3 SWAP1 POP JUMP JUMPDEST PUSH1 0x0 DUP1 PUSH1 0x0 PUSH1 0x60 DUP5 DUP7 SUB SLT ISZERO PUSH2 0x51B2 JUMPI PUSH1 0x0 DUP1 REVERT JUMPDEST PUSH1 0x0 PUSH2 0x51C0 DUP7 DUP3 DUP8 ADD PUSH2 0x4F4E JUMP JUMPDEST SWAP4 POP POP PUSH1 0x20 PUSH2 0x51D1 DUP7 DUP3 DUP8 ADD PUSH2 0x500B JUMP JUMPDEST SWAP3 POP POP PUSH1 0x40 PUSH2 0x51E2 DUP7 DUP3 DUP8 ADD PUSH2 0x500B JUMP JUMPDEST SWAP2 POP POP SWAP3 POP SWAP3 POP SWAP3 JUMP JUMPDEST PUSH1 0x0 PUSH1 0x20 DUP3 DUP5 SUB SLT ISZERO PUSH2 0x51FE JUMPI PUSH1 0x0 DUP1 REVERT JUMPDEST PUSH1 0x0 DUP3 ADD CALLDATALOAD PUSH8 0xFFFFFFFFFFFFFFFF DUP2 GT ISZERO PUSH2 0x5218 JUMPI PUSH1 0x0 DUP1 REVERT JUMPDEST PUSH2 0x5224 DUP5 DUP3 DUP6 ADD PUSH2 0x4F63 JUMP JUMPDEST SWAP2 POP POP SWAP3 SWAP2 POP POP JUMP JUMPDEST PUSH1 0x0 PUSH1 0x20 DUP3 DUP5 SUB SLT ISZERO PUSH2 0x523F JUMPI PUSH1 0x0 DUP1 REVERT JUMPDEST PUSH1 0x0 DUP3 ADD CALLDATALOAD PUSH8 0xFFFFFFFFFFFFFFFF DUP2 GT ISZERO PUSH2 0x5259 JUMPI PUSH1 0x0 DUP1 REVERT JUMPDEST PUSH2 0x5265 DUP5 DUP3 DUP6 ADD PUSH2 0x4F8D JUMP JUMPDEST SWAP2 POP POP SWAP3 SWAP2 POP POP JUMP JUMPDEST PUSH1 0x0 PUSH1 0x20 DUP3 DUP5 SUB SLT ISZERO PUSH2 0x5280 JUMPI PUSH1 0x0 DUP1 REVERT JUMPDEST PUSH1 0x0 PUSH2 0x528E DUP5 DUP3 DUP6 ADD PUSH2 0x4FB7 JUMP JUMPDEST SWAP2 POP POP SWAP3 SWAP2 POP POP JUMP JUMPDEST PUSH1 0x0 PUSH1 0x20 DUP3 DUP5 SUB SLT ISZERO PUSH2 0x52A9 JUMPI PUSH1 0x0 DUP1 REVERT JUMPDEST PUSH1 0x0 PUSH2 0x52B7 DUP5 DUP3 DUP6 ADD PUSH2 0x4FCC JUMP JUMPDEST SWAP2 POP POP SWAP3 SWAP2 POP POP JUMP JUMPDEST PUSH1 0x0 PUSH1 0x20 DUP3 DUP5 SUB SLT ISZERO PUSH2 0x52D2 JUMPI PUSH1 0x0 DUP1 REVERT JUMPDEST PUSH1 0x0 PUSH2 0x52E0 DUP5 DUP3 DUP6 ADD PUSH2 0x500B JUMP JUMPDEST SWAP2 POP POP SWAP3 SWAP2 POP POP JUMP JUMPDEST PUSH1 0x0 PUSH1 0x20 DUP3 DUP5 SUB SLT ISZERO PUSH2 0x52FB JUMPI PUSH1 0x0 DUP1 REVERT JUMPDEST PUSH1 0x0 PUSH2 0x5309 DUP5 DUP3 DUP6 ADD PUSH2 0x5020 JUMP JUMPDEST SWAP2 POP POP SWAP3 SWAP2 POP POP JUMP JUMPDEST PUSH1 0x0 DUP1 PUSH1 0x40 DUP4 DUP6 SUB SLT ISZERO PUSH2 0x5325 JUMPI PUSH1 0x0 DUP1 REVERT JUMPDEST PUSH1 0x0 PUSH2 0x5333 DUP6 DUP3 DUP7 ADD PUSH2 0x500B JUMP JUMPDEST SWAP3 POP POP PUSH1 0x20 PUSH2 0x5344 DUP6 DUP3 DUP7 ADD PUSH2 0x500B JUMP JUMPDEST SWAP2 POP POP SWAP3 POP SWAP3 SWAP1 POP JUMP JUMPDEST PUSH1 0x0 DUP1 PUSH1 0x0 PUSH1 0x60 DUP5 DUP7 SUB SLT ISZERO PUSH2 0x5363 JUMPI PUSH1 0x0 DUP1 REVERT JUMPDEST PUSH1 0x0 PUSH2 0x5371 DUP7 DUP3 DUP8 ADD PUSH2 0x500B JUMP JUMPDEST SWAP4 POP POP PUSH1 0x20 PUSH2 0x5382 DUP7 DUP3 DUP8 ADD PUSH2 0x500B JUMP JUMPDEST SWAP3 POP POP PUSH1 0x40 PUSH2 0x5393 DUP7 DUP3 DUP8 ADD PUSH2 0x500B JUMP JUMPDEST SWAP2 POP POP SWAP3 POP SWAP3 POP SWAP3 JUMP JUMPDEST PUSH1 0x0 DUP1 PUSH1 0x0 DUP1 PUSH1 0x80 DUP6 DUP8 SUB SLT ISZERO PUSH2 0x53B3 JUMPI PUSH1 0x0 DUP1 REVERT JUMPDEST PUSH1 0x0 PUSH2 0x53C1 DUP8 DUP3 DUP9 ADD PUSH2 0x500B JUMP JUMPDEST SWAP5 POP POP PUSH1 0x20 PUSH2 0x53D2 DUP8 DUP3 DUP9 ADD PUSH2 0x500B JUMP JUMPDEST SWAP4 POP POP PUSH1 0x40 PUSH2 0x53E3 DUP8 DUP3 DUP9 ADD PUSH2 0x500B JUMP JUMPDEST SWAP3 POP POP PUSH1 0x60 PUSH2 0x53F4 DUP8 DUP3 DUP9 ADD PUSH2 0x4F4E JUMP JUMPDEST SWAP2 POP POP SWAP3 SWAP6 SWAP2 SWAP5 POP SWAP3 POP JUMP JUMPDEST PUSH2 0x5409 DUP2 PUSH2 0x61D2 JUMP JUMPDEST DUP3 MSTORE POP POP JUMP JUMPDEST PUSH2 0x5418 DUP2 PUSH2 0x61D2 JUMP JUMPDEST DUP3 MSTORE POP POP JUMP JUMPDEST PUSH2 0x5427 DUP2 PUSH2 0x61D2 JUMP JUMPDEST DUP3 MSTORE POP POP JUMP JUMPDEST PUSH2 0x5436 DUP2 PUSH2 0x61E4 JUMP JUMPDEST DUP3 MSTORE POP POP JUMP JUMPDEST PUSH2 0x5445 DUP2 PUSH2 0x624C JUMP JUMPDEST DUP3 MSTORE POP POP JUMP JUMPDEST PUSH2 0x5454 DUP2 PUSH2 0x6270 JUMP JUMPDEST DUP3 MSTORE POP POP JUMP JUMPDEST PUSH1 0x0 PUSH2 0x5465 DUP3 PUSH2 0x6097 JUMP JUMPDEST PUSH2 0x546F DUP2 DUP6 PUSH2 0x60A2 JUMP JUMPDEST SWAP4 POP PUSH2 0x547F DUP2 DUP6 PUSH1 0x20 DUP7 ADD PUSH2 0x6282 JUMP JUMPDEST PUSH2 0x5488 DUP2 PUSH2 0x645F JUMP JUMPDEST DUP5 ADD SWAP2 POP POP SWAP3 SWAP2 POP POP JUMP JUMPDEST PUSH1 0x0 PUSH2 0x54A0 PUSH1 0x23 DUP4 PUSH2 0x60A2 JUMP JUMPDEST SWAP2 POP PUSH32 0x45524332303A207472616E7366657220746F20746865207A65726F2061646472 PUSH1 0x0 DUP4 ADD MSTORE PUSH32 0x6573730000000000000000000000000000000000000000000000000000000000 PUSH1 0x20 DUP4 ADD MSTORE PUSH1 0x40 DUP3 ADD SWAP1 POP SWAP2 SWAP1 POP JUMP JUMPDEST PUSH1 0x0 PUSH2 0x5506 PUSH1 0x1B DUP4 PUSH2 0x60A2 JUMP JUMPDEST SWAP2 POP PUSH32 0x6E6F7420656E6F75676820756E6C6F636B65642062616C616E63650000000000 PUSH1 0x0 DUP4 ADD MSTORE PUSH1 0x20 DUP3 ADD SWAP1 POP SWAP2 SWAP1 POP JUMP JUMPDEST PUSH1 0x0 PUSH2 0x5546 PUSH1 0x22 DUP4 PUSH2 0x60A2 JUMP JUMPDEST SWAP2 POP PUSH32 0x45524332303A206275726E20616D6F756E7420657863656564732062616C616E PUSH1 0x0 DUP4 ADD MSTORE PUSH32 0x6365000000000000000000000000000000000000000000000000000000000000 PUSH1 0x20 DUP4 ADD MSTORE PUSH1 0x40 DUP3 ADD SWAP1 POP SWAP2 SWAP1 POP JUMP JUMPDEST PUSH1 0x0 PUSH2 0x55AC PUSH1 0x26 DUP4 PUSH2 0x60A2 JUMP JUMPDEST SWAP2 POP PUSH32 0x4F776E61626C653A206E6577206F776E657220697320746865207A65726F2061 PUSH1 0x0 DUP4 ADD MSTORE PUSH32 0x6464726573730000000000000000000000000000000000000000000000000000 PUSH1 0x20 DUP4 ADD MSTORE PUSH1 0x40 DUP3 ADD SWAP1 POP SWAP2 SWAP1 POP JUMP JUMPDEST PUSH1 0x0 PUSH2 0x5612 PUSH1 0x22 DUP4 PUSH2 0x60A2 JUMP JUMPDEST SWAP2 POP PUSH32 0x45524332303A20617070726F766520746F20746865207A65726F206164647265 PUSH1 0x0 DUP4 ADD MSTORE PUSH32 0x7373000000000000000000000000000000000000000000000000000000000000 PUSH1 0x20 DUP4 ADD MSTORE PUSH1 0x40 DUP3 ADD SWAP1 POP SWAP2 SWAP1 POP JUMP JUMPDEST PUSH1 0x0 PUSH2 0x5678 PUSH1 0xF DUP4 PUSH2 0x60A2 JUMP JUMPDEST SWAP2 POP PUSH32 0x696E76616C69642070657263656E740000000000000000000000000000000000 PUSH1 0x0 DUP4 ADD MSTORE PUSH1 0x20 DUP3 ADD SWAP1 POP SWAP2 SWAP1 POP JUMP JUMPDEST PUSH1 0x0 PUSH2 0x56B8 PUSH1 0x13 DUP4 PUSH2 0x60A2 JUMP JUMPDEST SWAP2 POP PUSH32 0x6F6E6C79526566657272616C4D616E6167657200000000000000000000000000 PUSH1 0x0 DUP4 ADD MSTORE PUSH1 0x20 DUP3 ADD SWAP1 POP SWAP2 SWAP1 POP JUMP JUMPDEST PUSH1 0x0 PUSH2 0x56F8 PUSH1 0x26 DUP4 PUSH2 0x60A2 JUMP JUMPDEST SWAP2 POP PUSH32 0x45524332303A207472616E7366657220616D6F756E7420657863656564732062 PUSH1 0x0 DUP4 ADD MSTORE PUSH32 0x616C616E63650000000000000000000000000000000000000000000000000000 PUSH1 0x20 DUP4 ADD MSTORE PUSH1 0x40 DUP3 ADD SWAP1 POP SWAP2 SWAP1 POP JUMP JUMPDEST PUSH1 0x0 PUSH2 0x575E PUSH1 0x16 DUP4 PUSH2 0x60A2 JUMP JUMPDEST SWAP2 POP PUSH32 0x6F6E6C79417070726F76616C4E6F744578706972656400000000000000000000 PUSH1 0x0 DUP4 ADD MSTORE PUSH1 0x20 DUP3 ADD SWAP1 POP SWAP2 SWAP1 POP JUMP JUMPDEST PUSH1 0x0 PUSH2 0x579E PUSH1 0x28 DUP4 PUSH2 0x60A2 JUMP JUMPDEST SWAP2 POP PUSH32 0x45524332303A207472616E7366657220616D6F756E7420657863656564732061 PUSH1 0x0 DUP4 ADD MSTORE PUSH32 0x6C6C6F77616E6365000000000000000000000000000000000000000000000000 PUSH1 0x20 DUP4 ADD MSTORE PUSH1 0x40 DUP3 ADD SWAP1 POP SWAP2 SWAP1 POP JUMP JUMPDEST PUSH1 0x0 PUSH2 0x5804 PUSH1 0x20 DUP4 PUSH2 0x60A2 JUMP JUMPDEST SWAP2 POP PUSH32 0x4F776E61626C653A2063616C6C6572206973206E6F7420746865206F776E6572 PUSH1 0x0 DUP4 ADD MSTORE PUSH1 0x20 DUP3 ADD SWAP1 POP SWAP2 SWAP1 POP JUMP JUMPDEST PUSH1 0x0 PUSH2 0x5844 PUSH1 0x21 DUP4 PUSH2 0x60A2 JUMP JUMPDEST SWAP2 POP PUSH32 0x45524332303A206275726E2066726F6D20746865207A65726F20616464726573 PUSH1 0x0 DUP4 ADD MSTORE PUSH32 0x7300000000000000000000000000000000000000000000000000000000000000 PUSH1 0x20 DUP4 ADD MSTORE PUSH1 0x40 DUP3 ADD SWAP1 POP SWAP2 SWAP1 POP JUMP JUMPDEST PUSH1 0x0 PUSH2 0x58AA PUSH1 0x15 DUP4 PUSH2 0x60A2 JUMP JUMPDEST SWAP2 POP PUSH32 0x6F6E6C7956616C6964417070724475726174696F6E0000000000000000000000 PUSH1 0x0 DUP4 ADD MSTORE PUSH1 0x20 DUP3 ADD SWAP1 POP SWAP2 SWAP1 POP JUMP JUMPDEST PUSH1 0x0 PUSH2 0x58EA PUSH1 0x25 DUP4 PUSH2 0x60A2 JUMP JUMPDEST SWAP2 POP PUSH32 0x45524332303A207472616E736665722066726F6D20746865207A65726F206164 PUSH1 0x0 DUP4 ADD MSTORE PUSH32 0x6472657373000000000000000000000000000000000000000000000000000000 PUSH1 0x20 DUP4 ADD MSTORE PUSH1 0x40 DUP3 ADD SWAP1 POP SWAP2 SWAP1 POP JUMP JUMPDEST PUSH1 0x0 PUSH2 0x5950 PUSH1 0x24 DUP4 PUSH2 0x60A2 JUMP JUMPDEST SWAP2 POP PUSH32 0x45524332303A20617070726F76652066726F6D20746865207A65726F20616464 PUSH1 0x0 DUP4 ADD MSTORE PUSH32 0x7265737300000000000000000000000000000000000000000000000000000000 PUSH1 0x20 DUP4 ADD MSTORE PUSH1 0x40 DUP3 ADD SWAP1 POP SWAP2 SWAP1 POP JUMP JUMPDEST PUSH1 0x0 PUSH2 0x59B6 PUSH1 0xF DUP4 PUSH2 0x60A2 JUMP JUMPDEST SWAP2 POP PUSH32 0x6F6E6C794E6F7444697361626C65640000000000000000000000000000000000 PUSH1 0x0 DUP4 ADD MSTORE PUSH1 0x20 DUP3 ADD SWAP1 POP SWAP2 SWAP1 POP JUMP JUMPDEST PUSH1 0x0 PUSH2 0x59F6 PUSH1 0x25 DUP4 PUSH2 0x60A2 JUMP JUMPDEST SWAP2 POP PUSH32 0x45524332303A2064656372656173656420616C6C6F77616E63652062656C6F77 PUSH1 0x0 DUP4 ADD MSTORE PUSH32 0x207A65726F000000000000000000000000000000000000000000000000000000 PUSH1 0x20 DUP4 ADD MSTORE PUSH1 0x40 DUP3 ADD SWAP1 POP SWAP2 SWAP1 POP JUMP JUMPDEST PUSH1 0x0 PUSH2 0x5A5C PUSH1 0x1F DUP4 PUSH2 0x60A2 JUMP JUMPDEST SWAP2 POP PUSH32 0x45524332303A206D696E7420746F20746865207A65726F206164647265737300 PUSH1 0x0 DUP4 ADD MSTORE PUSH1 0x20 DUP3 ADD SWAP1 POP SWAP2 SWAP1 POP JUMP JUMPDEST PUSH1 0x60 DUP3 ADD PUSH1 0x0 DUP3 ADD MLOAD PUSH2 0x5AA5 PUSH1 0x0 DUP6 ADD DUP3 PUSH2 0x5B78 JUMP JUMPDEST POP PUSH1 0x20 DUP3 ADD MLOAD PUSH2 0x5AB8 PUSH1 0x20 DUP6 ADD DUP3 PUSH2 0x5B78 JUMP JUMPDEST POP PUSH1 0x40 DUP3 ADD MLOAD PUSH2 0x5ACB PUSH1 0x40 DUP6 ADD DUP3 PUSH2 0x5B78 JUMP JUMPDEST POP POP POP POP JUMP JUMPDEST PUSH1 0x60 DUP3 ADD PUSH1 0x0 DUP1 DUP4 ADD SLOAD SWAP1 POP PUSH2 0x5AE6 DUP2 PUSH2 0x6311 JUMP JUMPDEST PUSH2 0x5AF3 PUSH1 0x0 DUP7 ADD DUP3 PUSH2 0x5B78 JUMP JUMPDEST POP PUSH1 0x1 DUP4 ADD SLOAD SWAP1 POP PUSH2 0x5B04 DUP2 PUSH2 0x6311 JUMP JUMPDEST PUSH2 0x5B11 PUSH1 0x20 DUP7 ADD DUP3 PUSH2 0x5B78 JUMP JUMPDEST POP PUSH1 0x2 DUP4 ADD SLOAD SWAP1 POP PUSH2 0x5B22 DUP2 PUSH2 0x6311 JUMP JUMPDEST PUSH2 0x5B2F PUSH1 0x40 DUP7 ADD DUP3 PUSH2 0x5B78 JUMP JUMPDEST POP POP POP POP POP JUMP JUMPDEST PUSH1 0x60 DUP3 ADD PUSH1 0x0 DUP3 ADD MLOAD PUSH2 0x5B4C PUSH1 0x0 DUP6 ADD DUP3 PUSH2 0x5400 JUMP JUMPDEST POP PUSH1 0x20 DUP3 ADD MLOAD PUSH2 0x5B5F PUSH1 0x20 DUP6 ADD DUP3 PUSH2 0x5B78 JUMP JUMPDEST POP PUSH1 0x40 DUP3 ADD MLOAD PUSH2 0x5B72 PUSH1 0x40 DUP6 ADD DUP3 PUSH2 0x5B78 JUMP JUMPDEST POP POP POP POP JUMP JUMPDEST PUSH2 0x5B81 DUP2 PUSH2 0x6235 JUMP JUMPDEST DUP3 MSTORE POP POP JUMP JUMPDEST PUSH2 0x5B90 DUP2 PUSH2 0x6235 JUMP JUMPDEST DUP3 MSTORE POP POP JUMP JUMPDEST PUSH2 0x5B9F DUP2 PUSH2 0x6235 JUMP JUMPDEST DUP3 MSTORE POP POP JUMP JUMPDEST PUSH2 0x5BAE DUP2 PUSH2 0x623F JUMP JUMPDEST DUP3 MSTORE POP POP JUMP JUMPDEST PUSH1 0x0 PUSH1 0x20 DUP3 ADD SWAP1 POP PUSH2 0x5BC9 PUSH1 0x0 DUP4 ADD DUP5 PUSH2 0x541E JUMP JUMPDEST SWAP3 SWAP2 POP POP JUMP JUMPDEST PUSH1 0x0 PUSH1 0x20 DUP3 ADD SWAP1 POP PUSH2 0x5BE4 PUSH1 0x0 DUP4 ADD DUP5 PUSH2 0x540F JUMP JUMPDEST SWAP3 SWAP2 POP POP JUMP JUMPDEST PUSH1 0x0 PUSH1 0x60 DUP3 ADD SWAP1 POP PUSH2 0x5BFF PUSH1 0x0 DUP4 ADD DUP7 PUSH2 0x540F JUMP JUMPDEST PUSH2 0x5C0C PUSH1 0x20 DUP4 ADD DUP6 PUSH2 0x540F JUMP JUMPDEST PUSH2 0x5C19 PUSH1 0x40 DUP4 ADD DUP5 PUSH2 0x5B87 JUMP JUMPDEST SWAP5 SWAP4 POP POP POP POP JUMP JUMPDEST PUSH1 0x0 PUSH1 0x20 DUP3 ADD SWAP1 POP PUSH2 0x5C36 PUSH1 0x0 DUP4 ADD DUP5 PUSH2 0x542D JUMP JUMPDEST SWAP3 SWAP2 POP POP JUMP JUMPDEST PUSH1 0x0 PUSH1 0x20 DUP3 ADD SWAP1 POP PUSH2 0x5C51 PUSH1 0x0 DUP4 ADD DUP5 PUSH2 0x543C JUMP JUMPDEST SWAP3 SWAP2 POP POP JUMP JUMPDEST PUSH1 0x0 PUSH1 0x20 DUP3 ADD SWAP1 POP DUP2 DUP2 SUB PUSH1 0x0 DUP4 ADD MSTORE PUSH2 0x5C71 DUP2 DUP5 PUSH2 0x545A JUMP JUMPDEST SWAP1 POP SWAP3 SWAP2 POP POP JUMP JUMPDEST PUSH1 0x0 PUSH1 0x20 DUP3 ADD SWAP1 POP DUP2 DUP2 SUB PUSH1 0x0 DUP4 ADD MSTORE PUSH2 0x5C92 DUP2 PUSH2 0x5493 JUMP JUMPDEST SWAP1 POP SWAP2 SWAP1 POP JUMP JUMPDEST PUSH1 0x0 PUSH1 0x20 DUP3 ADD SWAP1 POP DUP2 DUP2 SUB PUSH1 0x0 DUP4 ADD MSTORE PUSH2 0x5CB2 DUP2 PUSH2 0x54F9 JUMP JUMPDEST SWAP1 POP SWAP2 SWAP1 POP JUMP JUMPDEST PUSH1 0x0 PUSH1 0x20 DUP3 ADD SWAP1 POP DUP2 DUP2 SUB PUSH1 0x0 DUP4 ADD MSTORE PUSH2 0x5CD2 DUP2 PUSH2 0x5539 JUMP JUMPDEST SWAP1 POP SWAP2 SWAP1 POP JUMP JUMPDEST PUSH1 0x0 PUSH1 0x20 DUP3 ADD SWAP1 POP DUP2 DUP2 SUB PUSH1 0x0 DUP4 ADD MSTORE PUSH2 0x5CF2 DUP2 PUSH2 0x559F JUMP JUMPDEST SWAP1 POP SWAP2 SWAP1 POP JUMP JUMPDEST PUSH1 0x0 PUSH1 0x20 DUP3 ADD SWAP1 POP DUP2 DUP2 SUB PUSH1 0x0 DUP4 ADD MSTORE PUSH2 0x5D12 DUP2 PUSH2 0x5605 JUMP JUMPDEST SWAP1 POP SWAP2 SWAP1 POP JUMP JUMPDEST PUSH1 0x0 PUSH1 0x20 DUP3 ADD SWAP1 POP DUP2 DUP2 SUB PUSH1 0x0 DUP4 ADD MSTORE PUSH2 0x5D32 DUP2 PUSH2 0x566B JUMP JUMPDEST SWAP1 POP SWAP2 SWAP1 POP JUMP JUMPDEST PUSH1 0x0 PUSH1 0x20 DUP3 ADD SWAP1 POP DUP2 DUP2 SUB PUSH1 0x0 DUP4 ADD MSTORE PUSH2 0x5D52 DUP2 PUSH2 0x56AB JUMP JUMPDEST SWAP1 POP SWAP2 SWAP1 POP JUMP JUMPDEST PUSH1 0x0 PUSH1 0x20 DUP3 ADD SWAP1 POP DUP2 DUP2 SUB PUSH1 0x0 DUP4 ADD MSTORE PUSH2 0x5D72 DUP2 PUSH2 0x56EB JUMP JUMPDEST SWAP1 POP SWAP2 SWAP1 POP JUMP JUMPDEST PUSH1 0x0 PUSH1 0x20 DUP3 ADD SWAP1 POP DUP2 DUP2 SUB PUSH1 0x0 DUP4 ADD MSTORE PUSH2 0x5D92 DUP2 PUSH2 0x5751 JUMP JUMPDEST SWAP1 POP SWAP2 SWAP1 POP JUMP JUMPDEST PUSH1 0x0 PUSH1 0x20 DUP3 ADD SWAP1 POP DUP2 DUP2 SUB PUSH1 0x0 DUP4 ADD MSTORE PUSH2 0x5DB2 DUP2 PUSH2 0x5791 JUMP JUMPDEST SWAP1 POP SWAP2 SWAP1 POP JUMP JUMPDEST PUSH1 0x0 PUSH1 0x20 DUP3 ADD SWAP1 POP DUP2 DUP2 SUB PUSH1 0x0 DUP4 ADD MSTORE PUSH2 0x5DD2 DUP2 PUSH2 0x57F7 JUMP JUMPDEST SWAP1 POP SWAP2 SWAP1 POP JUMP JUMPDEST PUSH1 0x0 PUSH1 0x20 DUP3 ADD SWAP1 POP DUP2 DUP2 SUB PUSH1 0x0 DUP4 ADD MSTORE PUSH2 0x5DF2 DUP2 PUSH2 0x5837 JUMP JUMPDEST SWAP1 POP SWAP2 SWAP1 POP JUMP JUMPDEST PUSH1 0x0 PUSH1 0x20 DUP3 ADD SWAP1 POP DUP2 DUP2 SUB PUSH1 0x0 DUP4 ADD MSTORE PUSH2 0x5E12 DUP2 PUSH2 0x589D JUMP JUMPDEST SWAP1 POP SWAP2 SWAP1 POP JUMP JUMPDEST PUSH1 0x0 PUSH1 0x20 DUP3 ADD SWAP1 POP DUP2 DUP2 SUB PUSH1 0x0 DUP4 ADD MSTORE PUSH2 0x5E32 DUP2 PUSH2 0x58DD JUMP JUMPDEST SWAP1 POP SWAP2 SWAP1 POP JUMP JUMPDEST PUSH1 0x0 PUSH1 0x20 DUP3 ADD SWAP1 POP DUP2 DUP2 SUB PUSH1 0x0 DUP4 ADD MSTORE PUSH2 0x5E52 DUP2 PUSH2 0x5943 JUMP JUMPDEST SWAP1 POP SWAP2 SWAP1 POP JUMP JUMPDEST PUSH1 0x0 PUSH1 0x20 DUP3 ADD SWAP1 POP DUP2 DUP2 SUB PUSH1 0x0 DUP4 ADD MSTORE PUSH2 0x5E72 DUP2 PUSH2 0x59A9 JUMP JUMPDEST SWAP1 POP SWAP2 SWAP1 POP JUMP JUMPDEST PUSH1 0x0 PUSH1 0x20 DUP3 ADD SWAP1 POP DUP2 DUP2 SUB PUSH1 0x0 DUP4 ADD MSTORE PUSH2 0x5E92 DUP2 PUSH2 0x59E9 JUMP JUMPDEST SWAP1 POP SWAP2 SWAP1 POP JUMP JUMPDEST PUSH1 0x0 PUSH1 0x20 DUP3 ADD SWAP1 POP DUP2 DUP2 SUB PUSH1 0x0 DUP4 ADD MSTORE PUSH2 0x5EB2 DUP2 PUSH2 0x5A4F JUMP JUMPDEST SWAP1 POP SWAP2 SWAP1 POP JUMP JUMPDEST PUSH1 0x0 PUSH1 0x60 DUP3 ADD SWAP1 POP PUSH2 0x5ECE PUSH1 0x0 DUP4 ADD DUP5 PUSH2 0x5A8F JUMP JUMPDEST SWAP3 SWAP2 POP POP JUMP JUMPDEST PUSH1 0x0 PUSH1 0x60 DUP3 ADD SWAP1 POP PUSH2 0x5EE9 PUSH1 0x0 DUP4 ADD DUP5 PUSH2 0x5AD1 JUMP JUMPDEST SWAP3 SWAP2 POP POP JUMP JUMPDEST PUSH1 0x0 PUSH1 0x60 DUP3 ADD SWAP1 POP PUSH2 0x5F04 PUSH1 0x0 DUP4 ADD DUP5 PUSH2 0x5B36 JUMP JUMPDEST SWAP3 SWAP2 POP POP JUMP JUMPDEST PUSH1 0x0 PUSH1 0x20 DUP3 ADD SWAP1 POP PUSH2 0x5F1F PUSH1 0x0 DUP4 ADD DUP5 PUSH2 0x5B87 JUMP JUMPDEST SWAP3 SWAP2 POP POP JUMP JUMPDEST PUSH1 0x0 PUSH1 0x40 DUP3 ADD SWAP1 POP PUSH2 0x5F3A PUSH1 0x0 DUP4 ADD DUP6 PUSH2 0x5B87 JUMP JUMPDEST PUSH2 0x5F47 PUSH1 0x20 DUP4 ADD DUP5 PUSH2 0x544B JUMP JUMPDEST SWAP4 SWAP3 POP POP POP JUMP JUMPDEST PUSH1 0x0 PUSH1 0x40 DUP3 ADD SWAP1 POP PUSH2 0x5F63 PUSH1 0x0 DUP4 ADD DUP6 PUSH2 0x5B96 JUMP JUMPDEST PUSH2 0x5F70 PUSH1 0x20 DUP4 ADD DUP5 PUSH2 0x5B96 JUMP JUMPDEST SWAP4 SWAP3 POP POP POP JUMP JUMPDEST PUSH1 0x0 PUSH1 0x60 DUP3 ADD SWAP1 POP PUSH2 0x5F8C PUSH1 0x0 DUP4 ADD DUP7 PUSH2 0x5B87 JUMP JUMPDEST PUSH2 0x5F99 PUSH1 0x20 DUP4 ADD DUP6 PUSH2 0x5B87 JUMP JUMPDEST PUSH2 0x5FA6 PUSH1 0x40 DUP4 ADD DUP5 PUSH2 0x5B87 JUMP JUMPDEST SWAP5 SWAP4 POP POP POP POP JUMP JUMPDEST PUSH1 0x0 PUSH1 0x80 DUP3 ADD SWAP1 POP PUSH2 0x5FC3 PUSH1 0x0 DUP4 ADD DUP8 PUSH2 0x5B87 JUMP JUMPDEST PUSH2 0x5FD0 PUSH1 0x20 DUP4 ADD DUP7 PUSH2 0x5B87 JUMP JUMPDEST PUSH2 0x5FDD PUSH1 0x40 DUP4 ADD DUP6 PUSH2 0x5B87 JUMP JUMPDEST PUSH2 0x5FEA PUSH1 0x60 DUP4 ADD DUP5 PUSH2 0x540F JUMP JUMPDEST SWAP6 SWAP5 POP POP POP POP POP JUMP JUMPDEST PUSH1 0x0 PUSH1 0x20 DUP3 ADD SWAP1 POP PUSH2 0x6008 PUSH1 0x0 DUP4 ADD DUP5 PUSH2 0x5BA5 JUMP JUMPDEST SWAP3 SWAP2 POP POP JUMP JUMPDEST PUSH1 0x0 PUSH1 0x40 MLOAD SWAP1 POP DUP2 DUP2 ADD DUP2 DUP2 LT PUSH8 0xFFFFFFFFFFFFFFFF DUP3 GT OR ISZERO PUSH2 0x6035 JUMPI PUSH2 0x6034 PUSH2 0x6430 JUMP JUMPDEST JUMPDEST DUP1 PUSH1 0x40 MSTORE POP SWAP2 SWAP1 POP JUMP JUMPDEST PUSH1 0x0 PUSH8 0xFFFFFFFFFFFFFFFF DUP3 GT ISZERO PUSH2 0x605A JUMPI PUSH2 0x6059 PUSH2 0x6430 JUMP JUMPDEST JUMPDEST PUSH1 0x20 DUP3 MUL SWAP1 POP PUSH1 0x20 DUP2 ADD SWAP1 POP SWAP2 SWAP1 POP JUMP JUMPDEST PUSH1 0x0 PUSH8 0xFFFFFFFFFFFFFFFF DUP3 GT ISZERO PUSH2 0x6086 JUMPI PUSH2 0x6085 PUSH2 0x6430 JUMP JUMPDEST JUMPDEST PUSH1 0x20 DUP3 MUL SWAP1 POP PUSH1 0x20 DUP2 ADD SWAP1 POP SWAP2 SWAP1 POP JUMP JUMPDEST PUSH1 0x0 DUP2 MLOAD SWAP1 POP SWAP2 SWAP1 POP JUMP JUMPDEST PUSH1 0x0 DUP3 DUP3 MSTORE PUSH1 0x20 DUP3 ADD SWAP1 POP SWAP3 SWAP2 POP POP JUMP JUMPDEST PUSH1 0x0 PUSH2 0x60BE DUP3 PUSH2 0x6235 JUMP JUMPDEST SWAP2 POP PUSH2 0x60C9 DUP4 PUSH2 0x6235 JUMP JUMPDEST SWAP3 POP DUP3 PUSH32 0xFFFFFFFFFFFFFFFFFFFFFFFFFFFFFFFFFFFFFFFFFFFFFFFFFFFFFFFFFFFFFFFF SUB DUP3 GT ISZERO PUSH2 0x60FE JUMPI PUSH2 0x60FD PUSH2 0x6374 JUMP JUMPDEST JUMPDEST DUP3 DUP3 ADD SWAP1 POP SWAP3 SWAP2 POP POP JUMP JUMPDEST PUSH1 0x0 PUSH2 0x6114 DUP3 PUSH2 0x6235 JUMP JUMPDEST SWAP2 POP PUSH2 0x611F DUP4 PUSH2 0x6235 JUMP JUMPDEST SWAP3 POP DUP3 PUSH2 0x612F JUMPI PUSH2 0x612E PUSH2 0x63A3 JUMP JUMPDEST JUMPDEST DUP3 DUP3 DIV SWAP1 POP SWAP3 SWAP2 POP POP JUMP JUMPDEST PUSH1 0x0 PUSH2 0x6145 DUP3 PUSH2 0x6235 JUMP JUMPDEST SWAP2 POP PUSH2 0x6150 DUP4 PUSH2 0x6235 JUMP JUMPDEST SWAP3 POP DUP2 PUSH32 0xFFFFFFFFFFFFFFFFFFFFFFFFFFFFFFFFFFFFFFFFFFFFFFFFFFFFFFFFFFFFFFFF DIV DUP4 GT DUP3 ISZERO ISZERO AND ISZERO PUSH2 0x6189 JUMPI PUSH2 0x6188 PUSH2 0x6374 JUMP JUMPDEST JUMPDEST DUP3 DUP3 MUL SWAP1 POP SWAP3 SWAP2 POP POP JUMP JUMPDEST PUSH1 0x0 PUSH2 0x619F DUP3 PUSH2 0x6235 JUMP JUMPDEST SWAP2 POP PUSH2 0x61AA DUP4 PUSH2 0x6235 JUMP JUMPDEST SWAP3 POP DUP3 DUP3 LT ISZERO PUSH2 0x61BD JUMPI PUSH2 0x61BC PUSH2 0x6374 JUMP JUMPDEST JUMPDEST DUP3 DUP3 SUB SWAP1 POP SWAP3 SWAP2 POP POP JUMP JUMPDEST PUSH1 0x0 DUP2 SWAP1 POP SWAP2 SWAP1 POP JUMP JUMPDEST PUSH1 0x0 PUSH2 0x61DD DUP3 PUSH2 0x6215 JUMP JUMPDEST SWAP1 POP SWAP2 SWAP1 POP JUMP JUMPDEST PUSH1 0x0 DUP2 ISZERO ISZERO SWAP1 POP SWAP2 SWAP1 POP JUMP JUMPDEST PUSH1 0x0 PUSH2 0x61FB DUP3 PUSH2 0x61D2 JUMP JUMPDEST SWAP1 POP SWAP2 SWAP1 POP JUMP JUMPDEST PUSH1 0x0 DUP2 SWAP1 POP PUSH2 0x6210 DUP3 PUSH2 0x647D JUMP JUMPDEST SWAP2 SWAP1 POP JUMP JUMPDEST PUSH1 0x0 PUSH20 0xFFFFFFFFFFFFFFFFFFFFFFFFFFFFFFFFFFFFFFFF DUP3 AND SWAP1 POP SWAP2 SWAP1 POP JUMP JUMPDEST PUSH1 0x0 DUP2 SWAP1 POP SWAP2 SWAP1 POP JUMP JUMPDEST PUSH1 0x0 PUSH1 0xFF DUP3 AND SWAP1 POP SWAP2 SWAP1 POP JUMP JUMPDEST PUSH1 0x0 PUSH2 0x6257 DUP3 PUSH2 0x625E JUMP JUMPDEST SWAP1 POP SWAP2 SWAP1 POP JUMP JUMPDEST PUSH1 0x0 PUSH2 0x6269 DUP3 PUSH2 0x6215 JUMP JUMPDEST SWAP1 POP SWAP2 SWAP1 POP JUMP JUMPDEST PUSH1 0x0 PUSH2 0x627B DUP3 PUSH2 0x6202 JUMP JUMPDEST SWAP1 POP SWAP2 SWAP1 POP JUMP JUMPDEST PUSH1 0x0 JUMPDEST DUP4 DUP2 LT ISZERO PUSH2 0x62A0 JUMPI DUP1 DUP3 ADD MLOAD DUP2 DUP5 ADD MSTORE PUSH1 0x20 DUP2 ADD SWAP1 POP PUSH2 0x6285 JUMP JUMPDEST DUP4 DUP2 GT ISZERO PUSH2 0x62AF JUMPI PUSH1 0x0 DUP5 DUP5 ADD MSTORE JUMPDEST POP POP POP POP JUMP JUMPDEST PUSH1 0x0 PUSH2 0x62C0 DUP3 PUSH2 0x6235 JUMP JUMPDEST SWAP2 POP PUSH1 0x0 DUP3 EQ ISZERO PUSH2 0x62D4 JUMPI PUSH2 0x62D3 PUSH2 0x6374 JUMP JUMPDEST JUMPDEST PUSH1 0x1 DUP3 SUB SWAP1 POP SWAP2 SWAP1 POP JUMP JUMPDEST PUSH1 0x0 PUSH1 0x2 DUP3 DIV SWAP1 POP PUSH1 0x1 DUP3 AND DUP1 PUSH2 0x62F7 JUMPI PUSH1 0x7F DUP3 AND SWAP2 POP JUMPDEST PUSH1 0x20 DUP3 LT DUP2 EQ ISZERO PUSH2 0x630B JUMPI PUSH2 0x630A PUSH2 0x6401 JUMP JUMPDEST JUMPDEST POP SWAP2 SWAP1 POP JUMP JUMPDEST PUSH1 0x0 PUSH2 0x6324 PUSH2 0x631F DUP4 PUSH2 0x6470 JUMP JUMPDEST PUSH2 0x61C8 JUMP JUMPDEST SWAP1 POP SWAP2 SWAP1 POP JUMP JUMPDEST PUSH1 0x0 PUSH2 0x6336 DUP3 PUSH2 0x6235 JUMP JUMPDEST SWAP2 POP PUSH32 0xFFFFFFFFFFFFFFFFFFFFFFFFFFFFFFFFFFFFFFFFFFFFFFFFFFFFFFFFFFFFFFFF DUP3 EQ ISZERO PUSH2 0x6369 JUMPI PUSH2 0x6368 PUSH2 0x6374 JUMP JUMPDEST JUMPDEST PUSH1 0x1 DUP3 ADD SWAP1 POP SWAP2 SWAP1 POP JUMP JUMPDEST PUSH32 0x4E487B7100000000000000000000000000000000000000000000000000000000 PUSH1 0x0 MSTORE PUSH1 0x11 PUSH1 0x4 MSTORE PUSH1 0x24 PUSH1 0x0 REVERT JUMPDEST PUSH32 0x4E487B7100000000000000000000000000000000000000000000000000000000 PUSH1 0x0 MSTORE PUSH1 0x12 PUSH1 0x4 MSTORE PUSH1 0x24 PUSH1 0x0 REVERT JUMPDEST PUSH32 0x4E487B7100000000000000000000000000000000000000000000000000000000 PUSH1 0x0 MSTORE PUSH1 0x21 PUSH1 0x4 MSTORE PUSH1 0x24 PUSH1 0x0 REVERT JUMPDEST PUSH32 0x4E487B7100000000000000000000000000000000000000000000000000000000 PUSH1 0x0 MSTORE PUSH1 0x22 PUSH1 0x4 MSTORE PUSH1 0x24 PUSH1 0x0 REVERT JUMPDEST PUSH32 0x4E487B7100000000000000000000000000000000000000000000000000000000 PUSH1 0x0 MSTORE PUSH1 0x41 PUSH1 0x4 MSTORE PUSH1 0x24 PUSH1 0x0 REVERT JUMPDEST PUSH1 0x0 PUSH1 0x1F NOT PUSH1 0x1F DUP4 ADD AND SWAP1 POP SWAP2 SWAP1 POP JUMP JUMPDEST PUSH1 0x0 DUP2 PUSH1 0x0 SHR SWAP1 POP SWAP2 SWAP1 POP JUMP JUMPDEST PUSH1 0x4 DUP2 LT PUSH2 0x648E JUMPI PUSH2 0x648D PUSH2 0x63D2 JUMP JUMPDEST JUMPDEST POP JUMP JUMPDEST PUSH2 0x649A DUP2 PUSH2 0x61D2 JUMP JUMPDEST DUP2 EQ PUSH2 0x64A5 JUMPI PUSH1 0x0 DUP1 REVERT JUMPDEST POP JUMP JUMPDEST PUSH2 0x64B1 DUP2 PUSH2 0x61E4 JUMP JUMPDEST DUP2 EQ PUSH2 0x64BC JUMPI PUSH1 0x0 DUP1 REVERT JUMPDEST POP JUMP JUMPDEST PUSH2 0x64C8 DUP2 PUSH2 0x61F0 JUMP JUMPDEST DUP2 EQ PUSH2 0x64D3 JUMPI PUSH1 0x0 DUP1 REVERT JUMPDEST POP JUMP JUMPDEST PUSH1 0x4 DUP2 LT PUSH2 0x64E3 JUMPI PUSH1 0x0 DUP1 REVERT JUMPDEST POP JUMP JUMPDEST PUSH2 0x64EF DUP2 PUSH2 0x6235 JUMP JUMPDEST DUP2 EQ PUSH2 0x64FA JUMPI PUSH1 0x0 DUP1 REVERT JUMPDEST POP JUMP INVALID LOG2 PUSH5 0x6970667358 0x22 SLT KECCAK256 0xE6 NOT SUB DUP6 SWAP10 SHR 0xFB 0xBF 0xC5 CALLVALUE PUSH27 0x27F3312C1CCFD10E3D916304852C4425DF5726683464736F6C6343 STOP ADDMOD STOP STOP CALLER "
		},
		"gasEstimates": {
			"creation": {
				"codeDepositCost": "5181400",
				"executionCost": "infinite",
				"totalCost": "infinite"
			},
			"external": {
				"MIN_VALID_DURATION()": "421",
				"VERSION()": "infinite",
				"afterTransferCallback(address,address,uint256)": "infinite",
				"afterTransferTargets(uint256)": "1716",
				"allowance(address,address)": "infinite",
				"apprDuration()": "1205",
				"approve(address,uint256)": "infinite",
				"balanceOf(address)": "infinite",
				"beforeTransferTargets(uint256)": "1648",
				"configWar(uint256,uint256,uint256)": "infinite",
				"decimals()": "499",
				"decreaseAllowance(address,uint256)": "infinite",
				"defaultLockPeriod()": "1227",
				"disableImport()": "22139",
				"expInterval()": "1249",
				"fullBalanceOf(address)": "1652",
				"getTaxs()": "infinite",
				"importAccount(address)": "infinite",
				"importAccounts(address[])": "infinite",
				"increaseAllowance(address,uint256)": "infinite",
				"isApprovalExpired(address,address)": "infinite",
				"isImported(address)": "1678",
				"isTaxIgnored(address)": "1718",
				"isTaxerLocked()": "1292",
				"lastApproval(address,address)": "infinite",
				"lock(address,uint256,uint256)": "infinite",
				"lockDataOf(address)": "infinite",
				"lockDurationOf(address)": "infinite",
				"lockPeriodByFrom(address)": "infinite",
				"lockedAOf(address)": "infinite",
				"lockedIncTotalSupply()": "1305",
				"lockedSupply()": "infinite",
				"maxSelfUnlockP()": "1250",
				"minRefInvValue()": "1248",
				"name()": "infinite",
				"owner()": "1406",
				"refKing()": "1289",
				"refKingBalance()": "1206",
				"refKingUnlockP()": "1206",
				"referralManager()": "1356",
				"referrerOf(address)": "infinite",
				"referrerUnlockA(uint256,uint256)": "infinite",
				"renounceOwnership()": "24704",
				"requiredInvValue(address)": "infinite",
				"returnPOf(address)": "1698",
				"selfUnlockA(uint256,uint256)": "infinite",
				"setAfterTransferTargets(address[])": "infinite",
				"setBeforeTransferTargets(address[])": "infinite",
				"setDefaultLockPeriod(uint256)": "infinite",
				"setIsTaxerLocked(bool)": "infinite",
				"setLockPeriodByFrom(address,uint256)": "infinite",
				"setMaxSelfUnlockP(uint256)": "infinite",
				"setRefKingUnlockP(uint256)": "infinite",
				"setReferralManager(address)": "23638",
				"setReturnP(uint256)": "infinite",
				"setReturnPWithManager(address,uint256)": "infinite",
				"setTaxs(uint256,uint256,uint256,address)": "infinite",
				"setValidApprDuration(uint256)": "infinite",
				"supplyLockData()": "infinite",
				"symbol()": "infinite",
				"taxIgnore(address,bool)": "infinite",
				"totalAfterTransferTargets()": "1264",
				"totalBeforeTransferTargets()": "1218",
				"totalChildren(address)": "1655",
				"totalImported()": "1261",
				"totalSupply()": "infinite",
				"totalTaxOf(address)": "1675",
				"transfer(address,uint256)": "infinite",
				"transferFrom(address,address,uint256)": "infinite",
				"transferOwnership(address)": "25052",
				"unlock(address,uint256)": "infinite",
				"unlockedBalanceOf(address)": "infinite",
				"unlockedSumOf(address,uint8)": "1892",
				"warDuration()": "1270"
			},
			"internal": {
				"_afterTokenTransfer(address,address,uint256)": "infinite",
				"_approve(address,address,uint256)": "infinite",
				"_beforeTokenTransfer(address,address,uint256)": "infinite",
				"_handleTax(address,address,uint256)": "infinite",
				"_transfer(address,address,uint256)": "infinite"
			}
		},
		"methodIdentifiers": {
			"MIN_VALID_DURATION()": "08b6f847",
			"VERSION()": "ffa1ad74",
			"afterTransferCallback(address,address,uint256)": "5cf8305b",
			"afterTransferTargets(uint256)": "9b902485",
			"allowance(address,address)": "dd62ed3e",
			"apprDuration()": "911f050d",
			"approve(address,uint256)": "095ea7b3",
			"balanceOf(address)": "70a08231",
			"beforeTransferTargets(uint256)": "f4937e26",
			"configWar(uint256,uint256,uint256)": "6a71f088",
			"decimals()": "313ce567",
			"decreaseAllowance(address,uint256)": "a457c2d7",
			"defaultLockPeriod()": "26c8fded",
			"disableImport()": "8a49a1b3",
			"expInterval()": "2bb02cc0",
			"fullBalanceOf(address)": "58b5dd72",
			"getTaxs()": "e463a32f",
			"importAccount(address)": "cf8caa78",
			"importAccounts(address[])": "631ad94c",
			"increaseAllowance(address,uint256)": "39509351",
			"isApprovalExpired(address,address)": "32e72613",
			"isImported(address)": "aa120477",
			"isTaxIgnored(address)": "0d0fcb8f",
			"isTaxerLocked()": "19749877",
			"lastApproval(address,address)": "f60e7a07",
			"lock(address,uint256,uint256)": "e2ab691d",
			"lockDataOf(address)": "c2ab7e64",
			"lockDurationOf(address)": "a2a79520",
			"lockPeriodByFrom(address)": "3c0257a1",
			"lockedAOf(address)": "ac7a3d9b",
			"lockedIncTotalSupply()": "d4dcb3e7",
			"lockedSupply()": "ca5c7b91",
			"maxSelfUnlockP()": "80f86f7c",
			"minRefInvValue()": "75039349",
			"name()": "06fdde03",
			"owner()": "8da5cb5b",
			"refKing()": "d64e2214",
			"refKingBalance()": "11f2acd8",
			"refKingUnlockP()": "7a5b22ac",
			"referralManager()": "2ccd9623",
			"referrerOf(address)": "d21cacdf",
			"referrerUnlockA(uint256,uint256)": "8e6806b7",
			"renounceOwnership()": "715018a6",
			"requiredInvValue(address)": "94d13fba",
			"returnPOf(address)": "0f437028",
			"selfUnlockA(uint256,uint256)": "b5e65195",
			"setAfterTransferTargets(address[])": "89801167",
			"setBeforeTransferTargets(address[])": "5b143985",
			"setDefaultLockPeriod(uint256)": "d51e701a",
			"setIsTaxerLocked(bool)": "09cf1c49",
			"setLockPeriodByFrom(address,uint256)": "5dbc25c3",
			"setMaxSelfUnlockP(uint256)": "8cfc26e9",
			"setRefKingUnlockP(uint256)": "6356e347",
			"setReferralManager(address)": "c5f3a4c4",
			"setReturnP(uint256)": "0c3e0c56",
			"setReturnPWithManager(address,uint256)": "fa2ca0ed",
			"setTaxs(uint256,uint256,uint256,address)": "78f76df7",
			"setValidApprDuration(uint256)": "cfeaee31",
			"supplyLockData()": "71560438",
			"symbol()": "95d89b41",
			"taxIgnore(address,bool)": "0be2f221",
			"totalAfterTransferTargets()": "1db9de9d",
			"totalBeforeTransferTargets()": "71db3d53",
			"totalChildren(address)": "091074ad",
			"totalImported()": "fa9119ec",
			"totalSupply()": "18160ddd",
			"totalTaxOf(address)": "5d9e1115",
			"transfer(address,uint256)": "a9059cbb",
			"transferFrom(address,address,uint256)": "23b872dd",
			"transferOwnership(address)": "f2fde38b",
			"unlock(address,uint256)": "7eee288d",
			"unlockedBalanceOf(address)": "84955c88",
			"unlockedSumOf(address,uint8)": "341808f0",
			"warDuration()": "786c58a3"
		}
	},
	"abi": [
		{
			"inputs": [
				{
					"internalType": "string",
					"name": "tokenName_",
					"type": "string"
				},
				{
					"internalType": "string",
					"name": "tokenSymbol_",
					"type": "string"
				},
				{
					"internalType": "uint256",
					"name": "initSupplyInEther_",
					"type": "uint256"
				},
				{
					"internalType": "address",
					"name": "prevTokenAddr_",
					"type": "address"
				}
			],
			"stateMutability": "nonpayable",
			"type": "constructor"
		},
		{
			"anonymous": false,
			"inputs": [
				{
					"indexed": true,
					"internalType": "address",
					"name": "account",
					"type": "address"
				},
				{
					"indexed": false,
					"internalType": "uint256",
					"name": "totalTaxed",
					"type": "uint256"
				}
			],
			"name": "AddTotalTaxOf",
			"type": "event"
		},
		{
			"anonymous": false,
			"inputs": [
				{
					"indexed": true,
					"internalType": "address",
					"name": "owner",
					"type": "address"
				},
				{
					"indexed": true,
					"internalType": "address",
					"name": "spender",
					"type": "address"
				},
				{
					"indexed": false,
					"internalType": "uint256",
					"name": "value",
					"type": "uint256"
				}
			],
			"name": "Approval",
			"type": "event"
		},
		{
			"anonymous": false,
			"inputs": [
				{
					"indexed": false,
					"internalType": "uint256",
					"name": "warDuration",
					"type": "uint256"
				},
				{
					"indexed": false,
					"internalType": "uint256",
					"name": "expInterval",
					"type": "uint256"
				},
				{
					"indexed": false,
					"internalType": "uint256",
					"name": "minRefInvValue",
					"type": "uint256"
				}
			],
			"name": "ConfigWar",
			"type": "event"
		},
		{
			"anonymous": false,
			"inputs": [
				{
					"indexed": true,
					"internalType": "address",
					"name": "previousOwner",
					"type": "address"
				},
				{
					"indexed": true,
					"internalType": "address",
					"name": "newOwner",
					"type": "address"
				}
			],
			"name": "OwnershipTransferred",
			"type": "event"
		},
		{
			"anonymous": false,
			"inputs": [
				{
					"indexed": false,
					"internalType": "uint256",
					"name": "period",
					"type": "uint256"
				}
			],
			"name": "SetDefaultLockPeriod",
			"type": "event"
		},
		{
			"anonymous": false,
			"inputs": [
				{
					"indexed": false,
					"internalType": "bool",
					"name": "isTaxerLocked",
					"type": "bool"
				}
			],
			"name": "SetIsTaxerLocked",
			"type": "event"
		},
		{
			"anonymous": false,
			"inputs": [
				{
					"indexed": true,
					"internalType": "address",
					"name": "from",
					"type": "address"
				},
				{
					"indexed": false,
					"internalType": "uint256",
					"name": "period",
					"type": "uint256"
				}
			],
			"name": "SetLockPeriodByFrom",
			"type": "event"
		},
		{
			"anonymous": false,
			"inputs": [
				{
					"indexed": false,
					"internalType": "uint256",
					"name": "maxSelfUnlockP",
					"type": "uint256"
				}
			],
			"name": "SetMaxSelfUnlockP",
			"type": "event"
		},
		{
			"anonymous": false,
			"inputs": [
				{
					"indexed": false,
					"internalType": "uint256",
					"name": "refKingUnlockP",
					"type": "uint256"
				}
			],
			"name": "SetRefKingUnlockP",
			"type": "event"
		},
		{
			"anonymous": false,
			"inputs": [
				{
					"indexed": true,
					"internalType": "address",
					"name": "referralManager",
					"type": "address"
				}
			],
			"name": "SetReferralManager",
			"type": "event"
		},
		{
			"anonymous": false,
			"inputs": [
				{
					"indexed": true,
					"internalType": "address",
					"name": "referrer",
					"type": "address"
				},
				{
					"indexed": false,
					"internalType": "uint256",
					"name": "percent",
					"type": "uint256"
				}
			],
			"name": "SetReturnPOf",
			"type": "event"
		},
		{
			"anonymous": false,
			"inputs": [
				{
					"indexed": false,
					"internalType": "uint256",
					"name": "buyTaxP",
					"type": "uint256"
				},
				{
					"indexed": false,
					"internalType": "uint256",
					"name": "sellTaxP",
					"type": "uint256"
				},
				{
					"indexed": false,
					"internalType": "uint256",
					"name": "transferTaxP",
					"type": "uint256"
				},
				{
					"indexed": true,
					"internalType": "address",
					"name": "taxReceiver",
					"type": "address"
				}
			],
			"name": "SetTax",
			"type": "event"
		},
		{
			"anonymous": false,
			"inputs": [
				{
					"indexed": false,
					"internalType": "uint256",
					"name": "duration",
					"type": "uint256"
				}
			],
			"name": "SetValidApprDuration",
			"type": "event"
		},
		{
			"anonymous": false,
			"inputs": [
				{
					"indexed": true,
					"internalType": "address",
					"name": "account",
					"type": "address"
				},
				{
					"indexed": false,
					"internalType": "bool",
					"name": "isTaxIgnored",
					"type": "bool"
				}
			],
			"name": "TaxIgnore",
			"type": "event"
		},
		{
			"anonymous": false,
			"inputs": [
				{
					"indexed": true,
					"internalType": "address",
					"name": "from",
					"type": "address"
				},
				{
					"indexed": true,
					"internalType": "address",
					"name": "to",
					"type": "address"
				},
				{
					"indexed": false,
					"internalType": "uint256",
					"name": "value",
					"type": "uint256"
				}
			],
			"name": "Transfer",
			"type": "event"
		},
		{
			"anonymous": false,
			"inputs": [
				{
					"indexed": true,
					"internalType": "address",
					"name": "account",
					"type": "address"
				},
				{
					"indexed": false,
					"internalType": "uint256",
					"name": "amount",
					"type": "uint256"
				},
				{
					"indexed": false,
					"internalType": "enum Lockable.UnlockType",
					"name": "unlockType",
					"type": "uint8"
				}
			],
			"name": "Unlocked",
			"type": "event"
		},
		{
			"anonymous": false,
			"inputs": [
				{
					"components": [
						{
							"internalType": "uint256",
							"name": "updatedAt",
							"type": "uint256"
						},
						{
							"internalType": "uint256",
							"name": "amount",
							"type": "uint256"
						},
						{
							"internalType": "uint256",
							"name": "duration",
							"type": "uint256"
						}
					],
					"indexed": false,
					"internalType": "struct Lockable.SLock",
					"name": "lockData",
					"type": "tuple"
				}
			],
			"name": "UpdateLockData",
			"type": "event"
		},
		{
			"anonymous": false,
			"inputs": [
				{
					"indexed": true,
					"internalType": "address",
					"name": "refKing",
					"type": "address"
				},
				{
					"indexed": false,
					"internalType": "uint256",
					"name": "balance",
					"type": "uint256"
				}
			],
			"name": "UpdateRefKing",
			"type": "event"
		},
		{
			"anonymous": false,
			"inputs": [
				{
					"indexed": true,
					"internalType": "address",
					"name": "referrer",
					"type": "address"
				},
				{
					"indexed": true,
					"internalType": "address",
					"name": "child",
					"type": "address"
				}
			],
			"name": "UpdateReferrer",
			"type": "event"
		},
		{
			"anonymous": false,
			"inputs": [
				{
					"indexed": true,
					"internalType": "address",
					"name": "account",
					"type": "address"
				}
			],
			"name": "UpdatingLockDataOf",
			"type": "event"
		},
		{
			"inputs": [],
			"name": "MIN_VALID_DURATION",
			"outputs": [
				{
					"internalType": "uint256",
					"name": "",
					"type": "uint256"
				}
			],
			"stateMutability": "view",
			"type": "function"
		},
		{
			"inputs": [],
			"name": "VERSION",
			"outputs": [
				{
					"internalType": "string",
					"name": "",
					"type": "string"
				}
			],
			"stateMutability": "view",
			"type": "function"
		},
		{
			"inputs": [
				{
					"internalType": "address",
					"name": "from",
					"type": "address"
				},
				{
					"internalType": "address",
					"name": "to",
					"type": "address"
				},
				{
					"internalType": "uint256",
					"name": "",
					"type": "uint256"
				}
			],
			"name": "afterTransferCallback",
			"outputs": [],
			"stateMutability": "nonpayable",
			"type": "function"
		},
		{
			"inputs": [
				{
					"internalType": "uint256",
					"name": "",
					"type": "uint256"
				}
			],
			"name": "afterTransferTargets",
			"outputs": [
				{
					"internalType": "contract ITokenCallback",
					"name": "",
					"type": "address"
				}
			],
			"stateMutability": "view",
			"type": "function"
		},
		{
			"inputs": [
				{
					"internalType": "address",
					"name": "owner",
					"type": "address"
				},
				{
					"internalType": "address",
					"name": "spender",
					"type": "address"
				}
			],
			"name": "allowance",
			"outputs": [
				{
					"internalType": "uint256",
					"name": "",
					"type": "uint256"
				}
			],
			"stateMutability": "view",
			"type": "function"
		},
		{
			"inputs": [],
			"name": "apprDuration",
			"outputs": [
				{
					"internalType": "uint256",
					"name": "",
					"type": "uint256"
				}
			],
			"stateMutability": "view",
			"type": "function"
		},
		{
			"inputs": [
				{
					"internalType": "address",
					"name": "spender",
					"type": "address"
				},
				{
					"internalType": "uint256",
					"name": "amount",
					"type": "uint256"
				}
			],
			"name": "approve",
			"outputs": [
				{
					"internalType": "bool",
					"name": "",
					"type": "bool"
				}
			],
			"stateMutability": "nonpayable",
			"type": "function"
		},
		{
			"inputs": [
				{
					"internalType": "address",
					"name": "account",
					"type": "address"
				}
			],
			"name": "balanceOf",
			"outputs": [
				{
					"internalType": "uint256",
					"name": "",
					"type": "uint256"
				}
			],
			"stateMutability": "view",
			"type": "function"
		},
		{
			"inputs": [
				{
					"internalType": "uint256",
					"name": "",
					"type": "uint256"
				}
			],
			"name": "beforeTransferTargets",
			"outputs": [
				{
					"internalType": "contract ITokenCallback",
					"name": "",
					"type": "address"
				}
			],
			"stateMutability": "view",
			"type": "function"
		},
		{
			"inputs": [
				{
					"internalType": "uint256",
					"name": "warDuration_",
					"type": "uint256"
				},
				{
					"internalType": "uint256",
					"name": "expInterval_",
					"type": "uint256"
				},
				{
					"internalType": "uint256",
					"name": "minRefInvValue_",
					"type": "uint256"
				}
			],
			"name": "configWar",
			"outputs": [],
			"stateMutability": "nonpayable",
			"type": "function"
		},
		{
			"inputs": [],
			"name": "decimals",
			"outputs": [
				{
					"internalType": "uint8",
					"name": "",
					"type": "uint8"
				}
			],
			"stateMutability": "view",
			"type": "function"
		},
		{
			"inputs": [
				{
					"internalType": "address",
					"name": "spender",
					"type": "address"
				},
				{
					"internalType": "uint256",
					"name": "subtractedValue",
					"type": "uint256"
				}
			],
			"name": "decreaseAllowance",
			"outputs": [
				{
					"internalType": "bool",
					"name": "",
					"type": "bool"
				}
			],
			"stateMutability": "nonpayable",
			"type": "function"
		},
		{
			"inputs": [],
			"name": "defaultLockPeriod",
			"outputs": [
				{
					"internalType": "uint256",
					"name": "",
					"type": "uint256"
				}
			],
			"stateMutability": "view",
			"type": "function"
		},
		{
			"inputs": [],
			"name": "disableImport",
			"outputs": [],
			"stateMutability": "nonpayable",
			"type": "function"
		},
		{
			"inputs": [],
			"name": "expInterval",
			"outputs": [
				{
					"internalType": "uint256",
					"name": "",
					"type": "uint256"
				}
			],
			"stateMutability": "view",
			"type": "function"
		},
		{
			"inputs": [
				{
					"internalType": "address",
					"name": "account",
					"type": "address"
				}
			],
			"name": "fullBalanceOf",
			"outputs": [
				{
					"internalType": "uint256",
					"name": "",
					"type": "uint256"
				}
			],
			"stateMutability": "view",
			"type": "function"
		},
		{
			"inputs": [],
			"name": "getTaxs",
			"outputs": [
				{
					"internalType": "uint256",
					"name": "buyTaxP",
					"type": "uint256"
				},
				{
					"internalType": "uint256",
					"name": "sellTaxP",
					"type": "uint256"
				},
				{
					"internalType": "uint256",
					"name": "transferTaxP",
					"type": "uint256"
				},
				{
					"internalType": "address",
					"name": "taxReceiver",
					"type": "address"
				}
			],
			"stateMutability": "view",
			"type": "function"
		},
		{
			"inputs": [
				{
					"internalType": "address",
					"name": "account_",
					"type": "address"
				}
			],
			"name": "importAccount",
			"outputs": [
				{
					"internalType": "bool",
					"name": "success",
					"type": "bool"
				}
			],
			"stateMutability": "nonpayable",
			"type": "function"
		},
		{
			"inputs": [
				{
					"internalType": "address[]",
					"name": "accounts_",
					"type": "address[]"
				}
			],
			"name": "importAccounts",
			"outputs": [],
			"stateMutability": "nonpayable",
			"type": "function"
		},
		{
			"inputs": [
				{
					"internalType": "address",
					"name": "spender",
					"type": "address"
				},
				{
					"internalType": "uint256",
					"name": "addedValue",
					"type": "uint256"
				}
			],
			"name": "increaseAllowance",
			"outputs": [
				{
					"internalType": "bool",
					"name": "",
					"type": "bool"
				}
			],
			"stateMutability": "nonpayable",
			"type": "function"
		},
		{
			"inputs": [
				{
					"internalType": "address",
					"name": "owner_",
					"type": "address"
				},
				{
					"internalType": "address",
					"name": "spender_",
					"type": "address"
				}
			],
			"name": "isApprovalExpired",
			"outputs": [
				{
					"internalType": "bool",
					"name": "",
					"type": "bool"
				}
			],
			"stateMutability": "view",
			"type": "function"
		},
		{
			"inputs": [
				{
					"internalType": "address",
					"name": "",
					"type": "address"
				}
			],
			"name": "isImported",
			"outputs": [
				{
					"internalType": "bool",
					"name": "",
					"type": "bool"
				}
			],
			"stateMutability": "view",
			"type": "function"
		},
		{
			"inputs": [
				{
					"internalType": "address",
					"name": "account_",
					"type": "address"
				}
			],
			"name": "isTaxIgnored",
			"outputs": [
				{
					"internalType": "bool",
					"name": "",
					"type": "bool"
				}
			],
			"stateMutability": "view",
			"type": "function"
		},
		{
			"inputs": [],
			"name": "isTaxerLocked",
			"outputs": [
				{
					"internalType": "bool",
					"name": "",
					"type": "bool"
				}
			],
			"stateMutability": "view",
			"type": "function"
		},
		{
			"inputs": [
				{
					"internalType": "address",
					"name": "owner_",
					"type": "address"
				},
				{
					"internalType": "address",
					"name": "spender_",
					"type": "address"
				}
			],
			"name": "lastApproval",
			"outputs": [
				{
					"internalType": "uint256",
					"name": "",
					"type": "uint256"
				}
			],
			"stateMutability": "view",
			"type": "function"
		},
		{
			"inputs": [
				{
					"internalType": "address",
					"name": "account_",
					"type": "address"
				},
				{
					"internalType": "uint256",
					"name": "amount_",
					"type": "uint256"
				},
				{
					"internalType": "uint256",
					"name": "duration_",
					"type": "uint256"
				}
			],
			"name": "lock",
			"outputs": [],
			"stateMutability": "nonpayable",
			"type": "function"
		},
		{
			"inputs": [
				{
					"internalType": "address",
					"name": "account_",
					"type": "address"
				}
			],
			"name": "lockDataOf",
			"outputs": [
				{
					"components": [
						{
							"internalType": "uint256",
							"name": "updatedAt",
							"type": "uint256"
						},
						{
							"internalType": "uint256",
							"name": "amount",
							"type": "uint256"
						},
						{
							"internalType": "uint256",
							"name": "duration",
							"type": "uint256"
						}
					],
					"internalType": "struct Lockable.SLock",
					"name": "",
					"type": "tuple"
				}
			],
			"stateMutability": "view",
			"type": "function"
		},
		{
			"inputs": [
				{
					"internalType": "address",
					"name": "account_",
					"type": "address"
				}
			],
			"name": "lockDurationOf",
			"outputs": [
				{
					"internalType": "uint256",
					"name": "restLockDuration",
					"type": "uint256"
				}
			],
			"stateMutability": "view",
			"type": "function"
		},
		{
			"inputs": [
				{
					"internalType": "address",
					"name": "from_",
					"type": "address"
				}
			],
			"name": "lockPeriodByFrom",
			"outputs": [
				{
					"internalType": "uint256",
					"name": "",
					"type": "uint256"
				}
			],
			"stateMutability": "view",
			"type": "function"
		},
		{
			"inputs": [
				{
					"internalType": "address",
					"name": "account_",
					"type": "address"
				}
			],
			"name": "lockedAOf",
			"outputs": [
				{
					"internalType": "uint256",
					"name": "lockedA",
					"type": "uint256"
				}
			],
			"stateMutability": "view",
			"type": "function"
		},
		{
			"inputs": [],
			"name": "lockedIncTotalSupply",
			"outputs": [
				{
					"internalType": "uint256",
					"name": "",
					"type": "uint256"
				}
			],
			"stateMutability": "view",
			"type": "function"
		},
		{
			"inputs": [],
			"name": "lockedSupply",
			"outputs": [
				{
					"internalType": "uint256",
					"name": "lockedA",
					"type": "uint256"
				}
			],
			"stateMutability": "view",
			"type": "function"
		},
		{
			"inputs": [],
			"name": "maxSelfUnlockP",
			"outputs": [
				{
					"internalType": "uint256",
					"name": "",
					"type": "uint256"
				}
			],
			"stateMutability": "view",
			"type": "function"
		},
		{
			"inputs": [],
			"name": "minRefInvValue",
			"outputs": [
				{
					"internalType": "uint256",
					"name": "",
					"type": "uint256"
				}
			],
			"stateMutability": "view",
			"type": "function"
		},
		{
			"inputs": [],
			"name": "name",
			"outputs": [
				{
					"internalType": "string",
					"name": "",
					"type": "string"
				}
			],
			"stateMutability": "view",
			"type": "function"
		},
		{
			"inputs": [],
			"name": "owner",
			"outputs": [
				{
					"internalType": "address",
					"name": "",
					"type": "address"
				}
			],
			"stateMutability": "view",
			"type": "function"
		},
		{
			"inputs": [],
			"name": "refKing",
			"outputs": [
				{
					"internalType": "address",
					"name": "",
					"type": "address"
				}
			],
			"stateMutability": "view",
			"type": "function"
		},
		{
			"inputs": [],
			"name": "refKingBalance",
			"outputs": [
				{
					"internalType": "uint256",
					"name": "",
					"type": "uint256"
				}
			],
			"stateMutability": "view",
			"type": "function"
		},
		{
			"inputs": [],
			"name": "refKingUnlockP",
			"outputs": [
				{
					"internalType": "uint256",
					"name": "",
					"type": "uint256"
				}
			],
			"stateMutability": "view",
			"type": "function"
		},
		{
			"inputs": [],
			"name": "referralManager",
			"outputs": [
				{
					"internalType": "address",
					"name": "",
					"type": "address"
				}
			],
			"stateMutability": "view",
			"type": "function"
		},
		{
			"inputs": [
				{
					"internalType": "address",
					"name": "child_",
					"type": "address"
				}
			],
			"name": "referrerOf",
			"outputs": [
				{
					"components": [
						{
							"internalType": "address",
							"name": "addr",
							"type": "address"
						},
						{
							"internalType": "uint256",
							"name": "invValue",
							"type": "uint256"
						},
						{
							"internalType": "uint256",
							"name": "updatedAt",
							"type": "uint256"
						}
					],
					"internalType": "struct Referral.SReferrer",
					"name": "referrer",
					"type": "tuple"
				}
			],
			"stateMutability": "view",
			"type": "function"
		},
		{
			"inputs": [
				{
					"internalType": "uint256",
					"name": "referrerBalance_",
					"type": "uint256"
				},
				{
					"internalType": "uint256",
					"name": "lockedA_",
					"type": "uint256"
				}
			],
			"name": "referrerUnlockA",
			"outputs": [
				{
					"internalType": "uint256",
					"name": "",
					"type": "uint256"
				}
			],
			"stateMutability": "view",
			"type": "function"
		},
		{
			"inputs": [],
			"name": "renounceOwnership",
			"outputs": [],
			"stateMutability": "nonpayable",
			"type": "function"
		},
		{
			"inputs": [
				{
					"internalType": "address",
					"name": "child_",
					"type": "address"
				}
			],
			"name": "requiredInvValue",
			"outputs": [
				{
					"internalType": "uint256",
					"name": "",
					"type": "uint256"
				}
			],
			"stateMutability": "view",
			"type": "function"
		},
		{
			"inputs": [
				{
					"internalType": "address",
					"name": "referrer_",
					"type": "address"
				}
			],
			"name": "returnPOf",
			"outputs": [
				{
					"internalType": "uint256",
					"name": "",
					"type": "uint256"
				}
			],
			"stateMutability": "view",
			"type": "function"
		},
		{
			"inputs": [
				{
					"internalType": "uint256",
					"name": "balance_",
					"type": "uint256"
				},
				{
					"internalType": "uint256",
					"name": "lockedA_",
					"type": "uint256"
				}
			],
			"name": "selfUnlockA",
			"outputs": [
				{
					"internalType": "uint256",
					"name": "",
					"type": "uint256"
				}
			],
			"stateMutability": "view",
			"type": "function"
		},
		{
			"inputs": [
				{
					"internalType": "contract ITokenCallback[]",
					"name": "targets_",
					"type": "address[]"
				}
			],
			"name": "setAfterTransferTargets",
			"outputs": [],
			"stateMutability": "nonpayable",
			"type": "function"
		},
		{
			"inputs": [
				{
					"internalType": "contract ITokenCallback[]",
					"name": "targets_",
					"type": "address[]"
				}
			],
			"name": "setBeforeTransferTargets",
			"outputs": [],
			"stateMutability": "nonpayable",
			"type": "function"
		},
		{
			"inputs": [
				{
					"internalType": "uint256",
					"name": "defaultLockPeriod_",
					"type": "uint256"
				}
			],
			"name": "setDefaultLockPeriod",
			"outputs": [],
			"stateMutability": "nonpayable",
			"type": "function"
		},
		{
			"inputs": [
				{
					"internalType": "bool",
					"name": "isTaxerLocked_",
					"type": "bool"
				}
			],
			"name": "setIsTaxerLocked",
			"outputs": [],
			"stateMutability": "nonpayable",
			"type": "function"
		},
		{
			"inputs": [
				{
					"internalType": "address",
					"name": "from_",
					"type": "address"
				},
				{
					"internalType": "uint256",
					"name": "period_",
					"type": "uint256"
				}
			],
			"name": "setLockPeriodByFrom",
			"outputs": [],
			"stateMutability": "nonpayable",
			"type": "function"
		},
		{
			"inputs": [
				{
					"internalType": "uint256",
					"name": "maxSelfUnlockP_",
					"type": "uint256"
				}
			],
			"name": "setMaxSelfUnlockP",
			"outputs": [],
			"stateMutability": "nonpayable",
			"type": "function"
		},
		{
			"inputs": [
				{
					"internalType": "uint256",
					"name": "refKingUnlockP_",
					"type": "uint256"
				}
			],
			"name": "setRefKingUnlockP",
			"outputs": [],
			"stateMutability": "nonpayable",
			"type": "function"
		},
		{
			"inputs": [
				{
					"internalType": "address",
					"name": "referralManager_",
					"type": "address"
				}
			],
			"name": "setReferralManager",
			"outputs": [],
			"stateMutability": "nonpayable",
			"type": "function"
		},
		{
			"inputs": [
				{
					"internalType": "uint256",
					"name": "percent_",
					"type": "uint256"
				}
			],
			"name": "setReturnP",
			"outputs": [],
			"stateMutability": "nonpayable",
			"type": "function"
		},
		{
			"inputs": [
				{
					"internalType": "address",
					"name": "referrer_",
					"type": "address"
				},
				{
					"internalType": "uint256",
					"name": "percent_",
					"type": "uint256"
				}
			],
			"name": "setReturnPWithManager",
			"outputs": [],
			"stateMutability": "nonpayable",
			"type": "function"
		},
		{
			"inputs": [
				{
					"internalType": "uint256",
					"name": "buyTaxP_",
					"type": "uint256"
				},
				{
					"internalType": "uint256",
					"name": "sellTaxP_",
					"type": "uint256"
				},
				{
					"internalType": "uint256",
					"name": "transferTaxP_",
					"type": "uint256"
				},
				{
					"internalType": "address",
					"name": "taxReceiver_",
					"type": "address"
				}
			],
			"name": "setTaxs",
			"outputs": [],
			"stateMutability": "nonpayable",
			"type": "function"
		},
		{
			"inputs": [
				{
					"internalType": "uint256",
					"name": "apprDuration_",
					"type": "uint256"
				}
			],
			"name": "setValidApprDuration",
			"outputs": [],
			"stateMutability": "nonpayable",
			"type": "function"
		},
		{
			"inputs": [],
			"name": "supplyLockData",
			"outputs": [
				{
					"components": [
						{
							"internalType": "uint256",
							"name": "updatedAt",
							"type": "uint256"
						},
						{
							"internalType": "uint256",
							"name": "amount",
							"type": "uint256"
						},
						{
							"internalType": "uint256",
							"name": "duration",
							"type": "uint256"
						}
					],
					"internalType": "struct Lockable.SLock",
					"name": "",
					"type": "tuple"
				}
			],
			"stateMutability": "view",
			"type": "function"
		},
		{
			"inputs": [],
			"name": "symbol",
			"outputs": [
				{
					"internalType": "string",
					"name": "",
					"type": "string"
				}
			],
			"stateMutability": "view",
			"type": "function"
		},
		{
			"inputs": [
				{
					"internalType": "address",
					"name": "account_",
					"type": "address"
				},
				{
					"internalType": "bool",
					"name": "isTaxIgnored_",
					"type": "bool"
				}
			],
			"name": "taxIgnore",
			"outputs": [],
			"stateMutability": "nonpayable",
			"type": "function"
		},
		{
			"inputs": [],
			"name": "totalAfterTransferTargets",
			"outputs": [
				{
					"internalType": "uint256",
					"name": "",
					"type": "uint256"
				}
			],
			"stateMutability": "view",
			"type": "function"
		},
		{
			"inputs": [],
			"name": "totalBeforeTransferTargets",
			"outputs": [
				{
					"internalType": "uint256",
					"name": "",
					"type": "uint256"
				}
			],
			"stateMutability": "view",
			"type": "function"
		},
		{
			"inputs": [
				{
					"internalType": "address",
					"name": "referrer",
					"type": "address"
				}
			],
			"name": "totalChildren",
			"outputs": [
				{
					"internalType": "uint256",
					"name": "",
					"type": "uint256"
				}
			],
			"stateMutability": "view",
			"type": "function"
		},
		{
			"inputs": [],
			"name": "totalImported",
			"outputs": [
				{
					"internalType": "uint256",
					"name": "",
					"type": "uint256"
				}
			],
			"stateMutability": "view",
			"type": "function"
		},
		{
			"inputs": [],
			"name": "totalSupply",
			"outputs": [
				{
					"internalType": "uint256",
					"name": "",
					"type": "uint256"
				}
			],
			"stateMutability": "view",
			"type": "function"
		},
		{
			"inputs": [
				{
					"internalType": "address",
					"name": "account_",
					"type": "address"
				}
			],
			"name": "totalTaxOf",
			"outputs": [
				{
					"internalType": "uint256",
					"name": "",
					"type": "uint256"
				}
			],
			"stateMutability": "view",
			"type": "function"
		},
		{
			"inputs": [
				{
					"internalType": "address",
					"name": "recipient",
					"type": "address"
				},
				{
					"internalType": "uint256",
					"name": "amount",
					"type": "uint256"
				}
			],
			"name": "transfer",
			"outputs": [
				{
					"internalType": "bool",
					"name": "",
					"type": "bool"
				}
			],
			"stateMutability": "nonpayable",
			"type": "function"
		},
		{
			"inputs": [
				{
					"internalType": "address",
					"name": "sender",
					"type": "address"
				},
				{
					"internalType": "address",
					"name": "recipient",
					"type": "address"
				},
				{
					"internalType": "uint256",
					"name": "amount",
					"type": "uint256"
				}
			],
			"name": "transferFrom",
			"outputs": [
				{
					"internalType": "bool",
					"name": "",
					"type": "bool"
				}
			],
			"stateMutability": "nonpayable",
			"type": "function"
		},
		{
			"inputs": [
				{
					"internalType": "address",
					"name": "newOwner",
					"type": "address"
				}
			],
			"name": "transferOwnership",
			"outputs": [],
			"stateMutability": "nonpayable",
			"type": "function"
		},
		{
			"inputs": [
				{
					"internalType": "address",
					"name": "account_",
					"type": "address"
				},
				{
					"internalType": "uint256",
					"name": "amount_",
					"type": "uint256"
				}
			],
			"name": "unlock",
			"outputs": [],
			"stateMutability": "nonpayable",
			"type": "function"
		},
		{
			"inputs": [
				{
					"internalType": "address",
					"name": "account",
					"type": "address"
				}
			],
			"name": "unlockedBalanceOf",
			"outputs": [
				{
					"internalType": "uint256",
					"name": "",
					"type": "uint256"
				}
			],
			"stateMutability": "view",
			"type": "function"
		},
		{
			"inputs": [
				{
					"internalType": "address",
					"name": "account_",
					"type": "address"
				},
				{
					"internalType": "enum Lockable.UnlockType",
					"name": "unlockType_",
					"type": "uint8"
				}
			],
			"name": "unlockedSumOf",
			"outputs": [
				{
					"internalType": "uint256",
					"name": "",
					"type": "uint256"
				}
			],
			"stateMutability": "view",
			"type": "function"
		},
		{
			"inputs": [],
			"name": "warDuration",
			"outputs": [
				{
					"internalType": "uint256",
					"name": "",
					"type": "uint256"
				}
			],
			"stateMutability": "view",
			"type": "function"
		}
	]
}