{
    "_format": "hh-sol-artifact-1",
    "contractName": "TestToken",
    "sourceName": "contracts/TestToken.sol",
    "abi": [
        {
            "inputs": [
                {
                    "internalType": "string",
                    "name": "tokenName_",
                    "type": "string"
                },
                {
                    "internalType": "string",
                    "name": "tokenSymbol_",
                    "type": "string"
                },
                {
                    "internalType": "uint256",
                    "name": "initSupplyInEther_",
                    "type": "uint256"
                }
            ],
            "stateMutability": "nonpayable",
            "type": "constructor"
        },
        {
            "anonymous": false,
            "inputs": [
                {
                    "indexed": true,
                    "internalType": "address",
                    "name": "account",
                    "type": "address"
                },
                {
                    "indexed": false,
                    "internalType": "uint256",
                    "name": "totalTaxed",
                    "type": "uint256"
                }
            ],
            "name": "AddTotalTaxOf",
            "type": "event"
        },
        {
            "anonymous": false,
            "inputs": [
                {
                    "indexed": true,
                    "internalType": "address",
                    "name": "owner",
                    "type": "address"
                },
                {
                    "indexed": true,
                    "internalType": "address",
                    "name": "spender",
                    "type": "address"
                },
                {
                    "indexed": false,
                    "internalType": "uint256",
                    "name": "value",
                    "type": "uint256"
                }
            ],
            "name": "Approval",
            "type": "event"
        },
        {
            "anonymous": false,
            "inputs": [
                {
                    "indexed": false,
                    "internalType": "uint256",
                    "name": "warDuration",
                    "type": "uint256"
                },
                {
                    "indexed": false,
                    "internalType": "uint256",
                    "name": "expInterval",
                    "type": "uint256"
                },
                {
                    "indexed": false,
                    "internalType": "uint256",
                    "name": "minRefInvValue",
                    "type": "uint256"
                }
            ],
            "name": "ConfigWar",
            "type": "event"
        },
        {
            "anonymous": false,
            "inputs": [
                {
                    "indexed": true,
                    "internalType": "address",
                    "name": "previousOwner",
                    "type": "address"
                },
                {
                    "indexed": true,
                    "internalType": "address",
                    "name": "newOwner",
                    "type": "address"
                }
            ],
            "name": "OwnershipTransferred",
            "type": "event"
        },
        {
            "anonymous": false,
            "inputs": [
                {
                    "indexed": false,
                    "internalType": "uint256",
                    "name": "period",
                    "type": "uint256"
                }
            ],
            "name": "SetDefaultLockPeriod",
            "type": "event"
        },
        {
            "anonymous": false,
            "inputs": [
                {
                    "indexed": true,
                    "internalType": "address",
                    "name": "from",
                    "type": "address"
                },
                {
                    "indexed": false,
                    "internalType": "uint256",
                    "name": "period",
                    "type": "uint256"
                }
            ],
            "name": "SetLockPeriodByFrom",
            "type": "event"
        },
        {
            "anonymous": false,
            "inputs": [
                {
                    "indexed": false,
                    "internalType": "uint256",
                    "name": "percent",
                    "type": "uint256"
                }
            ],
            "name": "SetReferrerUnlockedP",
            "type": "event"
        },
        {
            "anonymous": false,
            "inputs": [
                {
                    "indexed": true,
                    "internalType": "address",
                    "name": "referrer",
                    "type": "address"
                },
                {
                    "indexed": false,
                    "internalType": "uint256",
                    "name": "percent",
                    "type": "uint256"
                }
            ],
            "name": "SetReturnPOf",
            "type": "event"
        },
        {
            "anonymous": false,
            "inputs": [
                {
                    "indexed": false,
                    "internalType": "uint256",
                    "name": "buyTaxP",
                    "type": "uint256"
                },
                {
                    "indexed": false,
                    "internalType": "uint256",
                    "name": "sellTaxP",
                    "type": "uint256"
                },
                {
                    "indexed": false,
                    "internalType": "uint256",
                    "name": "transferTaxP",
                    "type": "uint256"
                }
            ],
            "name": "SetTax",
            "type": "event"
        },
        {
            "anonymous": false,
            "inputs": [
                {
                    "indexed": false,
                    "internalType": "uint256",
                    "name": "duration",
                    "type": "uint256"
                }
            ],
            "name": "SetValidApprDuration",
            "type": "event"
        },
        {
            "anonymous": false,
            "inputs": [
                {
                    "indexed": true,
                    "internalType": "address",
                    "name": "account",
                    "type": "address"
                },
                {
                    "indexed": false,
                    "internalType": "bool",
                    "name": "isTaxIgnored",
                    "type": "bool"
                }
            ],
            "name": "TaxIgnore",
            "type": "event"
        },
        {
            "anonymous": false,
            "inputs": [
                {
                    "indexed": true,
                    "internalType": "address",
                    "name": "from",
                    "type": "address"
                },
                {
                    "indexed": true,
                    "internalType": "address",
                    "name": "to",
                    "type": "address"
                },
                {
                    "indexed": false,
                    "internalType": "uint256",
                    "name": "value",
                    "type": "uint256"
                }
            ],
            "name": "Transfer",
            "type": "event"
        },
        {
            "anonymous": false,
            "inputs": [
                {
                    "indexed": true,
                    "internalType": "address",
                    "name": "account",
                    "type": "address"
                },
                {
                    "indexed": false,
                    "internalType": "uint256",
                    "name": "amount",
                    "type": "uint256"
                },
                {
                    "indexed": false,
                    "internalType": "enum Lockable.UnlockType",
                    "name": "unlockType",
                    "type": "uint8"
                }
            ],
            "name": "Unlocked",
            "type": "event"
        },
        {
            "anonymous": false,
            "inputs": [
                {
                    "components": [
                        {
                            "internalType": "uint256",
                            "name": "updatedAt",
                            "type": "uint256"
                        },
                        {
                            "internalType": "uint256",
                            "name": "amount",
                            "type": "uint256"
                        },
                        {
                            "internalType": "uint256",
                            "name": "duration",
                            "type": "uint256"
                        }
                    ],
                    "indexed": false,
                    "internalType": "struct Lockable.SLock",
                    "name": "lockData",
                    "type": "tuple"
                }
            ],
            "name": "UpdateLockData",
            "type": "event"
        },
        {
            "anonymous": false,
            "inputs": [
                {
                    "indexed": true,
                    "internalType": "address",
                    "name": "referrer",
                    "type": "address"
                },
                {
                    "indexed": true,
                    "internalType": "address",
                    "name": "child",
                    "type": "address"
                }
            ],
            "name": "UpdateReferrer",
            "type": "event"
        },
        {
            "anonymous": false,
            "inputs": [
                {
                    "indexed": true,
                    "internalType": "address",
                    "name": "account",
                    "type": "address"
                }
            ],
            "name": "UpdatingLockDataOf",
            "type": "event"
        },
        {
            "inputs": [],
            "name": "MIN_VALID_DURATION",
            "outputs": [
                {
                    "internalType": "uint256",
                    "name": "",
                    "type": "uint256"
                }
            ],
            "stateMutability": "view",
            "type": "function"
        },
        {
            "inputs": [],
            "name": "VERSION",
            "outputs": [
                {
                    "internalType": "string",
                    "name": "",
                    "type": "string"
                }
            ],
            "stateMutability": "view",
            "type": "function"
        },
        {
            "inputs": [
                {
                    "internalType": "uint256",
                    "name": "",
                    "type": "uint256"
                }
            ],
            "name": "afterTransferTargets",
            "outputs": [
                {
                    "internalType": "contract ITokenCallback",
                    "name": "",
                    "type": "address"
                }
            ],
            "stateMutability": "view",
            "type": "function"
        },
        {
            "inputs": [
                {
                    "internalType": "address",
                    "name": "owner",
                    "type": "address"
                },
                {
                    "internalType": "address",
                    "name": "spender",
                    "type": "address"
                }
            ],
            "name": "allowance",
            "outputs": [
                {
                    "internalType": "uint256",
                    "name": "",
                    "type": "uint256"
                }
            ],
            "stateMutability": "view",
            "type": "function"
        },
        {
            "inputs": [],
            "name": "apprDuration",
            "outputs": [
                {
                    "internalType": "uint256",
                    "name": "",
                    "type": "uint256"
                }
            ],
            "stateMutability": "view",
            "type": "function"
        },
        {
            "inputs": [
                {
                    "internalType": "address",
                    "name": "spender",
                    "type": "address"
                },
                {
                    "internalType": "uint256",
                    "name": "amount",
                    "type": "uint256"
                }
            ],
            "name": "approve",
            "outputs": [
                {
                    "internalType": "bool",
                    "name": "",
                    "type": "bool"
                }
            ],
            "stateMutability": "nonpayable",
            "type": "function"
        },
        {
            "inputs": [
                {
                    "internalType": "address",
                    "name": "account",
                    "type": "address"
                }
            ],
            "name": "balanceOf",
            "outputs": [
                {
                    "internalType": "uint256",
                    "name": "",
                    "type": "uint256"
                }
            ],
            "stateMutability": "view",
            "type": "function"
        },
        {
            "inputs": [
                {
                    "internalType": "uint256",
                    "name": "",
                    "type": "uint256"
                }
            ],
            "name": "beforeTransferTargets",
            "outputs": [
                {
                    "internalType": "contract ITokenCallback",
                    "name": "",
                    "type": "address"
                }
            ],
            "stateMutability": "view",
            "type": "function"
        },
        {
            "inputs": [
                {
                    "internalType": "uint256",
                    "name": "warDuration_",
                    "type": "uint256"
                },
                {
                    "internalType": "uint256",
                    "name": "expInterval_",
                    "type": "uint256"
                },
                {
                    "internalType": "uint256",
                    "name": "minRefInvValue_",
                    "type": "uint256"
                }
            ],
            "name": "configWar",
            "outputs": [],
            "stateMutability": "nonpayable",
            "type": "function"
        },
        {
            "inputs": [],
            "name": "decimals",
            "outputs": [
                {
                    "internalType": "uint8",
                    "name": "",
                    "type": "uint8"
                }
            ],
            "stateMutability": "view",
            "type": "function"
        },
        {
            "inputs": [
                {
                    "internalType": "address",
                    "name": "spender",
                    "type": "address"
                },
                {
                    "internalType": "uint256",
                    "name": "subtractedValue",
                    "type": "uint256"
                }
            ],
            "name": "decreaseAllowance",
            "outputs": [
                {
                    "internalType": "bool",
                    "name": "",
                    "type": "bool"
                }
            ],
            "stateMutability": "nonpayable",
            "type": "function"
        },
        {
            "inputs": [],
            "name": "defaultLockPeriod",
            "outputs": [
                {
                    "internalType": "uint256",
                    "name": "",
                    "type": "uint256"
                }
            ],
            "stateMutability": "view",
            "type": "function"
        },
        {
            "inputs": [],
            "name": "expInterval",
            "outputs": [
                {
                    "internalType": "uint256",
                    "name": "",
                    "type": "uint256"
                }
            ],
            "stateMutability": "view",
            "type": "function"
        },
        {
            "inputs": [
                {
                    "internalType": "address",
                    "name": "account",
                    "type": "address"
                }
            ],
            "name": "fullBalanceOf",
            "outputs": [
                {
                    "internalType": "uint256",
                    "name": "",
                    "type": "uint256"
                }
            ],
            "stateMutability": "view",
            "type": "function"
        },
        {
            "inputs": [
                {
                    "internalType": "uint256",
                    "name": "i_",
                    "type": "uint256"
                }
            ],
            "name": "getTaxReceiver",
            "outputs": [
                {
                    "components": [
                        {
                            "internalType": "address",
                            "name": "receiver",
                            "type": "address"
                        },
                        {
                            "internalType": "uint256",
                            "name": "percent",
                            "type": "uint256"
                        }
                    ],
                    "internalType": "struct TransferTax.STaxReceiver",
                    "name": "taxReceiver",
                    "type": "tuple"
                }
            ],
            "stateMutability": "view",
            "type": "function"
        },
        {
            "inputs": [],
            "name": "getTaxs",
            "outputs": [
                {
                    "internalType": "uint256",
                    "name": "buyTaxP",
                    "type": "uint256"
                },
                {
                    "internalType": "uint256",
                    "name": "sellTaxP",
                    "type": "uint256"
                },
                {
                    "internalType": "uint256",
                    "name": "transferTaxP",
                    "type": "uint256"
                }
            ],
            "stateMutability": "view",
            "type": "function"
        },
        {
            "inputs": [
                {
                    "internalType": "address",
                    "name": "spender",
                    "type": "address"
                },
                {
                    "internalType": "uint256",
                    "name": "addedValue",
                    "type": "uint256"
                }
            ],
            "name": "increaseAllowance",
            "outputs": [
                {
                    "internalType": "bool",
                    "name": "",
                    "type": "bool"
                }
            ],
            "stateMutability": "nonpayable",
            "type": "function"
        },
        {
            "inputs": [
                {
                    "internalType": "address",
                    "name": "owner_",
                    "type": "address"
                },
                {
                    "internalType": "address",
                    "name": "spender_",
                    "type": "address"
                }
            ],
            "name": "isApprovalExpired",
            "outputs": [
                {
                    "internalType": "bool",
                    "name": "",
                    "type": "bool"
                }
            ],
            "stateMutability": "view",
            "type": "function"
        },
        {
            "inputs": [
                {
                    "internalType": "address",
                    "name": "",
                    "type": "address"
                }
            ],
            "name": "isNormalTransferFrom",
            "outputs": [
                {
                    "internalType": "bool",
                    "name": "",
                    "type": "bool"
                }
            ],
            "stateMutability": "view",
            "type": "function"
        },
        {
            "inputs": [
                {
                    "internalType": "address",
                    "name": "account_",
                    "type": "address"
                }
            ],
            "name": "isTaxIgnored",
            "outputs": [
                {
                    "internalType": "bool",
                    "name": "",
                    "type": "bool"
                }
            ],
            "stateMutability": "view",
            "type": "function"
        },
        {
            "inputs": [
                {
                    "internalType": "address",
                    "name": "owner_",
                    "type": "address"
                },
                {
                    "internalType": "address",
                    "name": "spender_",
                    "type": "address"
                }
            ],
            "name": "lastApproval",
            "outputs": [
                {
                    "internalType": "uint256",
                    "name": "",
                    "type": "uint256"
                }
            ],
            "stateMutability": "view",
            "type": "function"
        },
        {
            "inputs": [
                {
                    "internalType": "address",
                    "name": "account_",
                    "type": "address"
                },
                {
                    "internalType": "uint256",
                    "name": "amount_",
                    "type": "uint256"
                },
                {
                    "internalType": "uint256",
                    "name": "duration_",
                    "type": "uint256"
                }
            ],
            "name": "lock",
            "outputs": [],
            "stateMutability": "nonpayable",
            "type": "function"
        },
        {
            "inputs": [
                {
                    "internalType": "address",
                    "name": "account_",
                    "type": "address"
                }
            ],
            "name": "lockDataOf",
            "outputs": [
                {
                    "components": [
                        {
                            "internalType": "uint256",
                            "name": "updatedAt",
                            "type": "uint256"
                        },
                        {
                            "internalType": "uint256",
                            "name": "amount",
                            "type": "uint256"
                        },
                        {
                            "internalType": "uint256",
                            "name": "duration",
                            "type": "uint256"
                        }
                    ],
                    "internalType": "struct Lockable.SLock",
                    "name": "",
                    "type": "tuple"
                }
            ],
            "stateMutability": "view",
            "type": "function"
        },
        {
            "inputs": [
                {
                    "internalType": "address",
                    "name": "account_",
                    "type": "address"
                }
            ],
            "name": "lockDurationOf",
            "outputs": [
                {
                    "internalType": "uint256",
                    "name": "restLockDuration",
                    "type": "uint256"
                }
            ],
            "stateMutability": "view",
            "type": "function"
        },
        {
            "inputs": [
                {
                    "internalType": "address",
                    "name": "from_",
                    "type": "address"
                }
            ],
            "name": "lockPeriodByFrom",
            "outputs": [
                {
                    "internalType": "uint256",
                    "name": "",
                    "type": "uint256"
                }
            ],
            "stateMutability": "view",
            "type": "function"
        },
        {
            "inputs": [
                {
                    "internalType": "address",
                    "name": "account_",
                    "type": "address"
                }
            ],
            "name": "lockedAOf",
            "outputs": [
                {
                    "internalType": "uint256",
                    "name": "lockedA",
                    "type": "uint256"
                }
            ],
            "stateMutability": "view",
            "type": "function"
        },
        {
            "inputs": [],
            "name": "lockedIncTotalSupply",
            "outputs": [
                {
                    "internalType": "uint256",
                    "name": "",
                    "type": "uint256"
                }
            ],
            "stateMutability": "view",
            "type": "function"
        },
        {
            "inputs": [],
            "name": "lockedSupply",
            "outputs": [
                {
                    "internalType": "uint256",
                    "name": "lockedA",
                    "type": "uint256"
                }
            ],
            "stateMutability": "view",
            "type": "function"
        },
        {
            "inputs": [],
            "name": "minRefInvValue",
            "outputs": [
                {
                    "internalType": "uint256",
                    "name": "",
                    "type": "uint256"
                }
            ],
            "stateMutability": "view",
            "type": "function"
        },
        {
            "inputs": [],
            "name": "name",
            "outputs": [
                {
                    "internalType": "string",
                    "name": "",
                    "type": "string"
                }
            ],
            "stateMutability": "view",
            "type": "function"
        },
        {
            "inputs": [],
            "name": "owner",
            "outputs": [
                {
                    "internalType": "address",
                    "name": "",
                    "type": "address"
                }
            ],
            "stateMutability": "view",
            "type": "function"
        },
        {
            "inputs": [
                {
                    "internalType": "address",
                    "name": "child_",
                    "type": "address"
                }
            ],
            "name": "referrerOf",
            "outputs": [
                {
                    "components": [
                        {
                            "internalType": "address",
                            "name": "addr",
                            "type": "address"
                        },
                        {
                            "internalType": "uint256",
                            "name": "invValue",
                            "type": "uint256"
                        },
                        {
                            "internalType": "uint256",
                            "name": "updatedAt",
                            "type": "uint256"
                        }
                    ],
                    "internalType": "struct Referral.SReferrer",
                    "name": "referrer",
                    "type": "tuple"
                }
            ],
            "stateMutability": "view",
            "type": "function"
        },
        {
            "inputs": [],
            "name": "referrerUnlockedP",
            "outputs": [
                {
                    "internalType": "uint256",
                    "name": "",
                    "type": "uint256"
                }
            ],
            "stateMutability": "view",
            "type": "function"
        },
        {
            "inputs": [],
            "name": "renounceOwnership",
            "outputs": [],
            "stateMutability": "nonpayable",
            "type": "function"
        },
        {
            "inputs": [
                {
                    "internalType": "address",
                    "name": "child_",
                    "type": "address"
                }
            ],
            "name": "requiredInvValue",
            "outputs": [
                {
                    "internalType": "uint256",
                    "name": "",
                    "type": "uint256"
                }
            ],
            "stateMutability": "view",
            "type": "function"
        },
        {
            "inputs": [
                {
                    "internalType": "address",
                    "name": "referrer_",
                    "type": "address"
                }
            ],
            "name": "returnPOf",
            "outputs": [
                {
                    "internalType": "uint256",
                    "name": "",
                    "type": "uint256"
                }
            ],
            "stateMutability": "view",
            "type": "function"
        },
        {
            "inputs": [
                {
                    "internalType": "contract ITokenCallback[]",
                    "name": "targets_",
                    "type": "address[]"
                }
            ],
            "name": "setAfterTransferTargets",
            "outputs": [],
            "stateMutability": "nonpayable",
            "type": "function"
        },
        {
            "inputs": [
                {
                    "internalType": "contract ITokenCallback[]",
                    "name": "targets_",
                    "type": "address[]"
                }
            ],
            "name": "setBeforeTransferTargets",
            "outputs": [],
            "stateMutability": "nonpayable",
            "type": "function"
        },
        {
            "inputs": [
                {
                    "internalType": "uint256",
                    "name": "defaultLockPeriod_",
                    "type": "uint256"
                }
            ],
            "name": "setDefaultLockPeriod",
            "outputs": [],
            "stateMutability": "nonpayable",
            "type": "function"
        },
        {
            "inputs": [
                {
                    "internalType": "address",
                    "name": "from_",
                    "type": "address"
                },
                {
                    "internalType": "bool",
                    "name": "isNormalTransfer_",
                    "type": "bool"
                }
            ],
            "name": "setIsNormalTransferFrom",
            "outputs": [],
            "stateMutability": "nonpayable",
            "type": "function"
        },
        {
            "inputs": [
                {
                    "internalType": "address",
                    "name": "from_",
                    "type": "address"
                },
                {
                    "internalType": "uint256",
                    "name": "period_",
                    "type": "uint256"
                }
            ],
            "name": "setLockPeriodByFrom",
            "outputs": [],
            "stateMutability": "nonpayable",
            "type": "function"
        },
        {
            "inputs": [
                {
                    "internalType": "uint256",
                    "name": "referrerUnlockedP_",
                    "type": "uint256"
                }
            ],
            "name": "setReferrerUnlockedP",
            "outputs": [],
            "stateMutability": "nonpayable",
            "type": "function"
        },
        {
            "inputs": [
                {
                    "internalType": "uint256",
                    "name": "percent_",
                    "type": "uint256"
                }
            ],
            "name": "setReturnP",
            "outputs": [],
            "stateMutability": "nonpayable",
            "type": "function"
        },
        {
            "inputs": [
                {
                    "internalType": "address[]",
                    "name": "taxReceiverAddrs_",
                    "type": "address[]"
                },
                {
                    "internalType": "uint256[]",
                    "name": "taxReceiverPercents_",
                    "type": "uint256[]"
                }
            ],
            "name": "setTaxReceivers",
            "outputs": [],
            "stateMutability": "nonpayable",
            "type": "function"
        },
        {
            "inputs": [
                {
                    "internalType": "uint256",
                    "name": "buyTaxP_",
                    "type": "uint256"
                },
                {
                    "internalType": "uint256",
                    "name": "sellTaxP_",
                    "type": "uint256"
                },
                {
                    "internalType": "uint256",
                    "name": "transferTaxP_",
                    "type": "uint256"
                }
            ],
            "name": "setTaxs",
            "outputs": [],
            "stateMutability": "nonpayable",
            "type": "function"
        },
        {
            "inputs": [
                {
                    "internalType": "uint256",
                    "name": "apprDuration_",
                    "type": "uint256"
                }
            ],
            "name": "setValidApprDuration",
            "outputs": [],
            "stateMutability": "nonpayable",
            "type": "function"
        },
        {
            "inputs": [],
            "name": "supplyLockData",
            "outputs": [
                {
                    "components": [
                        {
                            "internalType": "uint256",
                            "name": "updatedAt",
                            "type": "uint256"
                        },
                        {
                            "internalType": "uint256",
                            "name": "amount",
                            "type": "uint256"
                        },
                        {
                            "internalType": "uint256",
                            "name": "duration",
                            "type": "uint256"
                        }
                    ],
                    "internalType": "struct Lockable.SLock",
                    "name": "",
                    "type": "tuple"
                }
            ],
            "stateMutability": "view",
            "type": "function"
        },
        {
            "inputs": [],
            "name": "symbol",
            "outputs": [
                {
                    "internalType": "string",
                    "name": "",
                    "type": "string"
                }
            ],
            "stateMutability": "view",
            "type": "function"
        },
        {
            "inputs": [
                {
                    "internalType": "address",
                    "name": "account_",
                    "type": "address"
                },
                {
                    "internalType": "bool",
                    "name": "isTaxIgnored_",
                    "type": "bool"
                }
            ],
            "name": "taxIgnore",
            "outputs": [],
            "stateMutability": "nonpayable",
            "type": "function"
        },
        {
            "inputs": [],
            "name": "totalAfterTransferTargets",
            "outputs": [
                {
                    "internalType": "uint256",
                    "name": "",
                    "type": "uint256"
                }
            ],
            "stateMutability": "view",
            "type": "function"
        },
        {
            "inputs": [],
            "name": "totalBeforeTransferTargets",
            "outputs": [
                {
                    "internalType": "uint256",
                    "name": "",
                    "type": "uint256"
                }
            ],
            "stateMutability": "view",
            "type": "function"
        },
        {
            "inputs": [
                {
                    "internalType": "address",
                    "name": "referrer",
                    "type": "address"
                }
            ],
            "name": "totalChildren",
            "outputs": [
                {
                    "internalType": "uint256",
                    "name": "",
                    "type": "uint256"
                }
            ],
            "stateMutability": "view",
            "type": "function"
        },
        {
            "inputs": [],
            "name": "totalSupply",
            "outputs": [
                {
                    "internalType": "uint256",
                    "name": "",
                    "type": "uint256"
                }
            ],
            "stateMutability": "view",
            "type": "function"
        },
        {
            "inputs": [
                {
                    "internalType": "address",
                    "name": "account_",
                    "type": "address"
                }
            ],
            "name": "totalTaxOf",
            "outputs": [
                {
                    "internalType": "uint256",
                    "name": "",
                    "type": "uint256"
                }
            ],
            "stateMutability": "view",
            "type": "function"
        },
        {
            "inputs": [
                {
                    "internalType": "address",
                    "name": "to",
                    "type": "address"
                },
                {
                    "internalType": "uint256",
                    "name": "amount",
                    "type": "uint256"
                }
            ],
            "name": "transfer",
            "outputs": [
                {
                    "internalType": "bool",
                    "name": "",
                    "type": "bool"
                }
            ],
            "stateMutability": "nonpayable",
            "type": "function"
        },
        {
            "inputs": [
                {
                    "internalType": "address",
                    "name": "from",
                    "type": "address"
                },
                {
                    "internalType": "address",
                    "name": "to",
                    "type": "address"
                },
                {
                    "internalType": "uint256",
                    "name": "amount",
                    "type": "uint256"
                }
            ],
            "name": "transferFrom",
            "outputs": [
                {
                    "internalType": "bool",
                    "name": "",
                    "type": "bool"
                }
            ],
            "stateMutability": "nonpayable",
            "type": "function"
        },
        {
            "inputs": [
                {
                    "internalType": "address",
                    "name": "newOwner",
                    "type": "address"
                }
            ],
            "name": "transferOwnership",
            "outputs": [],
            "stateMutability": "nonpayable",
            "type": "function"
        },
        {
            "inputs": [
                {
                    "internalType": "address",
                    "name": "account_",
                    "type": "address"
                },
                {
                    "internalType": "uint256",
                    "name": "amount_",
                    "type": "uint256"
                }
            ],
            "name": "unlock",
            "outputs": [],
            "stateMutability": "nonpayable",
            "type": "function"
        },
        {
            "inputs": [
                {
                    "internalType": "address",
                    "name": "account",
                    "type": "address"
                }
            ],
            "name": "unlockedBalanceOf",
            "outputs": [
                {
                    "internalType": "uint256",
                    "name": "",
                    "type": "uint256"
                }
            ],
            "stateMutability": "view",
            "type": "function"
        },
        {
            "inputs": [
                {
                    "internalType": "address",
                    "name": "account_",
                    "type": "address"
                },
                {
                    "internalType": "enum Lockable.UnlockType",
                    "name": "unlockType_",
                    "type": "uint8"
                }
            ],
            "name": "unlockedSumOf",
            "outputs": [
                {
                    "internalType": "uint256",
                    "name": "",
                    "type": "uint256"
                }
            ],
            "stateMutability": "view",
            "type": "function"
        },
        {
            "inputs": [],
            "name": "warDuration",
            "outputs": [
                {
                    "internalType": "uint256",
                    "name": "",
                    "type": "uint256"
                }
            ],
            "stateMutability": "view",
            "type": "function"
        }
    ],
    "bytecode": "0x60806040523480156200001157600080fd5b506040516200357638038062003576833981016040819052620000349162000493565b8251839083906200004d9060039060208501906200033a565b508051620000639060049060208401906200033a565b505050620000806200007a620000a860201b60201c565b620000ac565b6200009f336200009983670de0b6b3a76400006200051e565b620000fe565b505050620005c7565b3390565b600c80546001600160a01b038381166001600160a01b0319831681179093556040519116919082907f8be0079c531659141344cd1fd0a4f28419497f9722a3daafe3b4186f6b6457e090600090a35050565b6001600160a01b038216620001595760405162461bcd60e51b815260206004820152601f60248201527f45524332303a206d696e7420746f20746865207a65726f206164647265737300604482015260640160405180910390fd5b6200016760008383620001e0565b80600260008282546200017b919062000503565b90915550506001600160a01b038216600081815260208181526040808320805486019055518481527fddf252ad1be2c89b69c2b068fc378daa952ba7f163c4a11628f55a4df523b3ef910160405180910390a3620001dc6000838362000291565b5050565b601f5480156200028b5760005b8181101562000289576000818152601d60205260409081902054905163c771eeef60e01b81526001600160a01b0387811660048301528681166024830152604482018690529091169063c771eeef90606401600060405180830381600087803b1580156200025a57600080fd5b505af11580156200026f573d6000803e3d6000fd5b50505050808062000280906200057d565b915050620001ed565b505b50505050565b60205480156200028b5760005b8181101562000289576000818152601e602052604090819020549051635cf8305b60e01b81526001600160a01b03878116600483015286811660248301526044820186905290911690635cf8305b90606401600060405180830381600087803b1580156200030b57600080fd5b505af115801562000320573d6000803e3d6000fd5b50505050808062000331906200057d565b9150506200029e565b828054620003489062000540565b90600052602060002090601f0160209004810192826200036c5760008555620003b7565b82601f106200038757805160ff1916838001178555620003b7565b82800160010185558215620003b7579182015b82811115620003b75782518255916020019190600101906200039a565b50620003c5929150620003c9565b5090565b5b80821115620003c55760008155600101620003ca565b600082601f830112620003f1578081fd5b81516001600160401b03808211156200040e576200040e620005b1565b604051601f8301601f19908116603f01168101908282118183101715620004395762000439620005b1565b8160405283815260209250868385880101111562000455578485fd5b8491505b8382101562000478578582018301518183018401529082019062000459565b838211156200048957848385830101525b9695505050505050565b600080600060608486031215620004a8578283fd5b83516001600160401b0380821115620004bf578485fd5b620004cd87838801620003e0565b94506020860151915080821115620004e3578384fd5b50620004f286828701620003e0565b925050604084015190509250925092565b600082198211156200051957620005196200059b565b500190565b60008160001904831182151516156200053b576200053b6200059b565b500290565b600181811c908216806200055557607f821691505b602082108114156200057757634e487b7160e01b600052602260045260246000fd5b50919050565b60006000198214156200059457620005946200059b565b5060010190565b634e487b7160e01b600052601160045260246000fd5b634e487b7160e01b600052604160045260246000fd5b612f9f80620005d76000396000f3fe608060405234801561001057600080fd5b50600436106103af5760003560e01c806375039349116101f4578063b59e7aef1161011a578063e2ab691d116100ad578063f2fde38b1161007c578063f2fde38b14610889578063f4937e261461089c578063f60e7a07146108c5578063ffa1ad74146108fe57600080fd5b8063e2ab691d1461082c578063e463a32f1461083f578063e774a8ec14610863578063f2e7c6251461087657600080fd5b8063d21cacdf116100e9578063d21cacdf146107c0578063d4dcb3e7146107fe578063d51e701a14610806578063dd62ed3e1461081957600080fd5b8063b59e7aef1461077f578063c2ab7e6414610792578063ca5c7b91146107a5578063cfeaee31146107ad57600080fd5b806394d13fba11610192578063a457c2d711610161578063a457c2d714610733578063a9059cbb14610746578063ac7a3d9b14610759578063aede55681461076c57600080fd5b806394d13fba146106dc57806395d89b41146106ef5780639b902485146106f7578063a2a795201461072057600080fd5b806384955c88116101ce57806384955c8814610689578063898011671461069c5780638da5cb5b146106af578063911f050d146106d457600080fd5b80637503934914610666578063786c58a31461066e5780637eee288d1461067657600080fd5b806332e72613116102d95780635d9e11151161027757806370a082311161024657806370a0823114610618578063715018a61461062b578063715604381461063357806371db3d531461065d57600080fd5b80635d9e1115146105a65780635dbc25c3146105cf57806363d56778146105e25780636a71f0881461060557600080fd5b806339509351116102b3578063395093511461055a5780633c0257a11461056d57806358b5dd72146105805780635b1439851461059357600080fd5b806332e726131461052c578063341808f01461053f5780633579225b1461055257600080fd5b80630f4370281161035157806326c8fded1161032057806326c8fded146104d657806329f5d8bd146104de5780632bb02cc014610515578063313ce5671461051d57600080fd5b80630f4370281461048957806318160ddd146104b25780631db9de9d146104ba57806323b872dd146104c357600080fd5b8063095ea7b31161038d578063095ea7b3146104125780630be2f221146104355780630c3e0c561461044a5780630d0fcb8f1461045d57600080fd5b806306fdde03146103b457806308b6f847146103d2578063091074ad146103e9575b600080fd5b6103bc610930565b6040516103c99190612d59565b60405180910390f35b6103db61038481565b6040519081526020016103c9565b6103db6103f7366004612a47565b6001600160a01b031660009081526015602052604090205490565b610425610420366004612b58565b6109c2565b60405190151581526020016103c9565b610448610443366004612af7565b6109dc565b005b610448610458366004612d16565b6109f2565b61042561046b366004612a47565b6001600160a01b031660009081526012602052604090205460ff1690565b6103db610497366004612a47565b6001600160a01b031660009081526016602052604090205490565b6103db6109ff565b6103db60205481565b6104256104d1366004612ab7565b610a3c565b600b546103db565b6104f16104ec366004612d16565b610a62565b6040805182516001600160a01b0316815260209283015192810192909252016103c9565b6018546103db565b604051601281526020016103c9565b61042561053a366004612a7f565b610af5565b6103db61054d366004612b28565b610b40565b601a546103db565b610425610568366004612b58565b610baf565b6103db61057b366004612a47565b610bd1565b6103db61058e366004612a47565b610c38565b6104486105a1366004612c7a565b610c56565b6103db6105b4366004612a47565b6001600160a01b031660009081526013602052604090205490565b6104486105dd366004612b58565b610c67565b6104256105f0366004612a47565b60216020526000908152604090205460ff1681565b610448610613366004612d2e565b610c79565b6103db610626366004612a47565b610c91565b610448610d30565b61063b610d44565b60408051825181526020808401519082015291810151908201526060016103c9565b6103db601f5481565b6019546103db565b6017546103db565b610448610684366004612b58565b610d8d565b6103db610697366004612a47565b610da1565b6104486106aa366004612c7a565b610dce565b600c546001600160a01b03165b6040516001600160a01b0390911681526020016103c9565b601c546103db565b6103db6106ea366004612a47565b610ddf565b6103bc610ea1565b6106bc610705366004612d16565b601e602052600090815260409020546001600160a01b031681565b6103db61072e366004612a47565b610eb0565b610425610741366004612b58565b610ef4565b610425610754366004612b58565b610f7a565b6103db610767366004612a47565b610f88565b61044861077a366004612bb7565b610fcc565b61044861078d366004612d2e565b610fde565b61063b6107a0366004612a47565b610ff1565b6103db611057565b6104486107bb366004612d16565b611084565b6107d36107ce366004612a47565b611095565b6040805182516001600160a01b031681526020808401519082015291810151908201526060016103c9565b6103db611106565b610448610814366004612d16565b611111565b6103db610827366004612a7f565b611122565b61044861083a366004612b83565b611166565b600d54600e54600f54604080519384526020840192909252908201526060016103c9565b610448610871366004612d16565b61117f565b610448610884366004612af7565b611190565b610448610897366004612a47565b6111c3565b6106bc6108aa366004612d16565b601d602052600090815260409020546001600160a01b031681565b6103db6108d3366004612a7f565b6001600160a01b039182166000908152601b6020908152604080832093909416825291909152205490565b6103bc6040518060400160405280601381526020017236b0b4b73732ba16b0b93134ba393ab696bb1960691b81525081565b60606003805461093f90612eb8565b80601f016020809104026020016040519081016040528092919081815260200182805461096b90612eb8565b80156109b85780601f1061098d576101008083540402835291602001916109b8565b820191906000526020600020905b81548152906001019060200180831161099b57829003601f168201915b5050505050905090565b6000336109d0818585611239565b60019150505b92915050565b6109e46112d3565b6109ee828261132d565b5050565b6109fc338261138d565b50565b6000610a09611057565b610a11611106565b1115610a3657610a1f611057565b610a27611106565b610a319190612e8a565b905090565b50600090565b600033610a4a8582856113e3565b610a55858585611457565b60019150505b9392505050565b60408051808201909152600080825260208201526011548210610ac25760405162461bcd60e51b815260206004820152601360248201527234b73b30b634b2103a30bc2932b1b2b4bb32b960691b60448201526064015b60405180910390fd5b50600090815260106020908152604091829020825180840190935280546001600160a01b03168352600101549082015290565b6000601c54600014158015610a5b5750601c546001600160a01b038085166000908152601b6020908152604080832093871683529290522054610b389042612e8a565b119392505050565b6001600160a01b038216600090815260076020526040812081836002811115610b7957634e487b7160e01b600052602160045260246000fd5b6002811115610b9857634e487b7160e01b600052602160045260246000fd5b815260200190815260200160002054905092915050565b6000336109d0818585610bc28383611122565b610bcc9190612e33565b611239565b6001600160a01b03811660009081526006602052604081205415610c0b57506001600160a01b031660009081526006602052604090205490565b610c14826115bd565b80610c235750610c2382611652565b15610c30575050600b5490565b506000919050565b6001600160a01b0381166000908152602081905260408120546109d6565b610c5e6112d3565b6109fc816116e7565b610c6f6112d3565b6109ee828261176c565b610c816112d3565b610c8c8383836117b9565b505050565b6000610c9c33611652565b610ca9576109d682610da1565b6001600160a01b038216331415610cd8576001600160a01b0382166000908152602081905260409020546109d6565b610ce1826115bd565b15610cef576109d682610da1565b6109d6610d11836001600160a01b031660009081526013602052604090205490565b6001600160a01b0384166000908152602081905260409020549061180f565b610d386112d3565b610d42600061181b565b565b610d6860405180606001604052806000815260200160008152602001600081525090565b506040805160608101825260085481526009546020820152600a549181019190915290565b610d956112d3565b6109ee8282600261186d565b60006109d6610daf83610f88565b6001600160a01b038416600090815260208190526040902054906119a4565b610dd66112d3565b6109fc816119b0565b6001600160a01b038082166000908152601460209081526040808320815160608101835281549095168086526001820154938601939093526002015490840152909190610e30575050601954919050565b6000816040015142610e429190612e8a565b9050601754811115610e5957506000199392505050565b600060185482610e699190612e4b565b90508015610e88576020830151610e83906001831b611a35565b610e98565b6020830151610e98906001612e33565b95945050505050565b60606004805461093f90612eb8565b6001600160a01b038116600090815260056020908152604080832081516060810183528154815260018201549381019390935260020154908201526109d690611a41565b60003381610f028286611122565b905083811015610f625760405162461bcd60e51b815260206004820152602560248201527f45524332303a2064656372656173656420616c6c6f77616e63652062656c6f77604482015264207a65726f60d81b6064820152608401610ab9565b610f6f8286868403611239565b506001949350505050565b6000336109d0818585611457565b6001600160a01b038116600090815260056020908152604080832081516060810183528154815260018201549381019390935260020154908201526109d690611a81565b610fd46112d3565b6109ee8282611ac2565b610fe66112d3565b610c8c838383611c5c565b61101560405180606001604052806000815260200160008152602001600081525090565b506001600160a01b0316600090815260056020908152604091829020825160608101845281548152600182015492810192909252600201549181019190915290565b6040805160608101825260085481526009546020820152600a5491810191909152600090610a3190611a81565b61108c6112d3565b6109fc81611cc4565b6110c2604051806060016040528060006001600160a01b0316815260200160008152602001600081525090565b506001600160a01b03908116600090815260146020908152604091829020825160608101845281549094168452600181015491840191909152600201549082015290565b6000610a3160025490565b6111196112d3565b6109fc81611d55565b600061112e8383610af5565b1561113b575060006109d6565b6001600160a01b03808416600090815260016020908152604080832093861683529290522054610a5b565b61116e6112d3565b611179838383611d91565b50505050565b6111876112d3565b6109fc81611e18565b6111986112d3565b6001600160a01b03919091166000908152602160205260409020805460ff1916911515919091179055565b6111cb6112d3565b6001600160a01b0381166112305760405162461bcd60e51b815260206004820152602660248201527f4f776e61626c653a206e6577206f776e657220697320746865207a65726f206160448201526564647265737360d01b6064820152608401610ab9565b6109fc8161181b565b336001600160a01b038416811415611278576001600160a01b038082166000908152601b602090815260408083209387168352929052204290556112c8565b6112828484610af5565b156112c85760405162461bcd60e51b81526020600482015260166024820152751bdb9b1e505c1c1c9bdd985b139bdd115e1c1a5c995960521b6044820152606401610ab9565b611179848484611e56565b600c546001600160a01b03163314610d425760405162461bcd60e51b815260206004820181905260248201527f4f776e61626c653a2063616c6c6572206973206e6f7420746865206f776e65726044820152606401610ab9565b6001600160a01b038216600081815260126020908152604091829020805460ff191685151590811790915591519182527f6cf04e76ad1279a1cddd4f7671c383ef488483d1565675d47fbb8870a0573d2491015b60405180910390a25050565b61139681611f7a565b6001600160a01b03821660008181526016602052604090819020839055517fbf92d2eb1d617894978c7d918fac4307c904b980238b11b79908f18d2f728ad9906113819084815260200190565b60006113ef8484611122565b90506000198114611179578181101561144a5760405162461bcd60e51b815260206004820152601d60248201527f45524332303a20696e73756666696369656e7420616c6c6f77616e63650000006044820152606401610ab9565b6111798484848403611239565b6001600160a01b03831660009081526021602052604090205460ff161561148357610c8c838383611fbe565b61148c83611652565b6114e8578061149a84610da1565b10156114e85760405162461bcd60e51b815260206004820152601b60248201527f6e6f7420656e6f75676820756e6c6f636b65642062616c616e636500000000006044820152606401610ab9565b60006114f5848484612173565b905080156111795761150884848361228f565b611513848483611fbe565b6000611528848361152388610bd1565b611d91565b905080801561153f57506001600160a01b0384163b155b156115b657600061154f85611095565b519050600061155d846123de565b9050600061158982611584856001600160a01b031660009081526016602052604090205490565b6123e8565b9050600061159783836119a4565b90506115a58482600061186d565b6115b18883600161186d565b505050505b5050505050565b60006115c8826123fa565b6115d457506000919050565b816001600160a01b031663ad5c46486040518163ffffffff1660e01b815260040160206040518083038186803b15801561160d57600080fd5b505afa92505050801561163d575060408051601f3d908101601f1916820190925261163a91810190612a63565b60015b61164957506001919050565b50600092915050565b600061165d826123fa565b61166957506000919050565b816001600160a01b031663ad5c46486040518163ffffffff1660e01b815260040160206040518083038186803b1580156116a257600080fd5b505afa9250505080156116d2575060408051601f3d908101601f191682019092526116cf91810190612a63565b60015b6116de57506000919050565b50600192915050565b805180156117665760005b818110156117645782818151811061171a57634e487b7160e01b600052603260045260246000fd5b6020908102919091018101516000838152601d909252604090912080546001600160a01b0319166001600160a01b039092169190911790558061175c81612eed565b9150506116f2565b505b601f5550565b6001600160a01b03821660008181526006602052604090819020839055517fe0474e30b96b33220db295b344254acf8260256be84ee32edde6bf35bb327a86906113819084815260200190565b60178390556018829055601981905560408051848152602081018490529081018290527fad2c6acae6e1c5560448e7f77859970425d8fefb5ce448971d964753f388cc6b906060015b60405180910390a1505050565b6000610a5b8284612e33565b600c80546001600160a01b038381166001600160a01b0319831681179093556040519116919082907f8be0079c531659141344cd1fd0a4f28419497f9722a3daafe3b4186f6b6457e090600090a35050565b8161187757505050565b6040516001600160a01b03841690600080516020612f4a83398151915290600090a26001600160a01b03831660009081526005602052604090206118bb908361244c565b604051600090600080516020612f4a833981519152908290a26118df60088361244c565b6001600160a01b0383166000908152600760205260408120839183600281111561191957634e487b7160e01b600052602160045260246000fd5b600281111561193857634e487b7160e01b600052602160045260246000fd5b815260200190815260200160002060008282546119559190612e33565b92505081905550826001600160a01b03167f2097b7d08068ee46011255660ed3909e86aa842217721b6e25c5c6d5f2e58ff98383604051611997929190612dac565b60405180910390a2505050565b6000610a5b8284612e8a565b80518015611a2f5760005b81811015611a2d578281815181106119e357634e487b7160e01b600052603260045260246000fd5b6020908102919091018101516000838152601e909252604090912080546001600160a01b0319166001600160a01b0390921691909117905580611a2581612eed565b9150506119bb565b505b60205550565b6000610a5b8284612e6b565b80516000908190611a539042906119a4565b905082604001518110611a695760009150611a7b565b6040830151611a7890826119a4565b91505b50919050565b600080611a8d83611a41565b905080611a9d5760009150611a7b565b611a788360400151611abc856020015184611a3590919063ffffffff16565b90612529565b8151601181905560008115801590611ada5750818351145b611b265760405162461bcd60e51b815260206004820152601f60248201527f696e76616c696420696e70757473205f736574546178526563656976657273006044820152606401610ab9565b60005b82811015611c005760008181526010602052604090208551869083908110611b6157634e487b7160e01b600052603260045260246000fd5b602090810291909101015181546001600160a01b0319166001600160a01b039091161781558451859083908110611ba857634e487b7160e01b600052603260045260246000fd5b60200260200101518160010181905550848281518110611bd857634e487b7160e01b600052603260045260246000fd5b602002602001015183611beb9190612e33565b925081611bf781612eed565b92505050611b29565b61271082146115b65760405162461bcd60e51b815260206004820152602260248201527f7461782070657263656e742073756d206d75737420626520657175616c203130604482015261302560f01b6064820152608401610ab9565b611c6583611f7a565b611c6e82611f7a565b611c7781611f7a565b600d839055600e829055600f81905560408051848152602081018490529081018290527f4edbdf12092392c7d7e3c32a25cce7dc147e18e10eea069f23ec6f9a83a58b0f90606001611802565b8061038481101580611cd4575080155b611d185760405162461bcd60e51b815260206004820152601560248201527437b7363cab30b634b220b83839223ab930ba34b7b760591b6044820152606401610ab9565b601c8290556040518281527f188d26f501f9324e3827258c64be92f4211835ded4a118906f94f4f40fa739cc906020015b60405180910390a15050565b600b8190556040518181527fbcae77a1cc900624266b1f0a1bc1dd812a2d13b0a0b0faaa87515af89b8e3aa8906020015b60405180910390a150565b60006001821115611e0e576040516001600160a01b03851690600080516020612f4a83398151915290600090a26001600160a01b0384166000908152600560205260409020611de1908484612535565b604051600090600080516020612f4a833981519152908290a2611e0660088484612535565b506001610a5b565b5060009392505050565b611e2181611f7a565b601a8190556040518181527f39fc9fb2860c68134f2b357bfb1e334b05189141fc6f75f6e2670cbace0b5c4d90602001611d86565b6001600160a01b038316611eb85760405162461bcd60e51b8152602060048201526024808201527f45524332303a20617070726f76652066726f6d20746865207a65726f206164646044820152637265737360e01b6064820152608401610ab9565b6001600160a01b038216611f195760405162461bcd60e51b815260206004820152602260248201527f45524332303a20617070726f766520746f20746865207a65726f206164647265604482015261737360f01b6064820152608401610ab9565b6001600160a01b0383811660008181526001602090815260408083209487168084529482529182902085905590518481527f8c5be1e5ebec7d5bd14f71427d1e84f3dd0314c0f7b2291e5b200ac8c7c3b925910160405180910390a3505050565b6127108111156109fc5760405162461bcd60e51b815260206004820152600f60248201526e1a5b9d985b1a59081c195c98d95b9d608a1b6044820152606401610ab9565b6001600160a01b0383166120225760405162461bcd60e51b815260206004820152602560248201527f45524332303a207472616e736665722066726f6d20746865207a65726f206164604482015264647265737360d81b6064820152608401610ab9565b6001600160a01b0382166120845760405162461bcd60e51b815260206004820152602360248201527f45524332303a207472616e7366657220746f20746865207a65726f206164647260448201526265737360e81b6064820152608401610ab9565b61208f838383612619565b6001600160a01b038316600090815260208190526040902054818110156121075760405162461bcd60e51b815260206004820152602660248201527f45524332303a207472616e7366657220616d6f756e7420657863656564732062604482015265616c616e636560d01b6064820152608401610ab9565b6001600160a01b03848116600081815260208181526040808320878703905593871680835291849020805487019055925185815290927fddf252ad1be2c89b69c2b068fc378daa952ba7f163c4a11628f55a4df523b3ef910160405180910390a36111798484846126bb565b6001600160a01b03831660009081526012602052604081205460ff16806121b257506001600160a01b03831660009081526012602052604090205460ff165b156121be575080610a5b565b600f546121ca846115bd565b156121d85750600e546121eb565b6121e1856115bd565b156121eb5750600d545b60006121f784836123e8565b9050612203858261275d565b801561227b5760005b60115481101561227957600081815260106020526040812060018101549091906122379085906123e8565b82549091506001600160a01b031680612259576122548a836127ce565b612264565b6122648a8284611fbe565b8361226e81612eed565b94505050505061220c565b505b61228584826119a4565b9695505050505050565b6001600160a01b0383163b1515806122b057506001600160a01b0382163b15155b806122c257506001600160a01b038316155b156122cc57505050565b60006122d783610ddf565b9050808210611179576001600160a01b03808416600090815260146020526040902080548683166001600160a01b0319821681178355600183018690554260028401559192169081146123d6576001600160a01b0381166000908152601560205260409020541561236c576001600160a01b038116600090815260156020526040812080549161236683612ea1565b91905055505b6001600160a01b038616600090815260156020526040812080549161239083612eed565b9190505550846001600160a01b0316866001600160a01b03167f6a7d6141e302acc1f9ff7ede7b26358907511b619f4fa9f6beaeab5d19c1ff2c60405160405180910390a35b505050505050565b60006109d682601a545b6000610a5b612710611abc8585611a35565b60006001600160a01b0382163b61241357506000919050565b816001600160a01b031663c45a01556040518163ffffffff1660e01b815260040160206040518083038186803b1580156116a257600080fd5b80612455575050565b61245e82612913565b600082600101548210156124725781612478565b82600101545b9050600081846001015461248c9190612e8a565b9050806124a65760006002850181905560018501556124d2565b6124c58460010154611abc838760020154611a3590919063ffffffff16565b6002850155600184018190555b7fe07fdbc26a8001506c5f058f6ab03687030b84b808efb98548b198cd4ab665518460405161251b91908154815260018201546020820152600290910154604082015260600190565b60405180910390a150505050565b6000610a5b8284612e4b565b811580612540575080155b1561254a57505050565b61255383612913565b600061257084600201548560010154611a3590919063ffffffff16565b9050600061257e8484611a35565b90506125a461259a85876001015461180f90919063ffffffff16565b611abc848461180f565b600286015560018501546125b8908561180f565b60018601554285556040517fe07fdbc26a8001506c5f058f6ab03687030b84b808efb98548b198cd4ab665519061260a9087908154815260018201546020820152600290910154604082015260600190565b60405180910390a15050505050565b601f5480156111795760005b818110156115b6576000818152601d60205260409081902054905163c771eeef60e01b81526001600160a01b0387811660048301528681166024830152604482018690529091169063c771eeef90606401600060405180830381600087803b15801561269057600080fd5b505af11580156126a4573d6000803e3d6000fd5b5050505080806126b390612eed565b915050612625565b60205480156111795760005b818110156115b6576000818152601e602052604090819020549051635cf8305b60e01b81526001600160a01b03878116600483015286811660248301526044820186905290911690635cf8305b90606401600060405180830381600087803b15801561273257600080fd5b505af1158015612746573d6000803e3d6000fd5b50505050808061275590612eed565b9150506126c7565b6001600160a01b038216600090815260136020526040902054612780908261180f565b6001600160a01b038316600081815260136020526040908190208390555190917f622702f95f23ffc72d9a19eebca7fe3f096bd11e6b936722f55a5094917bc4689161138191815260200190565b6001600160a01b03821661282e5760405162461bcd60e51b815260206004820152602160248201527f45524332303a206275726e2066726f6d20746865207a65726f206164647265736044820152607360f81b6064820152608401610ab9565b61283a82600083612619565b6001600160a01b038216600090815260208190526040902054818110156128ae5760405162461bcd60e51b815260206004820152602260248201527f45524332303a206275726e20616d6f756e7420657863656564732062616c616e604482015261636560f01b6064820152608401610ab9565b6001600160a01b0383166000818152602081815260408083208686039055600280548790039055518581529192917fddf252ad1be2c89b69c2b068fc378daa952ba7f163c4a11628f55a4df523b3ef910160405180910390a3610c8c836000846126bb565b60408051606081018252825481526001830154602082015260028301549181019190915260009061294390611a41565b90508061296057600060018301819055600283015542825561298f565b61297f8260020154611abc846001015484611a3590919063ffffffff16565b6001830155600282018190554282555b7fe07fdbc26a8001506c5f058f6ab03687030b84b808efb98548b198cd4ab6655182604051611d4991908154815260018201546020820152600290910154604082015260600190565b600082601f8301126129e8578081fd5b813560206129fd6129f883612e0f565b612dde565b80838252828201915082860187848660051b8901011115612a1c578586fd5b855b85811015612a3a57813584529284019290840190600101612a1e565b5090979650505050505050565b600060208284031215612a58578081fd5b8135610a5b81612f34565b600060208284031215612a74578081fd5b8151610a5b81612f34565b60008060408385031215612a91578081fd5b8235612a9c81612f34565b91506020830135612aac81612f34565b809150509250929050565b600080600060608486031215612acb578081fd5b8335612ad681612f34565b92506020840135612ae681612f34565b929592945050506040919091013590565b60008060408385031215612b09578182fd5b8235612b1481612f34565b915060208301358015158114612aac578182fd5b60008060408385031215612b3a578182fd5b8235612b4581612f34565b9150602083013560038110612aac578182fd5b60008060408385031215612b6a578182fd5b8235612b7581612f34565b946020939093013593505050565b600080600060608486031215612b97578283fd5b8335612ba281612f34565b95602085013595506040909401359392505050565b60008060408385031215612bc9578182fd5b823567ffffffffffffffff80821115612be0578384fd5b818501915085601f830112612bf3578384fd5b81356020612c036129f883612e0f565b8083825282820191508286018a848660051b8901011115612c22578889fd5b8896505b84871015612c4d578035612c3981612f34565b835260019690960195918301918301612c26565b5096505086013592505080821115612c63578283fd5b50612c70858286016129d8565b9150509250929050565b60006020808385031215612c8c578182fd5b823567ffffffffffffffff811115612ca2578283fd5b8301601f81018513612cb2578283fd5b8035612cc06129f882612e0f565b80828252848201915084840188868560051b8701011115612cdf578687fd5b8694505b83851015612d0a578035612cf681612f34565b835260019490940193918501918501612ce3565b50979650505050505050565b600060208284031215612d27578081fd5b5035919050565b600080600060608486031215612d42578081fd5b505081359360208301359350604090920135919050565b6000602080835283518082850152825b81811015612d8557858101830151858201604001528201612d69565b81811115612d965783604083870101525b50601f01601f1916929092016040019392505050565b8281526040810160038310612dd157634e487b7160e01b600052602160045260246000fd5b8260208301529392505050565b604051601f8201601f1916810167ffffffffffffffff81118282101715612e0757612e07612f1e565b604052919050565b600067ffffffffffffffff821115612e2957612e29612f1e565b5060051b60200190565b60008219821115612e4657612e46612f08565b500190565b600082612e6657634e487b7160e01b81526012600452602481fd5b500490565b6000816000190483118215151615612e8557612e85612f08565b500290565b600082821015612e9c57612e9c612f08565b500390565b600081612eb057612eb0612f08565b506000190190565b600181811c90821680612ecc57607f821691505b60208210811415611a7b57634e487b7160e01b600052602260045260246000fd5b6000600019821415612f0157612f01612f08565b5060010190565b634e487b7160e01b600052601160045260246000fd5b634e487b7160e01b600052604160045260246000fd5b6001600160a01b03811681146109fc57600080fdfee4ebe3f236d1f26ec3e02e6a726605263fb049e122c8a8460f4b24d4b90d1f4ba26469706673582212200947347cc4f2e30d756a1ad70bd37bc7d2b403d73a0cab7db6806aa104918a3764736f6c63430008040033",
    "linkReferences": {},
    "deployedLinkReferences": {}
}