{
  "_format": "hh-sol-artifact-1",
  "contractName": "ListingFactory",
  "sourceName": "contracts/ListingFactory.sol",
  "abi": [
    {
      "anonymous": false,
      "inputs": [
        {
          "indexed": true,
          "internalType": "address",
          "name": "sender",
          "type": "address"
        },
        {
          "indexed": true,
          "internalType": "address",
          "name": "token",
          "type": "address"
        },
        {
          "indexed": false,
          "internalType": "uint256",
          "name": "startedAt",
          "type": "uint256"
        },
        {
          "indexed": false,
          "internalType": "uint256",
          "name": "duration",
          "type": "uint256"
        }
      ],
      "name": "ConfigListingToken",
      "type": "event"
    },
    {
      "anonymous": false,
      "inputs": [
        {
          "indexed": true,
          "internalType": "address",
          "name": "sender",
          "type": "address"
        },
        {
          "indexed": true,
          "internalType": "address",
          "name": "token",
          "type": "address"
        }
      ],
      "name": "DisableListingToken",
      "type": "event"
    },
    {
      "inputs": [],
      "name": "MAX_DURATION",
      "outputs": [
        {
          "internalType": "uint256",
          "name": "",
          "type": "uint256"
        }
      ],
      "stateMutability": "view",
      "type": "function"
    },
    {
      "inputs": [],
      "name": "MAX_PENDING_TIME",
      "outputs": [
        {
          "internalType": "uint256",
          "name": "",
          "type": "uint256"
        }
      ],
      "stateMutability": "view",
      "type": "function"
    },
    {
      "inputs": [],
      "name": "MAX_TAX",
      "outputs": [
        {
          "internalType": "uint256",
          "name": "",
          "type": "uint256"
        }
      ],
      "stateMutability": "view",
      "type": "function"
    },
    {
      "inputs": [],
      "name": "MIN_TAX",
      "outputs": [
        {
          "internalType": "uint256",
          "name": "",
          "type": "uint256"
        }
      ],
      "stateMutability": "view",
      "type": "function"
    },
    {
      "inputs": [],
      "name": "blockTime",
      "outputs": [
        {
          "internalType": "uint256",
          "name": "",
          "type": "uint256"
        }
      ],
      "stateMutability": "view",
      "type": "function"
    },
    {
      "inputs": [
        {
          "internalType": "address",
          "name": "token_",
          "type": "address"
        },
        {
          "internalType": "uint256",
          "name": "startedAt_",
          "type": "uint256"
        },
        {
          "internalType": "uint256",
          "name": "duration_",
          "type": "uint256"
        }
      ],
      "name": "configListing",
      "outputs": [],
      "stateMutability": "nonpayable",
      "type": "function"
    },
    {
      "inputs": [
        {
          "internalType": "address",
          "name": "token_",
          "type": "address"
        },
        {
          "internalType": "uint256",
          "name": "startedAt_",
          "type": "uint256"
        },
        {
          "internalType": "uint256",
          "name": "duration_",
          "type": "uint256"
        }
      ],
      "name": "createListingToken",
      "outputs": [
        {
          "internalType": "bool",
          "name": "",
          "type": "bool"
        }
      ],
      "stateMutability": "nonpayable",
      "type": "function"
    },
    {
      "inputs": [
        {
          "internalType": "address",
          "name": "token_",
          "type": "address"
        }
      ],
      "name": "disableListingToken",
      "outputs": [
        {
          "internalType": "bool",
          "name": "",
          "type": "bool"
        }
      ],
      "stateMutability": "nonpayable",
      "type": "function"
    },
    {
      "inputs": [
        {
          "internalType": "address",
          "name": "",
          "type": "address"
        }
      ],
      "name": "listingToken",
      "outputs": [
        {
          "internalType": "address",
          "name": "",
          "type": "address"
        }
      ],
      "stateMutability": "view",
      "type": "function"
    },
    {
      "inputs": [
        {
          "internalType": "address",
          "name": "token_",
          "type": "address"
        }
      ],
      "name": "taxPercent",
      "outputs": [
        {
          "internalType": "uint256",
          "name": "",
          "type": "uint256"
        }
      ],
      "stateMutability": "view",
      "type": "function"
    },
    {
      "inputs": [
        {
          "internalType": "address",
          "name": "",
          "type": "address"
        }
      ],
      "name": "tokenOwner",
      "outputs": [
        {
          "internalType": "address",
          "name": "",
          "type": "address"
        }
      ],
      "stateMutability": "view",
      "type": "function"
    },
    {
      "inputs": [
        {
          "internalType": "address",
          "name": "token_",
          "type": "address"
        },
        {
          "internalType": "address",
          "name": "owner_",
          "type": "address"
        }
      ],
      "name": "validateBeforeListing",
      "outputs": [
        {
          "internalType": "bool",
          "name": "",
          "type": "bool"
        }
      ],
      "stateMutability": "view",
      "type": "function"
    },
    {
      "inputs": [
        {
          "internalType": "address",
          "name": "token_",
          "type": "address"
        },
        {
          "internalType": "address",
          "name": "owner_",
          "type": "address"
        }
      ],
      "name": "validateOwner",
      "outputs": [
        {
          "internalType": "bool",
          "name": "",
          "type": "bool"
        }
      ],
      "stateMutability": "view",
      "type": "function"
    }
  ],
  "bytecode": "0x608060405234801561001057600080fd5b5061107d806100206000396000f3fe608060405234801561001057600080fd5b50600436106100af5760003560e01c80630b39d94c146100b4578063259287b0146100dc57806333e5f0d9146100ef5780633ab69b621461010457806348b151661461013a57806372af5ba31461014a57806386a35f2514610154578063b1724b461461015d578063cfd09b2b14610167578063d444329f1461017a578063d8f6500b1461018d578063e2d6649a146101b6578063e9814c2a146101be575b600080fd5b6100c76100c23660046108e9565b6101d1565b60405190151581526020015b60405180910390f35b6100c76100ea366004610879565b61027c565b6101026100fd3660046108e9565b610392565b005b61012d610112366004610879565b6001602052600090815260409020546001600160a01b031681565b6040516100d39190610935565b425b6040519081526020016100d3565b61013c62093a8081565b61013c6103e881565b61013c6201518081565b61013c610175366004610879565b61049c565b6100c76101883660046108b1565b610552565b61012d61019b366004610879565b6000602081905290815260409020546001600160a01b031681565b61013c600381565b6100c76101cc3660046108b1565b6106f8565b60006101dd8433610552565b6102295760405162461bcd60e51b815260206004820152601860248201527776616c696461746528746f6b656e5f2c206f776e65725f2960401b60448201526064015b60405180910390fd5b60006102378533868661072c565b905080156102745760408051858152602081018590526001600160a01b038716913391600080516020611028833981519152910160405180910390a35b949350505050565b6000816000816001600160a01b03166370a08231336040518263ffffffff1660e01b81526004016102ad9190610935565b60206040518083038186803b1580156102c557600080fd5b505afa1580156102d9573d6000803e3d6000fd5b505050506040513d601f19601f820116820180604052508101906102fd919061091d565b1161033b5760405162461bcd60e51b815260206004820152600e60248201526d37b7363caa37b5b2b72437b632b960911b6044820152606401610220565b600061034c8461dead42600061072c565b9050801561038b576040516001600160a01b0385169033907f2e42e9643e207c89faa3d2cbba4bda6d715859f66d41ec249bfbd142bba8972990600090a35b9392505050565b6001600160a01b0383811660009081526001602052604090205484911633146103ee5760405162461bcd60e51b815260206004820152600e60248201526d37b7363caa37b5b2b727bbb732b960911b6044820152606401610220565b6001600160a01b0384811660009081526020819052604090819020549051630b0771ab60e41b8152600481018690526024810185905291169063b0771ab090604401600060405180830381600087803b15801561044a57600080fd5b505af115801561045e573d6000803e3d6000fd5b505060408051868152602081018690526001600160a01b0388169350339250600080516020611028833981519152910160405180910390a350505050565b6001600160a01b038181166000908152602081905260408120549091166104c557506003919050565b6001600160a01b0380831660009081526020818152604091829020548251631d507d0760e21b81529251931692637541f41c926004808201939291829003018186803b15801561051457600080fd5b505afa158015610528573d6000803e3d6000fd5b505050506040513d601f19601f8201168201806040525081019061054c919061091d565b92915050565b6000826001600160a01b03166318160ddd6040518163ffffffff1660e01b815260040160206040518083038186803b15801561058d57600080fd5b505afa1580156105a1573d6000803e3d6000fd5b505050506040513d601f19601f820116820180604052508101906105c5919061091d565b6040516370a0823160e01b81526001600160a01b038516906370a08231906105f1908690600401610935565b60206040518083038186803b15801561060957600080fd5b505afa15801561061d573d6000803e3d6000fd5b505050506040513d601f19601f82011682018060405250810190610641919061091d565b141561064f5750600161054c565b6001600160a01b0382166106655750600061054c565b826001600160a01b0316638da5cb5b6040518163ffffffff1660e01b815260040160206040518083038186803b15801561069e57600080fd5b505afa9250505080156106ce575060408051601f3d908101601f191682019092526106cb91810190610895565b60015b6106da5750600061054c565b826001600160a01b0316816001600160a01b03161491505092915050565b60006107048383610552565b801561038b575050506001600160a01b03908116600090815260208190526040902054161590565b6001600160a01b038481166000908152602081905260408120549091161561075657506000610274565b6040516001600160601b0319606087901b166020820152603401604051602081830303815290604052805190602001206040516107929061086c565b8190604051809103906000f59050801580156107b2573d6000803e3d6000fd5b506001600160a01b0386811660008181526020818152604080832080549686166001600160a01b03199788161781556001835281842080548c88169816979097179096559190529254925163eb990c5960e01b81526004810191909152306024820152604481018690526064810185905291169063eb990c5990608401600060405180830381600087803b15801561084957600080fd5b505af115801561085d573d6000803e3d6000fd5b50600198975050505050505050565b6106c68061096283390190565b60006020828403121561088a578081fd5b813561038b81610949565b6000602082840312156108a6578081fd5b815161038b81610949565b600080604083850312156108c3578081fd5b82356108ce81610949565b915060208301356108de81610949565b809150509250929050565b6000806000606084860312156108fd578081fd5b833561090881610949565b95602085013595506040909401359392505050565b60006020828403121561092e578081fd5b5051919050565b6001600160a01b0391909116815260200190565b6001600160a01b038116811461095e57600080fd5b5056fe608060405234801561001057600080fd5b506106a6806100206000396000f3fe608060405234801561001057600080fd5b50600436106100af5760003560e01c80630fb5a6b4146100b4578063200d2ed2146100d057806372af5ba3146100e55780637541f41c146100ef57806386a35f25146100f75780638da5cb5b14610100578063b0771ab01461012b578063b1724b4614610140578063e2d6649a1461014a578063eae4c19f14610152578063eb990c591461015b578063f21f537d1461016e578063fc0c546a14610177575b600080fd5b6100bd60045481565b6040519081526020015b60405180910390f35b6100d861018f565b6040516100c791906105c4565b6100bd62093a8081565b6100bd6101ce565b6100bd6103e881565b600154610113906001600160a01b031681565b6040516001600160a01b0390911681526020016100c7565b61013e6101393660046105a3565b6102a2565b005b6100bd6201518081565b6100bd600381565b6100bd60025481565b61013e610169366004610562565b61030a565b6100bd60035481565b6000546101139061010090046001600160a01b031681565b60004260035411806101a15750600354155b156101ac5750600090565b426004546003546101bd91906105ec565b116101c85750600290565b50600190565b6000806101d961018f565b905060008160028111156101fd57634e487b7160e01b600052602160045260246000fd5b1415610216576102106103e860016105ec565b91505090565b600281600281111561023857634e487b7160e01b600052602160045260246000fd5b141561024657600391505090565b6000600354426102569190610643565b90506000816004546102689190610643565b60045490915061027b60036103e8610643565b6102859083610624565b61028f9190610604565b61029a9060036105ec565b935050505090565b6001546001600160a01b031633146102fc5760405162461bcd60e51b81526020600482015260186024820152774c697374696e67546f6b656e3a206f6e6c794f776e65722160401b60448201526064015b60405180910390fd5b61030682826103b2565b5050565b60005460ff16156103525760405162461bcd60e51b815260206004820152601260248201527169734e6f74496e697469616c697a61626c6560701b60448201526064016102f3565b60008054610100600160a81b0319166101006001600160a01b038781169190910291909117909155600180546001600160a01b0319169185169190911790554260025561039f82826103b2565b50506000805460ff191660011790555050565b60006103bc61018f565b60028111156103db57634e487b7160e01b600052602160045260246000fd5b146104245760405162461bcd60e51b8152602060048201526019602482015278131a5cdd1a5b99d51bdad95b8e881393d517d4d51054951151603a1b60448201526064016102f3565b620151808111156104745760405162461bcd60e51b815260206004820152601a6024820152792634b9ba34b733aa37b5b2b71d1026a0ac2fa22aa920aa24a7a760311b60448201526064016102f3565b6002548210156104d55760405162461bcd60e51b815260206004820152602660248201527f4c697374696e67546f6b656e3a207374617274656441745f203e3d206465706c6044820152651bde5959105d60d21b60648201526084016102f3565b6000600254836104e59190610643565b905062093a8081111561053a5760405162461bcd60e51b815260206004820152601e60248201527f4c697374696e67546f6b656e3a204d41585f50454e44494e475f54494d45000060448201526064016102f3565b50600391909155600455565b80356001600160a01b038116811461055d57600080fd5b919050565b60008060008060808587031215610577578384fd5b61058085610546565b935061058e60208601610546565b93969395505050506040820135916060013590565b600080604083850312156105b5578182fd5b50508035926020909101359150565b60208101600383106105e657634e487b7160e01b600052602160045260246000fd5b91905290565b600082198211156105ff576105ff61065a565b500190565b60008261061f57634e487b7160e01b81526012600452602481fd5b500490565b600081600019048311821515161561063e5761063e61065a565b500290565b6000828210156106555761065561065a565b500390565b634e487b7160e01b600052601160045260246000fdfea26469706673582212204884dc7701e8b01e7542a10ad861283af2ac6e779756ae313c8e773da26137df64736f6c6343000804003356cf20646556a75c996cd5deaa3b46050c2a91ff380390208cba8d34169d75d7a2646970667358221220e6668d8d36058e19e411d001461f66dd659611268169d793d888abdb0535d58464736f6c63430008040033",
  "linkReferences": {},
  "deployedLinkReferences": {}
}