{
  "_format": "hh-sol-artifact-1",
  "contractName": "ListingFactory",
  "sourceName": "contracts/ListingFactory.sol",
  "abi": [
    {
      "anonymous": false,
      "inputs": [
        {
          "indexed": true,
          "internalType": "address",
          "name": "sender",
          "type": "address"
        },
        {
          "indexed": true,
          "internalType": "address",
          "name": "token",
          "type": "address"
        },
        {
          "indexed": false,
          "internalType": "uint256",
          "name": "startedAt",
          "type": "uint256"
        },
        {
          "indexed": false,
          "internalType": "uint256",
          "name": "duration",
          "type": "uint256"
        }
      ],
      "name": "ConfigListingToken",
      "type": "event"
    },
    {
      "anonymous": false,
      "inputs": [
        {
          "indexed": true,
          "internalType": "address",
          "name": "sender",
          "type": "address"
        },
        {
          "indexed": true,
          "internalType": "address",
          "name": "token",
          "type": "address"
        }
      ],
      "name": "DisableListingToken",
      "type": "event"
    },
    {
      "inputs": [],
      "name": "MAX_DURATION",
      "outputs": [
        {
          "internalType": "uint256",
          "name": "",
          "type": "uint256"
        }
      ],
      "stateMutability": "view",
      "type": "function"
    },
    {
      "inputs": [],
      "name": "MAX_PENDING_TIME",
      "outputs": [
        {
          "internalType": "uint256",
          "name": "",
          "type": "uint256"
        }
      ],
      "stateMutability": "view",
      "type": "function"
    },
    {
      "inputs": [],
      "name": "MAX_TAX",
      "outputs": [
        {
          "internalType": "uint256",
          "name": "",
          "type": "uint256"
        }
      ],
      "stateMutability": "view",
      "type": "function"
    },
    {
      "inputs": [],
      "name": "MIN_TAX",
      "outputs": [
        {
          "internalType": "uint256",
          "name": "",
          "type": "uint256"
        }
      ],
      "stateMutability": "view",
      "type": "function"
    },
    {
      "inputs": [],
      "name": "blockTime",
      "outputs": [
        {
          "internalType": "uint256",
          "name": "",
          "type": "uint256"
        }
      ],
      "stateMutability": "view",
      "type": "function"
    },
    {
      "inputs": [
        {
          "internalType": "address",
          "name": "token_",
          "type": "address"
        },
        {
          "internalType": "uint256",
          "name": "startedAt_",
          "type": "uint256"
        },
        {
          "internalType": "uint256",
          "name": "duration_",
          "type": "uint256"
        }
      ],
      "name": "configListing",
      "outputs": [],
      "stateMutability": "nonpayable",
      "type": "function"
    },
    {
      "inputs": [
        {
          "internalType": "address",
          "name": "token_",
          "type": "address"
        },
        {
          "internalType": "uint256",
          "name": "startedAt_",
          "type": "uint256"
        },
        {
          "internalType": "uint256",
          "name": "duration_",
          "type": "uint256"
        }
      ],
      "name": "createListingToken",
      "outputs": [
        {
          "internalType": "bool",
          "name": "",
          "type": "bool"
        }
      ],
      "stateMutability": "nonpayable",
      "type": "function"
    },
    {
      "inputs": [
        {
          "internalType": "address",
          "name": "token_",
          "type": "address"
        }
      ],
      "name": "disableListingToken",
      "outputs": [
        {
          "internalType": "bool",
          "name": "",
          "type": "bool"
        }
      ],
      "stateMutability": "nonpayable",
      "type": "function"
    },
    {
      "inputs": [
        {
          "internalType": "address",
          "name": "",
          "type": "address"
        }
      ],
      "name": "listingToken",
      "outputs": [
        {
          "internalType": "address",
          "name": "",
          "type": "address"
        }
      ],
      "stateMutability": "view",
      "type": "function"
    },
    {
      "inputs": [
        {
          "internalType": "address",
          "name": "token_",
          "type": "address"
        }
      ],
      "name": "taxPercent",
      "outputs": [
        {
          "internalType": "uint256",
          "name": "",
          "type": "uint256"
        }
      ],
      "stateMutability": "view",
      "type": "function"
    },
    {
      "inputs": [
        {
          "internalType": "address",
          "name": "",
          "type": "address"
        }
      ],
      "name": "tokenOwner",
      "outputs": [
        {
          "internalType": "address",
          "name": "",
          "type": "address"
        }
      ],
      "stateMutability": "view",
      "type": "function"
    }
  ],
  "bytecode": "0x608060405234801561001057600080fd5b50610e9d806100206000396000f3fe608060405234801561001057600080fd5b50600436106100a95760003560e01c806372af5ba31161007157806372af5ba31461014f57806386a35f2514610159578063b1724b4614610162578063cfd09b2b1461016c578063d8f6500b1461017f578063e2d6649a146101a857600080fd5b80630b39d94c146100ae578063259287b0146100d657806333e5f0d9146100e95780633ab69b62146100fe57806348b151661461013f575b600080fd5b6100c16100bc36600461071c565b6101b0565b60405190151581526020015b60405180910390f35b6100c16100e4366004610702565b6102aa565b6100fc6100f736600461071c565b6103c2565b005b61012761010c366004610702565b6001602052600090815260409020546001600160a01b031681565b6040516001600160a01b0390911681526020016100cd565b425b6040519081526020016100cd565b61014162093a8081565b6101416103e881565b6101416201518081565b61014161017a366004610702565b6104de565b61012761018d366004610702565b6000602081905290815260409020546001600160a01b031681565b610141600381565b6040516330413db960e21b81526001600160a01b038416600482015233602482015260009073__$bbcd0496f91fece7384154ae7a8b37a5eb$__9063c104f6e49060440160206040518083038186803b15801561020c57600080fd5b505af4158015610220573d6000803e3d6000fd5b505050506040513d601f19601f82011682018060405250810190610244919061074e565b50600061025385338686610594565b905080156102a25760408051858152602081018590526001600160a01b0387169133917f56cf20646556a75c996cd5deaa3b46050c2a91ff380390208cba8d34169d75d7910160405180910390a35b949350505050565b6040516370a0823160e01b8152336004820152600090829082906001600160a01b038316906370a082319060240160206040518083038186803b1580156102f057600080fd5b505afa158015610304573d6000803e3d6000fd5b505050506040513d601f19601f82011682018060405250810190610328919061076e565b1161036b5760405162461bcd60e51b815260206004820152600e60248201526d37b7363caa37b5b2b72437b632b960911b60448201526064015b60405180910390fd5b600061037c8461dead426000610594565b905080156103bb576040516001600160a01b0385169033907f2e42e9643e207c89faa3d2cbba4bda6d715859f66d41ec249bfbd142bba8972990600090a35b9392505050565b6001600160a01b03838116600090815260016020526040902054849116331461041e5760405162461bcd60e51b815260206004820152600e60248201526d37b7363caa37b5b2b727bbb732b960911b6044820152606401610362565b6001600160a01b0384811660009081526020819052604090819020549051630b0771ab60e41b8152600481018690526024810185905291169063b0771ab090604401600060405180830381600087803b15801561047a57600080fd5b505af115801561048e573d6000803e3d6000fd5b505060408051868152602081018690526001600160a01b03881693503392507f56cf20646556a75c996cd5deaa3b46050c2a91ff380390208cba8d34169d75d7910160405180910390a350505050565b6001600160a01b0381811660009081526020819052604081205490911661050757506003919050565b6001600160a01b0380831660009081526020818152604091829020548251631d507d0760e21b81529251931692637541f41c926004808201939291829003018186803b15801561055657600080fd5b505afa15801561056a573d6000803e3d6000fd5b505050506040513d601f19601f8201168201806040525081019061058e919061076e565b92915050565b6001600160a01b03848116600090815260208190526040812054909116156105be575060006102a2565b6040516bffffffffffffffffffffffff19606087901b166020820152603401604051602081830303815290604052805190602001206040516105ff906106d9565b8190604051809103906000f590508015801561061f573d6000803e3d6000fd5b506001600160a01b0386811660008181526020818152604080832080549686166001600160a01b03199788161781556001835281842080548c88169816979097179096559190529254925163eb990c5960e01b81526004810191909152306024820152604481018690526064810185905291169063eb990c5990608401600060405180830381600087803b1580156106b657600080fd5b505af11580156106ca573d6000803e3d6000fd5b50600198975050505050505050565b6106e18061078783390190565b80356001600160a01b03811681146106fd57600080fd5b919050565b600060208284031215610713578081fd5b6103bb826106e6565b600080600060608486031215610730578182fd5b610739846106e6565b95602085013595506040909401359392505050565b60006020828403121561075f578081fd5b815180151581146103bb578182fd5b60006020828403121561077f578081fd5b505191905056fe608060405234801561001057600080fd5b506106c1806100206000396000f3fe608060405234801561001057600080fd5b50600436106100cf5760003560e01c8063b0771ab01161008c578063eae4c19f11610066578063eae4c19f14610172578063eb990c591461017b578063f21f537d1461018e578063fc0c546a1461019757600080fd5b8063b0771ab01461014b578063b1724b4614610160578063e2d6649a1461016a57600080fd5b80630fb5a6b4146100d4578063200d2ed2146100f057806372af5ba3146101055780637541f41c1461010f57806386a35f25146101175780638da5cb5b14610120575b600080fd5b6100dd60045481565b6040519081526020015b60405180910390f35b6100f86101aa565b6040516100e791906105df565b6100dd62093a8081565b6100dd6101e9565b6100dd6103e881565b600054610133906001600160a01b031681565b6040516001600160a01b0390911681526020016100e7565b61015e6101593660046105be565b6102bd565b005b6100dd6201518081565b6100dd600381565b6100dd60025481565b61015e61018936600461057d565b610320565b6100dd60035481565b600154610133906001600160a01b031681565b60004260035411806101bc5750600354155b156101c75750600090565b426004546003546101d89190610607565b116101e35750600290565b50600190565b6000806101f46101aa565b9050600081600281111561021857634e487b7160e01b600052602160045260246000fd5b14156102315761022b6103e86001610607565b91505090565b600281600281111561025357634e487b7160e01b600052602160045260246000fd5b141561026157600391505090565b600060035442610271919061065e565b9050600081600454610283919061065e565b60045490915061029660036103e861065e565b6102a0908361063f565b6102aa919061061f565b6102b5906003610607565b935050505090565b6000546001600160a01b031633146103125760405162461bcd60e51b81526020600482015260136024820152724f776e61626c653a206f6e6c794f776e65722160681b60448201526064015b60405180910390fd5b61031c82826103c6565b5050565b600054600160a01b900460ff161561036f5760405162461bcd60e51b815260206004820152601260248201527169734e6f74496e697469616c697a61626c6560701b6044820152606401610309565b600180546001600160a01b038087166001600160a01b0319928316179092556000805492861692909116919091179055426002556103ad82826103c6565b50506000805460ff60a01b1916600160a01b1790555050565b60006103d06101aa565b60028111156103ef57634e487b7160e01b600052602160045260246000fd5b1461043c5760405162461bcd60e51b815260206004820152601960248201527f4c697374696e67546f6b656e3a204e4f545f53544152544544000000000000006044820152606401610309565b6201518081111561048f5760405162461bcd60e51b815260206004820152601a60248201527f4c697374696e67546f6b656e3a204d41585f4455524154494f4e0000000000006044820152606401610309565b6002548210156104f05760405162461bcd60e51b815260206004820152602660248201527f4c697374696e67546f6b656e3a207374617274656441745f203e3d206465706c6044820152651bde5959105d60d21b6064820152608401610309565b600060025483610500919061065e565b905062093a808111156105555760405162461bcd60e51b815260206004820152601e60248201527f4c697374696e67546f6b656e3a204d41585f50454e44494e475f54494d4500006044820152606401610309565b50600391909155600455565b80356001600160a01b038116811461057857600080fd5b919050565b60008060008060808587031215610592578384fd5b61059b85610561565b93506105a960208601610561565b93969395505050506040820135916060013590565b600080604083850312156105d0578182fd5b50508035926020909101359150565b602081016003831061060157634e487b7160e01b600052602160045260246000fd5b91905290565b6000821982111561061a5761061a610675565b500190565b60008261063a57634e487b7160e01b81526012600452602481fd5b500490565b600081600019048311821515161561065957610659610675565b500290565b60008282101561067057610670610675565b500390565b634e487b7160e01b600052601160045260246000fdfea26469706673582212209c0b165169ca267ab470e3023e49619aa02d510f74a66f2c482d64327f12cbf964736f6c63430008040033a2646970667358221220a9681f66281a3ec425e1d40f35bd4176853456c8dcd00a781a5133cb3e651b5a64736f6c63430008040033",
  "linkReferences": {
    "contracts/libraries/LTokenOwner.sol": {
      "LTokenOwner": [
        {
          "length": 20,
          "start": 503
        }
      ]
    }
  },
  "deployedLinkReferences": {
    "contracts/libraries/LTokenOwner.sol": {
      "LTokenOwner": [
        {
          "length": 20,
          "start": 471
        }
      ]
    }
  }
}