{
  "_format": "hh-sol-artifact-1",
  "contractName": "PresaleFactory",
  "sourceName": "contracts/PresaleFactory.sol",
  "abi": [
    {
      "inputs": [
        {
          "internalType": "contract IUniswapV2Router",
          "name": "router_",
          "type": "address"
        },
        {
          "internalType": "contract ITokenLocker",
          "name": "locker_",
          "type": "address"
        }
      ],
      "stateMutability": "nonpayable",
      "type": "constructor"
    },
    {
      "anonymous": false,
      "inputs": [
        {
          "indexed": false,
          "internalType": "contract Presale",
          "name": "presale",
          "type": "address"
        },
        {
          "indexed": false,
          "internalType": "address",
          "name": "owner",
          "type": "address"
        },
        {
          "indexed": false,
          "internalType": "contract IERC20",
          "name": "token",
          "type": "address"
        },
        {
          "indexed": false,
          "internalType": "contract IERC20",
          "name": "currency",
          "type": "address"
        },
        {
          "indexed": false,
          "internalType": "uint256",
          "name": "liqClaimStartedAt",
          "type": "uint256"
        },
        {
          "indexed": false,
          "internalType": "uint256",
          "name": "liqClaimPeriod",
          "type": "uint256"
        },
        {
          "indexed": false,
          "internalType": "uint256",
          "name": "liqLockDuration",
          "type": "uint256"
        }
      ],
      "name": "CreatePresale",
      "type": "event"
    },
    {
      "inputs": [
        {
          "internalType": "address",
          "name": "owner_",
          "type": "address"
        },
        {
          "internalType": "contract IERC20",
          "name": "token_",
          "type": "address"
        },
        {
          "internalType": "contract IERC20",
          "name": "currency_",
          "type": "address"
        },
        {
          "internalType": "uint256",
          "name": "liqClaimStartedAt_",
          "type": "uint256"
        },
        {
          "internalType": "uint256",
          "name": "liqClaimPeriod_",
          "type": "uint256"
        },
        {
          "internalType": "uint256",
          "name": "liqLockDuration_",
          "type": "uint256"
        }
      ],
      "name": "createPresale",
      "outputs": [],
      "stateMutability": "nonpayable",
      "type": "function"
    },
    {
      "inputs": [],
      "name": "locker",
      "outputs": [
        {
          "internalType": "contract ITokenLocker",
          "name": "",
          "type": "address"
        }
      ],
      "stateMutability": "view",
      "type": "function"
    },
    {
      "inputs": [],
      "name": "router",
      "outputs": [
        {
          "internalType": "contract IUniswapV2Router",
          "name": "",
          "type": "address"
        }
      ],
      "stateMutability": "view",
      "type": "function"
    }
  ],
  "bytecode": "0x60c060405234801561001057600080fd5b50604051611e6f380380611e6f83398101604081905261002f9161004d565b6001600160601b0319606092831b8116608052911b1660a05261009e565b6000806040838503121561005f578182fd5b825161006a81610086565b602084015190925061007b81610086565b809150509250929050565b6001600160a01b038116811461009b57600080fd5b50565b60805160601c60a05160601c611d9c6100d360003960008181605d015260fa015260008181609b015260d90152611d9c6000f3fe608060405234801561001057600080fd5b50600436106100415760003560e01c8063cd8d2ec814610046578063d7b96d4e1461005b578063f887ea4014610099575b600080fd5b610059610054366004610212565b6100bf565b005b7f00000000000000000000000000000000000000000000000000000000000000005b6040516001600160a01b03909116815260200160405180910390f35b7f000000000000000000000000000000000000000000000000000000000000000061007d565b6100cd8686868686866100d5565b505050505050565b60007f00000000000000000000000000000000000000000000000000000000000000007f000000000000000000000000000000000000000000000000000000000000000088888888888860405161012b90610205565b6001600160a01b0398891681529688166020880152948716604087015292861660608601529416608084015260a083019390935260c082019290925260e081019190915261010001604051809103906000f08015801561018f573d6000803e3d6000fd5b50604080516001600160a01b0383811682528a8116602083015289811682840152881660608201526080810187905260a0810186905260c0810185905290519192507fad5ee0e9faeb3a7b711d0ef8d4167ae829e32b1542cf5a02078a7d1436447689919081900360e00190a150505050505050565b611ad88061028f83390190565b60008060008060008060c0878903121561022a578182fd5b863561023581610276565b9550602087013561024581610276565b9450604087013561025581610276565b959894975094956060810135955060808101359460a0909101359350915050565b6001600160a01b038116811461028b57600080fd5b5056fe60806040523480156200001157600080fd5b5060405162001ad838038062001ad8833981016040819052620000349162000429565b600080546001600160a01b038089166001600160a01b0319928316179092556008805488841690831617905560098054928716929091169190911790556200007f8784848462000098565b6200008a8862000112565b5050505050505050620004f6565b600480546001600160a01b0319166001600160a01b03861690811790915560058490556006839055600782905560408051918252602082018590528101839052606081018290527f42e7cdfc32f7c2740870031255693e298f5e213dd1364a756660d4334c463d069060800160405180910390a150505050565b806001600160a01b031663ad5c46486040518163ffffffff1660e01b815260040160206040518083038186803b1580156200014c57600080fd5b505afa15801562000161573d6000803e3d6000fd5b505050506040513d601f19601f8201168201806040525081019062000187919062000403565b600360006101000a8154816001600160a01b0302191690836001600160a01b03160217905550806001600160a01b031663c45a01556040518163ffffffff1660e01b815260040160206040518083038186803b158015620001e757600080fd5b505afa158015620001fc573d6000803e3d6000fd5b505050506040513d601f19601f8201168201806040525081019062000222919062000403565b600180546001600160a01b0319166001600160a01b0392831690811790915560085460095460405163e6a4390560e01b815260009463e6a4390593620002729390821692911690600401620004c3565b60206040518083038186803b1580156200028b57600080fd5b505afa158015620002a0573d6000803e3d6000fd5b505050506040513d601f19601f82011682018060405250810190620002c6919062000403565b90506001600160a01b038116620003ff576001546008546009546040516364e329cb60e11b81526001600160a01b039384169363c9c6539693620003149390821692911690600401620004c3565b602060405180830381600087803b1580156200032f57600080fd5b505af115801562000344573d6000803e3d6000fd5b505050506040513d601f19601f820116820180604052508101906200036a919062000403565b5060015460085460095460405163e6a4390560e01b81526001600160a01b039384169363e6a4390593620003a89390821692911690600401620004c3565b60206040518083038186803b158015620003c157600080fd5b505afa158015620003d6573d6000803e3d6000fd5b505050506040513d601f19601f82011682018060405250810190620003fc919062000403565b90505b5050565b60006020828403121562000415578081fd5b81516200042281620004dd565b9392505050565b600080600080600080600080610100898b03121562000446578384fd5b88516200045381620004dd565b60208a01519098506200046681620004dd565b60408a01519097506200047981620004dd565b60608a01519096506200048c81620004dd565b60808a01519095506200049f81620004dd565b60a08a015160c08b015160e0909b0151999c989b5096999598909790945092505050565b6001600160a01b0392831681529116602082015260400190565b6001600160a01b0381168114620004f357600080fd5b50565b6115d280620005066000396000f3fe6080604052600436106100605760003560e01c8063241bec9f1461006557806378128609146100875780638da5cb5b1461009a578063caa52304146100d0578063d56b288914610167578063e1d9b8a01461017c578063f96678f21461019c575b600080fd5b34801561007157600080fd5b50610085610080366004611279565b610222565b005b610085610095366004611241565b61026f565b3480156100a657600080fd5b506000546100ba906001600160a01b031681565b6040516100c791906112ff565b60405180910390f35b3480156100dc57600080fd5b50600854600954600a54600b54600c54600d54600e54600f54601054601154601254604080516001600160a01b039c8d1681529a8c1660208c01528a01989098526060890196909652608088019490945260a087019290925260c08601529490941660e0840152610100830193909352610120820192909252610140810191909152610160016100c7565b34801561017357600080fd5b506100856104f8565b34801561018857600080fd5b50610085610197366004611140565b6107de565b3480156101a857600080fd5b50600854600954600154600254600354600454600554600654600754604080516001600160a01b039a8b168152988a1660208a015296891696880196909652938716606087015291861660808601529490941660a084015260c083019390935260e0820192909252610100810191909152610120016100c7565b6000546001600160a01b031633146102555760405162461bcd60e51b815260040161024c90611362565b60405180910390fd5b610265888888888888888861087e565b5050505050505050565b34610426576009546040516370a0823160e01b81526000916001600160a01b0316906370a08231906102a59030906004016112ff565b60206040518083038186803b1580156102bd57600080fd5b505afa1580156102d1573d6000803e3d6000fd5b505050506040513d601f19601f820116820180604052508101906102f59190611229565b6009546040516323b872dd60e01b8152336004820152306024820152604481018690529192506001600160a01b0316906323b872dd90606401602060405180830381600087803b15801561034857600080fd5b505af115801561035c573d6000803e3d6000fd5b505050506040513d601f19601f820116820180604052508101906103809190611202565b506009546040516370a0823160e01b81526000916001600160a01b0316906370a08231906103b29030906004016112ff565b60206040518083038186803b1580156103ca57600080fd5b505afa1580156103de573d6000803e3d6000fd5b505050506040513d601f19601f820116820180604052508101906104029190611229565b905060006104108383611526565b905061041e33878684610912565b505050505050565b6003546009546001600160a01b039081169116146104845760405162461bcd60e51b815260206004820152601b60248201527a31bab93932b731bc9034b9903737ba103730ba34bb329031b7b4b760291b604482015260640161024c565b60035460408051630d0e30db60e41b8152905134926001600160a01b03169163d0e30db091849160048082019260009290919082900301818588803b1580156104cc57600080fd5b505af11580156104e0573d6000803e3d6000fd5b50505050506104f133858484610912565b505b505050565b600b5442116105345760405162461bcd60e51b81526020600482015260086024820152673737ba1037bb32b960c11b604482015260640161024c565b6008546040516370a0823160e01b81526000916001600160a01b0316906370a08231906105659030906004016112ff565b60206040518083038186803b15801561057d57600080fd5b505afa158015610591573d6000803e3d6000fd5b505050506040513d601f19601f820116820180604052508101906105b59190611229565b6009546040516370a0823160e01b81529192506000916001600160a01b03909116906370a08231906105eb9030906004016112ff565b60206040518083038186803b15801561060357600080fd5b505afa158015610617573d6000803e3d6000fd5b505050506040513d601f19601f8201168201806040525081019061063b9190611229565b60085460025460405163a9059cbb60e01b81529293506001600160a01b039182169263a9059cbb926106739216908690600401611349565b602060405180830381600087803b15801561068d57600080fd5b505af11580156106a1573d6000803e3d6000fd5b505050506040513d601f19601f820116820180604052508101906106c59190611202565b5060095460025460405163a9059cbb60e01b81526001600160a01b039283169263a9059cbb926106fc929116908590600401611349565b602060405180830381600087803b15801561071657600080fd5b505af115801561072a573d6000803e3d6000fd5b505050506040513d601f19601f8201168201806040525081019061074e9190611202565b506002546040516335313c2160e11b81526001600160a01b0390911690636a6278429061077f9030906004016112ff565b602060405180830381600087803b15801561079957600080fd5b505af11580156107ad573d6000803e3d6000fd5b505050506040513d601f19601f820116820180604052508101906107d19190611229565b506107da610b7b565b5050565b6000546001600160a01b031633146108085760405162461bcd60e51b815260040161024c90611362565b60005b82518110156104f35761086c83828151811061083757634e487b7160e01b600052603260045260246000fd5b602002602001015183838151811061085f57634e487b7160e01b600052603260045260246000fd5b6020026020010151610cfb565b806108768161153d565b91505061080b565b600054600160a01b900460ff16156108cd5760405162461bcd60e51b815260206004820152601260248201527169734e6f74496e697469616c697a61626c6560701b604482015260640161024c565b6108d78888610d54565b6108e086610da4565b6108e985610de0565b6108f584848484610e59565b50506000805460ff60a01b1916600160a01b179055505050505050565b600a544210156109525760405162461bcd60e51b815260206004820152600b60248201526a1b9bdd081cdd185c9d195960aa1b604482015260640161024c565b600b5442111561098d5760405162461bcd60e51b815260040161024c9060208082526004908201526337bb32b960e11b604082015260600190565b83600d548410156109d05760405162461bcd60e51b815260206004820152600d60248201526c5f6d696e546f6b656e4275794160981b604482015260640161024c565b6008546040805163313ce56760e01b815290516000926001600160a01b03169163313ce567916004808301926020929190829003018186803b158015610a1557600080fd5b505afa158015610a29573d6000803e3d6000fd5b505050506040513d601f19601f82011682018060405250810190610a4d91906112de565b610a5b9060ff16600a61145d565b9050600081600c5487610a6e9190611507565b610a7891906113fa565b905083811115610ab75760405162461bcd60e51b815260206004820152600a602482015269756e646572707269636560b01b604482015260640161024c565b610ac18587610ed3565b610acb8787610fcf565b846001600160a01b03167fe3d4187f6ca4248660cc0ac8b8056515bac4a8132be2eca31d6d0cc170722a7e87604051610b0691815260200190565b60405180910390a250506001600160a01b0381166000908152601360209081526040808320546014909252909120541115610b745760405162461bcd60e51b815260206004820152600e60248201526d6f6e6c794e6f744f76657242757960901b604482015260640161024c565b5050505050565b6002546040516370a0823160e01b81526000916001600160a01b0316906370a0823190610bac9030906004016112ff565b60206040518083038186803b158015610bc457600080fd5b505afa158015610bd8573d6000803e3d6000fd5b505050506040513d601f19601f82011682018060405250810190610bfc9190611229565b6002546004805460405163095ea7b360e01b81529394506001600160a01b039283169363095ea7b393610c3493921691869101611349565b602060405180830381600087803b158015610c4e57600080fd5b505af1158015610c62573d6000803e3d6000fd5b505050506040513d601f19601f82011682018060405250810190610c869190611202565b506004805460005460025460055460065460075460405163eb5d5c4360e01b81526001600160a01b039687169763eb5d5c4397610ccd9781169616949392918a9101611313565b600060405180830381600087803b158015610ce757600080fd5b505af1158015610b74573d6000803e3d6000fd5b6001600160a01b03821660008181526013602052604090819020839055517fcf322a8fa984197474bc96692d9be3a976c2a2520d53bea5d8d713e6e7877b4190610d489084815260200190565b60405180910390a25050565b818111610d995760405162461bcd60e51b8152602060048201526013602482015272656e6441745f203e207374617274656441745f60681b604482015260640161024c565b600a91909155600b55565b600c8190556040518181527f84391573dc31ee16afb3c5a2d6d906918acde4227b720393ca2e6a3cbf893222906020015b60405180910390a150565b60008111610e245760405162461bcd60e51b815260206004820152601160248201527006d696e546f6b656e427579415f203e203607c1b604482015260640161024c565b600d8190556040518181527fe173b1ce90ad11919cfb4f9fcb9970ed6eaf8c55b2a896b5b803aa5406ef1de390602001610dd5565b600f80546001600160a01b0319166001600160a01b03861690811790915560108490556011839055601282905560408051918252602082018590528101839052606081018290527fa44f56947f4f760bc6fae453e4878eb4a68918362aa96213594f800d86b37ada9060800160405180910390a150505050565b600854600f5460405163095ea7b360e01b81526001600160a01b039283169263095ea7b392610f09929116908590600401611349565b602060405180830381600087803b158015610f2357600080fd5b505af1158015610f37573d6000803e3d6000fd5b505050506040513d601f19601f82011682018060405250810190610f5b9190611202565b50600f5460085460105460115460125460405163eb5d5c4360e01b81526001600160a01b039586169563eb5d5c4395610fa1958a95929091169390928990600401611313565b600060405180830381600087803b158015610fbb57600080fd5b505af115801561041e573d6000803e3d6000fd5b6001600160a01b03821660009081526014602052604081208054839290610ff79084906113e2565b9250508190555080600e600082825461101091906113e2565b90915550506008546040516370a0823160e01b81526001600160a01b03909116906370a08231906110459030906004016112ff565b60206040518083038186803b15801561105d57600080fd5b505afa158015611071573d6000803e3d6000fd5b505050506040513d601f19601f820116820180604052508101906110959190611229565b600e5411156107da5760405162461bcd60e51b81526020600482015260086024820152671cdbdb19081bdd5d60c21b604482015260640161024c565b600082601f8301126110e1578081fd5b813560206110f66110f1836113bf565b61138f565b80838252828201915082860187848660051b8901011115611115578586fd5b855b8581101561113357813584529284019290840190600101611117565b5090979650505050505050565b60008060408385031215611152578182fd5b82356001600160401b0380821115611168578384fd5b818501915085601f83011261117b578384fd5b8135602061118b6110f1836113bf565b8083825282820191508286018a848660051b89010111156111aa578889fd5b8896505b848710156111d55780356111c181611584565b8352600196909601959183019183016111ae565b50965050860135925050808211156111eb578283fd5b506111f8858286016110d1565b9150509250929050565b600060208284031215611213578081fd5b81518015158114611222578182fd5b9392505050565b60006020828403121561123a578081fd5b5051919050565b600080600060608486031215611255578081fd5b8335925060208401359150604084013561126e81611584565b809150509250925092565b600080600080600080600080610100898b031215611295578384fd5b8835975060208901359650604089013595506060890135945060808901356112bc81611584565b979a969950949793969560a0850135955060c08501359460e001359350915050565b6000602082840312156112ef578081fd5b815160ff81168114611222578182fd5b6001600160a01b0391909116815260200190565b6001600160a01b03968716815294909516602085015260408401929092526060830152608082015260a081019190915260c00190565b6001600160a01b03929092168252602082015260400190565b6020808252601390820152724f776e61626c653a206f6e6c794f776e65722160681b604082015260600190565b604051601f8201601f191681016001600160401b03811182821017156113b7576113b761156e565b604052919050565b60006001600160401b038211156113d8576113d861156e565b5060051b60200190565b600082198211156113f5576113f5611558565b500190565b60008261141557634e487b7160e01b81526012600452602481fd5b500490565b600181815b8085111561145557816000190482111561143b5761143b611558565b8085161561144857918102915b93841c939080029061141f565b509250929050565b6000611222838360008261147357506001611501565b8161148057506000611501565b816001811461149657600281146114a0576114bc565b6001915050611501565b60ff8411156114b1576114b1611558565b50506001821b611501565b5060208310610133831016604e8410600b84101617156114df575081810a611501565b6114e9838361141a565b80600019048211156114fd576114fd611558565b0290505b92915050565b600081600019048311821515161561152157611521611558565b500290565b60008282101561153857611538611558565b500390565b600060001982141561155157611551611558565b5060010190565b634e487b7160e01b600052601160045260246000fd5b634e487b7160e01b600052604160045260246000fd5b6001600160a01b038116811461159957600080fd5b5056fea26469706673582212201ddcd8aeaf07dbaa3c71b717fc996387c4839e57b9ca8fd0c452113f5493dafe64736f6c63430008040033a264697066735822122014dd21580b4184bce03a689f57dcada9a91df6f772b95a4162d9c6ca72b9df9564736f6c63430008040033",
  "linkReferences": {},
  "deployedLinkReferences": {}
}