{
  "_format": "hh-sol-artifact-1",
  "contractName": "PresaleFactory",
  "sourceName": "contracts/PresaleFactory.sol",
  "abi": [
    {
      "inputs": [
        {
          "internalType": "contract IUniswapV2Router",
          "name": "router_",
          "type": "address"
        },
        {
          "internalType": "contract ITokenLocker",
          "name": "locker_",
          "type": "address"
        }
      ],
      "stateMutability": "nonpayable",
      "type": "constructor"
    },
    {
      "anonymous": false,
      "inputs": [
        {
          "indexed": false,
          "internalType": "contract Presale",
          "name": "presale",
          "type": "address"
        },
        {
          "indexed": false,
          "internalType": "address",
          "name": "owner",
          "type": "address"
        },
        {
          "indexed": false,
          "internalType": "contract IERC20",
          "name": "token",
          "type": "address"
        },
        {
          "indexed": false,
          "internalType": "contract IERC20",
          "name": "currency",
          "type": "address"
        },
        {
          "indexed": false,
          "internalType": "uint256",
          "name": "liqClaimStartedAt",
          "type": "uint256"
        },
        {
          "indexed": false,
          "internalType": "uint256",
          "name": "liqClaimPeriod",
          "type": "uint256"
        },
        {
          "indexed": false,
          "internalType": "uint256",
          "name": "liqLockDuration",
          "type": "uint256"
        }
      ],
      "name": "CreatePresale",
      "type": "event"
    },
    {
      "inputs": [
        {
          "internalType": "contract IERC20",
          "name": "token_",
          "type": "address"
        },
        {
          "internalType": "contract IERC20",
          "name": "currency_",
          "type": "address"
        },
        {
          "internalType": "uint256",
          "name": "liqClaimStartedAt_",
          "type": "uint256"
        },
        {
          "internalType": "uint256",
          "name": "liqClaimPeriod_",
          "type": "uint256"
        },
        {
          "internalType": "uint256",
          "name": "liqLockDuration_",
          "type": "uint256"
        }
      ],
      "name": "createPresale",
      "outputs": [],
      "stateMutability": "nonpayable",
      "type": "function"
    },
    {
      "inputs": [],
      "name": "locker",
      "outputs": [
        {
          "internalType": "contract ITokenLocker",
          "name": "",
          "type": "address"
        }
      ],
      "stateMutability": "view",
      "type": "function"
    },
    {
      "inputs": [],
      "name": "router",
      "outputs": [
        {
          "internalType": "contract IUniswapV2Router",
          "name": "",
          "type": "address"
        }
      ],
      "stateMutability": "view",
      "type": "function"
    }
  ],
  "bytecode": "0x60c060405234801561001057600080fd5b50604051611fca380380611fca83398101604081905261002f9161004d565b6001600160601b0319606092831b8116608052911b1660a05261009e565b6000806040838503121561005f578182fd5b825161006a81610086565b602084015190925061007b81610086565b809150509250929050565b6001600160a01b038116811461009b57600080fd5b50565b60805160601c60a05160601c611ef56100d5600039600081816048015261018b015260008181609b015261016a0152611ef56000f3fe608060405234801561001057600080fd5b50600436106100415760003560e01c8063d7b96d4e14610046578063d85a6de814610084578063f887ea4014610099575b600080fd5b7f00000000000000000000000000000000000000000000000000000000000000005b6040516001600160a01b03909116815260200160405180910390f35b6100976100923660046102e6565b6100bf565b005b7f0000000000000000000000000000000000000000000000000000000000000000610068565b6040516330413db960e21b81526001600160a01b038616600482015233602482015273__$bbcd0496f91fece7384154ae7a8b37a5eb$__9063c104f6e49060440160206040518083038186803b15801561011857600080fd5b505af415801561012c573d6000803e3d6000fd5b505050506040513d601f19601f8201168201806040525081019061015091906102bf565b5061015f338686868686610166565b5050505050565b60007f00000000000000000000000000000000000000000000000000000000000000007f00000000000000000000000000000000000000000000000000000000000000008888888888886040516101bc90610296565b6001600160a01b0398891681529688166020880152948716604087015292861660608601529416608084015260a083019390935260c082019290925260e081019190915261010001604051809103906000f080158015610220573d6000803e3d6000fd5b50604080516001600160a01b0383811682528a8116602083015289811682840152881660608201526080810187905260a0810186905260c0810185905290519192507fad5ee0e9faeb3a7b711d0ef8d4167ae829e32b1542cf5a02078a7d1436447689919081900360e00190a150505050505050565b611b8d8061033383390190565b80356001600160a01b03811681146102ba57600080fd5b919050565b6000602082840312156102d0578081fd5b815180151581146102df578182fd5b9392505050565b600080600080600060a086880312156102fd578081fd5b610306866102a3565b9450610314602087016102a3565b9497949650505050604083013592606081013592608090910135915056fe60806040523480156200001157600080fd5b5060405162001b8d38038062001b8d833981016040819052620000349162000440565b600080546001600160a01b038089166001600160a01b0319928316179092556008805488841690831617905560098054928716929091169190911790556200007f8784848462000098565b6200008a8862000112565b5050505050505050620004f3565b600480546001600160a01b0319166001600160a01b03861690811790915560058490556006839055600782905560408051918252602082018590528101839052606081018290527f42e7cdfc32f7c2740870031255693e298f5e213dd1364a756660d4334c463d069060800160405180910390a150505050565b806001600160a01b031663ad5c46486040518163ffffffff1660e01b815260040160206040518083038186803b1580156200014c57600080fd5b505afa15801562000161573d6000803e3d6000fd5b505050506040513d601f19601f820116820180604052508101906200018791906200041a565b600360006101000a8154816001600160a01b0302191690836001600160a01b03160217905550806001600160a01b031663c45a01556040518163ffffffff1660e01b815260040160206040518083038186803b158015620001e757600080fd5b505afa158015620001fc573d6000803e3d6000fd5b505050506040513d601f19601f820116820180604052508101906200022291906200041a565b600180546001600160a01b0319166001600160a01b0392831690811790915560085460095460405163e6a4390560e01b81529184166004830152909216602483015260009163e6a439059060440160206040518083038186803b1580156200028957600080fd5b505afa1580156200029e573d6000803e3d6000fd5b505050506040513d601f19601f82011682018060405250810190620002c491906200041a565b90506001600160a01b038116620003f7576001546008546009546040516364e329cb60e11b81526001600160a01b039283166004820152908216602482015291169063c9c6539690604401602060405180830381600087803b1580156200032a57600080fd5b505af11580156200033f573d6000803e3d6000fd5b505050506040513d601f19601f820116820180604052508101906200036591906200041a565b5060015460085460095460405163e6a4390560e01b81526001600160a01b039283166004820152908216602482015291169063e6a439059060440160206040518083038186803b158015620003b957600080fd5b505afa158015620003ce573d6000803e3d6000fd5b505050506040513d601f19601f82011682018060405250810190620003f491906200041a565b90505b600280546001600160a01b0319166001600160a01b039290921691909117905550565b6000602082840312156200042c578081fd5b81516200043981620004da565b9392505050565b600080600080600080600080610100898b0312156200045d578384fd5b88516200046a81620004da565b60208a01519098506200047d81620004da565b60408a01519097506200049081620004da565b60608a0151909650620004a381620004da565b60808a0151909550620004b681620004da565b60a08a015160c08b015160e0909b0151999c989b5096999598909790945092505050565b6001600160a01b0381168114620004f057600080fd5b50565b61168a80620005036000396000f3fe6080604052600436106100745760003560e01c8063caa523041161004e578063caa52304146101c0578063d56b288914610257578063e1d9b8a01461026c578063f96678f21461028c57600080fd5b8063241bec9f1461014e57806378128609146101705780638da5cb5b1461018357600080fd5b36610149576003546009546001600160a01b039081169116146100de5760405162461bcd60e51b815260206004820152601b60248201527f63757272656e6379206973206e6f74206e617469766520636f696e000000000060448201526064015b60405180910390fd5b600360009054906101000a90046001600160a01b03166001600160a01b031663d0e30db0346040518263ffffffff1660e01b81526004016000604051808303818588803b15801561012e57600080fd5b505af1158015610142573d6000803e3d6000fd5b5050505050005b600080fd5b34801561015a57600080fd5b5061016e6101693660046113bf565b610312565b005b61016e61017e366004611387565b61037c565b34801561018f57600080fd5b506000546101a3906001600160a01b031681565b6040516001600160a01b0390911681526020015b60405180910390f35b3480156101cc57600080fd5b50600854600954600a54600b54600c54600d54600e54600f54601054601154601254604080516001600160a01b039c8d1681529a8c1660208c01528a01989098526060890196909652608088019490945260a087019290925260c08601529490941660e0840152610100830193909352610120820192909252610140810191909152610160016101b7565b34801561026357600080fd5b5061016e6105fd565b34801561027857600080fd5b5061016e610287366004611285565b6108d4565b34801561029857600080fd5b50600854600954600154600254600354600454600554600654600754604080516001600160a01b039a8b168152988a1660208a015296891696880196909652938716606087015291861660808601529490941660a084015260c083019390935260e0820192909252610100810191909152610120016101b7565b6000546001600160a01b031633146103625760405162461bcd60e51b81526020600482015260136024820152724f776e61626c653a206f6e6c794f776e65722160681b60448201526064016100d5565b610372888888888888888861099a565b5050505050505050565b34610529576009546040516370a0823160e01b81523060048201526000916001600160a01b0316906370a082319060240160206040518083038186803b1580156103c557600080fd5b505afa1580156103d9573d6000803e3d6000fd5b505050506040513d601f19601f820116820180604052508101906103fd919061136f565b6009546040516323b872dd60e01b8152336004820152306024820152604481018690529192506001600160a01b0316906323b872dd90606401602060405180830381600087803b15801561045057600080fd5b505af1158015610464573d6000803e3d6000fd5b505050506040513d601f19601f820116820180604052508101906104889190611348565b506009546040516370a0823160e01b81523060048201526000916001600160a01b0316906370a082319060240160206040518083038186803b1580156104cd57600080fd5b505afa1580156104e1573d6000803e3d6000fd5b505050506040513d601f19601f82011682018060405250810190610505919061136f565b9050600061051383836115de565b905061052133878684610a2e565b505050505050565b6003546009546001600160a01b039081169116146105895760405162461bcd60e51b815260206004820152601b60248201527f63757272656e6379206973206e6f74206e617469766520636f696e000000000060448201526064016100d5565b60035460408051630d0e30db60e41b8152905134926001600160a01b03169163d0e30db091849160048082019260009290919082900301818588803b1580156105d157600080fd5b505af11580156105e5573d6000803e3d6000fd5b50505050506105f633858484610a2e565b505b505050565b600b5442116106395760405162461bcd60e51b81526020600482015260086024820152673737ba1037bb32b960c11b60448201526064016100d5565b6008546040516370a0823160e01b81523060048201526000916001600160a01b0316906370a082319060240160206040518083038186803b15801561067d57600080fd5b505afa158015610691573d6000803e3d6000fd5b505050506040513d601f19601f820116820180604052508101906106b5919061136f565b6009546040516370a0823160e01b81523060048201529192506000916001600160a01b03909116906370a082319060240160206040518083038186803b1580156106fe57600080fd5b505afa158015610712573d6000803e3d6000fd5b505050506040513d601f19601f82011682018060405250810190610736919061136f565b60085460025460405163a9059cbb60e01b81526001600160a01b03918216600482015260248101869052929350169063a9059cbb90604401602060405180830381600087803b15801561078857600080fd5b505af115801561079c573d6000803e3d6000fd5b505050506040513d601f19601f820116820180604052508101906107c09190611348565b5060095460025460405163a9059cbb60e01b81526001600160a01b0391821660048201526024810184905291169063a9059cbb90604401602060405180830381600087803b15801561081157600080fd5b505af1158015610825573d6000803e3d6000fd5b505050506040513d601f19601f820116820180604052508101906108499190611348565b506002546040516335313c2160e11b81523060048201526001600160a01b0390911690636a62784290602401602060405180830381600087803b15801561088f57600080fd5b505af11580156108a3573d6000803e3d6000fd5b505050506040513d601f19601f820116820180604052508101906108c7919061136f565b506108d0610c97565b5050565b6000546001600160a01b031633146109245760405162461bcd60e51b81526020600482015260136024820152724f776e61626c653a206f6e6c794f776e65722160681b60448201526064016100d5565b60005b82518110156105f85761098883828151811061095357634e487b7160e01b600052603260045260246000fd5b602002602001015183838151811061097b57634e487b7160e01b600052603260045260246000fd5b6020026020010151610e2e565b80610992816115f5565b915050610927565b600054600160a01b900460ff16156109e95760405162461bcd60e51b815260206004820152601260248201527169734e6f74496e697469616c697a61626c6560701b60448201526064016100d5565b6109f38888610e87565b6109fc86610ed7565b610a0585610f13565b610a1184848484610f8c565b50506000805460ff60a01b1916600160a01b179055505050505050565b600a54421015610a6e5760405162461bcd60e51b815260206004820152600b60248201526a1b9bdd081cdd185c9d195960aa1b60448201526064016100d5565b600b54421115610aa95760405162461bcd60e51b81526004016100d59060208082526004908201526337bb32b960e11b604082015260600190565b83600d54841015610aec5760405162461bcd60e51b815260206004820152600d60248201526c5f6d696e546f6b656e4275794160981b60448201526064016100d5565b6008546040805163313ce56760e01b815290516000926001600160a01b03169163313ce567916004808301926020929190829003018186803b158015610b3157600080fd5b505afa158015610b45573d6000803e3d6000fd5b505050506040513d601f19601f82011682018060405250810190610b699190611424565b610b779060ff16600a611515565b9050600081600c5487610b8a91906115bf565b610b9491906114b2565b905083811115610bd35760405162461bcd60e51b815260206004820152600a602482015269756e646572707269636560b01b60448201526064016100d5565b610bdd8587611006565b610be78787611119565b846001600160a01b03167fe3d4187f6ca4248660cc0ac8b8056515bac4a8132be2eca31d6d0cc170722a7e87604051610c2291815260200190565b60405180910390a250506001600160a01b0381166000908152601360209081526040808320546014909252909120541115610c905760405162461bcd60e51b815260206004820152600e60248201526d6f6e6c794e6f744f76657242757960901b60448201526064016100d5565b5050505050565b6002546040516370a0823160e01b81523060048201526000916001600160a01b0316906370a082319060240160206040518083038186803b158015610cdb57600080fd5b505afa158015610cef573d6000803e3d6000fd5b505050506040513d601f19601f82011682018060405250810190610d13919061136f565b6002546004805460405163095ea7b360e01b81526001600160a01b03918216928101929092526024820184905292935091169063095ea7b390604401602060405180830381600087803b158015610d6957600080fd5b505af1158015610d7d573d6000803e3d6000fd5b505050506040513d601f19601f82011682018060405250810190610da19190611348565b506004805460005460025460055460065460075460405163eb5d5c4360e01b81526001600160a01b0395861697810197909752928416602487015260448601919091526064850152608484015260a48301849052169063eb5d5c439060c401600060405180830381600087803b158015610e1a57600080fd5b505af1158015610c90573d6000803e3d6000fd5b6001600160a01b03821660008181526013602052604090819020839055517fcf322a8fa984197474bc96692d9be3a976c2a2520d53bea5d8d713e6e7877b4190610e7b9084815260200190565b60405180910390a25050565b818111610ecc5760405162461bcd60e51b8152602060048201526013602482015272656e6441745f203e207374617274656441745f60681b60448201526064016100d5565b600a91909155600b55565b600c8190556040518181527f84391573dc31ee16afb3c5a2d6d906918acde4227b720393ca2e6a3cbf893222906020015b60405180910390a150565b60008111610f575760405162461bcd60e51b815260206004820152601160248201527006d696e546f6b656e427579415f203e203607c1b60448201526064016100d5565b600d8190556040518181527fe173b1ce90ad11919cfb4f9fcb9970ed6eaf8c55b2a896b5b803aa5406ef1de390602001610f08565b600f80546001600160a01b0319166001600160a01b03861690811790915560108490556011839055601282905560408051918252602082018590528101839052606081018290527fa44f56947f4f760bc6fae453e4878eb4a68918362aa96213594f800d86b37ada9060800160405180910390a150505050565b600854600f5460405163095ea7b360e01b81526001600160a01b0391821660048201526024810184905291169063095ea7b390604401602060405180830381600087803b15801561105657600080fd5b505af115801561106a573d6000803e3d6000fd5b505050506040513d601f19601f8201168201806040525081019061108e9190611348565b50600f5460085460105460115460125460405163eb5d5c4360e01b81526001600160a01b038881166004830152948516602482015260448101939093526064830191909152608482015260a4810184905291169063eb5d5c439060c401600060405180830381600087803b15801561110557600080fd5b505af1158015610521573d6000803e3d6000fd5b6001600160a01b0382166000908152601460205260408120805483929061114190849061149a565b9250508190555080600e600082825461115a919061149a565b90915550506008546040516370a0823160e01b81523060048201526001600160a01b03909116906370a082319060240160206040518083038186803b1580156111a257600080fd5b505afa1580156111b6573d6000803e3d6000fd5b505050506040513d601f19601f820116820180604052508101906111da919061136f565b600e5411156108d05760405162461bcd60e51b81526020600482015260086024820152671cdbdb19081bdd5d60c21b60448201526064016100d5565b600082601f830112611226578081fd5b8135602061123b61123683611476565b611445565b80838252828201915082860187848660051b890101111561125a578586fd5b855b858110156112785781358452928401929084019060010161125c565b5090979650505050505050565b60008060408385031215611297578182fd5b823567ffffffffffffffff808211156112ae578384fd5b818501915085601f8301126112c1578384fd5b813560206112d161123683611476565b8083825282820191508286018a848660051b89010111156112f0578889fd5b8896505b8487101561131b5780356113078161163c565b8352600196909601959183019183016112f4565b5096505086013592505080821115611331578283fd5b5061133e85828601611216565b9150509250929050565b600060208284031215611359578081fd5b81518015158114611368578182fd5b9392505050565b600060208284031215611380578081fd5b5051919050565b60008060006060848603121561139b578081fd5b833592506020840135915060408401356113b48161163c565b809150509250925092565b600080600080600080600080610100898b0312156113db578384fd5b8835975060208901359650604089013595506060890135945060808901356114028161163c565b979a969950949793969560a0850135955060c08501359460e001359350915050565b600060208284031215611435578081fd5b815160ff81168114611368578182fd5b604051601f8201601f1916810167ffffffffffffffff8111828210171561146e5761146e611626565b604052919050565b600067ffffffffffffffff82111561149057611490611626565b5060051b60200190565b600082198211156114ad576114ad611610565b500190565b6000826114cd57634e487b7160e01b81526012600452602481fd5b500490565b600181815b8085111561150d5781600019048211156114f3576114f3611610565b8085161561150057918102915b93841c93908002906114d7565b509250929050565b6000611368838360008261152b575060016115b9565b81611538575060006115b9565b816001811461154e576002811461155857611574565b60019150506115b9565b60ff84111561156957611569611610565b50506001821b6115b9565b5060208310610133831016604e8410600b8410161715611597575081810a6115b9565b6115a183836114d2565b80600019048211156115b5576115b5611610565b0290505b92915050565b60008160001904831182151516156115d9576115d9611610565b500290565b6000828210156115f0576115f0611610565b500390565b600060001982141561160957611609611610565b5060010190565b634e487b7160e01b600052601160045260246000fd5b634e487b7160e01b600052604160045260246000fd5b6001600160a01b038116811461165157600080fd5b5056fea2646970667358221220a28a034a1071f42effc327a9c30241d41f833fde1c379bb25a0adca9a08c455664736f6c63430008040033a26469706673582212205291201f3cae98e51884d9d1c0068ad3cf61f36efb81b85a9cec62c70d88ba5164736f6c63430008040033",
  "linkReferences": {
    "contracts/libraries/LTokenOwner.sol": {
      "LTokenOwner": [
        {
          "length": 20,
          "start": 440
        }
      ]
    }
  },
  "deployedLinkReferences": {
    "contracts/libraries/LTokenOwner.sol": {
      "LTokenOwner": [
        {
          "length": 20,
          "start": 227
        }
      ]
    }
  }
}