{
  "_format": "hh-sol-artifact-1",
  "contractName": "Presale",
  "sourceName": "contracts/Presale.sol",
  "abi": [
    {
      "inputs": [
        {
          "internalType": "contract IUniswapV2Router",
          "name": "router_",
          "type": "address"
        },
        {
          "internalType": "contract ITokenLocker",
          "name": "liqLocker_",
          "type": "address"
        },
        {
          "internalType": "address",
          "name": "owner_",
          "type": "address"
        },
        {
          "internalType": "contract IERC20",
          "name": "token_",
          "type": "address"
        },
        {
          "internalType": "contract IERC20",
          "name": "currency_",
          "type": "address"
        },
        {
          "internalType": "uint256",
          "name": "liqClaimStartedAt_",
          "type": "uint256"
        },
        {
          "internalType": "uint256",
          "name": "liqClaimPeriod_",
          "type": "uint256"
        },
        {
          "internalType": "uint256",
          "name": "liqLockDuration_",
          "type": "uint256"
        }
      ],
      "stateMutability": "nonpayable",
      "type": "constructor"
    },
    {
      "anonymous": false,
      "inputs": [
        {
          "indexed": true,
          "internalType": "address",
          "name": "invester",
          "type": "address"
        },
        {
          "indexed": false,
          "internalType": "uint256",
          "name": "tokenA",
          "type": "uint256"
        }
      ],
      "name": "Buy",
      "type": "event"
    },
    {
      "anonymous": false,
      "inputs": [
        {
          "indexed": false,
          "internalType": "contract ITokenLocker",
          "name": "buyLocker",
          "type": "address"
        },
        {
          "indexed": false,
          "internalType": "uint256",
          "name": "buyClaimStartedAt",
          "type": "uint256"
        },
        {
          "indexed": false,
          "internalType": "uint256",
          "name": "buyClaimPeriod",
          "type": "uint256"
        },
        {
          "indexed": false,
          "internalType": "uint256",
          "name": "buyLockDuration",
          "type": "uint256"
        }
      ],
      "name": "ConfigBuyLock",
      "type": "event"
    },
    {
      "anonymous": false,
      "inputs": [
        {
          "indexed": false,
          "internalType": "contract ITokenLocker",
          "name": "liqLocker",
          "type": "address"
        },
        {
          "indexed": false,
          "internalType": "uint256",
          "name": "liqClaimStartedAt",
          "type": "uint256"
        },
        {
          "indexed": false,
          "internalType": "uint256",
          "name": "liqClaimPeriod",
          "type": "uint256"
        },
        {
          "indexed": false,
          "internalType": "uint256",
          "name": "liqLockDuration",
          "type": "uint256"
        }
      ],
      "name": "ConfigLiqLock",
      "type": "event"
    },
    {
      "anonymous": false,
      "inputs": [
        {
          "indexed": true,
          "internalType": "address",
          "name": "invester",
          "type": "address"
        },
        {
          "indexed": false,
          "internalType": "uint256",
          "name": "amount",
          "type": "uint256"
        }
      ],
      "name": "SetMaxBuyOf",
      "type": "event"
    },
    {
      "anonymous": false,
      "inputs": [
        {
          "indexed": false,
          "internalType": "uint256",
          "name": "minTokenBuyA",
          "type": "uint256"
        }
      ],
      "name": "SetMinTokenBuyA",
      "type": "event"
    },
    {
      "anonymous": false,
      "inputs": [
        {
          "indexed": false,
          "internalType": "uint256",
          "name": "price",
          "type": "uint256"
        }
      ],
      "name": "SetTokenPrice",
      "type": "event"
    },
    {
      "inputs": [
        {
          "internalType": "uint256",
          "name": "tokenA_",
          "type": "uint256"
        },
        {
          "internalType": "uint256",
          "name": "currencyA_",
          "type": "uint256"
        },
        {
          "internalType": "address",
          "name": "receiver",
          "type": "address"
        }
      ],
      "name": "buyFor",
      "outputs": [],
      "stateMutability": "payable",
      "type": "function"
    },
    {
      "inputs": [
        {
          "internalType": "uint256",
          "name": "_amount",
          "type": "uint256"
        }
      ],
      "name": "depositETH",
      "outputs": [],
      "stateMutability": "payable",
      "type": "function"
    },
    {
      "inputs": [],
      "name": "finish",
      "outputs": [],
      "stateMutability": "nonpayable",
      "type": "function"
    },
    {
      "inputs": [],
      "name": "getBuyDetails",
      "outputs": [
        {
          "internalType": "contract IERC20",
          "name": "",
          "type": "address"
        },
        {
          "internalType": "contract IERC20",
          "name": "",
          "type": "address"
        },
        {
          "internalType": "uint256",
          "name": "",
          "type": "uint256"
        },
        {
          "internalType": "uint256",
          "name": "",
          "type": "uint256"
        },
        {
          "internalType": "uint256",
          "name": "",
          "type": "uint256"
        },
        {
          "internalType": "uint256",
          "name": "",
          "type": "uint256"
        },
        {
          "internalType": "uint256",
          "name": "",
          "type": "uint256"
        },
        {
          "internalType": "contract ITokenLocker",
          "name": "",
          "type": "address"
        },
        {
          "internalType": "uint256",
          "name": "",
          "type": "uint256"
        },
        {
          "internalType": "uint256",
          "name": "",
          "type": "uint256"
        },
        {
          "internalType": "uint256",
          "name": "",
          "type": "uint256"
        }
      ],
      "stateMutability": "view",
      "type": "function"
    },
    {
      "inputs": [],
      "name": "getLiqDetails",
      "outputs": [
        {
          "internalType": "contract IERC20",
          "name": "",
          "type": "address"
        },
        {
          "internalType": "contract IERC20",
          "name": "",
          "type": "address"
        },
        {
          "internalType": "contract IUniswapV2Factory",
          "name": "",
          "type": "address"
        },
        {
          "internalType": "contract IUniswapV2Pair",
          "name": "",
          "type": "address"
        },
        {
          "internalType": "contract IWETH",
          "name": "",
          "type": "address"
        },
        {
          "internalType": "contract ITokenLocker",
          "name": "",
          "type": "address"
        },
        {
          "internalType": "uint256",
          "name": "",
          "type": "uint256"
        },
        {
          "internalType": "uint256",
          "name": "",
          "type": "uint256"
        },
        {
          "internalType": "uint256",
          "name": "",
          "type": "uint256"
        }
      ],
      "stateMutability": "view",
      "type": "function"
    },
    {
      "inputs": [
        {
          "internalType": "uint256",
          "name": "startedAt_",
          "type": "uint256"
        },
        {
          "internalType": "uint256",
          "name": "endAt_",
          "type": "uint256"
        },
        {
          "internalType": "uint256",
          "name": "tokenPrice_",
          "type": "uint256"
        },
        {
          "internalType": "uint256",
          "name": "minTokenBuyA_",
          "type": "uint256"
        },
        {
          "internalType": "contract ITokenLocker",
          "name": "buyLocker_",
          "type": "address"
        },
        {
          "internalType": "uint256",
          "name": "buyClaimStartedAt_",
          "type": "uint256"
        },
        {
          "internalType": "uint256",
          "name": "buyClaimPeriod_",
          "type": "uint256"
        },
        {
          "internalType": "uint256",
          "name": "buyLockDuration_",
          "type": "uint256"
        }
      ],
      "name": "initPresale",
      "outputs": [],
      "stateMutability": "nonpayable",
      "type": "function"
    },
    {
      "inputs": [],
      "name": "owner",
      "outputs": [
        {
          "internalType": "address",
          "name": "",
          "type": "address"
        }
      ],
      "stateMutability": "view",
      "type": "function"
    },
    {
      "inputs": [
        {
          "internalType": "address[]",
          "name": "investers",
          "type": "address[]"
        },
        {
          "internalType": "uint256[]",
          "name": "amounts",
          "type": "uint256[]"
        }
      ],
      "name": "setMultipleMaxBuyOf",
      "outputs": [],
      "stateMutability": "nonpayable",
      "type": "function"
    }
  ],
  "bytecode": "0x60806040523480156200001157600080fd5b5060405162001b5b38038062001b5b833981016040819052620000349162000429565b600080546001600160a01b038089166001600160a01b0319928316179092556008805488841690831617905560098054928716929091169190911790556200007f8784848462000098565b6200008a8862000112565b5050505050505050620004f6565b600480546001600160a01b0319166001600160a01b03861690811790915560058490556006839055600782905560408051918252602082018590528101839052606081018290527f42e7cdfc32f7c2740870031255693e298f5e213dd1364a756660d4334c463d069060800160405180910390a150505050565b806001600160a01b031663ad5c46486040518163ffffffff1660e01b815260040160206040518083038186803b1580156200014c57600080fd5b505afa15801562000161573d6000803e3d6000fd5b505050506040513d601f19601f8201168201806040525081019062000187919062000403565b600360006101000a8154816001600160a01b0302191690836001600160a01b03160217905550806001600160a01b031663c45a01556040518163ffffffff1660e01b815260040160206040518083038186803b158015620001e757600080fd5b505afa158015620001fc573d6000803e3d6000fd5b505050506040513d601f19601f8201168201806040525081019062000222919062000403565b600180546001600160a01b0319166001600160a01b0392831690811790915560085460095460405163e6a4390560e01b815260009463e6a4390593620002729390821692911690600401620004c3565b60206040518083038186803b1580156200028b57600080fd5b505afa158015620002a0573d6000803e3d6000fd5b505050506040513d601f19601f82011682018060405250810190620002c6919062000403565b90506001600160a01b038116620003ff576001546008546009546040516364e329cb60e11b81526001600160a01b039384169363c9c6539693620003149390821692911690600401620004c3565b602060405180830381600087803b1580156200032f57600080fd5b505af115801562000344573d6000803e3d6000fd5b505050506040513d601f19601f820116820180604052508101906200036a919062000403565b5060015460085460095460405163e6a4390560e01b81526001600160a01b039384169363e6a4390593620003a89390821692911690600401620004c3565b60206040518083038186803b158015620003c157600080fd5b505afa158015620003d6573d6000803e3d6000fd5b505050506040513d601f19601f82011682018060405250810190620003fc919062000403565b90505b5050565b60006020828403121562000415578081fd5b81516200042281620004dd565b9392505050565b600080600080600080600080610100898b03121562000446578384fd5b88516200045381620004dd565b60208a01519098506200046681620004dd565b60408a01519097506200047981620004dd565b60608a01519096506200048c81620004dd565b60808a01519095506200049f81620004dd565b60a08a015160c08b015160e0909b0151999c989b5096999598909790945092505050565b6001600160a01b0392831681529116602082015260400190565b6001600160a01b0381168114620004f357600080fd5b50565b61165580620005066000396000f3fe60806040526004361061006b5760003560e01c8063241bec9f146100705780635358fbda1461009257806378128609146100a55780638da5cb5b146100b8578063caa52304146100ee578063d56b288914610185578063e1d9b8a01461019a578063f96678f2146101ba575b600080fd5b34801561007c57600080fd5b5061009061008b3660046112ff565b610240565b005b6100906100a0366004611297565b61028d565b6100906100b33660046112c7565b6102dd565b3480156100c457600080fd5b506000546100d8906001600160a01b031681565b6040516100e59190611385565b60405180910390f35b3480156100fa57600080fd5b50600854600954600a54600b54600c54600d54600e54600f54601054601154601254604080516001600160a01b039c8d1681529a8c1660208c01528a01989098526060890196909652608088019490945260a087019290925260c08601529490941660e0840152610100830193909352610120820192909252610140810191909152610160016100e5565b34801561019157600080fd5b50610090610566565b3480156101a657600080fd5b506100906101b53660046111ae565b61084c565b3480156101c657600080fd5b50600854600954600154600254600354600454600554600654600754604080516001600160a01b039a8b168152988a1660208a015296891696880196909652938716606087015291861660808601529490941660a084015260c083019390935260e0820192909252610100810191909152610120016100e5565b6000546001600160a01b031633146102735760405162461bcd60e51b815260040161026a906113e8565b60405180910390fd5b61028388888888888888886108ec565b5050505050505050565b80341015801561029d5750600081115b6102da5760405162461bcd60e51b815260206004820152600e60248201526d1a5b9d985b1a5908185b5bdd5b9d60921b604482015260640161026a565b50565b34610494576009546040516370a0823160e01b81526000916001600160a01b0316906370a0823190610313903090600401611385565b60206040518083038186803b15801561032b57600080fd5b505afa15801561033f573d6000803e3d6000fd5b505050506040513d601f19601f8201168201806040525081019061036391906112af565b6009546040516323b872dd60e01b8152336004820152306024820152604481018690529192506001600160a01b0316906323b872dd90606401602060405180830381600087803b1580156103b657600080fd5b505af11580156103ca573d6000803e3d6000fd5b505050506040513d601f19601f820116820180604052508101906103ee9190611270565b506009546040516370a0823160e01b81526000916001600160a01b0316906370a0823190610420903090600401611385565b60206040518083038186803b15801561043857600080fd5b505afa15801561044c573d6000803e3d6000fd5b505050506040513d601f19601f8201168201806040525081019061047091906112af565b9050600061047e83836115ac565b905061048c33878684610980565b505050505050565b6003546009546001600160a01b039081169116146104f25760405162461bcd60e51b815260206004820152601b60248201527a31bab93932b731bc9034b9903737ba103730ba34bb329031b7b4b760291b604482015260640161026a565b60035460408051630d0e30db60e41b8152905134926001600160a01b03169163d0e30db091849160048082019260009290919082900301818588803b15801561053a57600080fd5b505af115801561054e573d6000803e3d6000fd5b505050505061055f33858484610980565b505b505050565b600b5442116105a25760405162461bcd60e51b81526020600482015260086024820152673737ba1037bb32b960c11b604482015260640161026a565b6008546040516370a0823160e01b81526000916001600160a01b0316906370a08231906105d3903090600401611385565b60206040518083038186803b1580156105eb57600080fd5b505afa1580156105ff573d6000803e3d6000fd5b505050506040513d601f19601f8201168201806040525081019061062391906112af565b6009546040516370a0823160e01b81529192506000916001600160a01b03909116906370a0823190610659903090600401611385565b60206040518083038186803b15801561067157600080fd5b505afa158015610685573d6000803e3d6000fd5b505050506040513d601f19601f820116820180604052508101906106a991906112af565b60085460025460405163a9059cbb60e01b81529293506001600160a01b039182169263a9059cbb926106e192169086906004016113cf565b602060405180830381600087803b1580156106fb57600080fd5b505af115801561070f573d6000803e3d6000fd5b505050506040513d601f19601f820116820180604052508101906107339190611270565b5060095460025460405163a9059cbb60e01b81526001600160a01b039283169263a9059cbb9261076a9291169085906004016113cf565b602060405180830381600087803b15801561078457600080fd5b505af1158015610798573d6000803e3d6000fd5b505050506040513d601f19601f820116820180604052508101906107bc9190611270565b506002546040516335313c2160e11b81526001600160a01b0390911690636a627842906107ed903090600401611385565b602060405180830381600087803b15801561080757600080fd5b505af115801561081b573d6000803e3d6000fd5b505050506040513d601f19601f8201168201806040525081019061083f91906112af565b50610848610be9565b5050565b6000546001600160a01b031633146108765760405162461bcd60e51b815260040161026a906113e8565b60005b8251811015610561576108da8382815181106108a557634e487b7160e01b600052603260045260246000fd5b60200260200101518383815181106108cd57634e487b7160e01b600052603260045260246000fd5b6020026020010151610d69565b806108e4816115c3565b915050610879565b600054600160a01b900460ff161561093b5760405162461bcd60e51b815260206004820152601260248201527169734e6f74496e697469616c697a61626c6560701b604482015260640161026a565b6109458888610dc2565b61094e86610e12565b61095785610e4e565b61096384848484610ec7565b50506000805460ff60a01b1916600160a01b179055505050505050565b600a544210156109c05760405162461bcd60e51b815260206004820152600b60248201526a1b9bdd081cdd185c9d195960aa1b604482015260640161026a565b600b544211156109fb5760405162461bcd60e51b815260040161026a9060208082526004908201526337bb32b960e11b604082015260600190565b83600d54841015610a3e5760405162461bcd60e51b815260206004820152600d60248201526c5f6d696e546f6b656e4275794160981b604482015260640161026a565b6008546040805163313ce56760e01b815290516000926001600160a01b03169163313ce567916004808301926020929190829003018186803b158015610a8357600080fd5b505afa158015610a97573d6000803e3d6000fd5b505050506040513d601f19601f82011682018060405250810190610abb9190611364565b610ac99060ff16600a6114e3565b9050600081600c5487610adc919061158d565b610ae69190611480565b905083811115610b255760405162461bcd60e51b815260206004820152600a602482015269756e646572707269636560b01b604482015260640161026a565b610b2f8587610f41565b610b39878761103d565b846001600160a01b03167fe3d4187f6ca4248660cc0ac8b8056515bac4a8132be2eca31d6d0cc170722a7e87604051610b7491815260200190565b60405180910390a250506001600160a01b0381166000908152601360209081526040808320546014909252909120541115610be25760405162461bcd60e51b815260206004820152600e60248201526d6f6e6c794e6f744f76657242757960901b604482015260640161026a565b5050505050565b6002546040516370a0823160e01b81526000916001600160a01b0316906370a0823190610c1a903090600401611385565b60206040518083038186803b158015610c3257600080fd5b505afa158015610c46573d6000803e3d6000fd5b505050506040513d601f19601f82011682018060405250810190610c6a91906112af565b6002546004805460405163095ea7b360e01b81529394506001600160a01b039283169363095ea7b393610ca2939216918691016113cf565b602060405180830381600087803b158015610cbc57600080fd5b505af1158015610cd0573d6000803e3d6000fd5b505050506040513d601f19601f82011682018060405250810190610cf49190611270565b506004805460005460025460055460065460075460405163eb5d5c4360e01b81526001600160a01b039687169763eb5d5c4397610d3b9781169616949392918a9101611399565b600060405180830381600087803b158015610d5557600080fd5b505af1158015610be2573d6000803e3d6000fd5b6001600160a01b03821660008181526013602052604090819020839055517fcf322a8fa984197474bc96692d9be3a976c2a2520d53bea5d8d713e6e7877b4190610db69084815260200190565b60405180910390a25050565b818111610e075760405162461bcd60e51b8152602060048201526013602482015272656e6441745f203e207374617274656441745f60681b604482015260640161026a565b600a91909155600b55565b600c8190556040518181527f84391573dc31ee16afb3c5a2d6d906918acde4227b720393ca2e6a3cbf893222906020015b60405180910390a150565b60008111610e925760405162461bcd60e51b815260206004820152601160248201527006d696e546f6b656e427579415f203e203607c1b604482015260640161026a565b600d8190556040518181527fe173b1ce90ad11919cfb4f9fcb9970ed6eaf8c55b2a896b5b803aa5406ef1de390602001610e43565b600f80546001600160a01b0319166001600160a01b03861690811790915560108490556011839055601282905560408051918252602082018590528101839052606081018290527fa44f56947f4f760bc6fae453e4878eb4a68918362aa96213594f800d86b37ada9060800160405180910390a150505050565b600854600f5460405163095ea7b360e01b81526001600160a01b039283169263095ea7b392610f779291169085906004016113cf565b602060405180830381600087803b158015610f9157600080fd5b505af1158015610fa5573d6000803e3d6000fd5b505050506040513d601f19601f82011682018060405250810190610fc99190611270565b50600f5460085460105460115460125460405163eb5d5c4360e01b81526001600160a01b039586169563eb5d5c439561100f958a95929091169390928990600401611399565b600060405180830381600087803b15801561102957600080fd5b505af115801561048c573d6000803e3d6000fd5b6001600160a01b03821660009081526014602052604081208054839290611065908490611468565b9250508190555080600e600082825461107e9190611468565b90915550506008546040516370a0823160e01b81526001600160a01b03909116906370a08231906110b3903090600401611385565b60206040518083038186803b1580156110cb57600080fd5b505afa1580156110df573d6000803e3d6000fd5b505050506040513d601f19601f8201168201806040525081019061110391906112af565b600e5411156108485760405162461bcd60e51b81526020600482015260086024820152671cdbdb19081bdd5d60c21b604482015260640161026a565b600082601f83011261114f578081fd5b8135602061116461115f83611445565b611415565b80838252828201915082860187848660051b8901011115611183578586fd5b855b858110156111a157813584529284019290840190600101611185565b5090979650505050505050565b600080604083850312156111c0578182fd5b82356001600160401b03808211156111d6578384fd5b818501915085601f8301126111e9578384fd5b813560206111f961115f83611445565b8083825282820191508286018a848660051b8901011115611218578889fd5b8896505b8487101561124357803561122f8161160a565b83526001969096019591830191830161121c565b5096505086013592505080821115611259578283fd5b506112668582860161113f565b9150509250929050565b600060208284031215611281578081fd5b81518015158114611290578182fd5b9392505050565b6000602082840312156112a8578081fd5b5035919050565b6000602082840312156112c0578081fd5b5051919050565b6000806000606084860312156112db578081fd5b833592506020840135915060408401356112f48161160a565b809150509250925092565b600080600080600080600080610100898b03121561131b578384fd5b8835975060208901359650604089013595506060890135945060808901356113428161160a565b979a969950949793969560a0850135955060c08501359460e001359350915050565b600060208284031215611375578081fd5b815160ff81168114611290578182fd5b6001600160a01b0391909116815260200190565b6001600160a01b03968716815294909516602085015260408401929092526060830152608082015260a081019190915260c00190565b6001600160a01b03929092168252602082015260400190565b6020808252601390820152724f776e61626c653a206f6e6c794f776e65722160681b604082015260600190565b604051601f8201601f191681016001600160401b038111828210171561143d5761143d6115f4565b604052919050565b60006001600160401b0382111561145e5761145e6115f4565b5060051b60200190565b6000821982111561147b5761147b6115de565b500190565b60008261149b57634e487b7160e01b81526012600452602481fd5b500490565b600181815b808511156114db5781600019048211156114c1576114c16115de565b808516156114ce57918102915b93841c93908002906114a5565b509250929050565b600061129083836000826114f957506001611587565b8161150657506000611587565b816001811461151c576002811461152657611542565b6001915050611587565b60ff841115611537576115376115de565b50506001821b611587565b5060208310610133831016604e8410600b8410161715611565575081810a611587565b61156f83836114a0565b8060001904821115611583576115836115de565b0290505b92915050565b60008160001904831182151516156115a7576115a76115de565b500290565b6000828210156115be576115be6115de565b500390565b60006000198214156115d7576115d76115de565b5060010190565b634e487b7160e01b600052601160045260246000fd5b634e487b7160e01b600052604160045260246000fd5b6001600160a01b03811681146102da57600080fdfea26469706673582212204ba1fa3e4634baef08c53f4dfe5125be42d58704819d68eb5c4f9e3f6beca2d464736f6c63430008040033",
  "linkReferences": {},
  "deployedLinkReferences": {}
}