{
  "_format": "hh-sol-artifact-1",
  "contractName": "Staking",
  "sourceName": "contracts/Staking.sol",
  "abi": [
    {
      "anonymous": false,
      "inputs": [
        {
          "indexed": true,
          "internalType": "address",
          "name": "owner",
          "type": "address"
        },
        {
          "indexed": true,
          "internalType": "address",
          "name": "spender",
          "type": "address"
        },
        {
          "indexed": false,
          "internalType": "uint256",
          "name": "value",
          "type": "uint256"
        }
      ],
      "name": "Approval",
      "type": "event"
    },
    {
      "anonymous": false,
      "inputs": [
        {
          "indexed": true,
          "internalType": "address",
          "name": "account",
          "type": "address"
        },
        {
          "indexed": false,
          "internalType": "uint256",
          "name": "amount",
          "type": "uint256"
        }
      ],
      "name": "ClaimReward",
      "type": "event"
    },
    {
      "anonymous": false,
      "inputs": [
        {
          "indexed": true,
          "internalType": "address",
          "name": "spender",
          "type": "address"
        },
        {
          "indexed": true,
          "internalType": "address",
          "name": "account",
          "type": "address"
        },
        {
          "indexed": false,
          "internalType": "uint256",
          "name": "amount",
          "type": "uint256"
        }
      ],
      "name": "Stake",
      "type": "event"
    },
    {
      "anonymous": false,
      "inputs": [
        {
          "indexed": true,
          "internalType": "address",
          "name": "from",
          "type": "address"
        },
        {
          "indexed": true,
          "internalType": "address",
          "name": "to",
          "type": "address"
        },
        {
          "indexed": false,
          "internalType": "uint256",
          "name": "value",
          "type": "uint256"
        }
      ],
      "name": "Transfer",
      "type": "event"
    },
    {
      "anonymous": false,
      "inputs": [
        {
          "indexed": true,
          "internalType": "address",
          "name": "account",
          "type": "address"
        },
        {
          "indexed": false,
          "internalType": "uint256",
          "name": "amount",
          "type": "uint256"
        }
      ],
      "name": "Unstake",
      "type": "event"
    },
    {
      "anonymous": false,
      "inputs": [
        {
          "components": [
            {
              "internalType": "uint256",
              "name": "updatedAt",
              "type": "uint256"
            },
            {
              "internalType": "uint256",
              "name": "amount",
              "type": "uint256"
            },
            {
              "internalType": "uint256",
              "name": "duration",
              "type": "uint256"
            }
          ],
          "indexed": false,
          "internalType": "struct Lockable.SLock",
          "name": "lockData",
          "type": "tuple"
        }
      ],
      "name": "UpdateLockData",
      "type": "event"
    },
    {
      "inputs": [
        {
          "internalType": "address",
          "name": "owner",
          "type": "address"
        },
        {
          "internalType": "address",
          "name": "spender",
          "type": "address"
        }
      ],
      "name": "allowance",
      "outputs": [
        {
          "internalType": "uint256",
          "name": "",
          "type": "uint256"
        }
      ],
      "stateMutability": "view",
      "type": "function"
    },
    {
      "inputs": [
        {
          "internalType": "address",
          "name": "spender",
          "type": "address"
        },
        {
          "internalType": "uint256",
          "name": "amount",
          "type": "uint256"
        }
      ],
      "name": "approve",
      "outputs": [
        {
          "internalType": "bool",
          "name": "",
          "type": "bool"
        }
      ],
      "stateMutability": "nonpayable",
      "type": "function"
    },
    {
      "inputs": [
        {
          "internalType": "address",
          "name": "account",
          "type": "address"
        }
      ],
      "name": "balanceOf",
      "outputs": [
        {
          "internalType": "uint256",
          "name": "",
          "type": "uint256"
        }
      ],
      "stateMutability": "view",
      "type": "function"
    },
    {
      "inputs": [
        {
          "internalType": "address",
          "name": "account_",
          "type": "address"
        }
      ],
      "name": "claimFor",
      "outputs": [],
      "stateMutability": "nonpayable",
      "type": "function"
    },
    {
      "inputs": [
        {
          "internalType": "address",
          "name": "account_",
          "type": "address"
        }
      ],
      "name": "claimableOf",
      "outputs": [
        {
          "internalType": "uint256",
          "name": "",
          "type": "uint256"
        }
      ],
      "stateMutability": "view",
      "type": "function"
    },
    {
      "inputs": [],
      "name": "decimals",
      "outputs": [
        {
          "internalType": "uint8",
          "name": "",
          "type": "uint8"
        }
      ],
      "stateMutability": "view",
      "type": "function"
    },
    {
      "inputs": [
        {
          "internalType": "address",
          "name": "spender",
          "type": "address"
        },
        {
          "internalType": "uint256",
          "name": "subtractedValue",
          "type": "uint256"
        }
      ],
      "name": "decreaseAllowance",
      "outputs": [
        {
          "internalType": "bool",
          "name": "",
          "type": "bool"
        }
      ],
      "stateMutability": "nonpayable",
      "type": "function"
    },
    {
      "inputs": [],
      "name": "defaultLockDuration",
      "outputs": [
        {
          "internalType": "uint256",
          "name": "",
          "type": "uint256"
        }
      ],
      "stateMutability": "view",
      "type": "function"
    },
    {
      "inputs": [],
      "name": "depositToken",
      "outputs": [
        {
          "internalType": "contract IERC20",
          "name": "",
          "type": "address"
        }
      ],
      "stateMutability": "view",
      "type": "function"
    },
    {
      "inputs": [],
      "name": "distributor",
      "outputs": [
        {
          "internalType": "contract IDistributor",
          "name": "",
          "type": "address"
        }
      ],
      "stateMutability": "view",
      "type": "function"
    },
    {
      "inputs": [
        {
          "internalType": "address",
          "name": "spender",
          "type": "address"
        },
        {
          "internalType": "uint256",
          "name": "addedValue",
          "type": "uint256"
        }
      ],
      "name": "increaseAllowance",
      "outputs": [
        {
          "internalType": "bool",
          "name": "",
          "type": "bool"
        }
      ],
      "stateMutability": "nonpayable",
      "type": "function"
    },
    {
      "inputs": [
        {
          "internalType": "address",
          "name": "depositTokenAddr_",
          "type": "address"
        },
        {
          "internalType": "address",
          "name": "distributorAddr_",
          "type": "address"
        },
        {
          "internalType": "address",
          "name": "rewardTokenAddr_",
          "type": "address"
        },
        {
          "internalType": "uint256",
          "name": "lockDuration_",
          "type": "uint256"
        },
        {
          "internalType": "address",
          "name": "wethAddr_",
          "type": "address"
        }
      ],
      "name": "initStaking",
      "outputs": [],
      "stateMutability": "nonpayable",
      "type": "function"
    },
    {
      "inputs": [
        {
          "internalType": "address",
          "name": "account_",
          "type": "address"
        }
      ],
      "name": "lockDataOf",
      "outputs": [
        {
          "components": [
            {
              "internalType": "uint256",
              "name": "updatedAt",
              "type": "uint256"
            },
            {
              "internalType": "uint256",
              "name": "amount",
              "type": "uint256"
            },
            {
              "internalType": "uint256",
              "name": "duration",
              "type": "uint256"
            }
          ],
          "internalType": "struct Lockable.SLock",
          "name": "",
          "type": "tuple"
        }
      ],
      "stateMutability": "view",
      "type": "function"
    },
    {
      "inputs": [
        {
          "internalType": "address",
          "name": "account_",
          "type": "address"
        }
      ],
      "name": "lockDurationOf",
      "outputs": [
        {
          "internalType": "uint256",
          "name": "restLockDuration",
          "type": "uint256"
        }
      ],
      "stateMutability": "view",
      "type": "function"
    },
    {
      "inputs": [
        {
          "internalType": "address",
          "name": "account_",
          "type": "address"
        }
      ],
      "name": "lockedAOf",
      "outputs": [
        {
          "internalType": "uint256",
          "name": "lockedA",
          "type": "uint256"
        }
      ],
      "stateMutability": "view",
      "type": "function"
    },
    {
      "inputs": [],
      "name": "name",
      "outputs": [
        {
          "internalType": "string",
          "name": "",
          "type": "string"
        }
      ],
      "stateMutability": "view",
      "type": "function"
    },
    {
      "inputs": [],
      "name": "rewardToken",
      "outputs": [
        {
          "internalType": "contract IERC20",
          "name": "",
          "type": "address"
        }
      ],
      "stateMutability": "view",
      "type": "function"
    },
    {
      "inputs": [
        {
          "internalType": "address",
          "name": "account_",
          "type": "address"
        }
      ],
      "name": "stakeETHFor",
      "outputs": [],
      "stateMutability": "payable",
      "type": "function"
    },
    {
      "inputs": [
        {
          "internalType": "address",
          "name": "account_",
          "type": "address"
        },
        {
          "internalType": "uint256",
          "name": "amount_",
          "type": "uint256"
        }
      ],
      "name": "stakeFor",
      "outputs": [],
      "stateMutability": "nonpayable",
      "type": "function"
    },
    {
      "inputs": [],
      "name": "symbol",
      "outputs": [
        {
          "internalType": "string",
          "name": "",
          "type": "string"
        }
      ],
      "stateMutability": "view",
      "type": "function"
    },
    {
      "inputs": [
        {
          "internalType": "address",
          "name": "account_",
          "type": "address"
        }
      ],
      "name": "totalClaimedOf",
      "outputs": [
        {
          "internalType": "uint256",
          "name": "",
          "type": "uint256"
        }
      ],
      "stateMutability": "view",
      "type": "function"
    },
    {
      "inputs": [],
      "name": "totalSupply",
      "outputs": [
        {
          "internalType": "uint256",
          "name": "",
          "type": "uint256"
        }
      ],
      "stateMutability": "view",
      "type": "function"
    },
    {
      "inputs": [
        {
          "internalType": "address",
          "name": "recipient",
          "type": "address"
        },
        {
          "internalType": "uint256",
          "name": "amount",
          "type": "uint256"
        }
      ],
      "name": "transfer",
      "outputs": [
        {
          "internalType": "bool",
          "name": "",
          "type": "bool"
        }
      ],
      "stateMutability": "nonpayable",
      "type": "function"
    },
    {
      "inputs": [
        {
          "internalType": "address",
          "name": "sender",
          "type": "address"
        },
        {
          "internalType": "address",
          "name": "recipient",
          "type": "address"
        },
        {
          "internalType": "uint256",
          "name": "amount",
          "type": "uint256"
        }
      ],
      "name": "transferFrom",
      "outputs": [
        {
          "internalType": "bool",
          "name": "",
          "type": "bool"
        }
      ],
      "stateMutability": "nonpayable",
      "type": "function"
    },
    {
      "inputs": [
        {
          "internalType": "uint256",
          "name": "amount_",
          "type": "uint256"
        }
      ],
      "name": "unstake",
      "outputs": [],
      "stateMutability": "nonpayable",
      "type": "function"
    },
    {
      "inputs": [],
      "name": "unstakeAll",
      "outputs": [],
      "stateMutability": "nonpayable",
      "type": "function"
    },
    {
      "inputs": [
        {
          "internalType": "address",
          "name": "account_",
          "type": "address"
        }
      ],
      "name": "unstakeableA",
      "outputs": [
        {
          "internalType": "uint256",
          "name": "",
          "type": "uint256"
        }
      ],
      "stateMutability": "view",
      "type": "function"
    },
    {
      "stateMutability": "payable",
      "type": "receive"
    }
  ],
  "bytecode": "0x60806040526c0c9f2c9cd04674edea40000000600c5534801561002157600080fd5b506124c6806100316000396000f3fe6080604052600436106101a05760003560e01c80638903ab9d116100ec578063c2ab7e641161008a578063dd62ed3e11610064578063dd62ed3e14610512578063ddeae03314610558578063ea47408814610578578063f7c618c11461058b57600080fd5b8063c2ab7e6414610477578063c89039c5146104b9578063d6d789b7146104dc57600080fd5b8063a457c2d7116100c6578063a457c2d7146103e5578063a9059cbb14610405578063ac7a3d9b14610425578063bfe109281461044557600080fd5b80638903ab9d1461039057806395d89b41146103b0578063a2a79520146103c557600080fd5b80632e17de781161015957806335322f371161013357806335322f3714610305578063395093511461031a57806361e937ab1461033a57806370a082311461035a57600080fd5b80632e17de78146102a35780632ee40908146102c3578063313ce567146102e357600080fd5b8063035abd93146101d457806306fdde0314610207578063095ea7b3146102295780630fd6699b1461025957806318160ddd1461026e57806323b872dd1461028357600080fd5b366101cf576011546001600160a01b031633146101cd57634e487b7160e01b600052600160045260246000fd5b005b600080fd5b3480156101e057600080fd5b506101f46101ef36600461207d565b6105ae565b6040519081526020015b60405180910390f35b34801561021357600080fd5b5061021c6105bf565b6040516101fe91906122ef565b34801561023557600080fd5b50610249610244366004612161565b610651565b60405190151581526020016101fe565b34801561026557600080fd5b506010546101f4565b34801561027a57600080fd5b506004546101f4565b34801561028f57600080fd5b5061024961029e366004612126565b610667565b3480156102af57600080fd5b506101cd6102be366004612253565b6106d0565b3480156102cf57600080fd5b506101cd6102de366004612161565b6106dd565b3480156102ef57600080fd5b5060075460405160ff90911681526020016101fe565b34801561031157600080fd5b506101cd6106ec565b34801561032657600080fd5b50610249610335366004612161565b610700565b34801561034657600080fd5b506101cd6103553660046120c9565b610736565b34801561036657600080fd5b506101f461037536600461207d565b6001600160a01b031660009081526002602052604090205490565b34801561039c57600080fd5b506101f46103ab36600461207d565b6108ec565b3480156103bc57600080fd5b5061021c610abb565b3480156103d157600080fd5b506101f46103e036600461207d565b610aca565b3480156103f157600080fd5b50610249610400366004612161565b610b0e565b34801561041157600080fd5b50610249610420366004612161565b610b5d565b34801561043157600080fd5b506101f461044036600461207d565b610b6a565b34801561045157600080fd5b506008546001600160a01b03165b6040516001600160a01b0390911681526020016101fe565b34801561048357600080fd5b5061049761049236600461207d565b610bae565b60408051825181526020808401519082015291810151908201526060016101fe565b3480156104c557600080fd5b5060005461010090046001600160a01b031661045f565b3480156104e857600080fd5b506101f46104f736600461207d565b6001600160a01b03166000908152600b602052604090205490565b34801561051e57600080fd5b506101f461052d366004612097565b6001600160a01b03918216600090815260036020908152604080832093909416825291909152205490565b34801561056457600080fd5b506101cd61057336600461207d565b610c14565b6101cd61058636600461207d565b610c1f565b34801561059757600080fd5b5060075461010090046001600160a01b031661045f565b60006105b982610c91565b92915050565b6060600580546105ce906123c0565b80601f01602080910402602001604051908101604052809291908181526020018280546105fa906123c0565b80156106475780601f1061061c57610100808354040283529160200191610647565b820191906000526020600020905b81548152906001019060200180831161062a57829003601f168201915b5050505050905090565b600061065e338484610d2f565b50600192915050565b6000610674848484610e54565b6106c684336106c185604051806060016040528060288152602001612444602891396001600160a01b038a1660009081526003602090815260408083203384529091529020549190610ea1565b610d2f565b5060019392505050565b6106da3382610edb565b50565b6106e8338383610f8e565b5050565b6106fe336106f933610c91565b610edb565b565b3360008181526003602090815260408083206001600160a01b0387168452909152812054909161065e9185906106c1908661105e565b60005460ff16156107835760405162461bcd60e51b815260206004820152601260248201527169734e6f74496e697469616c697a61626c6560701b60448201526064015b60405180910390fd5b6107c48582600080546001600160a01b0393841661010002610100600160a81b031990911617905560018054919092166001600160a01b0319909116179055565b600880546001600160a01b03199081166001600160a01b038088169190911790925560078054610100600160a81b03191661010084881602179055600e80549091169183169190911790556108b061081c86856110c4565b6040805180820190915260078152665374616b696e6760c81b6020820152876001600160a01b031663313ce5676040518163ffffffff1660e01b815260040160206040518083038186803b15801561087357600080fd5b505afa158015610887573d6000803e3d6000fd5b505050506040513d601f19601f820116820180604052508101906108ab9190612283565b6111d0565b6108b982601055565b601180546001600160a01b0319166001600160a01b039290921691909117905550506000805460ff191660011790555050565b60006108f760045490565b61090357506000919050565b6007546040516370a0823160e01b815230600482015260009161010090046001600160a01b0316906370a082319060240160206040518083038186803b15801561094c57600080fd5b505afa158015610960573d6000803e3d6000fd5b505050506040513d601f19601f82011682018060405250810190610984919061226b565b90506000600d5482600860009054906101000a90046001600160a01b03166001600160a01b031663b65e366a6040518163ffffffff1660e01b815260040160206040518083038186803b1580156109da57600080fd5b505afa1580156109ee573d6000803e3d6000fd5b505050506040513d601f19601f82011682018060405250810190610a12919061226b565b610a1c9190612322565b610a269190612379565b90506000610a4a610a3660045490565b600c54610a44908590611210565b9061128f565b6001600160a01b0386166000908152600a60205260408120546009549293509091610a809190610a7a908561105e565b906112d1565b9050610ab1600c54610a4483610aab8a6001600160a01b031660009081526002602052604090205490565b90611210565b9695505050505050565b6060600680546105ce906123c0565b6001600160a01b0381166000908152600f6020908152604080832081516060810183528154815260018201549381019390935260020154908201526105b990611313565b600061065e33846106c18560405180606001604052806025815260200161246c602591393360009081526003602090815260408083206001600160a01b038d1684529091529020549190610ea1565b600061065e338484610e54565b6001600160a01b0381166000908152600f6020908152604080832081516060810183528154815260018201549381019390935260020154908201526105b990611353565b610bd260405180606001604052806000815260200160008152602001600081525090565b506001600160a01b03166000908152600f6020908152604091829020825160608101845281548152600182015492810192909252600201549181019190915290565b6106da816000610edb565b60115460408051630d0e30db60e41b8152905134926001600160a01b03169163d0e30db091849160048082019260009290919082900301818588803b158015610c6757600080fd5b505af1158015610c7b573d6000803e3d6000fd5b50505050506106e8610c8a3390565b838361138e565b6000610c9c82610b6a565b6001600160a01b0383166000908152600260205260409020541015610d035760405162461bcd60e51b815260206004820152601a60248201527f756e6c6f636b6564207374616b65206e6f7420656e6f75676874000000000000604482015260640161077a565b610d0c82610b6a565b6001600160a01b0383166000908152600260205260409020546105b99190612379565b6001600160a01b038316610d915760405162461bcd60e51b8152602060048201526024808201527f45524332303a20617070726f76652066726f6d20746865207a65726f206164646044820152637265737360e01b606482015260840161077a565b6001600160a01b038216610df25760405162461bcd60e51b815260206004820152602260248201527f45524332303a20617070726f766520746f20746865207a65726f206164647265604482015261737360f01b606482015260840161077a565b6001600160a01b0383811660008181526003602090815260408083209487168084529482529182902085905590518481527f8c5be1e5ebec7d5bd14f71427d1e84f3dd0314c0f7b2291e5b200ac8c7c3b92591015b60405180910390a3505050565b60405162461bcd60e51b815260206004820152601b60248201527f7374616b656420746f6b656e20756e7472616e7366657261626c650000000000604482015260640161077a565b505050565b60008184841115610ec55760405162461bcd60e51b815260040161077a91906122ef565b506000610ed28486612379565b95945050505050565b610ee48261140f565b8015610f4257610ef482826115d0565b610efe82826116dc565b816001600160a01b03167f85082129d87b2fe11527cb1b3b7a520aeb5aa6913f88a3d8757fe40d1db02fdd82604051610f3991815260200190565b60405180910390a25b6000610f4d83610c91565b10156106e85760405162461bcd60e51b815260206004820152601060248201526f756e7374616b65206f766572666c6f7760801b604482015260640161077a565b60115460005461010090046001600160a01b0390811691161415610fec5760405162461bcd60e51b81526020600482015260156024820152740c8cae0dee6d2e840e8ded6cadc40d2e640ae8aa89605b1b604482015260640161077a565b610ff58261140f565b8015610e9c57611005828261177e565b506110198261101485846117c3565b6118f0565b816001600160a01b0316836001600160a01b03167f99039fcf0a98f484616c5196ee8b2ecfa971babf0b519848289ea4db381f85f783604051610e4791815260200190565b60008061106b8385612322565b9050838110156110bd5760405162461bcd60e51b815260206004820152601b60248201527f536166654d6174683a206164646974696f6e206f766572666c6f770000000000604482015260640161077a565b9392505050565b60608061116460405180604001604052806007815260200166029ba30b5b2b2160cd1b815250856001600160a01b03166395d89b416040518163ffffffff1660e01b815260040160006040518083038186803b15801561112357600080fd5b505afa158015611137573d6000803e3d6000fd5b505050506040513d6000823e601f3d908101601f1916820160405261115f91908101906121aa565b6119ca565b905061118981604051806040016040528060018152602001602d60f81b8152506119ca565b90506111c881846001600160a01b03166395d89b416040518163ffffffff1660e01b815260040160006040518083038186803b15801561112357600080fd5b949350505050565b82516111e3906005906020860190611fc8565b5081516111f7906006906020850190611fc8565b506007805460ff191660ff929092169190911790555050565b60008261121f575060006105b9565b600061122b838561235a565b905082611238858361233a565b146110bd5760405162461bcd60e51b815260206004820152602160248201527f536166654d6174683a206d756c7469706c69636174696f6e206f766572666c6f6044820152607760f81b606482015260840161077a565b60006110bd83836040518060400160405280601a81526020017f536166654d6174683a206469766973696f6e206279207a65726f0000000000008152506119f6565b60006110bd83836040518060400160405280601e81526020017f536166654d6174683a207375627472616374696f6e206f766572666c6f770000815250610ea1565b805160009081906113259042906112d1565b90508260400151811061133b576000915061134d565b604083015161134a90826112d1565b91505b50919050565b60008061135f83611313565b90508061136f576000915061134d565b61134a8360400151610a4485602001518461121090919063ffffffff16565b60115460005461010090046001600160a01b039081169116146113eb5760405162461bcd60e51b81526020600482015260156024820152740c8cae0dee6d2e840e8ded6cadc40d2e640ae8aa89605b1b604482015260640161077a565b6113f48261140f565b8015610e9c57611404828261177e565b5061101982826118f0565b600061141a60045490565b111561155657600860009054906101000a90046001600160a01b03166001600160a01b031663e4fc6b6d6040518163ffffffff1660e01b8152600401600060405180830381600087803b15801561147057600080fd5b505af1158015611484573d6000803e3d6000fd5b50506007546040516370a0823160e01b8152306004820152600093506101009091046001600160a01b031691506370a082319060240160206040518083038186803b1580156114d257600080fd5b505afa1580156114e6573d6000803e3d6000fd5b505050506040513d601f19601f8201168201806040525081019061150a919061226b565b90506000600d548261151c9190612379565b600d839055905061153d61152f60045490565b600c54610a44908490611210565b6009600082825461154e9190612322565b909155505050505b6001600160a01b0381166000908152600a602052604081205460095461157b916112d1565b905060006115a8600c54610a4484610aab876001600160a01b031660009081526002602052604090205490565b6009546001600160a01b0385166000908152600a60205260409020559050610e9c8382611a24565b6001600160a01b0382166116305760405162461bcd60e51b815260206004820152602160248201527f45524332303a206275726e2066726f6d20746865207a65726f206164647265736044820152607360f81b606482015260840161077a565b61166d81604051806060016040528060228152602001612422602291396001600160a01b0385166000908152600260205260409020549190610ea1565b6001600160a01b03831660009081526002602052604090205560045461169390826112d1565b6004556040518181526000906001600160a01b038416907fddf252ad1be2c89b69c2b068fc378daa952ba7f163c4a11628f55a4df523b3ef906020015b60405180910390a35050565b60015460005461010090046001600160a01b039081169116141561176257600154604051632e1a7d4d60e01b8152600481018390526001600160a01b0390911690632e1a7d4d90602401600060405180830381600087803b15801561174057600080fd5b505af1158015611754573d6000803e3d6000fd5b505050506106e88282611aca565b6000546106e89061010090046001600160a01b03168383611ba4565b6000600160105411156117ba576001600160a01b0383166000908152600f602052604090206010546117b291908490611cd5565b5060016105b9565b50600092915050565b600080546040516370a0823160e01b8152306004820152829161010090046001600160a01b0316906370a082319060240160206040518083038186803b15801561180c57600080fd5b505afa158015611820573d6000803e3d6000fd5b505050506040513d601f19601f82011682018060405250810190611844919061226b565b6000549091506118649061010090046001600160a01b0316853086611db9565b600080546040516370a0823160e01b81523060048201526101009091046001600160a01b0316906370a082319060240160206040518083038186803b1580156118ac57600080fd5b505afa1580156118c0573d6000803e3d6000fd5b505050506040513d601f19601f820116820180604052508101906118e4919061226b565b9050610ed28282612379565b6001600160a01b0382166119465760405162461bcd60e51b815260206004820152601f60248201527f45524332303a206d696e7420746f20746865207a65726f206164647265737300604482015260640161077a565b600454611953908261105e565b6004556001600160a01b038216600090815260026020526040902054611979908261105e565b6001600160a01b0383166000818152600260205260408082209390935591519091907fddf252ad1be2c89b69c2b068fc378daa952ba7f163c4a11628f55a4df523b3ef906116d09085815260200190565b606082826040516020016119df9291906122c0565b604051602081830303815290604052905092915050565b60008183611a175760405162461bcd60e51b815260040161077a91906122ef565b506000610ed2848661233a565b80156106e857600d54611a3790826112d1565b600d55600754611a569061010090046001600160a01b03168383611ba4565b816001600160a01b03167fba8de60c3403ec381d1d484652ea1980e3c3e56359195c92525bff4ce47ad98e82604051611a9191815260200190565b60405180910390a26001600160a01b0382166000908152600b602052604081208054839290611ac1908490612322565b90915550505050565b604080516000808252602082019092526001600160a01b038416908390604051611af491906122a4565b60006040518083038185875af1925050503d8060008114611b31576040519150601f19603f3d011682016040523d82523d6000602084013e611b36565b606091505b5050905080610e9c5760405162461bcd60e51b815260206004820152603460248201527f5472616e7366657248656c7065723a3a736166655472616e736665724554483a60448201527308115512081d1c985b9cd9995c8819985a5b195960621b606482015260840161077a565b604080516001600160a01b038481166024830152604480830185905283518084039091018152606490920183526020820180516001600160e01b031663a9059cbb60e01b1790529151600092839290871691611c0091906122a4565b6000604051808303816000865af19150503d8060008114611c3d576040519150601f19603f3d011682016040523d82523d6000602084013e611c42565b606091505b5091509150818015611c6c575080511580611c6c575080806020019051810190611c6c919061218a565b611cce5760405162461bcd60e51b815260206004820152602d60248201527f5472616e7366657248656c7065723a3a736166655472616e736665723a20747260448201526c185b9cd9995c8819985a5b1959609a1b606482015260840161077a565b5050505050565b811580611ce0575080155b15611cea57505050565b611cf383611ef7565b6000611d108460020154856001015461121090919063ffffffff16565b90506000611d1e8484611210565b9050611d44611d3a85876001015461105e90919063ffffffff16565b610a44848461105e565b60028601556001850154611d58908561105e565b60018601554285556040517fe07fdbc26a8001506c5f058f6ab03687030b84b808efb98548b198cd4ab6655190611daa9087908154815260018201546020820152600290910154604082015260600190565b60405180910390a15050505050565b604080516001600160a01b0385811660248301528481166044830152606480830185905283518084039091018152608490920183526020820180516001600160e01b03166323b872dd60e01b1790529151600092839290881691611e1d91906122a4565b6000604051808303816000865af19150503d8060008114611e5a576040519150601f19603f3d011682016040523d82523d6000602084013e611e5f565b606091505b5091509150818015611e89575080511580611e89575080806020019051810190611e89919061218a565b611eef5760405162461bcd60e51b815260206004820152603160248201527f5472616e7366657248656c7065723a3a7472616e7366657246726f6d3a207472604482015270185b9cd9995c919c9bdb4819985a5b1959607a1b606482015260840161077a565b505050505050565b604080516060810182528254815260018301546020820152600283015491810191909152600090611f2790611313565b905080611f44576000600183018190556002830155428255611f73565b611f638260020154610a4484600101548461121090919063ffffffff16565b6001830155600282018190554282555b7fe07fdbc26a8001506c5f058f6ab03687030b84b808efb98548b198cd4ab6655182604051611fbc91908154815260018201546020820152600290910154604082015260600190565b60405180910390a15050565b828054611fd4906123c0565b90600052602060002090601f016020900481019282611ff6576000855561203c565b82601f1061200f57805160ff191683800117855561203c565b8280016001018555821561203c579182015b8281111561203c578251825591602001919060010190612021565b5061204892915061204c565b5090565b5b80821115612048576000815560010161204d565b80356001600160a01b038116811461207857600080fd5b919050565b60006020828403121561208e578081fd5b6110bd82612061565b600080604083850312156120a9578081fd5b6120b283612061565b91506120c060208401612061565b90509250929050565b600080600080600060a086880312156120e0578081fd5b6120e986612061565b94506120f760208701612061565b935061210560408701612061565b92506060860135915061211a60808701612061565b90509295509295909350565b60008060006060848603121561213a578283fd5b61214384612061565b925061215160208501612061565b9150604084013590509250925092565b60008060408385031215612173578182fd5b61217c83612061565b946020939093013593505050565b60006020828403121561219b578081fd5b815180151581146110bd578182fd5b6000602082840312156121bb578081fd5b815167ffffffffffffffff808211156121d2578283fd5b818401915084601f8301126121e5578283fd5b8151818111156121f7576121f761240b565b604051601f8201601f19908116603f0116810190838211818310171561221f5761221f61240b565b81604052828152876020848701011115612237578586fd5b612248836020830160208801612390565b979650505050505050565b600060208284031215612264578081fd5b5035919050565b60006020828403121561227c578081fd5b5051919050565b600060208284031215612294578081fd5b815160ff811681146110bd578182fd5b600082516122b6818460208701612390565b9190910192915050565b600083516122d2818460208801612390565b8351908301906122e6818360208801612390565b01949350505050565b602081526000825180602084015261230e816040850160208701612390565b601f01601f19169190910160400192915050565b60008219821115612335576123356123f5565b500190565b60008261235557634e487b7160e01b81526012600452602481fd5b500490565b6000816000190483118215151615612374576123746123f5565b500290565b60008282101561238b5761238b6123f5565b500390565b60005b838110156123ab578181015183820152602001612393565b838111156123ba576000848401525b50505050565b600181811c908216806123d457607f821691505b6020821081141561134d57634e487b7160e01b600052602260045260246000fd5b634e487b7160e01b600052601160045260246000fd5b634e487b7160e01b600052604160045260246000fdfe45524332303a206275726e20616d6f756e7420657863656564732062616c616e636545524332303a207472616e7366657220616d6f756e74206578636565647320616c6c6f77616e636545524332303a2064656372656173656420616c6c6f77616e63652062656c6f77207a65726fa264697066735822122028e757a47d01447cf7e5241723af6ca18533331c27bd7977a367b1381859c70164736f6c63430008040033",
  "linkReferences": {},
  "deployedLinkReferences": {}
}