{
  "_format": "hh-sol-artifact-1",
  "contractName": "StakingFactory",
  "sourceName": "contracts/StakingFactory.sol",
  "abi": [
    {
      "inputs": [],
      "stateMutability": "nonpayable",
      "type": "constructor"
    },
    {
      "anonymous": false,
      "inputs": [
        {
          "indexed": true,
          "internalType": "address",
          "name": "creator",
          "type": "address"
        },
        {
          "indexed": true,
          "internalType": "contract IStaking",
          "name": "staking",
          "type": "address"
        },
        {
          "indexed": false,
          "internalType": "contract IDistributor",
          "name": "distributor",
          "type": "address"
        },
        {
          "indexed": false,
          "internalType": "uint256",
          "name": "lockDuration",
          "type": "uint256"
        },
        {
          "indexed": false,
          "internalType": "uint256",
          "name": "rps",
          "type": "uint256"
        },
        {
          "indexed": false,
          "internalType": "uint256",
          "name": "distributionStartedAt",
          "type": "uint256"
        },
        {
          "indexed": true,
          "internalType": "bool",
          "name": "isApproved",
          "type": "bool"
        }
      ],
      "name": "EmitPool",
      "type": "event"
    },
    {
      "anonymous": false,
      "inputs": [
        {
          "indexed": true,
          "internalType": "address",
          "name": "previousOwner",
          "type": "address"
        },
        {
          "indexed": true,
          "internalType": "address",
          "name": "newOwner",
          "type": "address"
        }
      ],
      "name": "OwnershipTransferred",
      "type": "event"
    },
    {
      "inputs": [
        {
          "internalType": "address",
          "name": "stakingAddr_",
          "type": "address"
        }
      ],
      "name": "approvePool",
      "outputs": [],
      "stateMutability": "nonpayable",
      "type": "function"
    },
    {
      "inputs": [
        {
          "internalType": "address",
          "name": "depositTokenAddr_",
          "type": "address"
        },
        {
          "internalType": "address",
          "name": "rewardTokenAddr_",
          "type": "address"
        },
        {
          "internalType": "uint256",
          "name": "lockDuration_",
          "type": "uint256"
        },
        {
          "internalType": "uint256",
          "name": "rps_",
          "type": "uint256"
        },
        {
          "internalType": "uint256",
          "name": "distributionStartedAt_",
          "type": "uint256"
        }
      ],
      "name": "createPool",
      "outputs": [],
      "stateMutability": "nonpayable",
      "type": "function"
    },
    {
      "inputs": [
        {
          "internalType": "uint256",
          "name": "",
          "type": "uint256"
        }
      ],
      "name": "getPools",
      "outputs": [
        {
          "internalType": "address",
          "name": "",
          "type": "address"
        }
      ],
      "stateMutability": "view",
      "type": "function"
    },
    {
      "inputs": [],
      "name": "owner",
      "outputs": [
        {
          "internalType": "address",
          "name": "",
          "type": "address"
        }
      ],
      "stateMutability": "view",
      "type": "function"
    },
    {
      "inputs": [],
      "name": "renounceOwnership",
      "outputs": [],
      "stateMutability": "nonpayable",
      "type": "function"
    },
    {
      "inputs": [],
      "name": "totalPools",
      "outputs": [
        {
          "internalType": "uint256",
          "name": "",
          "type": "uint256"
        }
      ],
      "stateMutability": "view",
      "type": "function"
    },
    {
      "inputs": [
        {
          "internalType": "address",
          "name": "newOwner",
          "type": "address"
        }
      ],
      "name": "transferOwnership",
      "outputs": [],
      "stateMutability": "nonpayable",
      "type": "function"
    }
  ],
  "bytecode": "0x608060405234801561001057600080fd5b5061001a3361001f565b61007e565b600080546001600160a01b03838116610100908102610100600160a81b0319841617808555604051938290048316949190049091169183917f8be0079c531659141344cd1fd0a4f28419497f9722a3daafe3b4186f6b6457e091a35050565b612a9c8061008d6000396000f3fe608060405234801561001057600080fd5b506004361061007d5760003560e01c806385ac165a1161005b57806385ac165a146100e55780638da5cb5b146100f8578063ab3c7e521461010e578063f2fde38b1461011f57600080fd5b8063424c265b1461008257806362d26ed714610097578063715018a6146100dd575b600080fd5b610095610090366004610715565b610132565b005b6100c06100a53660046107a4565b6002602052600090815260409020546001600160a01b031681565b6040516001600160a01b0390911681526020015b60405180910390f35b610095610178565b6100956100f3366004610738565b6101b3565b60005461010090046001600160a01b03166100c0565b6003546040519081526020016100d4565b61009561012d366004610715565b6103ac565b60005461010090046001600160a01b0316331461016a5760405162461bcd60e51b8152600401610161906107d4565b60405180910390fd5b610175816001610449565b50565b60005461010090046001600160a01b031633146101a75760405162461bcd60e51b8152600401610161906107d4565b6101b1600061069c565b565b600380549060006101c383610809565b919050555060006003546040516020016101df91815260200190565b60405160208183030381529060405280519060200120604051610201906106fb565b8190604051809103906000f5905080158015610221573d6000803e3d6000fd5b5060405163428a734b60e11b81526001600160a01b03888116600483015287811660248301526044820187905291925090821690638514e69690606401600060405180830381600087803b15801561027857600080fd5b505af115801561028c573d6000803e3d6000fd5b505050506001600160a01b03811660008181526001602090815260408083208054336001600160a01b031991821617909155600380548552600284528285208054909216909517905592548351918201529091016040516020818303038152906040528051906020012060405161030290610708565b8190604051809103906000f5905080158015610322573d6000803e3d6000fd5b50604051635398457d60e01b81526001600160a01b0384811660048301528881166024830152604482018790526064820186905291925090821690635398457d90608401600060405180830381600087803b15801561038057600080fd5b505af1158015610394573d6000803e3d6000fd5b505050506103a3826000610449565b50505050505050565b60005461010090046001600160a01b031633146103db5760405162461bcd60e51b8152600401610161906107d4565b6001600160a01b0381166104405760405162461bcd60e51b815260206004820152602660248201527f4f776e61626c653a206e6577206f776e657220697320746865207a65726f206160448201526564647265737360d01b6064820152608401610161565b6101758161069c565b6001600160a01b0380831660008181526001602090815260408083205481516317fc212560e31b8152915195169487949263bfe109289260048082019391829003018186803b15801561049b57600080fd5b505afa1580156104af573d6000803e3d6000fd5b505050506040513d601f19601f820116820180604052508101906104d39190610788565b90506000826001600160a01b0316630fd6699b6040518163ffffffff1660e01b815260040160206040518083038186803b15801561051057600080fd5b505afa158015610524573d6000803e3d6000fd5b505050506040513d601f19601f8201168201806040525081019061054891906107bc565b90506000826001600160a01b03166392b4bb506040518163ffffffff1660e01b815260040160206040518083038186803b15801561058557600080fd5b505afa158015610599573d6000803e3d6000fd5b505050506040513d601f19601f820116820180604052508101906105bd91906107bc565b90506000836001600160a01b031663351308256040518163ffffffff1660e01b815260040160206040518083038186803b1580156105fa57600080fd5b505afa15801561060e573d6000803e3d6000fd5b505050506040513d601f19601f8201168201806040525081019061063291906107bc565b604080516001600160a01b038781168252602082018790529181018590526060810183905291925088151591818816918916907f6bbfbaac8a440c7951fca446993c7f043ee2476bf7af93d3ba684b35f08a7e759060800160405180910390a45050505050505050565b600080546001600160a01b03838116610100908102610100600160a81b0319841617808555604051938290048316949190049091169183917f8be0079c531659141344cd1fd0a4f28419497f9722a3daafe3b4186f6b6457e091a35050565b611de88061084683390190565b6104398061262e83390190565b600060208284031215610726578081fd5b813561073181610830565b9392505050565b600080600080600060a0868803121561074f578081fd5b853561075a81610830565b9450602086013561076a81610830565b94979496505050506040830135926060810135926080909101359150565b600060208284031215610799578081fd5b815161073181610830565b6000602082840312156107b5578081fd5b5035919050565b6000602082840312156107cd578081fd5b5051919050565b6020808252818101527f4f776e61626c653a2063616c6c6572206973206e6f7420746865206f776e6572604082015260600190565b600060001982141561082957634e487b7160e01b81526011600452602481fd5b5060010190565b6001600160a01b038116811461017557600080fdfe60806040526c0c9f2c9cd04674edea40000000600a5534801561002157600080fd5b50611db7806100316000396000f3fe608060405234801561001057600080fd5b50600436106101585760003560e01c80638903ab9d116100c3578063bfe109281161007c578063bfe10928146102d1578063c2ab7e64146102f6578063c89039c51461032b578063dd62ed3e14610341578063ddeae0331461037a578063f7c618c11461038d57600080fd5b80638903ab9d1461026a57806395d89b411461027d578063a2a7952014610285578063a457c2d714610298578063a9059cbb146102ab578063ac7a3d9b146102be57600080fd5b80632e17de78116101155780632e17de78146101de5780632ee40908146101f3578063313ce56714610206578063395093511461021b57806370a082311461022e5780638514e6961461025757600080fd5b8063035abd931461015d57806306fdde0314610183578063095ea7b3146101985780630fd6699b146101bb57806318160ddd146101c357806323b872dd146101cb575b600080fd5b61017061016b3660046119e7565b6103a3565b6040519081526020015b60405180910390f35b61018b6103b4565b60405161017a9190611be0565b6101ab6101a6366004611a6e565b610446565b604051901515815260200161017a565b600d54610170565b600354610170565b6101ab6101d9366004611a33565b61045c565b6101f16101ec366004611b60565b6104c5565b005b6101f1610201366004611a6e565b6104d2565b60065460405160ff909116815260200161017a565b6101ab610229366004611a6e565b6104e1565b61017061023c3660046119e7565b6001600160a01b031660009081526001602052604090205490565b6101f1610265366004611a33565b610517565b6101706102783660046119e7565b610660565b61018b61081b565b6101706102933660046119e7565b61082a565b6101ab6102a6366004611a6e565b61086e565b6101ab6102b9366004611a6e565b6108bd565b6101706102cc3660046119e7565b6108ca565b6007546001600160a01b03165b6040516001600160a01b03909116815260200161017a565b6103096103043660046119e7565b61090e565b604080518251815260208084015190820152918101519082015260600161017a565b60005461010090046001600160a01b03166102de565b61017061034f366004611a01565b6001600160a01b03918216600090815260026020908152604080832093909416825291909152205490565b6101f16103883660046119e7565b610974565b60065461010090046001600160a01b03166102de565b60006103ae8261097f565b92915050565b6060600480546103c390611cb1565b80601f01602080910402602001604051908101604052809291908181526020018280546103ef90611cb1565b801561043c5780601f106104115761010080835404028352916020019161043c565b820191906000526020600020905b81548152906001019060200180831161041f57829003601f168201915b5050505050905090565b6000610453338484610a1d565b50600192915050565b6000610469848484610b42565b6104bb84336104b685604051806060016040528060288152602001611d35602891396001600160a01b038a1660009081526002602090815260408083203384529091529020549190610b8f565b610a1d565b5060019392505050565b6104cf3382610bc9565b50565b6104dd338383610c7c565b5050565b3360008181526002602090815260408083206001600160a01b038716845290915281205490916104539185906104b69086610cee565b60005460ff16156105645760405162461bcd60e51b815260206004820152601260248201527169734e6f74496e697469616c697a61626c6560701b60448201526064015b60405180910390fd5b60008054610100600160a81b0319166101006001600160a01b0386160217905560068054610100600160a81b0319166101006001600160a01b038516021790556106456105b18484610d54565b6040805180820190915260078152665374616b696e6760c81b6020820152856001600160a01b031663313ce5676040518163ffffffff1660e01b815260040160206040518083038186803b15801561060857600080fd5b505afa15801561061c573d6000803e3d6000fd5b505050506040513d601f19601f820116820180604052508101906106409190611b90565b610e60565b61064e81600d55565b50506000805460ff1916600117905550565b6006546040516370a0823160e01b815230600482015260009182916101009091046001600160a01b0316906370a082319060240160206040518083038186803b1580156106ac57600080fd5b505afa1580156106c0573d6000803e3d6000fd5b505050506040513d601f19601f820116820180604052508101906106e49190611b78565b90506000600b5482600760009054906101000a90046001600160a01b03166001600160a01b031663b65e366a6040518163ffffffff1660e01b815260040160206040518083038186803b15801561073a57600080fd5b505afa15801561074e573d6000803e3d6000fd5b505050506040513d601f19601f820116820180604052508101906107729190611b78565b61077c9190611c13565b6107869190611c6a565b905060006107aa61079660035490565b600a546107a4908590610ea0565b90610f1f565b6001600160a01b03861660009081526009602052604081205460085492935090916107e091906107da9085610cee565b90610f61565b9050610811600a546107a48361080b8a6001600160a01b031660009081526001602052604090205490565b90610ea0565b9695505050505050565b6060600580546103c390611cb1565b6001600160a01b0381166000908152600c6020908152604080832081516060810183528154815260018201549381019390935260020154908201526103ae90610fa3565b600061045333846104b685604051806060016040528060258152602001611d5d602591393360009081526002602090815260408083206001600160a01b038d1684529091529020549190610b8f565b6000610453338484610b42565b6001600160a01b0381166000908152600c6020908152604080832081516060810183528154815260018201549381019390935260020154908201526103ae90610fe3565b61093260405180606001604052806000815260200160008152602001600081525090565b506001600160a01b03166000908152600c6020908152604091829020825160608101845281548152600182015492810192909252600201549181019190915290565b6104cf816000610bc9565b600061098a826108ca565b6001600160a01b03831660009081526001602052604090205410156109f15760405162461bcd60e51b815260206004820152601a60248201527f756e6c6f636b6564207374616b65206e6f7420656e6f75676874000000000000604482015260640161055b565b6109fa826108ca565b6001600160a01b0383166000908152600160205260409020546103ae9190611c6a565b6001600160a01b038316610a7f5760405162461bcd60e51b8152602060048201526024808201527f45524332303a20617070726f76652066726f6d20746865207a65726f206164646044820152637265737360e01b606482015260840161055b565b6001600160a01b038216610ae05760405162461bcd60e51b815260206004820152602260248201527f45524332303a20617070726f766520746f20746865207a65726f206164647265604482015261737360f01b606482015260840161055b565b6001600160a01b0383811660008181526002602090815260408083209487168084529482529182902085905590518481527f8c5be1e5ebec7d5bd14f71427d1e84f3dd0314c0f7b2291e5b200ac8c7c3b92591015b60405180910390a3505050565b60405162461bcd60e51b815260206004820152601b60248201527f7374616b656420746f6b656e20756e7472616e7366657261626c650000000000604482015260640161055b565b505050565b60008184841115610bb35760405162461bcd60e51b815260040161055b9190611be0565b506000610bc08486611c6a565b95945050505050565b610bd28261101e565b8015610c3057610be282826111df565b610bec82826112eb565b816001600160a01b03167f85082129d87b2fe11527cb1b3b7a520aeb5aa6913f88a3d8757fe40d1db02fdd82604051610c2791815260200190565b60405180910390a25b6000610c3b8361097f565b10156104dd5760405162461bcd60e51b815260206004820152601060248201526f756e7374616b65206f766572666c6f7760801b604482015260640161055b565b610c858261101e565b8015610b8a57610c958282611377565b50610ca982610ca485846113bc565b61155f565b816001600160a01b0316836001600160a01b03167f99039fcf0a98f484616c5196ee8b2ecfa971babf0b519848289ea4db381f85f783604051610b3591815260200190565b600080610cfb8385611c13565b905083811015610d4d5760405162461bcd60e51b815260206004820152601b60248201527f536166654d6174683a206164646974696f6e206f766572666c6f770000000000604482015260640161055b565b9392505050565b606080610df460405180604001604052806007815260200166029ba30b5b2b2160cd1b815250856001600160a01b03166395d89b416040518163ffffffff1660e01b815260040160006040518083038186803b158015610db357600080fd5b505afa158015610dc7573d6000803e3d6000fd5b505050506040513d6000823e601f3d908101601f19168201604052610def9190810190611ab7565b611639565b9050610e1981604051806040016040528060018152602001602d60f81b815250611639565b9050610e5881846001600160a01b03166395d89b416040518163ffffffff1660e01b815260040160006040518083038186803b158015610db357600080fd5b949350505050565b8251610e73906004906020860190611932565b508151610e87906005906020850190611932565b506006805460ff191660ff929092169190911790555050565b600082610eaf575060006103ae565b6000610ebb8385611c4b565b905082610ec88583611c2b565b14610d4d5760405162461bcd60e51b815260206004820152602160248201527f536166654d6174683a206d756c7469706c69636174696f6e206f766572666c6f6044820152607760f81b606482015260840161055b565b6000610d4d83836040518060400160405280601a81526020017f536166654d6174683a206469766973696f6e206279207a65726f000000000000815250611665565b6000610d4d83836040518060400160405280601e81526020017f536166654d6174683a207375627472616374696f6e206f766572666c6f770000815250610b8f565b80516000908190610fb5904290610f61565b905082604001518110610fcb5760009150610fdd565b6040830151610fda9082610f61565b91505b50919050565b600080610fef83610fa3565b905080610fff5760009150610fdd565b610fda83604001516107a4856020015184610ea090919063ffffffff16565b600061102960035490565b111561116557600760009054906101000a90046001600160a01b03166001600160a01b031663e4fc6b6d6040518163ffffffff1660e01b8152600401600060405180830381600087803b15801561107f57600080fd5b505af1158015611093573d6000803e3d6000fd5b50506006546040516370a0823160e01b8152306004820152600093506101009091046001600160a01b031691506370a082319060240160206040518083038186803b1580156110e157600080fd5b505afa1580156110f5573d6000803e3d6000fd5b505050506040513d601f19601f820116820180604052508101906111199190611b78565b90506000600b548261112b9190611c6a565b600b839055905061114c61113e60035490565b600a546107a4908490610ea0565b6008600082825461115d9190611c13565b909155505050505b6001600160a01b03811660009081526009602052604081205460085461118a91610f61565b905060006111b7600a546107a48461080b876001600160a01b031660009081526001602052604090205490565b6008546001600160a01b0385166000908152600960205260409020559050610b8a8382611693565b6001600160a01b03821661123f5760405162461bcd60e51b815260206004820152602160248201527f45524332303a206275726e2066726f6d20746865207a65726f206164647265736044820152607360f81b606482015260840161055b565b61127c81604051806060016040528060228152602001611d13602291396001600160a01b0385166000908152600160205260409020549190610b8f565b6001600160a01b0383166000908152600160205260409020556003546112a29082610f61565b6003556040518181526000906001600160a01b038416907fddf252ad1be2c89b69c2b068fc378daa952ba7f163c4a11628f55a4df523b3ef906020015b60405180910390a35050565b60005460405163a9059cbb60e01b81526001600160a01b038481166004830152602482018490526101009092049091169063a9059cbb90604401602060405180830381600087803b15801561133f57600080fd5b505af1158015611353573d6000803e3d6000fd5b505050506040513d601f19601f82011682018060405250810190610b8a9190611a97565b60006001600d5411156113b3576001600160a01b0383166000908152600c60205260409020600d546113ab9190849061177d565b5060016103ae565b50600092915050565b600080546040516370a0823160e01b8152306004820152829161010090046001600160a01b0316906370a082319060240160206040518083038186803b15801561140557600080fd5b505afa158015611419573d6000803e3d6000fd5b505050506040513d601f19601f8201168201806040525081019061143d9190611b78565b6000546040516323b872dd60e01b81526001600160a01b03878116600483015230602483015260448201879052929350610100909104909116906323b872dd90606401602060405180830381600087803b15801561149a57600080fd5b505af11580156114ae573d6000803e3d6000fd5b505050506040513d601f19601f820116820180604052508101906114d29190611a97565b50600080546040516370a0823160e01b81523060048201526101009091046001600160a01b0316906370a082319060240160206040518083038186803b15801561151b57600080fd5b505afa15801561152f573d6000803e3d6000fd5b505050506040513d601f19601f820116820180604052508101906115539190611b78565b9050610bc08282611c6a565b6001600160a01b0382166115b55760405162461bcd60e51b815260206004820152601f60248201527f45524332303a206d696e7420746f20746865207a65726f206164647265737300604482015260640161055b565b6003546115c29082610cee565b6003556001600160a01b0382166000908152600160205260409020546115e89082610cee565b6001600160a01b0383166000818152600160205260408082209390935591519091907fddf252ad1be2c89b69c2b068fc378daa952ba7f163c4a11628f55a4df523b3ef906112df9085815260200190565b6060828260405160200161164e929190611bb1565b604051602081830303815290604052905092915050565b600081836116865760405162461bcd60e51b815260040161055b9190611be0565b506000610bc08486611c2b565b80156104dd57600b546116a69082610f61565b600b5560065460405163a9059cbb60e01b81526001600160a01b038481166004830152602482018490526101009092049091169063a9059cbb90604401602060405180830381600087803b1580156116fd57600080fd5b505af1158015611711573d6000803e3d6000fd5b505050506040513d601f19601f820116820180604052508101906117359190611a97565b50816001600160a01b03167fba8de60c3403ec381d1d484652ea1980e3c3e56359195c92525bff4ce47ad98e8260405161177191815260200190565b60405180910390a25050565b811580611788575080155b1561179257505050565b61179b83611861565b60006117b884600201548560010154610ea090919063ffffffff16565b905060006117c68484610ea0565b90506117ec6117e2858760010154610cee90919063ffffffff16565b6107a48484610cee565b600286015560018501546118009085610cee565b60018601554285556040517fe07fdbc26a8001506c5f058f6ab03687030b84b808efb98548b198cd4ab66551906118529087908154815260018201546020820152600290910154604082015260600190565b60405180910390a15050505050565b60408051606081018252825481526001830154602082015260028301549181019190915260009061189190610fa3565b9050806118ae5760006001830181905560028301554282556118dd565b6118cd82600201546107a4846001015484610ea090919063ffffffff16565b6001830155600282018190554282555b7fe07fdbc26a8001506c5f058f6ab03687030b84b808efb98548b198cd4ab665518260405161192691908154815260018201546020820152600290910154604082015260600190565b60405180910390a15050565b82805461193e90611cb1565b90600052602060002090601f01602090048101928261196057600085556119a6565b82601f1061197957805160ff19168380011785556119a6565b828001600101855582156119a6579182015b828111156119a657825182559160200191906001019061198b565b506119b29291506119b6565b5090565b5b808211156119b257600081556001016119b7565b80356001600160a01b03811681146119e257600080fd5b919050565b6000602082840312156119f8578081fd5b610d4d826119cb565b60008060408385031215611a13578081fd5b611a1c836119cb565b9150611a2a602084016119cb565b90509250929050565b600080600060608486031215611a47578081fd5b611a50846119cb565b9250611a5e602085016119cb565b9150604084013590509250925092565b60008060408385031215611a80578182fd5b611a89836119cb565b946020939093013593505050565b600060208284031215611aa8578081fd5b81518015158114610d4d578182fd5b600060208284031215611ac8578081fd5b815167ffffffffffffffff80821115611adf578283fd5b818401915084601f830112611af2578283fd5b815181811115611b0457611b04611cfc565b604051601f8201601f19908116603f01168101908382118183101715611b2c57611b2c611cfc565b81604052828152876020848701011115611b44578586fd5b611b55836020830160208801611c81565b979650505050505050565b600060208284031215611b71578081fd5b5035919050565b600060208284031215611b89578081fd5b5051919050565b600060208284031215611ba1578081fd5b815160ff81168114610d4d578182fd5b60008351611bc3818460208801611c81565b835190830190611bd7818360208801611c81565b01949350505050565b6020815260008251806020840152611bff816040850160208701611c81565b601f01601f19169190910160400192915050565b60008219821115611c2657611c26611ce6565b500190565b600082611c4657634e487b7160e01b81526012600452602481fd5b500490565b6000816000190483118215151615611c6557611c65611ce6565b500290565b600082821015611c7c57611c7c611ce6565b500390565b60005b83811015611c9c578181015183820152602001611c84565b83811115611cab576000848401525b50505050565b600181811c90821680611cc557607f821691505b60208210811415610fdd57634e487b7160e01b600052602260045260246000fd5b634e487b7160e01b600052601160045260246000fd5b634e487b7160e01b600052604160045260246000fdfe45524332303a206275726e20616d6f756e7420657863656564732062616c616e636545524332303a207472616e7366657220616d6f756e74206578636565647320616c6c6f77616e636545524332303a2064656372656173656420616c6c6f77616e63652062656c6f77207a65726fa2646970667358221220de762cd600eddab8f58269ae3257e86de17cf5c8e5be58dcdc168ed32e343ddd64736f6c63430008040033608060405234801561001057600080fd5b50610419806100206000396000f3fe608060405234801561001057600080fd5b50600436106100575760003560e01c8063351308251461005c5780635398457d1461007257806392b4bb5014610087578063b65e366a1461008f578063e4fc6b6d14610097575b600080fd5b6003545b60405190815260200160405180910390f35b610085610080366004610317565b61009f565b005b600254610060565b61006061015e565b61008561016d565b60005460ff16156100eb5760405162461bcd60e51b815260206004820152601260248201527169734e6f74496e697469616c697a61626c6560701b604482015260640160405180910390fd5b60008054610100600160a81b0319166101006001600160a01b038781169190910291909117909155600180546001600160a01b031916918516919091179055600282905542811161013f5742600455610145565b60048190555b505060045460035550506000805460ff19166001179055565b6000610168610218565b905090565b6000610177610218565b905080156102155742600490815560015460005460405163a9059cbb60e01b81526001600160a01b0361010090920482169381019390935260248301849052169063a9059cbb90604401602060405180830381600087803b1580156101db57600080fd5b505af11580156101ef573d6000803e3d6000fd5b505050506040513d601f19601f820116820180604052508101906102139190610358565b505b50565b600042600454106102295750600090565b6001546040516370a0823160e01b81523060048201526000916001600160a01b0316906370a082319060240160206040518083038186803b15801561026d57600080fd5b505afa158015610281573d6000803e3d6000fd5b505050506040513d601f19601f820116820180604052508101906102a5919061037f565b9050806102b457600091505090565b6002546102c057919050565b6000600454426102d091906103b6565b90506000600254826102e29190610397565b90508281116102f157806102f3565b825b935050505090565b80356001600160a01b038116811461031257600080fd5b919050565b6000806000806080858703121561032c578384fd5b610335856102fb565b9350610343602086016102fb565b93969395505050506040820135916060013590565b600060208284031215610369578081fd5b81518015158114610378578182fd5b9392505050565b600060208284031215610390578081fd5b5051919050565b60008160001904831182151516156103b1576103b16103cd565b500290565b6000828210156103c8576103c86103cd565b500390565b634e487b7160e01b600052601160045260246000fdfea2646970667358221220b74a97387196538b6a7604e6dd22d78139e207f4e56904a8f6eb61c39df4f42e64736f6c63430008040033a2646970667358221220c7ee8872a67a5fd4495740084a01d03db761b21ba346490691aad7dd7e56793f64736f6c63430008040033",
  "linkReferences": {},
  "deployedLinkReferences": {}
}