{
  "_format": "hh-sol-artifact-1",
  "contractName": "Staking",
  "sourceName": "contracts/Staking.sol",
  "abi": [
    {
      "anonymous": false,
      "inputs": [
        {
          "indexed": true,
          "internalType": "address",
          "name": "owner",
          "type": "address"
        },
        {
          "indexed": true,
          "internalType": "address",
          "name": "spender",
          "type": "address"
        },
        {
          "indexed": false,
          "internalType": "uint256",
          "name": "value",
          "type": "uint256"
        }
      ],
      "name": "Approval",
      "type": "event"
    },
    {
      "anonymous": false,
      "inputs": [
        {
          "indexed": true,
          "internalType": "address",
          "name": "account",
          "type": "address"
        },
        {
          "indexed": false,
          "internalType": "uint256",
          "name": "amount",
          "type": "uint256"
        }
      ],
      "name": "ClaimReward",
      "type": "event"
    },
    {
      "anonymous": false,
      "inputs": [
        {
          "indexed": true,
          "internalType": "address",
          "name": "spender",
          "type": "address"
        },
        {
          "indexed": true,
          "internalType": "address",
          "name": "account",
          "type": "address"
        },
        {
          "indexed": false,
          "internalType": "uint256",
          "name": "amount",
          "type": "uint256"
        }
      ],
      "name": "Stake",
      "type": "event"
    },
    {
      "anonymous": false,
      "inputs": [
        {
          "indexed": true,
          "internalType": "address",
          "name": "from",
          "type": "address"
        },
        {
          "indexed": true,
          "internalType": "address",
          "name": "to",
          "type": "address"
        },
        {
          "indexed": false,
          "internalType": "uint256",
          "name": "value",
          "type": "uint256"
        }
      ],
      "name": "Transfer",
      "type": "event"
    },
    {
      "anonymous": false,
      "inputs": [
        {
          "indexed": true,
          "internalType": "address",
          "name": "account",
          "type": "address"
        },
        {
          "indexed": false,
          "internalType": "uint256",
          "name": "amount",
          "type": "uint256"
        }
      ],
      "name": "Unstake",
      "type": "event"
    },
    {
      "anonymous": false,
      "inputs": [
        {
          "components": [
            {
              "internalType": "uint256",
              "name": "updatedAt",
              "type": "uint256"
            },
            {
              "internalType": "uint256",
              "name": "amount",
              "type": "uint256"
            },
            {
              "internalType": "uint256",
              "name": "duration",
              "type": "uint256"
            }
          ],
          "indexed": false,
          "internalType": "struct Lockable.SLock",
          "name": "lockData",
          "type": "tuple"
        }
      ],
      "name": "UpdateLockData",
      "type": "event"
    },
    {
      "inputs": [
        {
          "internalType": "address",
          "name": "owner",
          "type": "address"
        },
        {
          "internalType": "address",
          "name": "spender",
          "type": "address"
        }
      ],
      "name": "allowance",
      "outputs": [
        {
          "internalType": "uint256",
          "name": "",
          "type": "uint256"
        }
      ],
      "stateMutability": "view",
      "type": "function"
    },
    {
      "inputs": [
        {
          "internalType": "address",
          "name": "spender",
          "type": "address"
        },
        {
          "internalType": "uint256",
          "name": "amount",
          "type": "uint256"
        }
      ],
      "name": "approve",
      "outputs": [
        {
          "internalType": "bool",
          "name": "",
          "type": "bool"
        }
      ],
      "stateMutability": "nonpayable",
      "type": "function"
    },
    {
      "inputs": [
        {
          "internalType": "address",
          "name": "account",
          "type": "address"
        }
      ],
      "name": "balanceOf",
      "outputs": [
        {
          "internalType": "uint256",
          "name": "",
          "type": "uint256"
        }
      ],
      "stateMutability": "view",
      "type": "function"
    },
    {
      "inputs": [
        {
          "internalType": "address",
          "name": "account_",
          "type": "address"
        }
      ],
      "name": "claimFor",
      "outputs": [],
      "stateMutability": "nonpayable",
      "type": "function"
    },
    {
      "inputs": [
        {
          "internalType": "address",
          "name": "account_",
          "type": "address"
        }
      ],
      "name": "claimableOf",
      "outputs": [
        {
          "internalType": "uint256",
          "name": "",
          "type": "uint256"
        }
      ],
      "stateMutability": "view",
      "type": "function"
    },
    {
      "inputs": [],
      "name": "decimals",
      "outputs": [
        {
          "internalType": "uint8",
          "name": "",
          "type": "uint8"
        }
      ],
      "stateMutability": "view",
      "type": "function"
    },
    {
      "inputs": [
        {
          "internalType": "address",
          "name": "spender",
          "type": "address"
        },
        {
          "internalType": "uint256",
          "name": "subtractedValue",
          "type": "uint256"
        }
      ],
      "name": "decreaseAllowance",
      "outputs": [
        {
          "internalType": "bool",
          "name": "",
          "type": "bool"
        }
      ],
      "stateMutability": "nonpayable",
      "type": "function"
    },
    {
      "inputs": [],
      "name": "defaultLockDuration",
      "outputs": [
        {
          "internalType": "uint256",
          "name": "",
          "type": "uint256"
        }
      ],
      "stateMutability": "view",
      "type": "function"
    },
    {
      "inputs": [],
      "name": "depositToken",
      "outputs": [
        {
          "internalType": "contract IERC20",
          "name": "",
          "type": "address"
        }
      ],
      "stateMutability": "view",
      "type": "function"
    },
    {
      "inputs": [],
      "name": "distributor",
      "outputs": [
        {
          "internalType": "contract IDistributor",
          "name": "",
          "type": "address"
        }
      ],
      "stateMutability": "view",
      "type": "function"
    },
    {
      "inputs": [
        {
          "internalType": "address",
          "name": "spender",
          "type": "address"
        },
        {
          "internalType": "uint256",
          "name": "addedValue",
          "type": "uint256"
        }
      ],
      "name": "increaseAllowance",
      "outputs": [
        {
          "internalType": "bool",
          "name": "",
          "type": "bool"
        }
      ],
      "stateMutability": "nonpayable",
      "type": "function"
    },
    {
      "inputs": [
        {
          "internalType": "address",
          "name": "depositTokenAddr_",
          "type": "address"
        },
        {
          "internalType": "address",
          "name": "rewardTokenAddr_",
          "type": "address"
        },
        {
          "internalType": "uint256",
          "name": "lockDuration_",
          "type": "uint256"
        },
        {
          "internalType": "address",
          "name": "distributorAddr_",
          "type": "address"
        }
      ],
      "name": "initStaking",
      "outputs": [],
      "stateMutability": "nonpayable",
      "type": "function"
    },
    {
      "inputs": [
        {
          "internalType": "address",
          "name": "account_",
          "type": "address"
        }
      ],
      "name": "lockDataOf",
      "outputs": [
        {
          "components": [
            {
              "internalType": "uint256",
              "name": "updatedAt",
              "type": "uint256"
            },
            {
              "internalType": "uint256",
              "name": "amount",
              "type": "uint256"
            },
            {
              "internalType": "uint256",
              "name": "duration",
              "type": "uint256"
            }
          ],
          "internalType": "struct Lockable.SLock",
          "name": "",
          "type": "tuple"
        }
      ],
      "stateMutability": "view",
      "type": "function"
    },
    {
      "inputs": [
        {
          "internalType": "address",
          "name": "account_",
          "type": "address"
        }
      ],
      "name": "lockDurationOf",
      "outputs": [
        {
          "internalType": "uint256",
          "name": "restLockDuration",
          "type": "uint256"
        }
      ],
      "stateMutability": "view",
      "type": "function"
    },
    {
      "inputs": [
        {
          "internalType": "address",
          "name": "account_",
          "type": "address"
        }
      ],
      "name": "lockedAOf",
      "outputs": [
        {
          "internalType": "uint256",
          "name": "lockedA",
          "type": "uint256"
        }
      ],
      "stateMutability": "view",
      "type": "function"
    },
    {
      "inputs": [],
      "name": "name",
      "outputs": [
        {
          "internalType": "string",
          "name": "",
          "type": "string"
        }
      ],
      "stateMutability": "view",
      "type": "function"
    },
    {
      "inputs": [],
      "name": "rewardToken",
      "outputs": [
        {
          "internalType": "contract IERC20",
          "name": "",
          "type": "address"
        }
      ],
      "stateMutability": "view",
      "type": "function"
    },
    {
      "inputs": [
        {
          "internalType": "address",
          "name": "account_",
          "type": "address"
        },
        {
          "internalType": "uint256",
          "name": "amount_",
          "type": "uint256"
        }
      ],
      "name": "stakeFor",
      "outputs": [],
      "stateMutability": "nonpayable",
      "type": "function"
    },
    {
      "inputs": [],
      "name": "symbol",
      "outputs": [
        {
          "internalType": "string",
          "name": "",
          "type": "string"
        }
      ],
      "stateMutability": "view",
      "type": "function"
    },
    {
      "inputs": [],
      "name": "totalSupply",
      "outputs": [
        {
          "internalType": "uint256",
          "name": "",
          "type": "uint256"
        }
      ],
      "stateMutability": "view",
      "type": "function"
    },
    {
      "inputs": [
        {
          "internalType": "address",
          "name": "recipient",
          "type": "address"
        },
        {
          "internalType": "uint256",
          "name": "amount",
          "type": "uint256"
        }
      ],
      "name": "transfer",
      "outputs": [
        {
          "internalType": "bool",
          "name": "",
          "type": "bool"
        }
      ],
      "stateMutability": "nonpayable",
      "type": "function"
    },
    {
      "inputs": [
        {
          "internalType": "address",
          "name": "sender",
          "type": "address"
        },
        {
          "internalType": "address",
          "name": "recipient",
          "type": "address"
        },
        {
          "internalType": "uint256",
          "name": "amount",
          "type": "uint256"
        }
      ],
      "name": "transferFrom",
      "outputs": [
        {
          "internalType": "bool",
          "name": "",
          "type": "bool"
        }
      ],
      "stateMutability": "nonpayable",
      "type": "function"
    },
    {
      "inputs": [
        {
          "internalType": "uint256",
          "name": "amount_",
          "type": "uint256"
        }
      ],
      "name": "unstake",
      "outputs": [],
      "stateMutability": "nonpayable",
      "type": "function"
    },
    {
      "inputs": [
        {
          "internalType": "address",
          "name": "account_",
          "type": "address"
        }
      ],
      "name": "unstakeableA",
      "outputs": [
        {
          "internalType": "uint256",
          "name": "",
          "type": "uint256"
        }
      ],
      "stateMutability": "view",
      "type": "function"
    }
  ],
  "bytecode": "0x60806040526c0c9f2c9cd04674edea40000000600a5534801561002157600080fd5b50611e23806100316000396000f3fe608060405234801561001057600080fd5b50600436106101585760003560e01c80638903ab9d116100c3578063bfe109281161007c578063bfe10928146102d1578063c2ab7e64146102f6578063c89039c51461032b578063dd62ed3e14610341578063ddeae0331461037a578063f7c618c11461038d57600080fd5b80638903ab9d1461026a57806395d89b411461027d578063a2a7952014610285578063a457c2d714610298578063a9059cbb146102ab578063ac7a3d9b146102be57600080fd5b806323b872dd1161011557806323b872dd146101e05780632e17de78146101f35780632ee4090814610206578063313ce56714610219578063395093511461022e57806370a082311461024157600080fd5b8063034487ab1461015d578063035abd931461017257806306fdde0314610198578063095ea7b3146101ad5780630fd6699b146101d057806318160ddd146101d8575b600080fd5b61017061016b366004611a8e565b6103a3565b005b610185610180366004611a07565b61050c565b6040519081526020015b60405180910390f35b6101a061051d565b60405161018f9190611c4c565b6101c06101bb366004611ada565b6105af565b604051901515815260200161018f565b600d54610185565b600354610185565b6101c06101ee366004611a53565b6105c5565b610170610201366004611bcc565b61062e565b610170610214366004611ada565b61063b565b60065460405160ff909116815260200161018f565b6101c061023c366004611ada565b61064a565b61018561024f366004611a07565b6001600160a01b031660009081526001602052604090205490565b610185610278366004611a07565b610680565b6101a061083b565b610185610293366004611a07565b61084a565b6101c06102a6366004611ada565b61088e565b6101c06102b9366004611ada565b6108dd565b6101856102cc366004611a07565b6108ea565b6007546001600160a01b03165b6040516001600160a01b03909116815260200161018f565b610309610304366004611a07565b61092e565b604080518251815260208084015190820152918101519082015260600161018f565b60005461010090046001600160a01b03166102de565b61018561034f366004611a21565b6001600160a01b03918216600090815260026020908152604080832093909416825291909152205490565b610170610388366004611a07565b610994565b60065461010090046001600160a01b03166102de565b60005460ff16156103f05760405162461bcd60e51b815260206004820152601260248201527169734e6f74496e697469616c697a61626c6560701b60448201526064015b60405180910390fd5b60008054610100600160a81b0319166101006001600160a01b0387160217905560068054610100600160a81b0319166101006001600160a01b038616021790556104d161043d858561099f565b6040805180820190915260078152665374616b696e6760c81b6020820152866001600160a01b031663313ce5676040518163ffffffff1660e01b815260040160206040518083038186803b15801561049457600080fd5b505afa1580156104a8573d6000803e3d6000fd5b505050506040513d601f19601f820116820180604052508101906104cc9190611bfc565b610aab565b6104da82600d55565b600780546001600160a01b0319166001600160a01b039290921691909117905550506000805460ff1916600117905550565b600061051782610aeb565b92915050565b60606004805461052c90611d1d565b80601f016020809104026020016040519081016040528092919081815260200182805461055890611d1d565b80156105a55780601f1061057a576101008083540402835291602001916105a5565b820191906000526020600020905b81548152906001019060200180831161058857829003601f168201915b5050505050905090565b60006105bc338484610b89565b50600192915050565b60006105d2848484610cae565b610624843361061f85604051806060016040528060288152602001611da1602891396001600160a01b038a1660009081526002602090815260408083203384529091529020549190610cfb565b610b89565b5060019392505050565b6106383382610d35565b50565b610646338383610de8565b5050565b3360008181526002602090815260408083206001600160a01b038716845290915281205490916105bc91859061061f9086610e5a565b6006546040516370a0823160e01b815230600482015260009182916101009091046001600160a01b0316906370a082319060240160206040518083038186803b1580156106cc57600080fd5b505afa1580156106e0573d6000803e3d6000fd5b505050506040513d601f19601f820116820180604052508101906107049190611be4565b90506000600b5482600760009054906101000a90046001600160a01b03166001600160a01b031663b65e366a6040518163ffffffff1660e01b815260040160206040518083038186803b15801561075a57600080fd5b505afa15801561076e573d6000803e3d6000fd5b505050506040513d601f19601f820116820180604052508101906107929190611be4565b61079c9190611c7f565b6107a69190611cd6565b905060006107ca6107b660035490565b600a546107c4908590610ec0565b90610f3f565b6001600160a01b038616600090815260096020526040812054600854929350909161080091906107fa9085610e5a565b90610f81565b9050610831600a546107c48361082b8a6001600160a01b031660009081526001602052604090205490565b90610ec0565b9695505050505050565b60606005805461052c90611d1d565b6001600160a01b0381166000908152600c60209081526040808320815160608101835281548152600182015493810193909352600201549082015261051790610fc3565b60006105bc338461061f85604051806060016040528060258152602001611dc9602591393360009081526002602090815260408083206001600160a01b038d1684529091529020549190610cfb565b60006105bc338484610cae565b6001600160a01b0381166000908152600c60209081526040808320815160608101835281548152600182015493810193909352600201549082015261051790611003565b61095260405180606001604052806000815260200160008152602001600081525090565b506001600160a01b03166000908152600c6020908152604091829020825160608101845281548152600182015492810192909252600201549181019190915290565b610638816000610d35565b606080610a3f60405180604001604052806007815260200166029ba30b5b2b2160cd1b815250856001600160a01b03166395d89b416040518163ffffffff1660e01b815260040160006040518083038186803b1580156109fe57600080fd5b505afa158015610a12573d6000803e3d6000fd5b505050506040513d6000823e601f3d908101601f19168201604052610a3a9190810190611b23565b61103e565b9050610a6481604051806040016040528060018152602001602d60f81b81525061103e565b9050610aa381846001600160a01b03166395d89b416040518163ffffffff1660e01b815260040160006040518083038186803b1580156109fe57600080fd5b949350505050565b8251610abe906004906020860190611952565b508151610ad2906005906020850190611952565b506006805460ff191660ff929092169190911790555050565b6000610af6826108ea565b6001600160a01b0383166000908152600160205260409020541015610b5d5760405162461bcd60e51b815260206004820152601a60248201527f756e6c6f636b6564207374616b65206e6f7420656e6f7567687400000000000060448201526064016103e7565b610b66826108ea565b6001600160a01b0383166000908152600160205260409020546105179190611cd6565b6001600160a01b038316610beb5760405162461bcd60e51b8152602060048201526024808201527f45524332303a20617070726f76652066726f6d20746865207a65726f206164646044820152637265737360e01b60648201526084016103e7565b6001600160a01b038216610c4c5760405162461bcd60e51b815260206004820152602260248201527f45524332303a20617070726f766520746f20746865207a65726f206164647265604482015261737360f01b60648201526084016103e7565b6001600160a01b0383811660008181526002602090815260408083209487168084529482529182902085905590518481527f8c5be1e5ebec7d5bd14f71427d1e84f3dd0314c0f7b2291e5b200ac8c7c3b92591015b60405180910390a3505050565b60405162461bcd60e51b815260206004820152601b60248201527f7374616b656420746f6b656e20756e7472616e7366657261626c65000000000060448201526064016103e7565b505050565b60008184841115610d1f5760405162461bcd60e51b81526004016103e79190611c4c565b506000610d2c8486611cd6565b95945050505050565b610d3e8261106a565b8015610d9c57610d4e828261122b565b610d588282611337565b816001600160a01b03167f85082129d87b2fe11527cb1b3b7a520aeb5aa6913f88a3d8757fe40d1db02fdd82604051610d9391815260200190565b60405180910390a25b6000610da783610aeb565b10156106465760405162461bcd60e51b815260206004820152601060248201526f756e7374616b65206f766572666c6f7760801b60448201526064016103e7565b610df18261106a565b8015610cf657610e0182826113c3565b50610e1582610e108584611408565b6115ab565b816001600160a01b0316836001600160a01b03167f99039fcf0a98f484616c5196ee8b2ecfa971babf0b519848289ea4db381f85f783604051610ca191815260200190565b600080610e678385611c7f565b905083811015610eb95760405162461bcd60e51b815260206004820152601b60248201527f536166654d6174683a206164646974696f6e206f766572666c6f77000000000060448201526064016103e7565b9392505050565b600082610ecf57506000610517565b6000610edb8385611cb7565b905082610ee88583611c97565b14610eb95760405162461bcd60e51b815260206004820152602160248201527f536166654d6174683a206d756c7469706c69636174696f6e206f766572666c6f6044820152607760f81b60648201526084016103e7565b6000610eb983836040518060400160405280601a81526020017f536166654d6174683a206469766973696f6e206279207a65726f000000000000815250611685565b6000610eb983836040518060400160405280601e81526020017f536166654d6174683a207375627472616374696f6e206f766572666c6f770000815250610cfb565b80516000908190610fd5904290610f81565b905082604001518110610feb5760009150610ffd565b6040830151610ffa9082610f81565b91505b50919050565b60008061100f83610fc3565b90508061101f5760009150610ffd565b610ffa83604001516107c4856020015184610ec090919063ffffffff16565b60608282604051602001611053929190611c1d565b604051602081830303815290604052905092915050565b600061107560035490565b11156111b157600760009054906101000a90046001600160a01b03166001600160a01b031663e4fc6b6d6040518163ffffffff1660e01b8152600401600060405180830381600087803b1580156110cb57600080fd5b505af11580156110df573d6000803e3d6000fd5b50506006546040516370a0823160e01b8152306004820152600093506101009091046001600160a01b031691506370a082319060240160206040518083038186803b15801561112d57600080fd5b505afa158015611141573d6000803e3d6000fd5b505050506040513d601f19601f820116820180604052508101906111659190611be4565b90506000600b54826111779190611cd6565b600b839055905061119861118a60035490565b600a546107c4908490610ec0565b600860008282546111a99190611c7f565b909155505050505b6001600160a01b0381166000908152600960205260408120546008546111d691610f81565b90506000611203600a546107c48461082b876001600160a01b031660009081526001602052604090205490565b6008546001600160a01b0385166000908152600960205260409020559050610cf683826116b3565b6001600160a01b03821661128b5760405162461bcd60e51b815260206004820152602160248201527f45524332303a206275726e2066726f6d20746865207a65726f206164647265736044820152607360f81b60648201526084016103e7565b6112c881604051806060016040528060228152602001611d7f602291396001600160a01b0385166000908152600160205260409020549190610cfb565b6001600160a01b0383166000908152600160205260409020556003546112ee9082610f81565b6003556040518181526000906001600160a01b038416907fddf252ad1be2c89b69c2b068fc378daa952ba7f163c4a11628f55a4df523b3ef906020015b60405180910390a35050565b60005460405163a9059cbb60e01b81526001600160a01b038481166004830152602482018490526101009092049091169063a9059cbb90604401602060405180830381600087803b15801561138b57600080fd5b505af115801561139f573d6000803e3d6000fd5b505050506040513d601f19601f82011682018060405250810190610cf69190611b03565b60006001600d5411156113ff576001600160a01b0383166000908152600c60205260409020600d546113f79190849061179d565b506001610517565b50600092915050565b600080546040516370a0823160e01b8152306004820152829161010090046001600160a01b0316906370a082319060240160206040518083038186803b15801561145157600080fd5b505afa158015611465573d6000803e3d6000fd5b505050506040513d601f19601f820116820180604052508101906114899190611be4565b6000546040516323b872dd60e01b81526001600160a01b03878116600483015230602483015260448201879052929350610100909104909116906323b872dd90606401602060405180830381600087803b1580156114e657600080fd5b505af11580156114fa573d6000803e3d6000fd5b505050506040513d601f19601f8201168201806040525081019061151e9190611b03565b50600080546040516370a0823160e01b81523060048201526101009091046001600160a01b0316906370a082319060240160206040518083038186803b15801561156757600080fd5b505afa15801561157b573d6000803e3d6000fd5b505050506040513d601f19601f8201168201806040525081019061159f9190611be4565b9050610d2c8282611cd6565b6001600160a01b0382166116015760405162461bcd60e51b815260206004820152601f60248201527f45524332303a206d696e7420746f20746865207a65726f20616464726573730060448201526064016103e7565b60035461160e9082610e5a565b6003556001600160a01b0382166000908152600160205260409020546116349082610e5a565b6001600160a01b0383166000818152600160205260408082209390935591519091907fddf252ad1be2c89b69c2b068fc378daa952ba7f163c4a11628f55a4df523b3ef9061132b9085815260200190565b600081836116a65760405162461bcd60e51b81526004016103e79190611c4c565b506000610d2c8486611c97565b801561064657600b546116c69082610f81565b600b5560065460405163a9059cbb60e01b81526001600160a01b038481166004830152602482018490526101009092049091169063a9059cbb90604401602060405180830381600087803b15801561171d57600080fd5b505af1158015611731573d6000803e3d6000fd5b505050506040513d601f19601f820116820180604052508101906117559190611b03565b50816001600160a01b03167fba8de60c3403ec381d1d484652ea1980e3c3e56359195c92525bff4ce47ad98e8260405161179191815260200190565b60405180910390a25050565b8115806117a8575080155b156117b257505050565b6117bb83611881565b60006117d884600201548560010154610ec090919063ffffffff16565b905060006117e68484610ec0565b905061180c611802858760010154610e5a90919063ffffffff16565b6107c48484610e5a565b600286015560018501546118209085610e5a565b60018601554285556040517fe07fdbc26a8001506c5f058f6ab03687030b84b808efb98548b198cd4ab66551906118729087908154815260018201546020820152600290910154604082015260600190565b60405180910390a15050505050565b6040805160608101825282548152600183015460208201526002830154918101919091526000906118b190610fc3565b9050806118ce5760006001830181905560028301554282556118fd565b6118ed82600201546107c4846001015484610ec090919063ffffffff16565b6001830155600282018190554282555b7fe07fdbc26a8001506c5f058f6ab03687030b84b808efb98548b198cd4ab665518260405161194691908154815260018201546020820152600290910154604082015260600190565b60405180910390a15050565b82805461195e90611d1d565b90600052602060002090601f01602090048101928261198057600085556119c6565b82601f1061199957805160ff19168380011785556119c6565b828001600101855582156119c6579182015b828111156119c65782518255916020019190600101906119ab565b506119d29291506119d6565b5090565b5b808211156119d257600081556001016119d7565b80356001600160a01b0381168114611a0257600080fd5b919050565b600060208284031215611a18578081fd5b610eb9826119eb565b60008060408385031215611a33578081fd5b611a3c836119eb565b9150611a4a602084016119eb565b90509250929050565b600080600060608486031215611a67578081fd5b611a70846119eb565b9250611a7e602085016119eb565b9150604084013590509250925092565b60008060008060808587031215611aa3578081fd5b611aac856119eb565b9350611aba602086016119eb565b925060408501359150611acf606086016119eb565b905092959194509250565b60008060408385031215611aec578182fd5b611af5836119eb565b946020939093013593505050565b600060208284031215611b14578081fd5b81518015158114610eb9578182fd5b600060208284031215611b34578081fd5b815167ffffffffffffffff80821115611b4b578283fd5b818401915084601f830112611b5e578283fd5b815181811115611b7057611b70611d68565b604051601f8201601f19908116603f01168101908382118183101715611b9857611b98611d68565b81604052828152876020848701011115611bb0578586fd5b611bc1836020830160208801611ced565b979650505050505050565b600060208284031215611bdd578081fd5b5035919050565b600060208284031215611bf5578081fd5b5051919050565b600060208284031215611c0d578081fd5b815160ff81168114610eb9578182fd5b60008351611c2f818460208801611ced565b835190830190611c43818360208801611ced565b01949350505050565b6020815260008251806020840152611c6b816040850160208701611ced565b601f01601f19169190910160400192915050565b60008219821115611c9257611c92611d52565b500190565b600082611cb257634e487b7160e01b81526012600452602481fd5b500490565b6000816000190483118215151615611cd157611cd1611d52565b500290565b600082821015611ce857611ce8611d52565b500390565b60005b83811015611d08578181015183820152602001611cf0565b83811115611d17576000848401525b50505050565b600181811c90821680611d3157607f821691505b60208210811415610ffd57634e487b7160e01b600052602260045260246000fd5b634e487b7160e01b600052601160045260246000fd5b634e487b7160e01b600052604160045260246000fdfe45524332303a206275726e20616d6f756e7420657863656564732062616c616e636545524332303a207472616e7366657220616d6f756e74206578636565647320616c6c6f77616e636545524332303a2064656372656173656420616c6c6f77616e63652062656c6f77207a65726fa264697066735822122029b76ecee9e52bdcff0d8a4837b9905f82d37662f5316e88cc09b0119618234164736f6c63430008040033",
  "linkReferences": {},
  "deployedLinkReferences": {}
}