{
	"_format": "hh-sol-artifact-1",
	"contractName": "TokenLocker",
	"sourceName": "contracts/TokenLocker.sol",
	"abi": [
		{
			"anonymous": false,
			"inputs": [
				{
					"indexed": true,
					"internalType": "address",
					"name": "owner",
					"type": "address"
				},
				{
					"indexed": false,
					"internalType": "uint256",
					"name": "amount",
					"type": "uint256"
				},
				{
					"components": [
						{
							"internalType": "address",
							"name": "owner",
							"type": "address"
						},
						{
							"internalType": "address",
							"name": "sender",
							"type": "address"
						},
						{
							"internalType": "contract IERC20",
							"name": "token",
							"type": "address"
						},
						{
							"internalType": "uint256",
							"name": "startedAt",
							"type": "uint256"
						},
						{
							"internalType": "uint256",
							"name": "claimStartedAt",
							"type": "uint256"
						},
						{
							"internalType": "uint256",
							"name": "claimPeriod",
							"type": "uint256"
						},
						{
							"internalType": "uint256",
							"name": "duration",
							"type": "uint256"
						},
						{
							"internalType": "uint256",
							"name": "amount",
							"type": "uint256"
						},
						{
							"internalType": "uint256",
							"name": "claimedAmount",
							"type": "uint256"
						}
					],
					"indexed": false,
					"internalType": "struct TokenLocker.SLock",
					"name": "updatedLockData",
					"type": "tuple"
				}
			],
			"name": "Claim",
			"type": "event"
		},
		{
			"anonymous": false,
			"inputs": [
				{
					"indexed": true,
					"internalType": "uint256",
					"name": "lockId",
					"type": "uint256"
				},
				{
					"indexed": true,
					"internalType": "address",
					"name": "owner",
					"type": "address"
				},
				{
					"indexed": true,
					"internalType": "address",
					"name": "sender",
					"type": "address"
				},
				{
					"components": [
						{
							"internalType": "address",
							"name": "owner",
							"type": "address"
						},
						{
							"internalType": "address",
							"name": "sender",
							"type": "address"
						},
						{
							"internalType": "contract IERC20",
							"name": "token",
							"type": "address"
						},
						{
							"internalType": "uint256",
							"name": "startedAt",
							"type": "uint256"
						},
						{
							"internalType": "uint256",
							"name": "claimStartedAt",
							"type": "uint256"
						},
						{
							"internalType": "uint256",
							"name": "claimPeriod",
							"type": "uint256"
						},
						{
							"internalType": "uint256",
							"name": "duration",
							"type": "uint256"
						},
						{
							"internalType": "uint256",
							"name": "amount",
							"type": "uint256"
						},
						{
							"internalType": "uint256",
							"name": "claimedAmount",
							"type": "uint256"
						}
					],
					"indexed": false,
					"internalType": "struct TokenLocker.SLock",
					"name": "lockData",
					"type": "tuple"
				}
			],
			"name": "Lock",
			"type": "event"
		},
		{
			"inputs": [],
			"name": "MAX_LOCK_DURATION",
			"outputs": [
				{
					"internalType": "uint256",
					"name": "",
					"type": "uint256"
				}
			],
			"stateMutability": "view",
			"type": "function"
		},
		{
			"inputs": [
				{
					"internalType": "uint256",
					"name": "lockId_",
					"type": "uint256"
				}
			],
			"name": "claim",
			"outputs": [
				{
					"internalType": "bool",
					"name": "",
					"type": "bool"
				}
			],
			"stateMutability": "nonpayable",
			"type": "function"
		},
		{
			"inputs": [
				{
					"internalType": "uint256",
					"name": "lockId_",
					"type": "uint256"
				}
			],
			"name": "claimableAmount",
			"outputs": [
				{
					"internalType": "uint256",
					"name": "amount",
					"type": "uint256"
				}
			],
			"stateMutability": "view",
			"type": "function"
		},
		{
			"inputs": [
				{
					"internalType": "address",
					"name": "owner_",
					"type": "address"
				},
				{
					"internalType": "contract IERC20",
					"name": "token_",
					"type": "address"
				},
				{
					"internalType": "uint256",
					"name": "claimStartedAt_",
					"type": "uint256"
				},
				{
					"internalType": "uint256",
					"name": "claimPeriod_",
					"type": "uint256"
				},
				{
					"internalType": "uint256",
					"name": "duration_",
					"type": "uint256"
				},
				{
					"internalType": "uint256",
					"name": "amount_",
					"type": "uint256"
				}
			],
			"name": "lock",
			"outputs": [],
			"stateMutability": "nonpayable",
			"type": "function"
		},
		{
			"inputs": [
				{
					"internalType": "uint256[]",
					"name": "lockIds_",
					"type": "uint256[]"
				}
			],
			"name": "multipleClaim",
			"outputs": [
				{
					"internalType": "bool[]",
					"name": "",
					"type": "bool[]"
				}
			],
			"stateMutability": "nonpayable",
			"type": "function"
		}
	],
	"bytecode": "0x608060405234801561001057600080fd5b50610b16806100206000396000f3fe608060405234801561001057600080fd5b50600436106100575760003560e01c8063379607f51461005c5780634f1bfc9e146100845780636cfe0ad11461009d57806382400cbb146100b0578063eb5d5c43146100d0575b600080fd5b61006f61006a3660046108f2565b6100e5565b60405190151581526020015b60405180910390f35b61008f630966018081565b60405190815260200161007b565b61008f6100ab3660046108f2565b610205565b6100c36100be36600461080b565b61037a565b60405161007b91906109a3565b6100e36100de3660046107b3565b610464565b005b6000806100f183610205565b9050806101015750600092915050565b600083815260208190526040812060088101805491928492610124908490610a13565b90915550506002810154815460405163a9059cbb60e01b81526001600160a01b0391821660048201526024810185905291169063a9059cbb90604401602060405180830381600087803b15801561017a57600080fd5b505af115801561018e573d6000803e3d6000fd5b505050506040513d601f19601f820116820180604052508101906101b291906108cb565b5080546040516001600160a01b03909116907f021c8cb0bc4fa9e614eb8bb92bb3dd95d67aaf6136918df26083f495044cce88906101f390859085906109fe565b60405180910390a25060019392505050565b6000600154821061021857506000919050565b6000828152602081815260409182902082516101208101845281546001600160a01b039081168252600183015481169382019390935260028201549092169282019290925260038201546060820152600482015460808201819052600583015460a0830152600683015460c0830152600783015460e08301526008909201546101008201529042116102ad5750600092915050565b8060e00151816101000151106102c65750600092915050565b428160c0015182606001516102db9190610a13565b106102fd5760e08101516101008201516102f59082610a6a565b925050610374565b600081606001514261030f9190610a6a565b905060008260a00151826103239190610a2b565b905060008360a00151826103379190610a4b565b905060008460c00151828660e001516103509190610a4b565b61035a9190610a2b565b90508461010001518161036d9190610a6a565b9550505050505b50919050565b60606000825167ffffffffffffffff8111156103a657634e487b7160e01b600052604160045260246000fd5b6040519080825280602002602001820160405280156103cf578160200160208202803683370190505b50905060005b835181101561045d57600084828151811061040057634e487b7160e01b600052603260045260246000fd5b602002602001015190506000610415826100e5565b90508084848151811061043857634e487b7160e01b600052603260045260246000fd5b911515602092830291909101909101525081905061045581610a81565b9150506103d5565b5092915050565b6040516370a0823160e01b81523060048201526000906001600160a01b038716906370a082319060240160206040518083038186803b1580156104a657600080fd5b505afa1580156104ba573d6000803e3d6000fd5b505050506040513d601f19601f820116820180604052508101906104de919061090a565b6040516323b872dd60e01b8152336004820152306024820152604481018490529091506001600160a01b038716906323b872dd90606401602060405180830381600087803b15801561052f57600080fd5b505af1158015610543573d6000803e3d6000fd5b505050506040513d601f19601f8201168201806040525081019061056791906108cb565b506040516370a0823160e01b81523060048201526000906001600160a01b038816906370a082319060240160206040518083038186803b1580156105aa57600080fd5b505afa1580156105be573d6000803e3d6000fd5b505050506040513d601f19601f820116820180604052508101906105e2919061090a565b90508181116106315760405162461bcd60e51b8152602060048201526016602482015275636f756c64206e6f74207472616e7366657246726f6d60501b60448201526064015b60405180910390fd5b600061063d8383610a6a565b60018054600081815260208190526040812093945090919061065e83610a81565b909155505080546001600160a01b03808c166001600160a01b0319928316178355600183018054831633179055600283018054918c16919092161790554260038201556004810188905586158015906106b75750858711155b6106f45760405162461bcd60e51b815260206004820152600e60248201526d1a5b9d985b1a59081c195c9a5bd960921b6044820152606401610628565b6005810187905563096601808611156107475760405162461bcd60e51b815260206004820152601560248201527434b73b30b634b2103637b1b590323ab930ba34b7b760591b6044820152606401610628565b60068101869055600781018290556001805433916001600160a01b038d16916107709190610a6a565b7f818a0124a69ed72eb0d9d735f09216984b5c15a9e224f2fcac1f3ff0aca2eba28460405161079f91906109e9565b60405180910390a450505050505050505050565b60008060008060008060c087890312156107cb578182fd5b86356107d681610ac8565b955060208701356107e681610ac8565b95989597505050506040840135936060810135936080820135935060a0909101359150565b6000602080838503121561081d578182fd5b823567ffffffffffffffff80821115610834578384fd5b818501915085601f830112610847578384fd5b81358181111561085957610859610ab2565b8060051b604051601f19603f8301168101818110858211171561087e5761087e610ab2565b604052828152858101935084860182860187018a101561089c578788fd5b8795505b838610156108be5780358552600195909501949386019386016108a0565b5098975050505050505050565b6000602082840312156108dc578081fd5b815180151581146108eb578182fd5b9392505050565b600060208284031215610903578081fd5b5035919050565b60006020828403121561091b578081fd5b5051919050565b6109448261093783546001600160a01b031690565b6001600160a01b03169052565b60018101546001600160a01b03908116602084015260028201541660408301526003810154606083015260048101546080830152600581015460a0830152600681015460c0830152600781015460e08301526008015461010090910152565b6020808252825182820181905260009190848201906040850190845b818110156109dd5783511515835292840192918401916001016109bf565b50909695505050505050565b61012081016109f88284610922565b92915050565b82815261014081016108eb6020830184610922565b60008219821115610a2657610a26610a9c565b500190565b600082610a4657634e487b7160e01b81526012600452602481fd5b500490565b6000816000190483118215151615610a6557610a65610a9c565b500290565b600082821015610a7c57610a7c610a9c565b500390565b6000600019821415610a9557610a95610a9c565b5060010190565b634e487b7160e01b600052601160045260246000fd5b634e487b7160e01b600052604160045260246000fd5b6001600160a01b0381168114610add57600080fd5b5056fea2646970667358221220ae9376c6289facef78f0288749a2bcc805e0d7857f28e4acacd30610e495ae9564736f6c63430008040033",
	"linkReferences": {},
	"deployedLinkReferences": {}
}