{
    "_format": "hh-sol-artifact-1",
    "contractName": "TokenEmitter",
    "sourceName": "contracts/services/TokenEmitter.sol",
    "abi": [
        {
            "inputs": [],
            "stateMutability": "nonpayable",
            "type": "constructor"
        },
        {
            "anonymous": false,
            "inputs": [
                {
                    "indexed": true,
                    "internalType": "address",
                    "name": "creator",
                    "type": "address"
                }
            ],
            "name": "SetTokenCreator",
            "type": "event"
        },
        {
            "anonymous": false,
            "inputs": [
                {
                    "indexed": true,
                    "internalType": "address",
                    "name": "token",
                    "type": "address"
                },
                {
                    "indexed": true,
                    "internalType": "address",
                    "name": "creator",
                    "type": "address"
                }
            ],
            "name": "TokenDeclared",
            "type": "event"
        },
        {
            "inputs": [
                {
                    "internalType": "address",
                    "name": "token_",
                    "type": "address"
                },
                {
                    "internalType": "address",
                    "name": "creator_",
                    "type": "address"
                }
            ],
            "name": "declare",
            "outputs": [],
            "stateMutability": "nonpayable",
            "type": "function"
        },
        {
            "inputs": [],
            "name": "owner",
            "outputs": [
                {
                    "internalType": "address",
                    "name": "",
                    "type": "address"
                }
            ],
            "stateMutability": "view",
            "type": "function"
        },
        {
            "inputs": [
                {
                    "internalType": "address",
                    "name": "tokenCreator_",
                    "type": "address"
                }
            ],
            "name": "setTokenCreator",
            "outputs": [],
            "stateMutability": "nonpayable",
            "type": "function"
        },
        {
            "inputs": [],
            "name": "tokenCreator",
            "outputs": [
                {
                    "internalType": "address",
                    "name": "",
                    "type": "address"
                }
            ],
            "stateMutability": "view",
            "type": "function"
        }
    ],
    "bytecode": "0x608060405234801561001057600080fd5b503060405161001e90610070565b6001600160a01b039091168152602001604051809103906000f08015801561004a573d6000803e3d6000fd5b50600180546001600160a01b0319166001600160a01b039290921691909117905561007d565b611c918061032883390190565b61029c8061008c6000396000f3fe608060405234801561001057600080fd5b506004361061004c5760003560e01c806325e0b16d146100515780638da5cb5b14610066578063db84252c14610095578063e8f72062146100a8575b600080fd5b61006461005f366004610213565b6100bb565b005b600054610079906001600160a01b031681565b6040516001600160a01b03909116815260200160405180910390f35b600154610079906001600160a01b031681565b6100646100b6366004610234565b61011c565b6000546001600160a01b031633146101105760405162461bcd60e51b81526020600482015260136024820152724f776e61626c653a206f6e6c794f776e65722160681b60448201526064015b60405180910390fd5b610119816101ad565b50565b6001546001600160a01b031633146101695760405162461bcd60e51b815260206004820152601060248201526f37b7363caa37b5b2b721b932b0ba37b960811b6044820152606401610107565b806001600160a01b0316826001600160a01b03167fa9da2dec2a3a491a18de5919ab1171cdfedb5ad0cd94f8c96dff78d191f3bc3360405160405180910390a35050565b600180546001600160a01b0319166001600160a01b0383169081179091556040517fd67affc33e4154661476e77fb7ddd95f4a06c1e38c4a25f31980bd7ad0165e8790600090a250565b80356001600160a01b038116811461020e57600080fd5b919050565b600060208284031215610224578081fd5b61022d826101f7565b9392505050565b60008060408385031215610246578081fd5b61024f836101f7565b915061025d602084016101f7565b9050925092905056fea26469706673582212200039a209fad6b5772e23920bbe6c144e9d8d059a6270139892f4a6ee51ea161964736f6c6343000804003360a060405234801561001057600080fd5b50604051611c91380380611c9183398101604081905261002f91610044565b60601b6001600160601b031916608052610072565b600060208284031215610055578081fd5b81516001600160a01b038116811461006b578182fd5b9392505050565b60805160601c611bfb61009660003960008181604b01526101a50152611bfb6000f3fe608060405234801561001057600080fd5b50600436106100415760003560e01c80633d64baf114610046578063626be5671461008a5780639ad8cf74146100a1575b600080fd5b61006d7f000000000000000000000000000000000000000000000000000000000000000081565b6040516001600160a01b0390911681526020015b60405180910390f35b61009360005481565b604051908152602001610081565b6100b46100af3660046102d2565b6100b6565b005b6000805490806100c58361045c565b90915550506000805460405190919081906100e260208201610212565b6020820181038252601f19601f820116604052509050828151602083016000f59150813b61010f57600080fd5b6000829050806001600160a01b031663b33390538e8e8e8e8e8e8e8e8e6040518a63ffffffff1660e01b8152600401610150999897969594939291906103ec565b600060405180830381600087803b15801561016a57600080fd5b505af115801561017e573d6000803e3d6000fd5b505060405163747b903160e11b81526001600160a01b0386811660048301523360248301527f000000000000000000000000000000000000000000000000000000000000000016925063e8f720629150604401600060405180830381600087803b1580156101eb57600080fd5b505af11580156101ff573d6000803e3d6000fd5b5050505050505050505050505050505050565b61172c8061049a83390190565b80356001600160a01b038116811461023657600080fd5b919050565b8035801515811461023657600080fd5b600082601f83011261025b578081fd5b813567ffffffffffffffff8082111561027657610276610483565b604051601f8301601f19908116603f0116810190828211818310171561029e5761029e610483565b816040528381528660208588010111156102b6578485fd5b8360208701602083013792830160200193909352509392505050565b60008060008060008060008060006101208a8c0312156102f0578485fd5b893567ffffffffffffffff80821115610307578687fd5b6103138d838e0161024b565b9a5060208c0135915080821115610328578687fd5b506103358c828d0161024b565b98505060408a013560ff8116811461034b578586fd5b965061035960608b0161021f565b955060808a0135945061036e60a08b0161021f565b935061037c60c08b0161023b565b925061038a60e08b0161023b565b91506101008a013590509295985092959850929598565b60008151808452815b818110156103c6576020818501810151868301820152016103aa565b818111156103d75782602083870101525b50601f01601f19169290920160200192915050565b60006101208083526104008184018d6103a1565b90508281036020840152610414818c6103a1565b60ff9a909a16604084015250506001600160a01b03968716606082015260808101959095529290941660a0840152151560c083015291151560e0820152610100015292915050565b600060001982141561047c57634e487b7160e01b81526011600452602481fd5b5060010190565b634e487b7160e01b600052604160045260246000fdfe60806040526008805460ff1916905534801561001a57600080fd5b506117028061002a6000396000f3fe608060405234801561001057600080fd5b506004361061014d5760003560e01c806378f76df7116100c3578063a9059cbb1161007c578063a9059cbb146102a4578063b3339053146102b7578063ced695a4146102ca578063dd62ed3e146102d2578063e463a32f1461030b578063f2fde38b1461034057600080fd5b806378f76df7146102315780637d64bcb41461024457806385426a821461024c5780638da5cb5b1461025f57806395d89b4114610289578063a457c2d71461029157600080fd5b8063313ce56711610115578063313ce567146101bb578063355274ea146101d057806339509351146101d857806340c10f19146101eb57806370a0823114610200578063715018a61461022957600080fd5b806305d2035b1461015257806306fdde031461016e578063095ea7b31461018357806318160ddd1461019657806323b872dd146101a8575b600080fd5b60085460ff165b60405190151581526020015b60405180910390f35b610176610353565b60405161016591906114a5565b61015961019136600461136b565b6103e5565b6003545b604051908152602001610165565b6101596101b636600461132b565b6103fc565b60065460405160ff9091168152602001610165565b60075461019a565b6101596101e636600461136b565b610466565b6101fe6101f936600461136b565b61049c565b005b61019a61020e3660046112bb565b6001600160a01b031660009081526001602052604090205490565b6101fe6104d6565b6101fe61023f366004611465565b610513565b6101fe610525565b61019a61025a36600461132b565b610550565b600e546201000090046001600160a01b03166040516001600160a01b039091168152602001610165565b610176610565565b61015961029f36600461136b565b610574565b6101596102b236600461136b565b6105c3565b6101fe6102c5366004611396565b6105d0565b6101fe610692565b61019a6102e03660046112f3565b6001600160a01b03918216600090815260026020908152604080832093909416825291909152205490565b600954600a54600b54600c54604080519485526020850193909352918301526001600160a01b03166060820152608001610165565b6101fe61034e3660046112bb565b61069a565b606060048054610362906115dd565b80601f016020809104026020016040519081016040528092919081815260200182805461038e906115dd565b80156103db5780601f106103b0576101008083540402835291602001916103db565b820191906000526020600020905b8154815290600101906020018083116103be57829003601f168201915b5050505050905090565b60006103f233848461073c565b5060015b92915050565b6000610409848484610861565b61045b843361045685604051806060016040528060288152602001611680602891396001600160a01b038a16600090815260026020908152604080832033845290915290205491906108fd565b61073c565b5060015b9392505050565b3360008181526002602090815260408083206001600160a01b038716845290915281205490916103f29185906104569086610937565b60085460ff16156104c85760405162461bcd60e51b81526004016104bf9061152d565b60405180910390fd5b6104d28282610996565b5050565b600e546001600160a01b03620100009091041633146105075760405162461bcd60e51b81526004016104bf906114f8565b61051160006109d1565b565b61051f84848484610a32565b50505050565b60085460ff16156105485760405162461bcd60e51b81526004016104bf9061152d565b610511610a63565b600061055d848484610a9c565b949350505050565b606060058054610362906115dd565b60006103f23384610456856040518060600160405280602581526020016116a8602591393360009081526002602090815260408083206001600160a01b038d16845290915290205491906108fd565b60006103f2338484610861565b60005460ff16156106185760405162461bcd60e51b815260206004820152601260248201527169734e6f74496e697469616c697a61626c6560701b60448201526064016104bf565b610621866109d1565b61062b8989610af1565b6006805460ff191660ff89161790558261064757610647610b2a565b8161065a5761065585610b86565b610663565b61066381610b86565b61066d8486610bdb565b8161067a5761067a610ccd565b50506000805460ff1916600117905550505050505050565b610511610d05565b600e546001600160a01b03620100009091041633146106cb5760405162461bcd60e51b81526004016104bf906114f8565b6001600160a01b0381166107305760405162461bcd60e51b815260206004820152602660248201527f4f776e61626c653a206e6577206f776e657220697320746865207a65726f206160448201526564647265737360d01b60648201526084016104bf565b610739816109d1565b50565b6001600160a01b03831661079e5760405162461bcd60e51b8152602060048201526024808201527f45524332303a20617070726f76652066726f6d20746865207a65726f206164646044820152637265737360e01b60648201526084016104bf565b6001600160a01b0382166107ff5760405162461bcd60e51b815260206004820152602260248201527f45524332303a20617070726f766520746f20746865207a65726f206164647265604482015261737360f01b60648201526084016104bf565b6001600160a01b0383811660008181526002602090815260408083209487168084529482529182902085905590518481527f8c5be1e5ebec7d5bd14f71427d1e84f3dd0314c0f7b2291e5b200ac8c7c3b92591015b60405180910390a3505050565b600061086e848484610a9c565b90508061088557610880848484610d3e565b61051f565b600061089182846115c6565b9050828111156108d35760405162461bcd60e51b815260206004820152600d60248201526c74617841206f766572666c6f7760981b60448201526064016104bf565b600c546108eb9086906001600160a01b031684610d3e565b6108f6858583610d3e565b5050505050565b600081848411156109215760405162461bcd60e51b81526004016104bf91906114a5565b50600061092e84866115c6565b95945050505050565b600080610944838561156f565b90508381101561045f5760405162461bcd60e51b815260206004820152601b60248201527f536166654d6174683a206164646974696f6e206f766572666c6f77000000000060448201526064016104bf565b600e546001600160a01b03620100009091041633146109c75760405162461bcd60e51b81526004016104bf906114f8565b6104d28282610bdb565b600e80546001600160a01b038381166201000090810262010000600160b01b0319841617938490556040519281900482169304169082907f8be0079c531659141344cd1fd0a4f28419497f9722a3daafe3b4186f6b6457e090600090a35050565b600e546001600160a01b03620100009091041633146105135760405162461bcd60e51b81526004016104bf906114f8565b600e546001600160a01b0362010000909104163314610a945760405162461bcd60e51b81526004016104bf906114f8565b610511610ccd565b600e5460009060ff1615610ae957600b54610ab684610ecf565b15610ac45750600a54610ad7565b610acd85610ecf565b15610ad757506009545b610ae18382610f69565b91505061045f565b50600061045f565b8151610b04906004906020850190611180565b508051610b18906005906020840190611180565b50506006805460ff1916601217905550565b600e805460006009819055600a819055600b819055600c80546001600160a01b031916905561ffff19909116610100179091556040517f7a14a3188411c2f406ce4721233750b4b11e612569f9fa80a35b1cb91bb2e49e9190a1565b60008111610bd65760405162461bcd60e51b815260206004820152601760248201527f4e4345524332304361707065643a20636170206973203000000000000000000060448201526064016104bf565b600755565b6001600160a01b038216610c315760405162461bcd60e51b815260206004820152601f60248201527f45524332303a206d696e7420746f20746865207a65726f20616464726573730060448201526064016104bf565b610c3d60008383610f81565b600354610c4a9082610937565b6003556001600160a01b038216600090815260016020526040902054610c709082610937565b6001600160a01b0383166000818152600160205260408082209390935591519091907fddf252ad1be2c89b69c2b068fc378daa952ba7f163c4a11628f55a4df523b3ef90610cc19085815260200190565b60405180910390a35050565b6008805460ff191660011790556040517fae5184fba832cb2b1f702aca6117b8d265eaf03ad33eb133f19dde0f5920fa0890600090a1565b600e546001600160a01b0362010000909104163314610d365760405162461bcd60e51b81526004016104bf906114f8565b610511610b2a565b6001600160a01b038316610da25760405162461bcd60e51b815260206004820152602560248201527f45524332303a207472616e736665722066726f6d20746865207a65726f206164604482015264647265737360d81b60648201526084016104bf565b6001600160a01b038216610e045760405162461bcd60e51b815260206004820152602360248201527f45524332303a207472616e7366657220746f20746865207a65726f206164647260448201526265737360e81b60648201526084016104bf565b610e0f838383610f81565b610e4c8160405180606001604052806026815260200161165a602691396001600160a01b03861660009081526001602052604090205491906108fd565b6001600160a01b038085166000908152600160205260408082209390935590841681522054610e7b9082610937565b6001600160a01b0380841660008181526001602052604090819020939093559151908516907fddf252ad1be2c89b69c2b068fc378daa952ba7f163c4a11628f55a4df523b3ef906108549085815260200190565b6000610eda82610f91565b610ee657506000919050565b816001600160a01b031663ad5c46486040518163ffffffff1660e01b815260040160206040518083038186803b158015610f1f57600080fd5b505afa925050508015610f4f575060408051601f3d908101601f19168201909252610f4c918101906112d7565b60015b610f5b57506001919050565b50600092915050565b919050565b600061045f612710610f7b858561101f565b9061109e565b610f8c8383836110e0565b505050565b60006001600160a01b0382163b610faa57506000919050565b816001600160a01b031663c45a01556040518163ffffffff1660e01b815260040160206040518083038186803b158015610fe357600080fd5b505afa925050508015611013575060408051601f3d908101601f19168201909252611010918101906112d7565b60015b6103f257506000919050565b60008261102e575060006103f6565b600061103a83856115a7565b9050826110478583611587565b1461045f5760405162461bcd60e51b815260206004820152602160248201527f536166654d6174683a206d756c7469706c69636174696f6e206f766572666c6f6044820152607760f81b60648201526084016104bf565b600061045f83836040518060400160405280601a81526020017f536166654d6174683a206469766973696f6e206279207a65726f000000000000815250611152565b6001600160a01b038316610f8c57600754611104826110fe60035490565b90610937565b1115610f8c5760405162461bcd60e51b815260206004820152601960248201527f45524332304361707065643a206361702065786365656465640000000000000060448201526064016104bf565b600081836111735760405162461bcd60e51b81526004016104bf91906114a5565b50600061092e8486611587565b82805461118c906115dd565b90600052602060002090601f0160209004810192826111ae57600085556111f4565b82601f106111c757805160ff19168380011785556111f4565b828001600101855582156111f4579182015b828111156111f45782518255916020019190600101906111d9565b50611200929150611204565b5090565b5b808211156112005760008155600101611205565b8035610f6481611644565b80358015158114610f6457600080fd5b600082601f830112611244578081fd5b813567ffffffffffffffff8082111561125f5761125f61162e565b604051601f8301601f19908116603f011681019082821181831017156112875761128761162e565b8160405283815286602085880101111561129f578485fd5b8360208701602083013792830160200193909352509392505050565b6000602082840312156112cc578081fd5b813561045f81611644565b6000602082840312156112e8578081fd5b815161045f81611644565b60008060408385031215611305578081fd5b823561131081611644565b9150602083013561132081611644565b809150509250929050565b60008060006060848603121561133f578081fd5b833561134a81611644565b9250602084013561135a81611644565b929592945050506040919091013590565b6000806040838503121561137d578182fd5b823561138881611644565b946020939093013593505050565b60008060008060008060008060006101208a8c0312156113b4578485fd5b893567ffffffffffffffff808211156113cb578687fd5b6113d78d838e01611234565b9a5060208c01359150808211156113ec578687fd5b506113f98c828d01611234565b98505060408a013560ff8116811461140f578586fd5b965061141d60608b01611219565b955060808a0135945061143260a08b01611219565b935061144060c08b01611224565b925061144e60e08b01611224565b91506101008a013590509295985092959850929598565b6000806000806080858703121561147a578384fd5b843593506020850135925060408501359150606085013561149a81611644565b939692955090935050565b6000602080835283518082850152825b818110156114d1578581018301518582016040015282016114b5565b818111156114e25783604083870101525b50601f01601f1916929092016040019392505050565b6020808252818101527f4f776e61626c653a2063616c6c6572206973206e6f7420746865206f776e6572604082015260600190565b60208082526022908201527f45524332304d696e7461626c653a206d696e74696e672069732066696e697368604082015261195960f21b606082015260800190565b6000821982111561158257611582611618565b500190565b6000826115a257634e487b7160e01b81526012600452602481fd5b500490565b60008160001904831182151516156115c1576115c1611618565b500290565b6000828210156115d8576115d8611618565b500390565b600181811c908216806115f157607f821691505b6020821081141561161257634e487b7160e01b600052602260045260246000fd5b50919050565b634e487b7160e01b600052601160045260246000fd5b634e487b7160e01b600052604160045260246000fd5b6001600160a01b038116811461073957600080fdfe45524332303a207472616e7366657220616d6f756e7420657863656564732062616c616e636545524332303a207472616e7366657220616d6f756e74206578636565647320616c6c6f77616e636545524332303a2064656372656173656420616c6c6f77616e63652062656c6f77207a65726fa2646970667358221220dc88acc238eb6ddf4afb091c54ad3f26053ce2a01172e45cf56ab4c41b43839e64736f6c63430008040033a26469706673582212204a3c1f173ce2fcfb276f7d68389dfa16215bb2ca417024f1f412de9d6db0c10a64736f6c63430008040033",
    "linkReferences": {},
    "deployedLinkReferences": {}
}