{
  "_format": "hh-sol-artifact-1",
  "contractName": "UniswapV2Factory",
  "sourceName": "contracts/UniswapV2Factory.sol",
  "abi": [
    {
      "inputs": [
        {
          "internalType": "address",
          "name": "_feeToSetter",
          "type": "address"
        }
      ],
      "stateMutability": "nonpayable",
      "type": "constructor"
    },
    {
      "anonymous": false,
      "inputs": [
        {
          "indexed": true,
          "internalType": "address",
          "name": "token0",
          "type": "address"
        },
        {
          "indexed": true,
          "internalType": "address",
          "name": "token1",
          "type": "address"
        },
        {
          "indexed": false,
          "internalType": "address",
          "name": "pair",
          "type": "address"
        },
        {
          "indexed": false,
          "internalType": "uint256",
          "name": "",
          "type": "uint256"
        }
      ],
      "name": "PairCreated",
      "type": "event"
    },
    {
      "inputs": [],
      "name": "PAIR_HASH",
      "outputs": [
        {
          "internalType": "bytes32",
          "name": "",
          "type": "bytes32"
        }
      ],
      "stateMutability": "view",
      "type": "function"
    },
    {
      "inputs": [
        {
          "internalType": "uint256",
          "name": "",
          "type": "uint256"
        }
      ],
      "name": "allPairs",
      "outputs": [
        {
          "internalType": "address",
          "name": "",
          "type": "address"
        }
      ],
      "stateMutability": "view",
      "type": "function"
    },
    {
      "inputs": [],
      "name": "allPairsLength",
      "outputs": [
        {
          "internalType": "uint256",
          "name": "",
          "type": "uint256"
        }
      ],
      "stateMutability": "view",
      "type": "function"
    },
    {
      "inputs": [
        {
          "internalType": "address",
          "name": "tokenA",
          "type": "address"
        },
        {
          "internalType": "address",
          "name": "tokenB",
          "type": "address"
        }
      ],
      "name": "createPair",
      "outputs": [
        {
          "internalType": "address",
          "name": "pair",
          "type": "address"
        }
      ],
      "stateMutability": "nonpayable",
      "type": "function"
    },
    {
      "inputs": [],
      "name": "feeTo",
      "outputs": [
        {
          "internalType": "address",
          "name": "",
          "type": "address"
        }
      ],
      "stateMutability": "view",
      "type": "function"
    },
    {
      "inputs": [],
      "name": "feeToSetter",
      "outputs": [
        {
          "internalType": "address",
          "name": "",
          "type": "address"
        }
      ],
      "stateMutability": "view",
      "type": "function"
    },
    {
      "inputs": [
        {
          "internalType": "address",
          "name": "",
          "type": "address"
        },
        {
          "internalType": "address",
          "name": "",
          "type": "address"
        }
      ],
      "name": "getPair",
      "outputs": [
        {
          "internalType": "address",
          "name": "",
          "type": "address"
        }
      ],
      "stateMutability": "view",
      "type": "function"
    },
    {
      "inputs": [],
      "name": "listingFactory",
      "outputs": [
        {
          "internalType": "address",
          "name": "",
          "type": "address"
        }
      ],
      "stateMutability": "view",
      "type": "function"
    },
    {
      "inputs": [
        {
          "internalType": "address",
          "name": "_feeTo",
          "type": "address"
        }
      ],
      "name": "setFeeTo",
      "outputs": [],
      "stateMutability": "nonpayable",
      "type": "function"
    },
    {
      "inputs": [
        {
          "internalType": "address",
          "name": "_feeToSetter",
          "type": "address"
        }
      ],
      "name": "setFeeToSetter",
      "outputs": [],
      "stateMutability": "nonpayable",
      "type": "function"
    }
  ],
  "bytecode": "0x608060405234801561001057600080fd5b50604051613d4f380380613d4f83398101604081905261002f916100a6565b600180546001600160a01b0319166001600160a01b03831617905560405161005690610099565b604051809103906000f080158015610072573d6000803e3d6000fd5b50600480546001600160a01b0319166001600160a01b0392909216919091179055506100d4565b61105b80612cf483390190565b6000602082840312156100b7578081fd5b81516001600160a01b03811681146100cd578182fd5b9392505050565b612c11806100e36000396000f3fe608060405234801561001057600080fd5b506004361061008e5760003560e01c8063017e7e5814610093578063094b7415146100c35780631e3dd18b146100d6578063574f2ba3146100e957806364f91c72146100fb578063a2e74af614610103578063c9c6539614610118578063e6a439051461012b578063f46901ed1461015f578063fe8cde3414610172575b600080fd5b6000546100a6906001600160a01b031681565b6040516001600160a01b0390911681526020015b60405180910390f35b6001546100a6906001600160a01b031681565b6100a66100e43660046105e2565b610185565b6003545b6040519081526020016100ba565b6100ed6101af565b61011661011136600461058f565b6101dc565b005b6100a66101263660046105b0565b610231565b6100a66101393660046105b0565b60026020908152600092835260408084209091529082529020546001600160a01b031681565b61011661016d36600461058f565b61051a565b6004546100a6906001600160a01b031681565b6003818154811061019557600080fd5b6000918252602090912001546001600160a01b0316905081565b6040516101be60208201610566565b6020820181038252601f19601f820116604052508051906020012081565b6001546001600160a01b0316331461020f5760405162461bcd60e51b8152600401610206906105fa565b60405180910390fd5b600180546001600160a01b0319166001600160a01b0392909216919091179055565b6000816001600160a01b0316836001600160a01b031614156102955760405162461bcd60e51b815260206004820152601e60248201527f556e697377617056323a204944454e544943414c5f41444452455353455300006044820152606401610206565b600080836001600160a01b0316856001600160a01b0316106102b85783856102bb565b84845b90925090506001600160a01b0382166103105760405162461bcd60e51b8152602060048201526017602482015276556e697377617056323a205a45524f5f4144445245535360481b6044820152606401610206565b6001600160a01b0382811660009081526002602090815260408083208585168452909152902054161561037e5760405162461bcd60e51b8152602060048201526016602482015275556e697377617056323a20504149525f45584953545360501b6044820152606401610206565b6040516001600160601b0319606084811b8216602084015283901b166034820152604801604051602081830303815290604052805190602001206040516103c490610566565b8190604051809103906000f59050801580156103e4573d6000803e3d6000fd5b5060405163485cc95560e01b81526001600160a01b03848116600483015283811660248301529194509084169063485cc95590604401600060405180830381600087803b15801561043457600080fd5b505af1158015610448573d6000803e3d6000fd5b505050506001600160a01b0382811660008181526002602081815260408084208787168086529083528185208054978b166001600160a01b031998891681179091559383528185208686528352818520805488168517905560038054600181018255958190527fc2575a0e9e593c00f959f8c92f12db2869c3395a3b0502d05e2516446f71f85b9095018054909716841790965592548351928352908201527f0d3648bd0f6ba80134a33ba9275ac585d9d315f0ad8355cddefde31afa28d0e9910160405180910390a3505092915050565b6001546001600160a01b031633146105445760405162461bcd60e51b8152600401610206906105fa565b600080546001600160a01b0319166001600160a01b0392909216919091179055565b6125b38061062983390190565b80356001600160a01b038116811461058a57600080fd5b919050565b6000602082840312156105a0578081fd5b6105a982610573565b9392505050565b600080604083850312156105c2578081fd5b6105cb83610573565b91506105d960208401610573565b90509250929050565b6000602082840312156105f3578081fd5b5035919050565b6020808252601490820152732ab734b9bbb0b82b191d102327a92124a22222a760611b60408201526060019056fe60806040526001600f5534801561001557600080fd5b50604080518082018252600a8152692ab734b9bbb0b8102b1960b11b6020918201528151808301835260018152603160f81b9082015281517f8b73c3c69bb8fe3d512ecc4cf759cc79239f7b179b0ffacaa9a75d522b39400f918101919091527fbfcc8ef98ffbf7b6c3fec7bf5185b566b9863e35a9d83acd49ad6824b5969738918101919091527fc89efdaa54c0f20c7adf612882df0950f5a951637e0307cdcb4c672f298b8bc660608201524660808201523060a082015260c00160408051601f198184030181529190528051602090910120600355600880546001600160a01b031916331790556124a58061010e6000396000f3fe608060405234801561001057600080fd5b506004361061018b5760003560e01c8063022c0d9f1461019057806306fdde03146101a55780630902f1ac146101e4578063095ea7b3146102185780630dfe16811461023b57806318160ddd1461025b57806323b872dd1461027257806330adf81f14610285578063313ce5671461029a5780633644e515146102b4578063485cc955146102bd5780635909c0d5146102d05780635a3d5493146102d95780636a627842146102e257806370a08231146102f557806372af5ba3146103155780637464fc3d1461031f5780637ecebe001461032857806386a35f251461034857806389afcb441461035157806395d89b4114610379578063a9059cbb1461039e578063b1724b46146103b1578063ba9a7a5614610348578063bc25cf77146103bb578063c45a0155146103ce578063cfd09b2b146103e1578063d21220a7146103f4578063d505accf14610407578063dd62ed3e1461041a578063e2d6649a14610445578063fe8cde341461044d578063fff6cae914610460575b600080fd5b6101a361019e36600461214b565b610468565b005b6101ce6040518060400160405280600a8152602001692ab734b9bbb0b8102b1960b11b81525081565b6040516101db9190612257565b60405180910390f35b6101ec610a22565b604080516001600160701b03948516815293909216602084015263ffffffff16908201526060016101db565b61022b6102263660046120e8565b610a4c565b60405190151581526020016101db565b60095461024e906001600160a01b031681565b6040516101db91906121f7565b61026460005481565b6040519081526020016101db565b61022b610280366004612033565b610a62565b61026460008051602061245083398151915281565b6102a2601281565b60405160ff90911681526020016101db565b61026460035481565b6101a36102cb366004611ffb565b610adc565b610264600c5481565b610264600d5481565b6102646102f0366004611fc3565b610c1f565b610264610303366004611fc3565b60016020526000908152604090205481565b61026462093a8081565b610264600e5481565b610264610336366004611fc3565b60046020526000908152604090205481565b6102646103e881565b61036461035f366004611fc3565b610f00565b604080519283526020830191909152016101db565b6101ce604051806040016040528060068152602001652aa72496ab1960d11b81525081565b61022b6103ac3660046120e8565b6112a1565b6102646201518081565b6101a36103c9366004611fc3565b6112ae565b60085461024e906001600160a01b031681565b6102646103ef366004611fc3565b6113d4565b600a5461024e906001600160a01b031681565b6101a3610415366004612073565b61145b565b610264610428366004611ffb565b600260209081526000928352604080842090915290825290205481565b610264600381565b60055461024e906001600160a01b031681565b6101a361165c565b600f546001146104935760405162461bcd60e51b815260040161048a9061228a565b60405180910390fd5b6000600f55841515806104a65750600084115b6105005760405162461bcd60e51b815260206004820152602560248201527f556e697377617056323a20494e53554646494349454e545f4f55545055545f416044820152641353d5539560da1b606482015260840161048a565b60008061050b610a22565b5091509150816001600160701b0316871080156105305750806001600160701b031686105b6105745760405162461bcd60e51b815260206004820152602160248201526000805160206124108339815191526044820152605960f81b606482015260840161048a565b600954600a5460009182916001600160a01b039182169190811690891682148015906105b25750806001600160a01b0316896001600160a01b031614155b6105f65760405162461bcd60e51b8152602060048201526015602482015274556e697377617056323a20494e56414c49445f544f60581b604482015260640161048a565b8a1561060757610607828a8d6117a8565b891561061857610618818a8c6117a8565b8615610685576040516304347a1760e21b81526001600160a01b038a16906310d1e85c906106529033908f908f908e908e9060040161220b565b600060405180830381600087803b15801561066c57600080fd5b505af1158015610680573d6000803e3d6000fd5b505050505b6040516370a0823160e01b81526001600160a01b038316906370a08231906106b19030906004016121f7565b60206040518083038186803b1580156106c957600080fd5b505afa1580156106dd573d6000803e3d6000fd5b505050506040513d601f19601f820116820180604052508101906107019190612133565b6040516370a0823160e01b81529094506001600160a01b038216906370a08231906107309030906004016121f7565b60206040518083038186803b15801561074857600080fd5b505afa15801561075c573d6000803e3d6000fd5b505050506040513d601f19601f820116820180604052508101906107809190612133565b92505050600089856001600160701b031661079b9190612355565b83116107a85760006107c5565b6107bb8a6001600160701b038716612355565b6107c59084612355565b905060006107dc8a6001600160701b038716612355565b83116107e9576000610806565b6107fc8a6001600160701b038716612355565b6108069084612355565b905060008211806108175750600081115b61086f5760405162461bcd60e51b8152602060048201526024808201527f556e697377617056323a20494e53554646494349454e545f494e5055545f414d60448201526313d5539560e21b606482015260840161048a565b600061087c836003612336565b610888866103e8612336565b6108929190612355565b905060006108a1836003612336565b6108ad866103e8612336565b6108b79190612355565b600554909150600160a01b900460ff16610943576108d36118c0565b600a546108e8906001600160a01b03166113d4565b6108f29085612336565b6108fe876103e8612336565b6109089190612355565b600954909250610920906001600160a01b03166113d4565b61092a9084612336565b610936866103e8612336565b6109409190612355565b90505b6109596001600160701b03808916908a16612336565b61096690620f4240612336565b6109708284612336565b10156109ad5760405162461bcd60e51b815260206004820152600c60248201526b556e697377617056323a204b60a01b604482015260640161048a565b50506109bb84848888611a2f565b60408051838152602081018390529081018c9052606081018b90526001600160a01b038a169033907fd78ad95fa46c994b6551d0da85fc275fe613ce37657fb8d5e3d130840159d8229060800160405180910390a350506001600f55505050505050505050565b600b546001600160701b0380821692600160701b830490911691600160e01b900463ffffffff1690565b6000610a59338484611be6565b50600192915050565b6001600160a01b038316600090815260026020908152604080832033845290915281205460001914610ac7576001600160a01b038416600090815260026020908152604080832033845290915281208054849290610ac1908490612355565b90915550505b610ad2848484611c48565b5060019392505050565b6008546001600160a01b03163314610b2d5760405162461bcd60e51b81526020600482015260146024820152732ab734b9bbb0b82b191d102327a92124a22222a760611b604482015260640161048a565b600980546001600160a01b038085166001600160a01b031992831617909255600a8054848416921691909117905560085460408051633fa3378d60e21b81529051610c1b93929092169163fe8cde3491600480820192602092909190829003018186803b158015610b9d57600080fd5b505afa158015610bb1573d6000803e3d6000fd5b505050506040513d601f19601f82011682018060405250810190610bd59190611fdf565b600954600a54600580546001600160a01b03199081166001600160a01b039586161790915560068054821693851693909317909255600780549092169216919091179055565b5050565b6000600f54600114610c435760405162461bcd60e51b815260040161048a9061228a565b6000600f81905580610c53610a22565b506009546040516370a0823160e01b81529294509092506000916001600160a01b03909116906370a0823190610c8d9030906004016121f7565b60206040518083038186803b158015610ca557600080fd5b505afa158015610cb9573d6000803e3d6000fd5b505050506040513d601f19601f82011682018060405250810190610cdd9190612133565b600a546040516370a0823160e01b81529192506000916001600160a01b03909116906370a0823190610d139030906004016121f7565b60206040518083038186803b158015610d2b57600080fd5b505afa158015610d3f573d6000803e3d6000fd5b505050506040513d601f19601f82011682018060405250810190610d639190612133565b90506000610d7a6001600160701b03861684612355565b90506000610d916001600160701b03861684612355565b90506000610d9f8787611cd7565b60005490915080610ddd576103e8610dbf610dba8587612336565b611e25565b610dc99190612355565b9850610dd860006103e8611e95565b610e24565b610e216001600160701b038916610df48387612336565b610dfe91906122f3565b6001600160701b038916610e128487612336565b610e1c91906122f3565b611f0c565b98505b60008911610e735760405162461bcd60e51b815260206004820152602860248201526000805160206124108339815191526044820152671657d3525395115160c21b606482015260840161048a565b610e7d8a8a611e95565b610e8986868a8a611a2f565b8115610eb257600b54610eae906001600160701b03600160701b820481169116612336565b600e555b604080518581526020810185905233917f4c209b5fc8ad50758f13e2e1088ba56a560dff690a1c6fef26394f4c03821c4f910160405180910390a250506001600f5550949695505050505050565b600080600f54600114610f255760405162461bcd60e51b815260040161048a9061228a565b6000600f81905580610f35610a22565b50600954600a546040516370a0823160e01b81529395509193506001600160a01b039081169291169060009083906370a0823190610f779030906004016121f7565b60206040518083038186803b158015610f8f57600080fd5b505afa158015610fa3573d6000803e3d6000fd5b505050506040513d601f19601f82011682018060405250810190610fc79190612133565b90506000826001600160a01b03166370a08231306040518263ffffffff1660e01b8152600401610ff791906121f7565b60206040518083038186803b15801561100f57600080fd5b505afa158015611023573d6000803e3d6000fd5b505050506040513d601f19601f820116820180604052508101906110479190612133565b306000908152600160205260408120549192506110648888611cd7565b600054909150806110758685612336565b61107f91906122f3565b9a508061108c8585612336565b61109691906122f3565b995060008b1180156110a8575060008a115b6110f35760405162461bcd60e51b815260206004820152602860248201526000805160206124108339815191526044820152671657d0955493915160c21b606482015260840161048a565b6110fd3084611f24565b611108878d8d6117a8565b611113868d8c6117a8565b6040516370a0823160e01b81526001600160a01b038816906370a082319061113f9030906004016121f7565b60206040518083038186803b15801561115757600080fd5b505afa15801561116b573d6000803e3d6000fd5b505050506040513d601f19601f8201168201806040525081019061118f9190612133565b6040516370a0823160e01b81529095506001600160a01b038716906370a08231906111be9030906004016121f7565b60206040518083038186803b1580156111d657600080fd5b505afa1580156111ea573d6000803e3d6000fd5b505050506040513d601f19601f8201168201806040525081019061120e9190612133565b935061121c85858b8b611a2f565b811561124557600b54611241906001600160701b03600160701b820481169116612336565b600e555b604080518c8152602081018c90526001600160a01b038e169133917fdccd412f0b1252819cb1fd330b93224ca42612892bb3f4f789976e6d81936496910160405180910390a35050505050505050506001600f81905550915091565b6000610a59338484611c48565b600f546001146112d05760405162461bcd60e51b815260040161048a9061228a565b6000600f55600954600a54600b546040516370a0823160e01b81526001600160a01b03938416939092169161138291849186916001600160701b03169083906370a08231906113239030906004016121f7565b60206040518083038186803b15801561133b57600080fd5b505afa15801561134f573d6000803e3d6000fd5b505050506040513d601f19601f820116820180604052508101906113739190612133565b61137d9190612355565b6117a8565b600b546040516370a0823160e01b81526113ca9183918691600160701b90046001600160701b0316906001600160a01b038416906370a08231906113239030906004016121f7565b50506001600f5550565b60055460405163cfd09b2b60e01b81526000916001600160a01b03169063cfd09b2b906114059085906004016121f7565b60206040518083038186803b15801561141d57600080fd5b505afa158015611431573d6000803e3d6000fd5b505050506040513d601f19601f820116820180604052508101906114559190612133565b92915050565b428410156114a05760405162461bcd60e51b8152602060048201526012602482015271155b9a5cddd85c158c8e881156141254915160721b604482015260640161048a565b6003546001600160a01b03881660009081526004602052604081208054919291600080516020612450833981519152918b918b918b9190876114e18361239c565b909155506040805160208101969096526001600160a01b0394851690860152929091166060840152608083015260a082015260c0810187905260e0016040516020818303038152906040528051906020012060405160200161155a92919061190160f01b81526002810192909252602282015260420190565b60408051601f198184030181528282528051602091820120600080855291840180845281905260ff88169284019290925260608301869052608083018590529092509060019060a0016020604051602081039080840390855afa1580156115c5573d6000803e3d6000fd5b5050604051601f1901519150506001600160a01b038116158015906115fb5750886001600160a01b0316816001600160a01b0316145b6116465760405162461bcd60e51b815260206004820152601c60248201527b556e697377617056323a20494e56414c49445f5349474e415455524560201b604482015260640161048a565b611651898989611be6565b505050505050505050565b600f5460011461167e5760405162461bcd60e51b815260040161048a9061228a565b6000600f556009546040516370a0823160e01b81526117a1916001600160a01b0316906370a08231906116b59030906004016121f7565b60206040518083038186803b1580156116cd57600080fd5b505afa1580156116e1573d6000803e3d6000fd5b505050506040513d601f19601f820116820180604052508101906117059190612133565b600a546040516370a0823160e01b81526001600160a01b03909116906370a08231906117359030906004016121f7565b60206040518083038186803b15801561174d57600080fd5b505afa158015611761573d6000803e3d6000fd5b505050506040513d601f19601f820116820180604052508101906117859190612133565b600b546001600160701b0380821691600160701b900416611a2f565b6001600f55565b604080516001600160a01b038481166024830152604480830185905283518084039091018152606490920183526020820180516001600160e01b031663a9059cbb60e01b179052915160009283929087169161180491906121db565b6000604051808303816000865af19150503d8060008114611841576040519150601f19603f3d011682016040523d82523d6000602084013e611846565b606091505b50915091508180156118705750805115806118705750808060200190518101906118709190612113565b6118b95760405162461bcd60e51b815260206004820152601a602482015279155b9a5cddd85c158c8e881514905394d1915497d1905253115160321b604482015260640161048a565b5050505050565b600554600654604051630259287b60e41b81526001600160a01b039283169263259287b0926118f4929116906004016121f7565b602060405180830381600087803b15801561190e57600080fd5b505af1158015611922573d6000803e3d6000fd5b505050506040513d601f19601f820116820180604052508101906119469190612113565b50600554600754604051630259287b60e41b81526001600160a01b039283169263259287b09261197b929116906004016121f7565b602060405180830381600087803b15801561199557600080fd5b505af11580156119a9573d6000803e3d6000fd5b505050506040513d601f19601f820116820180604052508101906119cd9190612113565b506006546000906119e6906001600160a01b03166113d4565b600754909150600090611a01906001600160a01b03166113d4565b9050600382148015611a135750600381145b15610c1b576005805460ff60a01b1916600160a01b1790555050565b6001600160701b038411801590611a4d57506001600160701b038311155b611a8f5760405162461bcd60e51b8152602060048201526013602482015272556e697377617056323a204f564552464c4f5760681b604482015260640161048a565b6000611a9f600160201b426123b7565b600b5490915063ffffffff600160e01b9091048116820390811615801590611acf57506001600160701b03841615155b8015611ae357506001600160701b03831615155b15611b4e578063ffffffff16611b0b85611afc86611f95565b6001600160e01b031690611fae565b600c80546001600160e01b03929092169290920201905563ffffffff8116611b3684611afc87611f95565b600d80546001600160e01b0392909216929092020190555b50600b805463ffffffff8316600160e01b026001600160e01b036001600160701b03888116600160701b9081026001600160e01b03199095168b83161794909417918216831794859055604080519382169282169290921783529290930490911660208201527f1c411e9a96e071241c2f21f7726b17ae89e3cab4c78be50e062b03a9fffbbad1910160405180910390a15050505050565b6001600160a01b0383811660008181526002602090815260408083209487168084529482529182902085905590518481527f8c5be1e5ebec7d5bd14f71427d1e84f3dd0314c0f7b2291e5b200ac8c7c3b92591015b60405180910390a3505050565b6001600160a01b03831660009081526001602052604081208054839290611c70908490612355565b90915550506001600160a01b03821660009081526001602052604081208054839290611c9d9084906122b5565b92505081905550816001600160a01b0316836001600160a01b031660008051602061243083398151915283604051611c3b91815260200190565b600080600860009054906101000a90046001600160a01b03166001600160a01b031663017e7e586040518163ffffffff1660e01b815260040160206040518083038186803b158015611d2857600080fd5b505afa158015611d3c573d6000803e3d6000fd5b505050506040513d601f19601f82011682018060405250810190611d609190611fdf565b600e546001600160a01b038216158015945091925090611e11578015611e0c576000611d9b610dba6001600160701b03808816908916612336565b90506000611da883611e25565b905080821115611e09576000611dbe8284612355565b600054611dcb9190612336565b9050600082611ddb856005612336565b611de591906122b5565b90506000611df382846122f3565b90508015611e0557611e058782611e95565b5050505b50505b611e1d565b8015611e1d576000600e555b505092915050565b60006003821115611e865750806000611e3f6002836122f3565b611e4a9060016122b5565b90505b81811015611e8057905080600281611e6581866122f3565b611e6f91906122b5565b611e7991906122f3565b9050611e4d565b50919050565b8115611e90575060015b919050565b80600080828254611ea691906122b5565b90915550506001600160a01b03821660009081526001602052604081208054839290611ed39084906122b5565b90915550506040518181526001600160a01b03831690600090600080516020612430833981519152906020015b60405180910390a35050565b6000818310611f1b5781611f1d565b825b9392505050565b6001600160a01b03821660009081526001602052604081208054839290611f4c908490612355565b9250508190555080600080828254611f649190612355565b90915550506040518181526000906001600160a01b0384169060008051602061243083398151915290602001611f00565b6000611455600160701b6001600160701b038416612307565b6000611f1d6001600160701b038316846122cd565b600060208284031215611fd4578081fd5b8135611f1d816123f7565b600060208284031215611ff0578081fd5b8151611f1d816123f7565b6000806040838503121561200d578081fd5b8235612018816123f7565b91506020830135612028816123f7565b809150509250929050565b600080600060608486031215612047578081fd5b8335612052816123f7565b92506020840135612062816123f7565b929592945050506040919091013590565b600080600080600080600060e0888a03121561208d578283fd5b8735612098816123f7565b965060208801356120a8816123f7565b95506040880135945060608801359350608088013560ff811681146120cb578384fd5b9699959850939692959460a0840135945060c09093013592915050565b600080604083850312156120fa578182fd5b8235612105816123f7565b946020939093013593505050565b600060208284031215612124578081fd5b81518015158114611f1d578182fd5b600060208284031215612144578081fd5b5051919050565b600080600080600060808688031215612162578081fd5b8535945060208601359350604086013561217b816123f7565b925060608601356001600160401b0380821115612196578283fd5b818801915088601f8301126121a9578283fd5b8135818111156121b7578384fd5b8960208285010111156121c8578384fd5b9699959850939650602001949392505050565b600082516121ed81846020870161236c565b9190910192915050565b6001600160a01b0391909116815260200190565b60018060a01b038616815284602082015283604082015260806060820152816080820152818360a0830137600081830160a090810191909152601f909201601f19160101949350505050565b602081526000825180602084015261227681604085016020870161236c565b601f01601f19169190910160400192915050565b602080825260119082015270155b9a5cddd85c158c8e881313d0d2d151607a1b604082015260600190565b600082198211156122c8576122c86123cb565b500190565b60006001600160e01b03838116806122e7576122e76123e1565b92169190910492915050565b600082612302576123026123e1565b500490565b60006001600160e01b038281168482168115158284048211161561232d5761232d6123cb565b02949350505050565b6000816000190483118215151615612350576123506123cb565b500290565b600082821015612367576123676123cb565b500390565b60005b8381101561238757818101518382015260200161236f565b83811115612396576000848401525b50505050565b60006000198214156123b0576123b06123cb565b5060010190565b6000826123c6576123c66123e1565b500690565b634e487b7160e01b600052601160045260246000fd5b634e487b7160e01b600052601260045260246000fd5b6001600160a01b038116811461240c57600080fd5b5056fe556e697377617056323a20494e53554646494349454e545f4c49515549444954ddf252ad1be2c89b69c2b068fc378daa952ba7f163c4a11628f55a4df523b3ef6e71edae12b1b97f4d1f60370fef10105fa2faae0126114a169c64845d6126c9a2646970667358221220e043f52ea24dd527935efca221f506deddf9ee32f4f91f120adfb6f15204ab4764736f6c63430008040033a26469706673582212204d5c7abdfbc49b5ab717d44910b72c8c325f72a6dd023841a573522a1413cba764736f6c63430008040033608060405234801561001057600080fd5b5061103b806100206000396000f3fe608060405234801561001057600080fd5b50600436106100af5760003560e01c80630b39d94c146100b4578063259287b0146100dc57806333e5f0d9146100ef5780633ab69b621461010457806348b151661461013a57806372af5ba31461014a57806386a35f2514610154578063b1724b461461015d578063cfd09b2b14610167578063d444329f1461017a578063d8f6500b1461018d578063e2d6649a146101b6578063e9814c2a146101be575b600080fd5b6100c76100c23660046108c7565b6101d1565b60405190151581526020015b60405180910390f35b6100c76100ea366004610857565b61028e565b6101026100fd3660046108c7565b6103a4565b005b61012d610112366004610857565b6001602052600090815260409020546001600160a01b031681565b6040516100d39190610913565b425b6040519081526020016100d3565b61013c62093a8081565b61013c6103e881565b61013c6201518081565b61013c610175366004610857565b61047a565b6100c761018836600461088f565b610530565b61012d61019b366004610857565b6000602081905290815260409020546001600160a01b031681565b61013c600381565b6100c76101cc36600461088f565b6106d6565b60006101dd8433610530565b6102295760405162461bcd60e51b815260206004820152601860248201527776616c696461746528746f6b656e5f2c206f776e65725f2960401b60448201526064015b60405180910390fd5b60006102378533868661070a565b905080156102865760408051858152602081018590526001600160a01b0387169133917f7309da950787ba6bdc13091f8092312add1d94cfdbed9864d818cda4f7bf5238910160405180910390a35b949350505050565b6000816000816001600160a01b03166370a08231336040518263ffffffff1660e01b81526004016102bf9190610913565b60206040518083038186803b1580156102d757600080fd5b505afa1580156102eb573d6000803e3d6000fd5b505050506040513d601f19601f8201168201806040525081019061030f91906108fb565b1161034d5760405162461bcd60e51b815260206004820152600e60248201526d37b7363caa37b5b2b72437b632b960911b6044820152606401610220565b600061035e8461dead42600061070a565b9050801561039d576040516001600160a01b0385169033907f2e42e9643e207c89faa3d2cbba4bda6d715859f66d41ec249bfbd142bba8972990600090a35b9392505050565b6001600160a01b0383811660009081526001602052604090205484911633146104005760405162461bcd60e51b815260206004820152600e60248201526d37b7363caa37b5b2b727bbb732b960911b6044820152606401610220565b6001600160a01b0384811660009081526020819052604090819020549051630b0771ab60e41b8152600481018690526024810185905291169063b0771ab090604401600060405180830381600087803b15801561045c57600080fd5b505af1158015610470573d6000803e3d6000fd5b5050505050505050565b6001600160a01b038181166000908152602081905260408120549091166104a357506003919050565b6001600160a01b0380831660009081526020818152604091829020548251631d507d0760e21b81529251931692637541f41c926004808201939291829003018186803b1580156104f257600080fd5b505afa158015610506573d6000803e3d6000fd5b505050506040513d601f19601f8201168201806040525081019061052a91906108fb565b92915050565b6000826001600160a01b03166318160ddd6040518163ffffffff1660e01b815260040160206040518083038186803b15801561056b57600080fd5b505afa15801561057f573d6000803e3d6000fd5b505050506040513d601f19601f820116820180604052508101906105a391906108fb565b6040516370a0823160e01b81526001600160a01b038516906370a08231906105cf908690600401610913565b60206040518083038186803b1580156105e757600080fd5b505afa1580156105fb573d6000803e3d6000fd5b505050506040513d601f19601f8201168201806040525081019061061f91906108fb565b141561062d5750600161052a565b6001600160a01b0382166106435750600061052a565b826001600160a01b0316638da5cb5b6040518163ffffffff1660e01b815260040160206040518083038186803b15801561067c57600080fd5b505afa9250505080156106ac575060408051601f3d908101601f191682019092526106a991810190610873565b60015b6106b85750600061052a565b826001600160a01b0316816001600160a01b03161491505092915050565b60006106e28383610530565b801561039d575050506001600160a01b03908116600090815260208190526040902054161590565b6001600160a01b038481166000908152602081905260408120549091161561073457506000610286565b6040516001600160601b0319606087901b166020820152603401604051602081830303815290604052805190602001206040516107709061084a565b8190604051809103906000f5905080158015610790573d6000803e3d6000fd5b506001600160a01b0386811660008181526020818152604080832080549686166001600160a01b03199788161781556001835281842080548c88169816979097179096559190529254925163eb990c5960e01b81526004810191909152306024820152604481018690526064810185905291169063eb990c5990608401600060405180830381600087803b15801561082757600080fd5b505af115801561083b573d6000803e3d6000fd5b50600198975050505050505050565b6106c68061094083390190565b600060208284031215610868578081fd5b813561039d81610927565b600060208284031215610884578081fd5b815161039d81610927565b600080604083850312156108a1578081fd5b82356108ac81610927565b915060208301356108bc81610927565b809150509250929050565b6000806000606084860312156108db578081fd5b83356108e681610927565b95602085013595506040909401359392505050565b60006020828403121561090c578081fd5b5051919050565b6001600160a01b0391909116815260200190565b6001600160a01b038116811461093c57600080fd5b5056fe608060405234801561001057600080fd5b506106a6806100206000396000f3fe608060405234801561001057600080fd5b50600436106100af5760003560e01c80630fb5a6b4146100b4578063200d2ed2146100d057806372af5ba3146100e55780637541f41c146100ef57806386a35f25146100f75780638da5cb5b14610100578063b0771ab01461012b578063b1724b4614610140578063e2d6649a1461014a578063eae4c19f14610152578063eb990c591461015b578063f21f537d1461016e578063fc0c546a14610177575b600080fd5b6100bd60045481565b6040519081526020015b60405180910390f35b6100d861018f565b6040516100c791906105c4565b6100bd62093a8081565b6100bd6101ce565b6100bd6103e881565b600154610113906001600160a01b031681565b6040516001600160a01b0390911681526020016100c7565b61013e6101393660046105a3565b6102a2565b005b6100bd6201518081565b6100bd600381565b6100bd60025481565b61013e610169366004610562565b61030a565b6100bd60035481565b6000546101139061010090046001600160a01b031681565b60004260035411806101a15750600354155b156101ac5750600090565b426004546003546101bd91906105ec565b116101c85750600290565b50600190565b6000806101d961018f565b905060008160028111156101fd57634e487b7160e01b600052602160045260246000fd5b1415610216576102106103e860016105ec565b91505090565b600281600281111561023857634e487b7160e01b600052602160045260246000fd5b141561024657600391505090565b6000600354426102569190610643565b90506000816004546102689190610643565b60045490915061027b60036103e8610643565b6102859083610624565b61028f9190610604565b61029a9060036105ec565b935050505090565b6001546001600160a01b031633146102fc5760405162461bcd60e51b81526020600482015260186024820152774c697374696e67546f6b656e3a206f6e6c794f776e65722160401b60448201526064015b60405180910390fd5b61030682826103b2565b5050565b60005460ff16156103525760405162461bcd60e51b815260206004820152601260248201527169734e6f74496e697469616c697a61626c6560701b60448201526064016102f3565b60008054610100600160a81b0319166101006001600160a01b038781169190910291909117909155600180546001600160a01b0319169185169190911790554260025561039f82826103b2565b50506000805460ff191660011790555050565b60006103bc61018f565b60028111156103db57634e487b7160e01b600052602160045260246000fd5b146104245760405162461bcd60e51b8152602060048201526019602482015278131a5cdd1a5b99d51bdad95b8e881393d517d4d51054951151603a1b60448201526064016102f3565b620151808111156104745760405162461bcd60e51b815260206004820152601a6024820152792634b9ba34b733aa37b5b2b71d1026a0ac2fa22aa920aa24a7a760311b60448201526064016102f3565b6002548210156104d55760405162461bcd60e51b815260206004820152602660248201527f4c697374696e67546f6b656e3a207374617274656441745f203e3d206465706c6044820152651bde5959105d60d21b60648201526084016102f3565b6000600254836104e59190610643565b905062093a8081111561053a5760405162461bcd60e51b815260206004820152601e60248201527f4c697374696e67546f6b656e3a204d41585f50454e44494e475f54494d45000060448201526064016102f3565b50600391909155600455565b80356001600160a01b038116811461055d57600080fd5b919050565b60008060008060808587031215610577578384fd5b61058085610546565b935061058e60208601610546565b93969395505050506040820135916060013590565b600080604083850312156105b5578182fd5b50508035926020909101359150565b60208101600383106105e657634e487b7160e01b600052602160045260246000fd5b91905290565b600082198211156105ff576105ff61065a565b500190565b60008261061f57634e487b7160e01b81526012600452602481fd5b500490565b600081600019048311821515161561063e5761063e61065a565b500290565b6000828210156106555761065561065a565b500390565b634e487b7160e01b600052601160045260246000fdfea26469706673582212204884dc7701e8b01e7542a10ad861283af2ac6e779756ae313c8e773da26137df64736f6c63430008040033a264697066735822122024f9b59cd75eedb8e3ee0009b1835a8e558ddabd3198c43a0bf5dc72272f3c9e64736f6c63430008040033",
  "linkReferences": {},
  "deployedLinkReferences": {}
}