{
  "_format": "hh-sol-artifact-1",
  "contractName": "UniswapV2Pair",
  "sourceName": "contracts/UniswapV2Pair.sol",
  "abi": [
    {
      "inputs": [],
      "stateMutability": "nonpayable",
      "type": "constructor"
    },
    {
      "anonymous": false,
      "inputs": [
        {
          "indexed": true,
          "internalType": "address",
          "name": "owner",
          "type": "address"
        },
        {
          "indexed": true,
          "internalType": "address",
          "name": "spender",
          "type": "address"
        },
        {
          "indexed": false,
          "internalType": "uint256",
          "name": "value",
          "type": "uint256"
        }
      ],
      "name": "Approval",
      "type": "event"
    },
    {
      "anonymous": false,
      "inputs": [
        {
          "indexed": true,
          "internalType": "address",
          "name": "sender",
          "type": "address"
        },
        {
          "indexed": false,
          "internalType": "uint256",
          "name": "amount0",
          "type": "uint256"
        },
        {
          "indexed": false,
          "internalType": "uint256",
          "name": "amount1",
          "type": "uint256"
        },
        {
          "indexed": true,
          "internalType": "address",
          "name": "to",
          "type": "address"
        }
      ],
      "name": "Burn",
      "type": "event"
    },
    {
      "anonymous": false,
      "inputs": [
        {
          "indexed": true,
          "internalType": "address",
          "name": "sender",
          "type": "address"
        },
        {
          "indexed": false,
          "internalType": "uint256",
          "name": "amount0",
          "type": "uint256"
        },
        {
          "indexed": false,
          "internalType": "uint256",
          "name": "amount1",
          "type": "uint256"
        }
      ],
      "name": "Mint",
      "type": "event"
    },
    {
      "anonymous": false,
      "inputs": [
        {
          "indexed": true,
          "internalType": "address",
          "name": "sender",
          "type": "address"
        },
        {
          "indexed": false,
          "internalType": "uint256",
          "name": "amount0In",
          "type": "uint256"
        },
        {
          "indexed": false,
          "internalType": "uint256",
          "name": "amount1In",
          "type": "uint256"
        },
        {
          "indexed": false,
          "internalType": "uint256",
          "name": "amount0Out",
          "type": "uint256"
        },
        {
          "indexed": false,
          "internalType": "uint256",
          "name": "amount1Out",
          "type": "uint256"
        },
        {
          "indexed": true,
          "internalType": "address",
          "name": "to",
          "type": "address"
        }
      ],
      "name": "Swap",
      "type": "event"
    },
    {
      "anonymous": false,
      "inputs": [
        {
          "indexed": false,
          "internalType": "uint112",
          "name": "reserve0",
          "type": "uint112"
        },
        {
          "indexed": false,
          "internalType": "uint112",
          "name": "reserve1",
          "type": "uint112"
        }
      ],
      "name": "Sync",
      "type": "event"
    },
    {
      "anonymous": false,
      "inputs": [
        {
          "indexed": true,
          "internalType": "address",
          "name": "from",
          "type": "address"
        },
        {
          "indexed": true,
          "internalType": "address",
          "name": "to",
          "type": "address"
        },
        {
          "indexed": false,
          "internalType": "uint256",
          "name": "value",
          "type": "uint256"
        }
      ],
      "name": "Transfer",
      "type": "event"
    },
    {
      "inputs": [],
      "name": "DOMAIN_SEPARATOR",
      "outputs": [
        {
          "internalType": "bytes32",
          "name": "",
          "type": "bytes32"
        }
      ],
      "stateMutability": "view",
      "type": "function"
    },
    {
      "inputs": [],
      "name": "MAX_DURATION",
      "outputs": [
        {
          "internalType": "uint256",
          "name": "",
          "type": "uint256"
        }
      ],
      "stateMutability": "view",
      "type": "function"
    },
    {
      "inputs": [],
      "name": "MAX_PENDING_TIME",
      "outputs": [
        {
          "internalType": "uint256",
          "name": "",
          "type": "uint256"
        }
      ],
      "stateMutability": "view",
      "type": "function"
    },
    {
      "inputs": [],
      "name": "MAX_TAX",
      "outputs": [
        {
          "internalType": "uint256",
          "name": "",
          "type": "uint256"
        }
      ],
      "stateMutability": "view",
      "type": "function"
    },
    {
      "inputs": [],
      "name": "MINIMUM_LIQUIDITY",
      "outputs": [
        {
          "internalType": "uint256",
          "name": "",
          "type": "uint256"
        }
      ],
      "stateMutability": "view",
      "type": "function"
    },
    {
      "inputs": [],
      "name": "MIN_TAX",
      "outputs": [
        {
          "internalType": "uint256",
          "name": "",
          "type": "uint256"
        }
      ],
      "stateMutability": "view",
      "type": "function"
    },
    {
      "inputs": [],
      "name": "PERMIT_TYPEHASH",
      "outputs": [
        {
          "internalType": "bytes32",
          "name": "",
          "type": "bytes32"
        }
      ],
      "stateMutability": "view",
      "type": "function"
    },
    {
      "inputs": [
        {
          "internalType": "address",
          "name": "",
          "type": "address"
        },
        {
          "internalType": "address",
          "name": "",
          "type": "address"
        }
      ],
      "name": "allowance",
      "outputs": [
        {
          "internalType": "uint256",
          "name": "",
          "type": "uint256"
        }
      ],
      "stateMutability": "view",
      "type": "function"
    },
    {
      "inputs": [
        {
          "internalType": "address",
          "name": "spender",
          "type": "address"
        },
        {
          "internalType": "uint256",
          "name": "value",
          "type": "uint256"
        }
      ],
      "name": "approve",
      "outputs": [
        {
          "internalType": "bool",
          "name": "",
          "type": "bool"
        }
      ],
      "stateMutability": "nonpayable",
      "type": "function"
    },
    {
      "inputs": [
        {
          "internalType": "address",
          "name": "",
          "type": "address"
        }
      ],
      "name": "balanceOf",
      "outputs": [
        {
          "internalType": "uint256",
          "name": "",
          "type": "uint256"
        }
      ],
      "stateMutability": "view",
      "type": "function"
    },
    {
      "inputs": [
        {
          "internalType": "address",
          "name": "to",
          "type": "address"
        }
      ],
      "name": "burn",
      "outputs": [
        {
          "internalType": "uint256",
          "name": "amount0",
          "type": "uint256"
        },
        {
          "internalType": "uint256",
          "name": "amount1",
          "type": "uint256"
        }
      ],
      "stateMutability": "nonpayable",
      "type": "function"
    },
    {
      "inputs": [],
      "name": "decimals",
      "outputs": [
        {
          "internalType": "uint8",
          "name": "",
          "type": "uint8"
        }
      ],
      "stateMutability": "view",
      "type": "function"
    },
    {
      "inputs": [],
      "name": "factory",
      "outputs": [
        {
          "internalType": "address",
          "name": "",
          "type": "address"
        }
      ],
      "stateMutability": "view",
      "type": "function"
    },
    {
      "inputs": [],
      "name": "getReserves",
      "outputs": [
        {
          "internalType": "uint112",
          "name": "_reserve0",
          "type": "uint112"
        },
        {
          "internalType": "uint112",
          "name": "_reserve1",
          "type": "uint112"
        },
        {
          "internalType": "uint32",
          "name": "_blockTimestampLast",
          "type": "uint32"
        }
      ],
      "stateMutability": "view",
      "type": "function"
    },
    {
      "inputs": [
        {
          "internalType": "address",
          "name": "_token0",
          "type": "address"
        },
        {
          "internalType": "address",
          "name": "_token1",
          "type": "address"
        }
      ],
      "name": "initialize",
      "outputs": [],
      "stateMutability": "nonpayable",
      "type": "function"
    },
    {
      "inputs": [],
      "name": "kLast",
      "outputs": [
        {
          "internalType": "uint256",
          "name": "",
          "type": "uint256"
        }
      ],
      "stateMutability": "view",
      "type": "function"
    },
    {
      "inputs": [],
      "name": "listingFactory",
      "outputs": [
        {
          "internalType": "address",
          "name": "",
          "type": "address"
        }
      ],
      "stateMutability": "view",
      "type": "function"
    },
    {
      "inputs": [
        {
          "internalType": "address",
          "name": "to",
          "type": "address"
        }
      ],
      "name": "mint",
      "outputs": [
        {
          "internalType": "uint256",
          "name": "liquidity",
          "type": "uint256"
        }
      ],
      "stateMutability": "nonpayable",
      "type": "function"
    },
    {
      "inputs": [],
      "name": "name",
      "outputs": [
        {
          "internalType": "string",
          "name": "",
          "type": "string"
        }
      ],
      "stateMutability": "view",
      "type": "function"
    },
    {
      "inputs": [
        {
          "internalType": "address",
          "name": "",
          "type": "address"
        }
      ],
      "name": "nonces",
      "outputs": [
        {
          "internalType": "uint256",
          "name": "",
          "type": "uint256"
        }
      ],
      "stateMutability": "view",
      "type": "function"
    },
    {
      "inputs": [
        {
          "internalType": "address",
          "name": "owner",
          "type": "address"
        },
        {
          "internalType": "address",
          "name": "spender",
          "type": "address"
        },
        {
          "internalType": "uint256",
          "name": "value",
          "type": "uint256"
        },
        {
          "internalType": "uint256",
          "name": "deadline",
          "type": "uint256"
        },
        {
          "internalType": "uint8",
          "name": "v",
          "type": "uint8"
        },
        {
          "internalType": "bytes32",
          "name": "r",
          "type": "bytes32"
        },
        {
          "internalType": "bytes32",
          "name": "s",
          "type": "bytes32"
        }
      ],
      "name": "permit",
      "outputs": [],
      "stateMutability": "nonpayable",
      "type": "function"
    },
    {
      "inputs": [],
      "name": "price0CumulativeLast",
      "outputs": [
        {
          "internalType": "uint256",
          "name": "",
          "type": "uint256"
        }
      ],
      "stateMutability": "view",
      "type": "function"
    },
    {
      "inputs": [],
      "name": "price1CumulativeLast",
      "outputs": [
        {
          "internalType": "uint256",
          "name": "",
          "type": "uint256"
        }
      ],
      "stateMutability": "view",
      "type": "function"
    },
    {
      "inputs": [
        {
          "internalType": "address",
          "name": "to",
          "type": "address"
        }
      ],
      "name": "skim",
      "outputs": [],
      "stateMutability": "nonpayable",
      "type": "function"
    },
    {
      "inputs": [
        {
          "internalType": "uint256",
          "name": "amount0Out",
          "type": "uint256"
        },
        {
          "internalType": "uint256",
          "name": "amount1Out",
          "type": "uint256"
        },
        {
          "internalType": "address",
          "name": "to",
          "type": "address"
        },
        {
          "internalType": "bytes",
          "name": "data",
          "type": "bytes"
        }
      ],
      "name": "swap",
      "outputs": [],
      "stateMutability": "nonpayable",
      "type": "function"
    },
    {
      "inputs": [],
      "name": "symbol",
      "outputs": [
        {
          "internalType": "string",
          "name": "",
          "type": "string"
        }
      ],
      "stateMutability": "view",
      "type": "function"
    },
    {
      "inputs": [],
      "name": "sync",
      "outputs": [],
      "stateMutability": "nonpayable",
      "type": "function"
    },
    {
      "inputs": [
        {
          "internalType": "address",
          "name": "token_",
          "type": "address"
        }
      ],
      "name": "taxPercent",
      "outputs": [
        {
          "internalType": "uint256",
          "name": "",
          "type": "uint256"
        }
      ],
      "stateMutability": "view",
      "type": "function"
    },
    {
      "inputs": [],
      "name": "token0",
      "outputs": [
        {
          "internalType": "address",
          "name": "",
          "type": "address"
        }
      ],
      "stateMutability": "view",
      "type": "function"
    },
    {
      "inputs": [],
      "name": "token1",
      "outputs": [
        {
          "internalType": "address",
          "name": "",
          "type": "address"
        }
      ],
      "stateMutability": "view",
      "type": "function"
    },
    {
      "inputs": [],
      "name": "totalSupply",
      "outputs": [
        {
          "internalType": "uint256",
          "name": "",
          "type": "uint256"
        }
      ],
      "stateMutability": "view",
      "type": "function"
    },
    {
      "inputs": [
        {
          "internalType": "address",
          "name": "to",
          "type": "address"
        },
        {
          "internalType": "uint256",
          "name": "value",
          "type": "uint256"
        }
      ],
      "name": "transfer",
      "outputs": [
        {
          "internalType": "bool",
          "name": "",
          "type": "bool"
        }
      ],
      "stateMutability": "nonpayable",
      "type": "function"
    },
    {
      "inputs": [
        {
          "internalType": "address",
          "name": "from",
          "type": "address"
        },
        {
          "internalType": "address",
          "name": "to",
          "type": "address"
        },
        {
          "internalType": "uint256",
          "name": "value",
          "type": "uint256"
        }
      ],
      "name": "transferFrom",
      "outputs": [
        {
          "internalType": "bool",
          "name": "",
          "type": "bool"
        }
      ],
      "stateMutability": "nonpayable",
      "type": "function"
    }
  ],
  "bytecode": "0x60806040526001600f5534801561001557600080fd5b50604080518082018252600a8152692ab734b9bbb0b8102b1960b11b6020918201528151808301835260018152603160f81b9082015281517f8b73c3c69bb8fe3d512ecc4cf759cc79239f7b179b0ffacaa9a75d522b39400f918101919091527fbfcc8ef98ffbf7b6c3fec7bf5185b566b9863e35a9d83acd49ad6824b5969738918101919091527fc89efdaa54c0f20c7adf612882df0950f5a951637e0307cdcb4c672f298b8bc660608201524660808201523060a082015260c00160408051601f198184030181529190528051602090910120600355600880546001600160a01b031916331790556124a58061010e6000396000f3fe608060405234801561001057600080fd5b506004361061018b5760003560e01c8063022c0d9f1461019057806306fdde03146101a55780630902f1ac146101e4578063095ea7b3146102185780630dfe16811461023b57806318160ddd1461025b57806323b872dd1461027257806330adf81f14610285578063313ce5671461029a5780633644e515146102b4578063485cc955146102bd5780635909c0d5146102d05780635a3d5493146102d95780636a627842146102e257806370a08231146102f557806372af5ba3146103155780637464fc3d1461031f5780637ecebe001461032857806386a35f251461034857806389afcb441461035157806395d89b4114610379578063a9059cbb1461039e578063b1724b46146103b1578063ba9a7a5614610348578063bc25cf77146103bb578063c45a0155146103ce578063cfd09b2b146103e1578063d21220a7146103f4578063d505accf14610407578063dd62ed3e1461041a578063e2d6649a14610445578063fe8cde341461044d578063fff6cae914610460575b600080fd5b6101a361019e36600461214b565b610468565b005b6101ce6040518060400160405280600a8152602001692ab734b9bbb0b8102b1960b11b81525081565b6040516101db9190612257565b60405180910390f35b6101ec610a22565b604080516001600160701b03948516815293909216602084015263ffffffff16908201526060016101db565b61022b6102263660046120e8565b610a4c565b60405190151581526020016101db565b60095461024e906001600160a01b031681565b6040516101db91906121f7565b61026460005481565b6040519081526020016101db565b61022b610280366004612033565b610a62565b61026460008051602061245083398151915281565b6102a2601281565b60405160ff90911681526020016101db565b61026460035481565b6101a36102cb366004611ffb565b610adc565b610264600c5481565b610264600d5481565b6102646102f0366004611fc3565b610c1f565b610264610303366004611fc3565b60016020526000908152604090205481565b61026462093a8081565b610264600e5481565b610264610336366004611fc3565b60046020526000908152604090205481565b6102646103e881565b61036461035f366004611fc3565b610f00565b604080519283526020830191909152016101db565b6101ce604051806040016040528060068152602001652aa72496ab1960d11b81525081565b61022b6103ac3660046120e8565b6112a1565b6102646201518081565b6101a36103c9366004611fc3565b6112ae565b60085461024e906001600160a01b031681565b6102646103ef366004611fc3565b6113d4565b600a5461024e906001600160a01b031681565b6101a3610415366004612073565b61145b565b610264610428366004611ffb565b600260209081526000928352604080842090915290825290205481565b610264600381565b60055461024e906001600160a01b031681565b6101a361165c565b600f546001146104935760405162461bcd60e51b815260040161048a9061228a565b60405180910390fd5b6000600f55841515806104a65750600084115b6105005760405162461bcd60e51b815260206004820152602560248201527f556e697377617056323a20494e53554646494349454e545f4f55545055545f416044820152641353d5539560da1b606482015260840161048a565b60008061050b610a22565b5091509150816001600160701b0316871080156105305750806001600160701b031686105b6105745760405162461bcd60e51b815260206004820152602160248201526000805160206124108339815191526044820152605960f81b606482015260840161048a565b600954600a5460009182916001600160a01b039182169190811690891682148015906105b25750806001600160a01b0316896001600160a01b031614155b6105f65760405162461bcd60e51b8152602060048201526015602482015274556e697377617056323a20494e56414c49445f544f60581b604482015260640161048a565b8a1561060757610607828a8d6117a8565b891561061857610618818a8c6117a8565b8615610685576040516304347a1760e21b81526001600160a01b038a16906310d1e85c906106529033908f908f908e908e9060040161220b565b600060405180830381600087803b15801561066c57600080fd5b505af1158015610680573d6000803e3d6000fd5b505050505b6040516370a0823160e01b81526001600160a01b038316906370a08231906106b19030906004016121f7565b60206040518083038186803b1580156106c957600080fd5b505afa1580156106dd573d6000803e3d6000fd5b505050506040513d601f19601f820116820180604052508101906107019190612133565b6040516370a0823160e01b81529094506001600160a01b038216906370a08231906107309030906004016121f7565b60206040518083038186803b15801561074857600080fd5b505afa15801561075c573d6000803e3d6000fd5b505050506040513d601f19601f820116820180604052508101906107809190612133565b92505050600089856001600160701b031661079b9190612355565b83116107a85760006107c5565b6107bb8a6001600160701b038716612355565b6107c59084612355565b905060006107dc8a6001600160701b038716612355565b83116107e9576000610806565b6107fc8a6001600160701b038716612355565b6108069084612355565b905060008211806108175750600081115b61086f5760405162461bcd60e51b8152602060048201526024808201527f556e697377617056323a20494e53554646494349454e545f494e5055545f414d60448201526313d5539560e21b606482015260840161048a565b600061087c836003612336565b610888866103e8612336565b6108929190612355565b905060006108a1836003612336565b6108ad866103e8612336565b6108b79190612355565b600554909150600160a01b900460ff16610943576108d36118c0565b600a546108e8906001600160a01b03166113d4565b6108f29085612336565b6108fe876103e8612336565b6109089190612355565b600954909250610920906001600160a01b03166113d4565b61092a9084612336565b610936866103e8612336565b6109409190612355565b90505b6109596001600160701b03808916908a16612336565b61096690620f4240612336565b6109708284612336565b10156109ad5760405162461bcd60e51b815260206004820152600c60248201526b556e697377617056323a204b60a01b604482015260640161048a565b50506109bb84848888611a2f565b60408051838152602081018390529081018c9052606081018b90526001600160a01b038a169033907fd78ad95fa46c994b6551d0da85fc275fe613ce37657fb8d5e3d130840159d8229060800160405180910390a350506001600f55505050505050505050565b600b546001600160701b0380821692600160701b830490911691600160e01b900463ffffffff1690565b6000610a59338484611be6565b50600192915050565b6001600160a01b038316600090815260026020908152604080832033845290915281205460001914610ac7576001600160a01b038416600090815260026020908152604080832033845290915281208054849290610ac1908490612355565b90915550505b610ad2848484611c48565b5060019392505050565b6008546001600160a01b03163314610b2d5760405162461bcd60e51b81526020600482015260146024820152732ab734b9bbb0b82b191d102327a92124a22222a760611b604482015260640161048a565b600980546001600160a01b038085166001600160a01b031992831617909255600a8054848416921691909117905560085460408051633fa3378d60e21b81529051610c1b93929092169163fe8cde3491600480820192602092909190829003018186803b158015610b9d57600080fd5b505afa158015610bb1573d6000803e3d6000fd5b505050506040513d601f19601f82011682018060405250810190610bd59190611fdf565b600954600a54600580546001600160a01b03199081166001600160a01b039586161790915560068054821693851693909317909255600780549092169216919091179055565b5050565b6000600f54600114610c435760405162461bcd60e51b815260040161048a9061228a565b6000600f81905580610c53610a22565b506009546040516370a0823160e01b81529294509092506000916001600160a01b03909116906370a0823190610c8d9030906004016121f7565b60206040518083038186803b158015610ca557600080fd5b505afa158015610cb9573d6000803e3d6000fd5b505050506040513d601f19601f82011682018060405250810190610cdd9190612133565b600a546040516370a0823160e01b81529192506000916001600160a01b03909116906370a0823190610d139030906004016121f7565b60206040518083038186803b158015610d2b57600080fd5b505afa158015610d3f573d6000803e3d6000fd5b505050506040513d601f19601f82011682018060405250810190610d639190612133565b90506000610d7a6001600160701b03861684612355565b90506000610d916001600160701b03861684612355565b90506000610d9f8787611cd7565b60005490915080610ddd576103e8610dbf610dba8587612336565b611e25565b610dc99190612355565b9850610dd860006103e8611e95565b610e24565b610e216001600160701b038916610df48387612336565b610dfe91906122f3565b6001600160701b038916610e128487612336565b610e1c91906122f3565b611f0c565b98505b60008911610e735760405162461bcd60e51b815260206004820152602860248201526000805160206124108339815191526044820152671657d3525395115160c21b606482015260840161048a565b610e7d8a8a611e95565b610e8986868a8a611a2f565b8115610eb257600b54610eae906001600160701b03600160701b820481169116612336565b600e555b604080518581526020810185905233917f4c209b5fc8ad50758f13e2e1088ba56a560dff690a1c6fef26394f4c03821c4f910160405180910390a250506001600f5550949695505050505050565b600080600f54600114610f255760405162461bcd60e51b815260040161048a9061228a565b6000600f81905580610f35610a22565b50600954600a546040516370a0823160e01b81529395509193506001600160a01b039081169291169060009083906370a0823190610f779030906004016121f7565b60206040518083038186803b158015610f8f57600080fd5b505afa158015610fa3573d6000803e3d6000fd5b505050506040513d601f19601f82011682018060405250810190610fc79190612133565b90506000826001600160a01b03166370a08231306040518263ffffffff1660e01b8152600401610ff791906121f7565b60206040518083038186803b15801561100f57600080fd5b505afa158015611023573d6000803e3d6000fd5b505050506040513d601f19601f820116820180604052508101906110479190612133565b306000908152600160205260408120549192506110648888611cd7565b600054909150806110758685612336565b61107f91906122f3565b9a508061108c8585612336565b61109691906122f3565b995060008b1180156110a8575060008a115b6110f35760405162461bcd60e51b815260206004820152602860248201526000805160206124108339815191526044820152671657d0955493915160c21b606482015260840161048a565b6110fd3084611f24565b611108878d8d6117a8565b611113868d8c6117a8565b6040516370a0823160e01b81526001600160a01b038816906370a082319061113f9030906004016121f7565b60206040518083038186803b15801561115757600080fd5b505afa15801561116b573d6000803e3d6000fd5b505050506040513d601f19601f8201168201806040525081019061118f9190612133565b6040516370a0823160e01b81529095506001600160a01b038716906370a08231906111be9030906004016121f7565b60206040518083038186803b1580156111d657600080fd5b505afa1580156111ea573d6000803e3d6000fd5b505050506040513d601f19601f8201168201806040525081019061120e9190612133565b935061121c85858b8b611a2f565b811561124557600b54611241906001600160701b03600160701b820481169116612336565b600e555b604080518c8152602081018c90526001600160a01b038e169133917fdccd412f0b1252819cb1fd330b93224ca42612892bb3f4f789976e6d81936496910160405180910390a35050505050505050506001600f81905550915091565b6000610a59338484611c48565b600f546001146112d05760405162461bcd60e51b815260040161048a9061228a565b6000600f55600954600a54600b546040516370a0823160e01b81526001600160a01b03938416939092169161138291849186916001600160701b03169083906370a08231906113239030906004016121f7565b60206040518083038186803b15801561133b57600080fd5b505afa15801561134f573d6000803e3d6000fd5b505050506040513d601f19601f820116820180604052508101906113739190612133565b61137d9190612355565b6117a8565b600b546040516370a0823160e01b81526113ca9183918691600160701b90046001600160701b0316906001600160a01b038416906370a08231906113239030906004016121f7565b50506001600f5550565b60055460405163cfd09b2b60e01b81526000916001600160a01b03169063cfd09b2b906114059085906004016121f7565b60206040518083038186803b15801561141d57600080fd5b505afa158015611431573d6000803e3d6000fd5b505050506040513d601f19601f820116820180604052508101906114559190612133565b92915050565b428410156114a05760405162461bcd60e51b8152602060048201526012602482015271155b9a5cddd85c158c8e881156141254915160721b604482015260640161048a565b6003546001600160a01b03881660009081526004602052604081208054919291600080516020612450833981519152918b918b918b9190876114e18361239c565b909155506040805160208101969096526001600160a01b0394851690860152929091166060840152608083015260a082015260c0810187905260e0016040516020818303038152906040528051906020012060405160200161155a92919061190160f01b81526002810192909252602282015260420190565b60408051601f198184030181528282528051602091820120600080855291840180845281905260ff88169284019290925260608301869052608083018590529092509060019060a0016020604051602081039080840390855afa1580156115c5573d6000803e3d6000fd5b5050604051601f1901519150506001600160a01b038116158015906115fb5750886001600160a01b0316816001600160a01b0316145b6116465760405162461bcd60e51b815260206004820152601c60248201527b556e697377617056323a20494e56414c49445f5349474e415455524560201b604482015260640161048a565b611651898989611be6565b505050505050505050565b600f5460011461167e5760405162461bcd60e51b815260040161048a9061228a565b6000600f556009546040516370a0823160e01b81526117a1916001600160a01b0316906370a08231906116b59030906004016121f7565b60206040518083038186803b1580156116cd57600080fd5b505afa1580156116e1573d6000803e3d6000fd5b505050506040513d601f19601f820116820180604052508101906117059190612133565b600a546040516370a0823160e01b81526001600160a01b03909116906370a08231906117359030906004016121f7565b60206040518083038186803b15801561174d57600080fd5b505afa158015611761573d6000803e3d6000fd5b505050506040513d601f19601f820116820180604052508101906117859190612133565b600b546001600160701b0380821691600160701b900416611a2f565b6001600f55565b604080516001600160a01b038481166024830152604480830185905283518084039091018152606490920183526020820180516001600160e01b031663a9059cbb60e01b179052915160009283929087169161180491906121db565b6000604051808303816000865af19150503d8060008114611841576040519150601f19603f3d011682016040523d82523d6000602084013e611846565b606091505b50915091508180156118705750805115806118705750808060200190518101906118709190612113565b6118b95760405162461bcd60e51b815260206004820152601a602482015279155b9a5cddd85c158c8e881514905394d1915497d1905253115160321b604482015260640161048a565b5050505050565b600554600654604051630259287b60e41b81526001600160a01b039283169263259287b0926118f4929116906004016121f7565b602060405180830381600087803b15801561190e57600080fd5b505af1158015611922573d6000803e3d6000fd5b505050506040513d601f19601f820116820180604052508101906119469190612113565b50600554600754604051630259287b60e41b81526001600160a01b039283169263259287b09261197b929116906004016121f7565b602060405180830381600087803b15801561199557600080fd5b505af11580156119a9573d6000803e3d6000fd5b505050506040513d601f19601f820116820180604052508101906119cd9190612113565b506006546000906119e6906001600160a01b03166113d4565b600754909150600090611a01906001600160a01b03166113d4565b9050600382148015611a135750600381145b15610c1b576005805460ff60a01b1916600160a01b1790555050565b6001600160701b038411801590611a4d57506001600160701b038311155b611a8f5760405162461bcd60e51b8152602060048201526013602482015272556e697377617056323a204f564552464c4f5760681b604482015260640161048a565b6000611a9f600160201b426123b7565b600b5490915063ffffffff600160e01b9091048116820390811615801590611acf57506001600160701b03841615155b8015611ae357506001600160701b03831615155b15611b4e578063ffffffff16611b0b85611afc86611f95565b6001600160e01b031690611fae565b600c80546001600160e01b03929092169290920201905563ffffffff8116611b3684611afc87611f95565b600d80546001600160e01b0392909216929092020190555b50600b805463ffffffff8316600160e01b026001600160e01b036001600160701b03888116600160701b9081026001600160e01b03199095168b83161794909417918216831794859055604080519382169282169290921783529290930490911660208201527f1c411e9a96e071241c2f21f7726b17ae89e3cab4c78be50e062b03a9fffbbad1910160405180910390a15050505050565b6001600160a01b0383811660008181526002602090815260408083209487168084529482529182902085905590518481527f8c5be1e5ebec7d5bd14f71427d1e84f3dd0314c0f7b2291e5b200ac8c7c3b92591015b60405180910390a3505050565b6001600160a01b03831660009081526001602052604081208054839290611c70908490612355565b90915550506001600160a01b03821660009081526001602052604081208054839290611c9d9084906122b5565b92505081905550816001600160a01b0316836001600160a01b031660008051602061243083398151915283604051611c3b91815260200190565b600080600860009054906101000a90046001600160a01b03166001600160a01b031663017e7e586040518163ffffffff1660e01b815260040160206040518083038186803b158015611d2857600080fd5b505afa158015611d3c573d6000803e3d6000fd5b505050506040513d601f19601f82011682018060405250810190611d609190611fdf565b600e546001600160a01b038216158015945091925090611e11578015611e0c576000611d9b610dba6001600160701b03808816908916612336565b90506000611da883611e25565b905080821115611e09576000611dbe8284612355565b600054611dcb9190612336565b9050600082611ddb856005612336565b611de591906122b5565b90506000611df382846122f3565b90508015611e0557611e058782611e95565b5050505b50505b611e1d565b8015611e1d576000600e555b505092915050565b60006003821115611e865750806000611e3f6002836122f3565b611e4a9060016122b5565b90505b81811015611e8057905080600281611e6581866122f3565b611e6f91906122b5565b611e7991906122f3565b9050611e4d565b50919050565b8115611e90575060015b919050565b80600080828254611ea691906122b5565b90915550506001600160a01b03821660009081526001602052604081208054839290611ed39084906122b5565b90915550506040518181526001600160a01b03831690600090600080516020612430833981519152906020015b60405180910390a35050565b6000818310611f1b5781611f1d565b825b9392505050565b6001600160a01b03821660009081526001602052604081208054839290611f4c908490612355565b9250508190555080600080828254611f649190612355565b90915550506040518181526000906001600160a01b0384169060008051602061243083398151915290602001611f00565b6000611455600160701b6001600160701b038416612307565b6000611f1d6001600160701b038316846122cd565b600060208284031215611fd4578081fd5b8135611f1d816123f7565b600060208284031215611ff0578081fd5b8151611f1d816123f7565b6000806040838503121561200d578081fd5b8235612018816123f7565b91506020830135612028816123f7565b809150509250929050565b600080600060608486031215612047578081fd5b8335612052816123f7565b92506020840135612062816123f7565b929592945050506040919091013590565b600080600080600080600060e0888a03121561208d578283fd5b8735612098816123f7565b965060208801356120a8816123f7565b95506040880135945060608801359350608088013560ff811681146120cb578384fd5b9699959850939692959460a0840135945060c09093013592915050565b600080604083850312156120fa578182fd5b8235612105816123f7565b946020939093013593505050565b600060208284031215612124578081fd5b81518015158114611f1d578182fd5b600060208284031215612144578081fd5b5051919050565b600080600080600060808688031215612162578081fd5b8535945060208601359350604086013561217b816123f7565b925060608601356001600160401b0380821115612196578283fd5b818801915088601f8301126121a9578283fd5b8135818111156121b7578384fd5b8960208285010111156121c8578384fd5b9699959850939650602001949392505050565b600082516121ed81846020870161236c565b9190910192915050565b6001600160a01b0391909116815260200190565b60018060a01b038616815284602082015283604082015260806060820152816080820152818360a0830137600081830160a090810191909152601f909201601f19160101949350505050565b602081526000825180602084015261227681604085016020870161236c565b601f01601f19169190910160400192915050565b602080825260119082015270155b9a5cddd85c158c8e881313d0d2d151607a1b604082015260600190565b600082198211156122c8576122c86123cb565b500190565b60006001600160e01b03838116806122e7576122e76123e1565b92169190910492915050565b600082612302576123026123e1565b500490565b60006001600160e01b038281168482168115158284048211161561232d5761232d6123cb565b02949350505050565b6000816000190483118215151615612350576123506123cb565b500290565b600082821015612367576123676123cb565b500390565b60005b8381101561238757818101518382015260200161236f565b83811115612396576000848401525b50505050565b60006000198214156123b0576123b06123cb565b5060010190565b6000826123c6576123c66123e1565b500690565b634e487b7160e01b600052601160045260246000fd5b634e487b7160e01b600052601260045260246000fd5b6001600160a01b038116811461240c57600080fd5b5056fe556e697377617056323a20494e53554646494349454e545f4c49515549444954ddf252ad1be2c89b69c2b068fc378daa952ba7f163c4a11628f55a4df523b3ef6e71edae12b1b97f4d1f60370fef10105fa2faae0126114a169c64845d6126c9a2646970667358221220e043f52ea24dd527935efca221f506deddf9ee32f4f91f120adfb6f15204ab4764736f6c63430008040033",
  "linkReferences": {},
  "deployedLinkReferences": {}
}