{
    "contractName": "WrappedToken",
    "abi": [
        {
            "constant": true,
            "inputs": [],
            "name": "name",
            "outputs": [
                {
                    "name": "",
                    "type": "string"
                }
            ],
            "payable": false,
            "stateMutability": "view",
            "type": "function"
        },
        {
            "constant": false,
            "inputs": [
                {
                    "name": "spender",
                    "type": "address"
                },
                {
                    "name": "amount",
                    "type": "uint256"
                }
            ],
            "name": "approve",
            "outputs": [
                {
                    "name": "",
                    "type": "bool"
                }
            ],
            "payable": false,
            "stateMutability": "nonpayable",
            "type": "function"
        },
        {
            "constant": true,
            "inputs": [],
            "name": "totalSupply",
            "outputs": [
                {
                    "name": "",
                    "type": "uint256"
                }
            ],
            "payable": false,
            "stateMutability": "view",
            "type": "function"
        },
        {
            "constant": false,
            "inputs": [
                {
                    "name": "from",
                    "type": "address"
                },
                {
                    "name": "to",
                    "type": "address"
                },
                {
                    "name": "amount",
                    "type": "uint256"
                }
            ],
            "name": "transferFrom",
            "outputs": [
                {
                    "name": "",
                    "type": "bool"
                }
            ],
            "payable": false,
            "stateMutability": "nonpayable",
            "type": "function"
        },
        {
            "constant": true,
            "inputs": [
                {
                    "name": "_address",
                    "type": "address"
                }
            ],
            "name": "isAdmin",
            "outputs": [
                {
                    "name": "",
                    "type": "bool"
                }
            ],
            "payable": false,
            "stateMutability": "view",
            "type": "function"
        },
        {
            "constant": true,
            "inputs": [],
            "name": "decimals",
            "outputs": [
                {
                    "name": "",
                    "type": "uint8"
                }
            ],
            "payable": false,
            "stateMutability": "view",
            "type": "function"
        },
        {
            "constant": false,
            "inputs": [
                {
                    "name": "spender",
                    "type": "address"
                },
                {
                    "name": "addedValue",
                    "type": "uint256"
                }
            ],
            "name": "increaseAllowance",
            "outputs": [
                {
                    "name": "",
                    "type": "bool"
                }
            ],
            "payable": false,
            "stateMutability": "nonpayable",
            "type": "function"
        },
        {
            "constant": true,
            "inputs": [
                {
                    "name": "",
                    "type": "address"
                }
            ],
            "name": "isLocked",
            "outputs": [
                {
                    "name": "",
                    "type": "bool"
                }
            ],
            "payable": false,
            "stateMutability": "view",
            "type": "function"
        },
        {
            "constant": true,
            "inputs": [
                {
                    "name": "account",
                    "type": "address"
                }
            ],
            "name": "balanceOf",
            "outputs": [
                {
                    "name": "",
                    "type": "uint256"
                }
            ],
            "payable": false,
            "stateMutability": "view",
            "type": "function"
        },
        {
            "constant": false,
            "inputs": [
                {
                    "name": "unLockAddr",
                    "type": "address"
                }
            ],
            "name": "unLock",
            "outputs": [],
            "payable": false,
            "stateMutability": "nonpayable",
            "type": "function"
        },
        {
            "constant": true,
            "inputs": [],
            "name": "symbol",
            "outputs": [
                {
                    "name": "",
                    "type": "string"
                }
            ],
            "payable": false,
            "stateMutability": "view",
            "type": "function"
        },
        {
            "constant": false,
            "inputs": [
                {
                    "name": "spender",
                    "type": "address"
                },
                {
                    "name": "subtractedValue",
                    "type": "uint256"
                }
            ],
            "name": "decreaseAllowance",
            "outputs": [
                {
                    "name": "",
                    "type": "bool"
                }
            ],
            "payable": false,
            "stateMutability": "nonpayable",
            "type": "function"
        },
        {
            "constant": false,
            "inputs": [
                {
                    "name": "to",
                    "type": "address"
                },
                {
                    "name": "amount",
                    "type": "uint256"
                }
            ],
            "name": "transfer",
            "outputs": [
                {
                    "name": "",
                    "type": "bool"
                }
            ],
            "payable": false,
            "stateMutability": "nonpayable",
            "type": "function"
        },
        {
            "constant": true,
            "inputs": [
                {
                    "name": "owner",
                    "type": "address"
                },
                {
                    "name": "spender",
                    "type": "address"
                }
            ],
            "name": "allowance",
            "outputs": [
                {
                    "name": "",
                    "type": "uint256"
                }
            ],
            "payable": false,
            "stateMutability": "view",
            "type": "function"
        },
        {
            "constant": false,
            "inputs": [
                {
                    "name": "_address",
                    "type": "address"
                }
            ],
            "name": "updateAdmin",
            "outputs": [],
            "payable": false,
            "stateMutability": "nonpayable",
            "type": "function"
        },
        {
            "constant": false,
            "inputs": [
                {
                    "name": "lockAddr",
                    "type": "address"
                }
            ],
            "name": "lock",
            "outputs": [],
            "payable": false,
            "stateMutability": "nonpayable",
            "type": "function"
        },
        {
            "inputs": [
                {
                    "name": "_initAdmins",
                    "type": "address[]"
                },
                {
                    "name": "_initName",
                    "type": "string"
                },
                {
                    "name": "_initSymbol",
                    "type": "string"
                }
            ],
            "payable": false,
            "stateMutability": "nonpayable",
            "type": "constructor"
        },
        {
            "anonymous": false,
            "inputs": [
                {
                    "indexed": true,
                    "name": "_tokenHolder",
                    "type": "address"
                },
                {
                    "indexed": false,
                    "name": "_coinReceiver",
                    "type": "string"
                },
                {
                    "indexed": false,
                    "name": "_amount",
                    "type": "uint256"
                }
            ],
            "name": "BurnWrappedToken",
            "type": "event"
        },
        {
            "anonymous": false,
            "inputs": [
                {
                    "indexed": false,
                    "name": "_address",
                    "type": "address"
                },
                {
                    "indexed": false,
                    "name": "_isAdmin",
                    "type": "bool"
                }
            ],
            "name": "UpdateAdmin",
            "type": "event"
        },
        {
            "anonymous": false,
            "inputs": [
                {
                    "indexed": true,
                    "name": "from",
                    "type": "address"
                },
                {
                    "indexed": true,
                    "name": "to",
                    "type": "address"
                },
                {
                    "indexed": false,
                    "name": "value",
                    "type": "uint256"
                }
            ],
            "name": "Transfer",
            "type": "event"
        },
        {
            "anonymous": false,
            "inputs": [
                {
                    "indexed": true,
                    "name": "owner",
                    "type": "address"
                },
                {
                    "indexed": true,
                    "name": "spender",
                    "type": "address"
                },
                {
                    "indexed": false,
                    "name": "value",
                    "type": "uint256"
                }
            ],
            "name": "Approval",
            "type": "event"
        },
        {
            "constant": false,
            "inputs": [
                {
                    "name": "_tokenHolder",
                    "type": "address"
                },
                {
                    "name": "_amount",
                    "type": "uint256"
                }
            ],
            "name": "mint",
            "outputs": [],
            "payable": false,
            "stateMutability": "nonpayable",
            "type": "function"
        },
        {
            "constant": false,
            "inputs": [
                {
                    "name": "_amount",
                    "type": "uint256"
                },
                {
                    "name": "_coinReceiver",
                    "type": "string"
                }
            ],
            "name": "burn",
            "outputs": [],
            "payable": false,
            "stateMutability": "nonpayable",
            "type": "function"
        }
    ],
    "bytecode": "0x6080604052730dafce56c6682ab1f8ddd5700a77c6bbe87865e8600660006101000a81548173ffffffffffffffffffffffffffffffffffffffff021916908373ffffffffffffffffffffffffffffffffffffffff160217905550738b8fc5cbf7b482369ce326983e5b872a52136aec600760006101000a81548173ffffffffffffffffffffffffffffffffffffffff021916908373ffffffffffffffffffffffffffffffffffffffff1602179055506012600a60006101000a81548160ff021916908360ff160217905550348015620000d757600080fd5b50604051620028a4380380620028a483398101806040526060811015620000fd57600080fd5b8101908080516401000000008111156200011657600080fd5b828101905060208101848111156200012d57600080fd5b81518560208202830111640100000000821117156200014b57600080fd5b505092919060200180516401000000008111156200016857600080fd5b828101905060208101848111156200017f57600080fd5b81518560018202830111640100000000821117156200019d57600080fd5b50509291906020018051640100000000811115620001ba57600080fd5b82810190506020810184811115620001d157600080fd5b8151856001820283011164010000000082111715620001ef57600080fd5b50509291905050508280737796041e39a7451025d58a94b186452ea725b542600360006101000a81548173ffffffffffffffffffffffffffffffffffffffff021916908373ffffffffffffffffffffffffffffffffffffffff16021790555060008151905060008090505b81811015620002a3576200029583828151811015156200027657fe5b9060200190602002015162000453640100000000026401000000009004565b80806001019150506200025a565b505050508160089080519060200190620002bf92919062000570565b508060099080519060200190620002d892919062000570565b50620002e3620005f7565b6040805190810160405280600760009054906101000a900473ffffffffffffffffffffffffffffffffffffffff1673ffffffffffffffffffffffffffffffffffffffff1673ffffffffffffffffffffffffffffffffffffffff1681526020013073ffffffffffffffffffffffffffffffffffffffff1673ffffffffffffffffffffffffffffffffffffffff168152509050600660009054906101000a900473ffffffffffffffffffffffffffffffffffffffff1673ffffffffffffffffffffffffffffffffffffffff1663472b2efa826040518263ffffffff167c01000000000000000000000000000000000000000000000000000000000281526004018082600260200280838360005b838110156200040b578082015181840152602081019050620003ee565b50505050905001915050600060405180830381600087803b1580156200043057600080fd5b505af115801562000445573d6000803e3d6000fd5b505050505050505062000641565b6000600460008373ffffffffffffffffffffffffffffffffffffffff1673ffffffffffffffffffffffffffffffffffffffff16815260200190815260200160002060009054906101000a900460ff1690508015600460008473ffffffffffffffffffffffffffffffffffffffff1673ffffffffffffffffffffffffffffffffffffffff16815260200190815260200160002060006101000a81548160ff0219169083151502179055507fae0a768e1f5a7943e3f1bb8a4d503c6fbfea4c9bbbded6b463e48bebd28ef725828215604051808373ffffffffffffffffffffffffffffffffffffffff1673ffffffffffffffffffffffffffffffffffffffff168152602001821515151581526020019250505060405180910390a15050565b828054600181600116156101000203166002900490600052602060002090601f016020900481019282601f10620005b357805160ff1916838001178555620005e4565b82800160010185558215620005e4579182015b82811115620005e3578251825591602001919060010190620005c6565b5b509050620005f3919062000619565b5090565b6040805190810160405280600290602082028038833980820191505090505090565b6200063e91905b808211156200063a57600081600090555060010162000620565b5090565b90565b61225380620006516000396000f3fe6080604052600436106100fc576000357c0100000000000000000000000000000000000000000000000000000000900463ffffffff16806306fdde0314610101578063095ea7b31461019157806318160ddd1461020457806323b872dd1461022f57806324d7806c146102c2578063313ce5671461032b578063395093511461035c57806340c10f19146103cf5780634a4fbeec1461042a57806370a08231146104935780637641e6f3146104f857806376e6d2b4146105ca57806395d89b411461061b578063a457c2d7146106ab578063a9059cbb1461071e578063dd62ed3e14610791578063e2f273bd14610816578063f435f5a714610867575b600080fd5b34801561010d57600080fd5b506101166108b8565b6040518080602001828103825283818151815260200191508051906020019080838360005b8381101561015657808201518184015260208101905061013b565b50505050905090810190601f1680156101835780820380516001836020036101000a031916815260200191505b509250505060405180910390f35b34801561019d57600080fd5b506101ea600480360360408110156101b457600080fd5b81019080803573ffffffffffffffffffffffffffffffffffffffff16906020019092919080359060200190929190505050610956565b604051808215151515815260200191505060405180910390f35b34801561021057600080fd5b50610219610974565b6040518082815260200191505060405180910390f35b34801561023b57600080fd5b506102a86004803603606081101561025257600080fd5b81019080803573ffffffffffffffffffffffffffffffffffffffff169060200190929190803573ffffffffffffffffffffffffffffffffffffffff1690602001909291908035906020019092919050505061097e565b604051808215151515815260200191505060405180910390f35b3480156102ce57600080fd5b50610311600480360360208110156102e557600080fd5b81019080803573ffffffffffffffffffffffffffffffffffffffff169060200190929190505050610a56565b604051808215151515815260200191505060405180910390f35b34801561033757600080fd5b50610340610aac565b604051808260ff1660ff16815260200191505060405180910390f35b34801561036857600080fd5b506103b56004803603604081101561037f57600080fd5b81019080803573ffffffffffffffffffffffffffffffffffffffff16906020019092919080359060200190929190505050610abf565b604051808215151515815260200191505060405180910390f35b3480156103db57600080fd5b50610428600480360360408110156103f257600080fd5b81019080803573ffffffffffffffffffffffffffffffffffffffff16906020019092919080359060200190929190505050610b72565b005b34801561043657600080fd5b506104796004803603602081101561044d57600080fd5b81019080803573ffffffffffffffffffffffffffffffffffffffff169060200190929190505050610c43565b604051808215151515815260200191505060405180910390f35b34801561049f57600080fd5b506104e2600480360360208110156104b657600080fd5b81019080803573ffffffffffffffffffffffffffffffffffffffff169060200190929190505050610c63565b6040518082815260200191505060405180910390f35b34801561050457600080fd5b506105c86004803603604081101561051b57600080fd5b81019080803590602001909291908035906020019064010000000081111561054257600080fd5b82018360208201111561055457600080fd5b8035906020019184600183028401116401000000008311171561057657600080fd5b91908080601f016020809104026020016040519081016040528093929190818152602001838380828437600081840152601f19601f820116905080830192505050505050509192919290505050610cab565b005b3480156105d657600080fd5b50610619600480360360208110156105ed57600080fd5b81019080803573ffffffffffffffffffffffffffffffffffffffff169060200190929190505050610e3e565b005b34801561062757600080fd5b50610630610f81565b6040518080602001828103825283818151815260200191508051906020019080838360005b83811015610670578082015181840152602081019050610655565b50505050905090810190601f16801561069d5780820380516001836020036101000a031916815260200191505b509250505060405180910390f35b3480156106b757600080fd5b50610704600480360360408110156106ce57600080fd5b81019080803573ffffffffffffffffffffffffffffffffffffffff1690602001909291908035906020019092919050505061101f565b604051808215151515815260200191505060405180910390f35b34801561072a57600080fd5b506107776004803603604081101561074157600080fd5b81019080803573ffffffffffffffffffffffffffffffffffffffff16906020019092919080359060200190929190505050611130565b604051808215151515815260200191505060405180910390f35b34801561079d57600080fd5b50610800600480360360408110156107b457600080fd5b81019080803573ffffffffffffffffffffffffffffffffffffffff169060200190929190803573ffffffffffffffffffffffffffffffffffffffff169060200190929190505050611207565b6040518082815260200191505060405180910390f35b34801561082257600080fd5b506108656004803603602081101561083957600080fd5b81019080803573ffffffffffffffffffffffffffffffffffffffff16906020019092919050505061128e565b005b34801561087357600080fd5b506108b66004803603602081101561088a57600080fd5b81019080803573ffffffffffffffffffffffffffffffffffffffff169060200190929190505050611361565b005b60088054600181600116156101000203166002900480601f01602080910402602001604051908101604052809291908181526020018280546001816001161561010002031660029004801561094e5780601f106109235761010080835404028352916020019161094e565b820191906000526020600020905b81548152906001019060200180831161093157829003601f168201915b505050505081565b600061096a6109636114a4565b84846114ac565b6001905092915050565b6000600254905090565b600083600560008273ffffffffffffffffffffffffffffffffffffffff1673ffffffffffffffffffffffffffffffffffffffff16815260200190815260200160002060009054906101000a900460ff16151515610a43576040517f08c379a000000000000000000000000000000000000000000000000000000000815260040180806020018281038252601f8152602001807f4c6f636b65642d616464722d63616e2d6e6f742d74616b652d616374696f6e0081525060200191505060405180910390fd5b610a4e85858561172d565b509392505050565b6000600460008373ffffffffffffffffffffffffffffffffffffffff1673ffffffffffffffffffffffffffffffffffffffff16815260200190815260200160002060009054906101000a900460ff169050919050565b600a60009054906101000a900460ff1681565b6000610b68610acc6114a4565b84610b638560016000610add6114a4565b73ffffffffffffffffffffffffffffffffffffffff1673ffffffffffffffffffffffffffffffffffffffff16815260200190815260200160002060008973ffffffffffffffffffffffffffffffffffffffff1673ffffffffffffffffffffffffffffffffffffffff16815260200190815260200160002054611ab190919063ffffffff16565b6114ac565b6001905092915050565b33600460008273ffffffffffffffffffffffffffffffffffffffff1673ffffffffffffffffffffffffffffffffffffffff16815260200190815260200160002060009054906101000a900460ff161515610c34576040517f08c379a000000000000000000000000000000000000000000000000000000000815260040180806020018281038252600d8152602001807f6973206e6f742061646d696e210000000000000000000000000000000000000081525060200191505060405180910390fd5b610c3e8383611b3b565b505050565b60056020528060005260406000206000915054906101000a900460ff1681565b60008060008373ffffffffffffffffffffffffffffffffffffffff1673ffffffffffffffffffffffffffffffffffffffff168152602001908152602001600020549050919050565b33600560008273ffffffffffffffffffffffffffffffffffffffff1673ffffffffffffffffffffffffffffffffffffffff16815260200190815260200160002060009054906101000a900460ff16151515610d6e576040517f08c379a000000000000000000000000000000000000000000000000000000000815260040180806020018281038252601f8152602001807f4c6f636b65642d616464722d63616e2d6e6f742d74616b652d616374696f6e0081525060200191505060405180910390fd5b6000339050610d7d8185611cf8565b8073ffffffffffffffffffffffffffffffffffffffff167f73aca061bd0976f3108f92b354ed6e7804da01ef03ee8a657f4ba164bb62dbd784866040518080602001838152602001828103825284818151815260200191508051906020019080838360005b83811015610dfd578082015181840152602081019050610de2565b50505050905090810190601f168015610e2a5780820380516001836020036101000a031916815260200191505b50935050505060405180910390a250505050565b33600460008273ffffffffffffffffffffffffffffffffffffffff1673ffffffffffffffffffffffffffffffffffffffff16815260200190815260200160002060009054906101000a900460ff161515610f00576040517f08c379a000000000000000000000000000000000000000000000000000000000815260040180806020018281038252600d8152602001807f6973206e6f742061646d696e210000000000000000000000000000000000000081525060200191505060405180910390fd5b610f0982611f39565b1515610f7d576040517f08c379a00000000000000000000000000000000000000000000000000000000081526004018080602001828103825260188152602001807f4661696c65642d746f2d756e6c6f636b2d61646472657373000000000000000081525060200191505060405180910390fd5b5050565b60098054600181600116156101000203166002900480601f0160208091040260200160405190810160405280929190818152602001828054600181600116156101000203166002900480156110175780601f10610fec57610100808354040283529160200191611017565b820191906000526020600020905b815481529060010190602001808311610ffa57829003601f168201915b505050505081565b600061112661102c6114a4565b8461112185606060405190810160405280602581526020017f45524332303a2064656372656173656420616c6c6f77616e63652062656c6f7781526020017f207a65726f0000000000000000000000000000000000000000000000000000008152506001600061109a6114a4565b73ffffffffffffffffffffffffffffffffffffffff1673ffffffffffffffffffffffffffffffffffffffff16815260200190815260200160002060008a73ffffffffffffffffffffffffffffffffffffffff1673ffffffffffffffffffffffffffffffffffffffff16815260200190815260200160002054611f9b9092919063ffffffff16565b6114ac565b6001905092915050565b600033600560008273ffffffffffffffffffffffffffffffffffffffff1673ffffffffffffffffffffffffffffffffffffffff16815260200190815260200160002060009054906101000a900460ff161515156111f5576040517f08c379a000000000000000000000000000000000000000000000000000000000815260040180806020018281038252601f8152602001807f4c6f636b65642d616464722d63616e2d6e6f742d74616b652d616374696f6e0081525060200191505060405180910390fd5b61120033858561172d565b5092915050565b6000600160008473ffffffffffffffffffffffffffffffffffffffff1673ffffffffffffffffffffffffffffffffffffffff16815260200190815260200160002060008373ffffffffffffffffffffffffffffffffffffffff1673ffffffffffffffffffffffffffffffffffffffff16815260200190815260200160002054905092915050565b33600360009054906101000a900473ffffffffffffffffffffffffffffffffffffffff1673ffffffffffffffffffffffffffffffffffffffff168173ffffffffffffffffffffffffffffffffffffffff16141515611354576040517f08c379a00000000000000000000000000000000000000000000000000000000081526004018080602001828103825260138152602001807f6973206e6f742073757065722061646d696e210000000000000000000000000081525060200191505060405180910390fd5b61135d8261205d565b5050565b33600460008273ffffffffffffffffffffffffffffffffffffffff1673ffffffffffffffffffffffffffffffffffffffff16815260200190815260200160002060009054906101000a900460ff161515611423576040517f08c379a000000000000000000000000000000000000000000000000000000000815260040180806020018281038252600d8152602001807f6973206e6f742061646d696e210000000000000000000000000000000000000081525060200191505060405180910390fd5b61142c8261217a565b15156114a0576040517f08c379a00000000000000000000000000000000000000000000000000000000081526004018080602001828103825260168152602001807f4661696c65642d746f2d6c6f636b2d616464726573730000000000000000000081525060200191505060405180910390fd5b5050565b600033905090565b600073ffffffffffffffffffffffffffffffffffffffff168373ffffffffffffffffffffffffffffffffffffffff1614151515611577576040517f08c379a00000000000000000000000000000000000000000000000000000000081526004018080602001828103825260248152602001807f45524332303a20617070726f76652066726f6d20746865207a65726f2061646481526020017f726573730000000000000000000000000000000000000000000000000000000081525060400191505060405180910390fd5b600073ffffffffffffffffffffffffffffffffffffffff168273ffffffffffffffffffffffffffffffffffffffff1614151515611642576040517f08c379a00000000000000000000000000000000000000000000000000000000081526004018080602001828103825260228152602001807f45524332303a20617070726f766520746f20746865207a65726f20616464726581526020017f737300000000000000000000000000000000000000000000000000000000000081525060400191505060405180910390fd5b80600160008573ffffffffffffffffffffffffffffffffffffffff1673ffffffffffffffffffffffffffffffffffffffff16815260200190815260200160002060008473ffffffffffffffffffffffffffffffffffffffff1673ffffffffffffffffffffffffffffffffffffffff168152602001908152602001600020819055508173ffffffffffffffffffffffffffffffffffffffff168373ffffffffffffffffffffffffffffffffffffffff167f8c5be1e5ebec7d5bd14f71427d1e84f3dd0314c0f7b2291e5b200ac8c7c3b925836040518082815260200191505060405180910390a3505050565b600073ffffffffffffffffffffffffffffffffffffffff168373ffffffffffffffffffffffffffffffffffffffff16141515156117f8576040517f08c379a00000000000000000000000000000000000000000000000000000000081526004018080602001828103825260258152602001807f45524332303a207472616e736665722066726f6d20746865207a65726f20616481526020017f647265737300000000000000000000000000000000000000000000000000000081525060400191505060405180910390fd5b600073ffffffffffffffffffffffffffffffffffffffff168273ffffffffffffffffffffffffffffffffffffffff16141515156118c3576040517f08c379a00000000000000000000000000000000000000000000000000000000081526004018080602001828103825260238152602001807f45524332303a207472616e7366657220746f20746865207a65726f206164647281526020017f657373000000000000000000000000000000000000000000000000000000000081525060400191505060405180910390fd5b61197281606060405190810160405280602681526020017f45524332303a207472616e7366657220616d6f756e742065786365656473206281526020017f616c616e636500000000000000000000000000000000000000000000000000008152506000808773ffffffffffffffffffffffffffffffffffffffff1673ffffffffffffffffffffffffffffffffffffffff16815260200190815260200160002054611f9b9092919063ffffffff16565b6000808573ffffffffffffffffffffffffffffffffffffffff1673ffffffffffffffffffffffffffffffffffffffff16815260200190815260200160002081905550611a05816000808573ffffffffffffffffffffffffffffffffffffffff1673ffffffffffffffffffffffffffffffffffffffff16815260200190815260200160002054611ab190919063ffffffff16565b6000808473ffffffffffffffffffffffffffffffffffffffff1673ffffffffffffffffffffffffffffffffffffffff168152602001908152602001600020819055508173ffffffffffffffffffffffffffffffffffffffff168373ffffffffffffffffffffffffffffffffffffffff167fddf252ad1be2c89b69c2b068fc378daa952ba7f163c4a11628f55a4df523b3ef836040518082815260200191505060405180910390a3505050565b6000808284019050838110151515611b31576040517f08c379a000000000000000000000000000000000000000000000000000000000815260040180806020018281038252601b8152602001807f536166654d6174683a206164646974696f6e206f766572666c6f77000000000081525060200191505060405180910390fd5b8091505092915050565b600073ffffffffffffffffffffffffffffffffffffffff168273ffffffffffffffffffffffffffffffffffffffff1614151515611be0576040517f08c379a000000000000000000000000000000000000000000000000000000000815260040180806020018281038252601f8152602001807f45524332303a206d696e7420746f20746865207a65726f20616464726573730081525060200191505060405180910390fd5b611bf581600254611ab190919063ffffffff16565b600281905550611c4c816000808573ffffffffffffffffffffffffffffffffffffffff1673ffffffffffffffffffffffffffffffffffffffff16815260200190815260200160002054611ab190919063ffffffff16565b6000808473ffffffffffffffffffffffffffffffffffffffff1673ffffffffffffffffffffffffffffffffffffffff168152602001908152602001600020819055508173ffffffffffffffffffffffffffffffffffffffff16600073ffffffffffffffffffffffffffffffffffffffff167fddf252ad1be2c89b69c2b068fc378daa952ba7f163c4a11628f55a4df523b3ef836040518082815260200191505060405180910390a35050565b600073ffffffffffffffffffffffffffffffffffffffff168273ffffffffffffffffffffffffffffffffffffffff1614151515611dc3576040517f08c379a00000000000000000000000000000000000000000000000000000000081526004018080602001828103825260218152602001807f45524332303a206275726e2066726f6d20746865207a65726f2061646472657381526020017f730000000000000000000000000000000000000000000000000000000000000081525060400191505060405180910390fd5b611e7281606060405190810160405280602281526020017f45524332303a206275726e20616d6f756e7420657863656564732062616c616e81526020017f63650000000000000000000000000000000000000000000000000000000000008152506000808673ffffffffffffffffffffffffffffffffffffffff1673ffffffffffffffffffffffffffffffffffffffff16815260200190815260200160002054611f9b9092919063ffffffff16565b6000808473ffffffffffffffffffffffffffffffffffffffff1673ffffffffffffffffffffffffffffffffffffffff16815260200190815260200160002081905550611ec9816002546121dd90919063ffffffff16565b600281905550600073ffffffffffffffffffffffffffffffffffffffff168273ffffffffffffffffffffffffffffffffffffffff167fddf252ad1be2c89b69c2b068fc378daa952ba7f163c4a11628f55a4df523b3ef836040518082815260200191505060405180910390a35050565b600080600560008473ffffffffffffffffffffffffffffffffffffffff1673ffffffffffffffffffffffffffffffffffffffff16815260200190815260200160002060006101000a81548160ff02191690831515021790555060019050919050565b6000838311158290151561204a576040517f08c379a00000000000000000000000000000000000000000000000000000000081526004018080602001828103825283818151815260200191508051906020019080838360005b8381101561200f578082015181840152602081019050611ff4565b50505050905090810190601f16801561203c5780820380516001836020036101000a031916815260200191505b509250505060405180910390fd5b5060008385039050809150509392505050565b6000600460008373ffffffffffffffffffffffffffffffffffffffff1673ffffffffffffffffffffffffffffffffffffffff16815260200190815260200160002060009054906101000a900460ff1690508015600460008473ffffffffffffffffffffffffffffffffffffffff1673ffffffffffffffffffffffffffffffffffffffff16815260200190815260200160002060006101000a81548160ff0219169083151502179055507fae0a768e1f5a7943e3f1bb8a4d503c6fbfea4c9bbbded6b463e48bebd28ef725828215604051808373ffffffffffffffffffffffffffffffffffffffff1673ffffffffffffffffffffffffffffffffffffffff168152602001821515151581526020019250505060405180910390a15050565b60006001600560008473ffffffffffffffffffffffffffffffffffffffff1673ffffffffffffffffffffffffffffffffffffffff16815260200190815260200160002060006101000a81548160ff02191690831515021790555060019050919050565b600061221f83836040805190810160405280601e81526020017f536166654d6174683a207375627472616374696f6e206f766572666c6f770000815250611f9b565b90509291505056fea165627a7a72305820d5d5e4f61d91b9d587a9118765891b8baff0e788b8df6ef1b3c61f2a1db981580029",
    "source": "pragma solidity 0.5.0;\r\n\r\nimport \"openzeppelin-solidity/contracts/token/ERC20/ERC20.sol\";\r\n\r\ncontract Admin {\r\n    modifier onlySuperAdmin(\r\n        address _address\r\n    )\r\n    {\r\n        require(\r\n            _address == _superAdmin,\r\n            \"is not super admin!\"\r\n        );\r\n        _;\r\n    }\r\n\r\n    modifier onlyAdmin(\r\n        address _address\r\n    )\r\n    {\r\n        require(\r\n            _isAdmin[_address],\r\n            \"is not admin!\"\r\n        );\r\n        _;\r\n    }\r\n\r\n    event UpdateAdmin(\r\n        address _address,\r\n        bool _isAdmin\r\n    );\r\n\r\n    address private _superAdmin ;\r\n    mapping(address => bool) private _isAdmin;\r\n    /*\r\n        Constructor\r\n    */\r\n    constructor (\r\n        address[] memory _initAdmins\r\n    ) public {\r\n        _superAdmin = address(0x7796041E39A7451025D58a94B186452Ea725B542);\r\n        uint n = _initAdmins.length;\r\n        for(uint i = 0; i < n; i++) {\r\n            _updateAdmin(_initAdmins[i]);\r\n        }\r\n    }\r\n\r\n    function _updateAdmin(\r\n        address _address\r\n    )\r\n        internal\r\n    {\r\n        bool isAdmin = _isAdmin[_address];\r\n        _isAdmin[_address] = !isAdmin;\r\n        emit UpdateAdmin(_address, !isAdmin);\r\n    }\r\n\r\n    /*\r\n        Super Admin Send Functions\r\n    */\r\n\r\n    function updateAdmin(\r\n        address _address\r\n    )\r\n        public\r\n        onlySuperAdmin(msg.sender)\r\n    {\r\n        _updateAdmin(_address);\r\n    }\r\n\r\n    // Public Call Functions\r\n\r\n    function isAdmin(\r\n        address _address\r\n    )\r\n        public\r\n        view\r\n        returns(bool)\r\n    {\r\n        return _isAdmin[_address];\r\n    }\r\n}\r\n\r\ncontract LockableErc20 is ERC20, Admin {\r\n    modifier notLockedAddr(address addr) {\r\n        require(!isLocked[addr], \"Locked-addr-can-not-take-action\");\r\n        _;\r\n    }\r\n\r\n    mapping (address => bool) public isLocked;\r\n\r\n    constructor (\r\n        address[] memory _initAdmins\r\n    )\r\n        public\r\n        Admin(_initAdmins)\r\n    {\r\n    }\r\n\r\n    function _lock(address _lockAddr) private returns (bool) {\r\n        isLocked[_lockAddr] = true;\r\n        return true;\r\n    }\r\n\r\n    function lock(address lockAddr) public onlyAdmin(msg.sender) {\r\n        require(_lock(lockAddr), \"Failed-to-lock-address\");\r\n    }\r\n\r\n    function _unLock(address _unLockAddr) private returns (bool) {\r\n        isLocked[_unLockAddr] = false;\r\n        return true;\r\n    }\r\n\r\n    function unLock(address unLockAddr) public onlyAdmin(msg.sender) {\r\n        require(_unLock(unLockAddr), \"Failed-to-unlock-address\");\r\n    }\r\n\r\n    // Override transfer\r\n    function transfer(address to, uint amount)\r\n        public\r\n        notLockedAddr(msg.sender)\r\n        returns (bool) {\r\n        _transfer(msg.sender, to, amount);\r\n    }\r\n    // Override transferFrom\r\n    function transferFrom(address from, address to, uint amount)\r\n        public\r\n        notLockedAddr(from)\r\n        returns (bool) {\r\n        _transfer(from, to, amount);\r\n    }\r\n}\r\n\r\ninterface Dex {\r\n    function initBooks(\r\n        address[2] calldata _tokens\r\n    )\r\n        external;\r\n}\r\n\r\ncontract WrappedToken is LockableErc20 {\r\n    event BurnWrappedToken(\r\n        address indexed _tokenHolder,\r\n        string _coinReceiver,\r\n        uint _amount\r\n    );\r\n\r\n    address private dexAddress = 0x0daFce56c6682AB1f8DdD5700A77c6BbE87865e8;\r\n    address private drkTokenAddress = 0x8B8FC5CBf7B482369CE326983E5b872a52136Aec;\r\n\r\n    string public name;\r\n    string public symbol;\r\n    uint8 public decimals = 18;\r\n\r\n    constructor (\r\n        address[] memory _initAdmins,\r\n        string memory _initName,\r\n        string memory _initSymbol\r\n    )\r\n        public\r\n        LockableErc20(_initAdmins)\r\n    {\r\n        name = _initName;\r\n        symbol = _initSymbol;\r\n        address[2] memory _tokens = [drkTokenAddress, address(this)];\r\n        Dex(dexAddress).initBooks(_tokens);\r\n    }\r\n\r\n    function mint(\r\n        address _tokenHolder,\r\n        uint _amount\r\n    )\r\n        public\r\n        onlyAdmin(msg.sender)\r\n    {\r\n        _mint(_tokenHolder, _amount);\r\n    }\r\n\r\n    function burn(\r\n        uint _amount,\r\n        string memory _coinReceiver\r\n    )\r\n        public\r\n        notLockedAddr(msg.sender)\r\n    {\r\n        address sender = msg.sender;\r\n        _burn(sender, _amount);\r\n        emit BurnWrappedToken(sender, _coinReceiver, _amount);\r\n    }\r\n}",
    "sourcePath": "C:/Users/bestb/Desktop/DEntwickler/RetDex/wrapped/contracts/WrappedToken.sol",
    "compiler": {
        "name": "solc",
        "version": "0.5.0+commit.1d4f565a.Emscripten.clang"
    },
    "schemaVersion": "3.2.4",
    "updatedAt": "2020-08-29T17:19:01.127Z",
    "networkType": "ethereum",
    "devdoc": {
        "methods": {
            "allowance(address,address)": {
                "details": "See {IERC20-allowance}."
            },
            "approve(address,uint256)": {
                "details": "See {IERC20-approve}.     * Requirements:     * - `spender` cannot be the zero address."
            },
            "balanceOf(address)": {
                "details": "See {IERC20-balanceOf}."
            },
            "decreaseAllowance(address,uint256)": {
                "details": "Atomically decreases the allowance granted to `spender` by the caller.     * This is an alternative to {approve} that can be used as a mitigation for problems described in {IERC20-approve}.     * Emits an {Approval} event indicating the updated allowance.     * Requirements:     * - `spender` cannot be the zero address. - `spender` must have allowance for the caller of at least `subtractedValue`."
            },
            "increaseAllowance(address,uint256)": {
                "details": "Atomically increases the allowance granted to `spender` by the caller.     * This is an alternative to {approve} that can be used as a mitigation for problems described in {IERC20-approve}.     * Emits an {Approval} event indicating the updated allowance.     * Requirements:     * - `spender` cannot be the zero address."
            },
            "totalSupply()": {
                "details": "See {IERC20-totalSupply}."
            }
        }
    },
    "userdoc": {
        "methods": {}
    }
}